{"abi":[{"type":"constructor","inputs":[{"name":"_usdc","type":"address","internalType":"address"}],"stateMutability":"nonpayable"},{"type":"function","name":"INITIAL_PRICE","inputs":[],"outputs":[{"name":"","type":"uint256","internalType":"uint256"}],"stateMutability":"view"},{"type":"function","name":"USDC","inputs":[],"outputs":[{"name":"","type":"address","internalType":"contract IERC20"}],"stateMutability":"view"},{"type":"function","name":"calculatePnL","inputs":[{"name":"user","type":"address","internalType":"address"}],"outputs":[{"name":"","type":"int256","internalType":"int256"}],"stateMutability":"view"},{"type":"function","name":"closePosition","inputs":[],"outputs":[],"stateMutability":"nonpayable"},{"type":"function","name":"currentPrice","inputs":[],"outputs":[{"name":"","type":"uint256","internalType":"uint256"}],"stateMutability":"view"},{"type":"function","name":"liquidatePosition","inputs":[{"name":"_user","type":"address","internalType":"address"}],"outputs":[],"stateMutability":"nonpayable"},{"type":"function","name":"openPosition","inputs":[{"name":"_margin","type":"uint256","internalType":"uint256"},{"name":"level","type":"uint256","internalType":"uint256"},{"name":"long","type":"bool","internalType":"bool"}],"outputs":[],"stateMutability":"nonpayable"},{"type":"function","name":"positions","inputs":[{"name":"","type":"address","internalType":"address"}],"outputs":[{"name":"margin","type":"uint256","internalType":"uint256"},{"name":"borrowed","type":"uint256","internalType":"uint256"},{"name":"position","type":"uint8","internalType":"enum SimpleLeverageDEX.Position"},{"name":"level","type":"uint256","internalType":"uint256"}],"stateMutability":"view"},{"type":"function","name":"setPrice","inputs":[{"name":"newPrice","type":"uint256","internalType":"uint256"}],"outputs":[],"stateMutability":"nonpayable"}],"bytecode":{"object":"0x6080604052683635c9adc5dea0000060025534801561001c575f80fd5b506040516108d23803806108d283398101604081905261003b9161005f565b5f80546001600160a01b0319166001600160a01b039290921691909117905561008c565b5f6020828403121561006f575f80fd5b81516001600160a01b0381168114610085575f80fd5b9392505050565b610839806100995f395ff3fe608060405234801561000f575f80fd5b5060043610610090575f3560e01c806389a302711161006357806389a302711461012b57806391b7f5ed146101555780639d1b464a14610168578063c393d0e314610171578063f8f8bb4b14610179575f80fd5b80631558c9661461009457806355f57510146100a95780637498a0f0146100fa5780637c5e27951461010d575b5f80fd5b6100a76100a2366004610664565b61018c565b005b6100e16100b736600461069a565b600160208190525f91825260409091208054918101546002820154600390920154909160ff169084565b6040516100f194939291906106db565b60405180910390f35b6100a761010836600461069a565b6102e3565b61011d683635c9adc5dea0000081565b6040519081526020016100f1565b5f5461013d906001600160a01b031681565b6040516001600160a01b0390911681526020016100f1565b6100a7610163366004610717565b600255565b61011d60025481565b6100a76103a0565b61011d61018736600461069a565b6104e9565b335f90815260016020526040812060029081015460ff16908111156101b3576101b36106c7565b146101fd5760405162461bcd60e51b81526020600482015260156024820152742837b9b4ba34b7b71030b63932b0b23c9037b832b760591b60448201526064015b60405180910390fd5b335f81815260016020526040808220915490516323b872dd60e01b815260048101939093523060248401526044830186905290916001600160a01b03909116906323b872dd906064016020604051808303815f875af1158015610262573d5f803e3d5ffd5b505050506040513d601f19601f82011682018060405250810190610286919061072e565b505f610292848661075d565b90505f61029f868361077a565b86845560018401819055905083156102c55760028301805460ff191660011790556102d6565b6002838101805460ff191690911790555b5050600301919091555050565b6001600160a01b0381165f9081526001602052604081209060028083015460ff1690811115610314576103146106c7565b036103315760405162461bcd60e51b81526004016101f49061078d565b5f61033b836104e9565b825490915060649061034e90605061075d565b61035891906107b7565b610361906107d6565b81121561039b576001600160a01b0383165f908152600160208190526040822082815590810182905560028101805460ff19169055600301555b505050565b335f9081526001602052604081209060028083015460ff16908111156103c8576103c86106c7565b036103e55760405162461bcd60e51b81526004016101f49061078d565b5f6103ef336104e9565b82549091505f82131561040d5761040682826107f0565b9050610442565b5f821215610442575f61041f836107d6565b8454909150811115610433575f9150610440565b61043d818361077a565b91505b505b80156104bb575f5460405163a9059cbb60e01b8152336004820152602481018390526001600160a01b039091169063a9059cbb906044016020604051808303815f875af1158015610495573d5f803e3d5ffd5b505050506040513d601f19601f820116820180604052508101906104b9919061072e565b505b5050335f908152600160208190526040822082815590810182905560028101805460ff191690556003015550565b6001600160a01b0381165f9081526001602052604081208160028083015460ff169081111561051a5761051a6106c7565b036105375760405162461bcd60e51b81526004016101f49061078d565b683635c9adc5dea000005f600160028085015460ff169081111561055d5761055d6106c7565b036105ee5781600254106105ac575f8260025461057a919061077a565b9050828460010154855f015461059091906107f0565b61059a908361075d565b6105a491906107b7565b91505061064c565b5f600254836105bb919061077a565b9050828460010154855f01546105d191906107f0565b6105db908361075d565b6105e591906107b7565b6105a4906107d6565b8160025411610606575f6002548361057a919061077a565b5f82600254610615919061077a565b9050828460010154855f015461062b91906107f0565b610635908361075d565b61063f91906107b7565b610648906107d6565b9150505b949350505050565b8015158114610661575f80fd5b50565b5f805f60608486031215610676575f80fd5b8335925060208401359150604084013561068f81610654565b809150509250925092565b5f602082840312156106aa575f80fd5b81356001600160a01b03811681146106c0575f80fd5b9392505050565b634e487b7160e01b5f52602160045260245ffd5b84815260208101849052608081016003841061070557634e487b7160e01b5f52602160045260245ffd5b60408201939093526060015292915050565b5f60208284031215610727575f80fd5b5035919050565b5f6020828403121561073e575f80fd5b81516106c081610654565b634e487b7160e01b5f52601160045260245ffd5b808202811582820484141761077457610774610749565b92915050565b8181038181111561077457610774610749565b60208082526010908201526f27379037b832b7103837b9b4ba34b7b760811b604082015260600190565b5f826107d157634e487b7160e01b5f52601260045260245ffd5b500490565b5f600160ff1b82016107ea576107ea610749565b505f0390565b808201808211156107745761077461074956fea2646970667358221220dac95bccb668effd3a422b7917d0ecde3d86474e0706f0f5a32556b6336cd6f564736f6c63430008180033","linkReferences":{}},"methodIdentifiers":{"INITIAL_PRICE()":"7c5e2795","USDC()":"89a30271","calculatePnL(address)":"f8f8bb4b","closePosition()":"c393d0e3","currentPrice()":"9d1b464a","liquidatePosition(address)":"7498a0f0","openPosition(uint256,uint256,bool)":"1558c966","positions(address)":"55f57510","setPrice(uint256)":"91b7f5ed"},"id":24}