{"abi":[{"type":"constructor","inputs":[{"name":"_logicAddress","type":"address","internalType":"address"}],"stateMutability":"nonpayable"},{"type":"fallback","stateMutability":"nonpayable"},{"type":"receive","stateMutability":"payable"},{"type":"function","name":"canWithdraw","inputs":[],"outputs":[{"name":"","type":"bool","internalType":"bool"}],"stateMutability":"view"},{"type":"function","name":"deposite","inputs":[],"outputs":[],"stateMutability":"payable"},{"type":"function","name":"isSolve","inputs":[],"outputs":[{"name":"","type":"bool","internalType":"bool"}],"stateMutability":"view"},{"type":"function","name":"openWithdraw","inputs":[],"outputs":[],"stateMutability":"nonpayable"},{"type":"function","name":"owner","inputs":[],"outputs":[{"name":"","type":"address","internalType":"address"}],"stateMutability":"view"},{"type":"function","name":"withdraw","inputs":[],"outputs":[],"stateMutability":"nonpayable"}],"bytecode":{"object":"0x60806040526003805460ff19169055348015610019575f80fd5b5060405161039a38038061039a83398101604081905261003891610065565b600180546001600160a01b039092166001600160a01b03199283161790555f805490911633179055610092565b5f60208284031215610075575f80fd5b81516001600160a01b038116811461008b575f80fd5b9392505050565b6102fb8061009f5f395ff3fe608060405260043610610058575f3560e01c80633ccfd60b146100ce578063845105e2146100e25780638da5cb5b146100f6578063a50ec32614610131578063b51459fe14610139578063f535c425146101625761005f565b3661005f57005b34801561006a575f80fd5b506001546040515f916001600160a01b03169061008a9083903690610291565b5f60405180830381855af49150503d805f81146100c2576040519150601f19603f3d011682016040523d82523d5f602084013e6100c7565b606091505b505090505b005b3480156100d9575f80fd5b506100cc610176565b3480156100ed575f80fd5b506100cc610201565b348015610101575f80fd5b505f54610114906001600160a01b031681565b6040516001600160a01b0390911681526020015b60405180910390f35b6100cc61025b565b348015610144575f80fd5b506003546101529060ff1681565b6040519015158152602001610128565b34801561016d575f80fd5b50610152610280565b60035460ff16801561018e5750335f52600260205260015b156101ff57335f818152600260205260408082205490519192918381818185875af1925050503d805f81146101de576040519150601f19603f3d011682016040523d82523d5f602084013e6101e3565b606091505b5050905080156101fd57335f908152600260205260408120555b505b565b5f54336001600160a01b0390911603610223576003805460ff19166001179055565b60405162461bcd60e51b81526020600482015260096024820152683737ba1037bbb732b960b91b604482015260640160405180910390fd5b335f90815260026020526040812080543492906102799084906102a0565b9091555050565b5f475f0361028e5750600190565b90565b818382375f9101908152919050565b808201808211156102bf57634e487b7160e01b5f52601160045260245ffd5b9291505056fea264697066735822122043bb913630df54db6d42cd629b6a70882ae83b70640b531ee20f783b29c4792964736f6c63430008180033","linkReferences":{}},"methodIdentifiers":{"canWithdraw()":"b51459fe","deposite()":"a50ec326","isSolve()":"f535c425","openWithdraw()":"845105e2","owner()":"8da5cb5b","withdraw()":"3ccfd60b"},"id":75}