{"abi":[{"type":"constructor","inputs":[{"name":"_password","type":"bytes32","internalType":"bytes32"}],"stateMutability":"nonpayable"},{"type":"function","name":"changeOwner","inputs":[{"name":"_password","type":"bytes32","internalType":"bytes32"},{"name":"newOwner","type":"address","internalType":"address"}],"outputs":[],"stateMutability":"nonpayable"},{"type":"function","name":"owner","inputs":[],"outputs":[{"name":"","type":"address","internalType":"address"}],"stateMutability":"view"}],"bytecode":{"object":"0x608060405234801561000f575f80fd5b506040516101bb3803806101bb83398101604081905261002e91610047565b5f80546001600160a01b0319163317905560015561005e565b5f60208284031215610057575f80fd5b5051919050565b6101508061006b5f395ff3fe608060405234801561000f575f80fd5b5060043610610034575f3560e01c80638da5cb5b14610038578063d3a5b10714610066575b5f80fd5b5f5461004a906001600160a01b031681565b6040516001600160a01b03909116815260200160405180910390f35b6100796100743660046100e1565b61007b565b005b81600154036100a4575f80546001600160a01b0383166001600160a01b03199091161790555050565b60405162461bcd60e51b815260206004820152600e60248201526d3830b9b9bbb7b9321032b93937b960911b604482015260640160405180910390fd5b5f80604083850312156100f2575f80fd5b8235915060208301356001600160a01b038116811461010f575f80fd5b80915050925092905056fea26469706673582212206851bc69f5d1bf5e0215b669047bf197fa5d049c2d84cb7717f638f20c0eb1cb64736f6c63430008180033","linkReferences":{}},"methodIdentifiers":{"changeOwner(bytes32,address)":"d3a5b107","owner()":"8da5cb5b"},"id":73}