{"abi":[{"type":"constructor","inputs":[],"stateMutability":"nonpayable"},{"type":"function","name":"UPGRADE_INTERFACE_VERSION","inputs":[],"outputs":[{"name":"","type":"string","internalType":"string"}],"stateMutability":"view"},{"type":"function","name":"approve","inputs":[{"name":"to","type":"address","internalType":"address"},{"name":"tokenId","type":"uint256","internalType":"uint256"}],"outputs":[],"stateMutability":"nonpayable"},{"type":"function","name":"balanceOf","inputs":[{"name":"owner","type":"address","internalType":"address"}],"outputs":[{"name":"","type":"uint256","internalType":"uint256"}],"stateMutability":"view"},{"type":"function","name":"baseURI","inputs":[],"outputs":[{"name":"","type":"string","internalType":"string"}],"stateMutability":"view"},{"type":"function","name":"getApproved","inputs":[{"name":"tokenId","type":"uint256","internalType":"uint256"}],"outputs":[{"name":"","type":"address","internalType":"address"}],"stateMutability":"view"},{"type":"function","name":"initialize","inputs":[],"outputs":[],"stateMutability":"nonpayable"},{"type":"function","name":"isApprovedForAll","inputs":[{"name":"owner","type":"address","internalType":"address"},{"name":"operator","type":"address","internalType":"address"}],"outputs":[{"name":"","type":"bool","internalType":"bool"}],"stateMutability":"view"},{"type":"function","name":"maxSupply","inputs":[],"outputs":[{"name":"","type":"uint256","internalType":"uint256"}],"stateMutability":"view"},{"type":"function","name":"mint","inputs":[{"name":"to","type":"address","internalType":"address"}],"outputs":[{"name":"","type":"uint256","internalType":"uint256"}],"stateMutability":"nonpayable"},{"type":"function","name":"name","inputs":[],"outputs":[{"name":"","type":"string","internalType":"string"}],"stateMutability":"view"},{"type":"function","name":"owner","inputs":[],"outputs":[{"name":"","type":"address","internalType":"address"}],"stateMutability":"view"},{"type":"function","name":"ownerOf","inputs":[{"name":"tokenId","type":"uint256","internalType":"uint256"}],"outputs":[{"name":"","type":"address","internalType":"address"}],"stateMutability":"view"},{"type":"function","name":"proxiableUUID","inputs":[],"outputs":[{"name":"","type":"bytes32","internalType":"bytes32"}],"stateMutability":"view"},{"type":"function","name":"renounceOwnership","inputs":[],"outputs":[],"stateMutability":"nonpayable"},{"type":"function","name":"safeTransferFrom","inputs":[{"name":"from","type":"address","internalType":"address"},{"name":"to","type":"address","internalType":"address"},{"name":"tokenId","type":"uint256","internalType":"uint256"}],"outputs":[],"stateMutability":"nonpayable"},{"type":"function","name":"safeTransferFrom","inputs":[{"name":"from","type":"address","internalType":"address"},{"name":"to","type":"address","internalType":"address"},{"name":"tokenId","type":"uint256","internalType":"uint256"},{"name":"data","type":"bytes","internalType":"bytes"}],"outputs":[],"stateMutability":"nonpayable"},{"type":"function","name":"setApprovalForAll","inputs":[{"name":"operator","type":"address","internalType":"address"},{"name":"approved","type":"bool","internalType":"bool"}],"outputs":[],"stateMutability":"nonpayable"},{"type":"function","name":"setBaseURI","inputs":[{"name":"_baseURI","type":"string","internalType":"string"}],"outputs":[],"stateMutability":"nonpayable"},{"type":"function","name":"setMaxSupply","inputs":[{"name":"_maxSupply","type":"uint256","internalType":"uint256"}],"outputs":[],"stateMutability":"nonpayable"},{"type":"function","name":"supportsInterface","inputs":[{"name":"interfaceId","type":"bytes4","internalType":"bytes4"}],"outputs":[{"name":"","type":"bool","internalType":"bool"}],"stateMutability":"view"},{"type":"function","name":"symbol","inputs":[],"outputs":[{"name":"","type":"string","internalType":"string"}],"stateMutability":"view"},{"type":"function","name":"tokenId","inputs":[],"outputs":[{"name":"","type":"uint256","internalType":"uint256"}],"stateMutability":"view"},{"type":"function","name":"tokenURI","inputs":[{"name":"_tokenId","type":"uint256","internalType":"uint256"}],"outputs":[{"name":"","type":"string","internalType":"string"}],"stateMutability":"view"},{"type":"function","name":"transferFrom","inputs":[{"name":"from","type":"address","internalType":"address"},{"name":"to","type":"address","internalType":"address"},{"name":"tokenId","type":"uint256","internalType":"uint256"}],"outputs":[],"stateMutability":"nonpayable"},{"type":"function","name":"transferOwnership","inputs":[{"name":"newOwner","type":"address","internalType":"address"}],"outputs":[],"stateMutability":"nonpayable"},{"type":"function","name":"upgradeToAndCall","inputs":[{"name":"newImplementation","type":"address","internalType":"address"},{"name":"data","type":"bytes","internalType":"bytes"}],"outputs":[],"stateMutability":"payable"},{"type":"event","name":"Approval","inputs":[{"name":"owner","type":"address","indexed":true,"internalType":"address"},{"name":"approved","type":"address","indexed":true,"internalType":"address"},{"name":"tokenId","type":"uint256","indexed":true,"internalType":"uint256"}],"anonymous":false},{"type":"event","name":"ApprovalForAll","inputs":[{"name":"owner","type":"address","indexed":true,"internalType":"address"},{"name":"operator","type":"address","indexed":true,"internalType":"address"},{"name":"approved","type":"bool","indexed":false,"internalType":"bool"}],"anonymous":false},{"type":"event","name":"Initialized","inputs":[{"name":"version","type":"uint64","indexed":false,"internalType":"uint64"}],"anonymous":false},{"type":"event","name":"OwnershipTransferred","inputs":[{"name":"previousOwner","type":"address","indexed":true,"internalType":"address"},{"name":"newOwner","type":"address","indexed":true,"internalType":"address"}],"anonymous":false},{"type":"event","name":"Transfer","inputs":[{"name":"from","type":"address","indexed":true,"internalType":"address"},{"name":"to","type":"address","indexed":true,"internalType":"address"},{"name":"tokenId","type":"uint256","indexed":true,"internalType":"uint256"}],"anonymous":false},{"type":"event","name":"Upgraded","inputs":[{"name":"implementation","type":"address","indexed":true,"internalType":"address"}],"anonymous":false},{"type":"error","name":"AddressEmptyCode","inputs":[{"name":"target","type":"address","internalType":"address"}]},{"type":"error","name":"ERC1967InvalidImplementation","inputs":[{"name":"implementation","type":"address","internalType":"address"}]},{"type":"error","name":"ERC1967NonPayable","inputs":[]},{"type":"error","name":"ERC721IncorrectOwner","inputs":[{"name":"sender","type":"address","internalType":"address"},{"name":"tokenId","type":"uint256","internalType":"uint256"},{"name":"owner","type":"address","internalType":"address"}]},{"type":"error","name":"ERC721InsufficientApproval","inputs":[{"name":"operator","type":"address","internalType":"address"},{"name":"tokenId","type":"uint256","internalType":"uint256"}]},{"type":"error","name":"ERC721InvalidApprover","inputs":[{"name":"approver","type":"address","internalType":"address"}]},{"type":"error","name":"ERC721InvalidOperator","inputs":[{"name":"operator","type":"address","internalType":"address"}]},{"type":"error","name":"ERC721InvalidOwner","inputs":[{"name":"owner","type":"address","internalType":"address"}]},{"type":"error","name":"ERC721InvalidReceiver","inputs":[{"name":"receiver","type":"address","internalType":"address"}]},{"type":"error","name":"ERC721InvalidSender","inputs":[{"name":"sender","type":"address","internalType":"address"}]},{"type":"error","name":"ERC721NonexistentToken","inputs":[{"name":"tokenId","type":"uint256","internalType":"uint256"}]},{"type":"error","name":"FailedCall","inputs":[]},{"type":"error","name":"InvalidInitialization","inputs":[]},{"type":"error","name":"NotInitializing","inputs":[]},{"type":"error","name":"OwnableInvalidOwner","inputs":[{"name":"owner","type":"address","internalType":"address"}]},{"type":"error","name":"OwnableUnauthorizedAccount","inputs":[{"name":"account","type":"address","internalType":"address"}]},{"type":"error","name":"UUPSUnauthorizedCallContext","inputs":[]},{"type":"error","name":"UUPSUnsupportedProxiableUUID","inputs":[{"name":"slot","type":"bytes32","internalType":"bytes32"}]}],"bytecode":{"object":"0x60a060405230608052348015610013575f80fd5b5061001c610021565b6100d3565b7ff0c57e16840df040f15088dc2f81fe391c3923bec73e23a9662efc9c229c6a00805468010000000000000000900460ff16156100715760405163f92ee8a960e01b815260040160405180910390fd5b80546001600160401b03908116146100d05780546001600160401b0319166001600160401b0390811782556040519081527fc7f505b2f371ae2175ee4913f4499e1f2633a7b5936321eed1cdaeb6115181d29060200160405180910390a15b50565b608051611db26100f95f395f8181610cda01528181610d030152610e420152611db25ff3fe60806040526004361061017b575f3560e01c80636f8b44b0116100cd578063a22cb46511610087578063c87b56dd11610062578063c87b56dd14610448578063d5abeb0114610467578063e985e9c51461047c578063f2fde38b1461049b575f80fd5b8063a22cb465146103da578063ad3cb1cc146103f9578063b88d4fde14610429575f80fd5b80636f8b44b01461032457806370a0823114610343578063715018a6146103625780638129fc1c146103765780638da5cb5b1461038a57806395d89b41146103c6575f80fd5b806342842e0e1161013857806355f804b31161011357806355f804b3146102b35780636352211e146102d25780636a627842146102f15780636c0360eb14610310575f80fd5b806342842e0e1461026d5780634f1ef2861461028c57806352d1902d1461029f575f80fd5b806301ffc9a71461017f57806306fdde03146101b3578063081812fc146101d4578063095ea7b31461020b57806317d70f7c1461022c57806323b872dd1461024e575b5f80fd5b34801561018a575f80fd5b5061019e610199366004611748565b6104ba565b60405190151581526020015b60405180910390f35b3480156101be575f80fd5b506101c761050b565b6040516101aa91906117b7565b3480156101df575f80fd5b506101f36101ee3660046117c9565b6105ac565b6040516001600160a01b0390911681526020016101aa565b348015610216575f80fd5b5061022a6102253660046117f6565b6105c0565b005b348015610237575f80fd5b506102405f5481565b6040519081526020016101aa565b348015610259575f80fd5b5061022a61026836600461181e565b6105cf565b348015610278575f80fd5b5061022a61028736600461181e565b61065d565b61022a61029a3660046118fc565b61067c565b3480156102aa575f80fd5b50610240610697565b3480156102be575f80fd5b5061022a6102cd366004611947565b6106b2565b3480156102dd575f80fd5b506101f36102ec3660046117c9565b6106c6565b3480156102fc575f80fd5b5061024061030b36600461198c565b6106d0565b34801561031b575f80fd5b506101c7610747565b34801561032f575f80fd5b5061022a61033e3660046117c9565b6107d3565b34801561034e575f80fd5b5061024061035d36600461198c565b6107e0565b34801561036d575f80fd5b5061022a610838565b348015610381575f80fd5b5061022a61084b565b348015610395575f80fd5b507f9016d09d72d40fdae2fd8ceac6b6234c7706214fd39c1cd1e609a0528c199300546001600160a01b03166101f3565b3480156103d1575f80fd5b506101c76109db565b3480156103e5575f80fd5b5061022a6103f43660046119a5565b610a19565b348015610404575f80fd5b506101c7604051806040016040528060058152602001640352e302e360dc1b81525081565b348015610434575f80fd5b5061022a6104433660046119de565b610a24565b348015610453575f80fd5b506101c76104623660046117c9565b610a3c565b348015610472575f80fd5b5061024060015481565b348015610487575f80fd5b5061019e610496366004611a42565b610ac7565b3480156104a6575f80fd5b5061022a6104b536600461198c565b610b13565b5f6001600160e01b031982166380ac58cd60e01b14806104ea57506001600160e01b03198216635b5e139f60e01b145b8061050557506301ffc9a760e01b6001600160e01b03198316145b92915050565b5f80516020611d3d833981519152805460609190819061052a90611a73565b80601f016020809104026020016040519081016040528092919081815260200182805461055690611a73565b80156105a15780601f10610578576101008083540402835291602001916105a1565b820191905f5260205f20905b81548152906001019060200180831161058457829003601f168201915b505050505091505090565b5f6105b682610b50565b5061050582610b87565b6105cb828233610bc0565b5050565b6001600160a01b0382166105fd57604051633250574960e11b81525f60048201526024015b60405180910390fd5b5f610609838333610bcd565b9050836001600160a01b0316816001600160a01b031614610657576040516364283d7b60e01b81526001600160a01b03808616600483015260248201849052821660448201526064016105f4565b50505050565b61067783838360405180602001604052805f815250610a24565b505050565b610684610ccf565b61068d82610d73565b6105cb8282610d7b565b5f6106a0610e37565b505f80516020611d5d83398151915290565b6106ba610e80565b60026105cb8282611aef565b5f61050582610b50565b5f6106d9610e80565b6001545f54106107205760405162461bcd60e51b815260206004820152601260248201527113585e081cdd5c1c1b1e481c995858da195960721b60448201526064016105f4565b5f8054908061072e83611bbf565b919050555061073e825f54610edb565b505f545b919050565b6002805461075490611a73565b80601f016020809104026020016040519081016040528092919081815260200182805461078090611a73565b80156107cb5780601f106107a2576101008083540402835291602001916107cb565b820191905f5260205f20905b8154815290600101906020018083116107ae57829003601f168201915b505050505081565b6107db610e80565b600155565b5f5f80516020611d3d8339815191526001600160a01b038316610818576040516322718ad960e21b81525f60048201526024016105f4565b6001600160a01b039092165f908152600390920160205250604090205490565b610840610e80565b6108495f610f3c565b565b5f610854610fac565b805490915060ff600160401b820416159067ffffffffffffffff165f8115801561087b5750825b90505f8267ffffffffffffffff1660011480156108975750303b155b9050811580156108a5575080155b156108c35760405163f92ee8a960e01b815260040160405180910390fd5b845467ffffffffffffffff1916600117855583156108ed57845460ff60401b1916600160401b1785555b61093a6040518060400160405280600f81526020016e155c19dc98591958589b1948139195608a1b815250604051806040016040528060048152602001631553919560e21b815250610fd4565b61094333610fe6565b5f80556103e860015560408051808201909152601981527f68747470733a2f2f6578616d706c652e636f6d2f6e6674732f00000000000000602082015260029061098d9082611aef565b5083156109d457845460ff60401b19168555604051600181527fc7f505b2f371ae2175ee4913f4499e1f2633a7b5936321eed1cdaeb6115181d29060200160405180910390a15b5050505050565b7f80bb2b638cc20bc4d0a60d66940f3ab4a00c1d7b313497ca82fb0b4ab007930180546060915f80516020611d3d8339815191529161052a90611a73565b6105cb338383610ff7565b610a2f8484846105cf565b61065733858585856110cf565b60605f610a48836106c6565b6001600160a01b031603610a955760405162461bcd60e51b8152602060048201526014602482015273151bdad95b88191bd95cc81b9bdd08195e1a5cdd60621b60448201526064016105f4565b6002610aa0836111f6565b604051602001610ab1929190611bd7565b6040516020818303038152906040529050919050565b6001600160a01b039182165f9081527f80bb2b638cc20bc4d0a60d66940f3ab4a00c1d7b313497ca82fb0b4ab00793056020908152604080832093909416825291909152205460ff1690565b610b1b610e80565b6001600160a01b038116610b4457604051631e4fbdf760e01b81525f60048201526024016105f4565b610b4d81610f3c565b50565b5f80610b5b836112fb565b90506001600160a01b03811661050557604051637e27328960e01b8152600481018490526024016105f4565b5f9081527f80bb2b638cc20bc4d0a60d66940f3ab4a00c1d7b313497ca82fb0b4ab007930460205260409020546001600160a01b031690565b6106778383836001611334565b5f5f80516020611d3d83398151915281610be6856112fb565b90506001600160a01b03841615610c0257610c02818587611447565b6001600160a01b03811615610c3e57610c1d5f865f80611334565b6001600160a01b0381165f908152600383016020526040902080545f190190555b6001600160a01b03861615610c6e576001600160a01b0386165f9081526003830160205260409020805460010190555b5f85815260028301602052604080822080546001600160a01b0319166001600160a01b038a811691821790925591518893918516917fddf252ad1be2c89b69c2b068fc378daa952ba7f163c4a11628f55a4df523b3ef91a495945050505050565b306001600160a01b037f0000000000000000000000000000000000000000000000000000000000000000161480610d5557507f00000000000000000000000000000000000000000000000000000000000000006001600160a01b0316610d495f80516020611d5d833981519152546001600160a01b031690565b6001600160a01b031614155b156108495760405163703e46dd60e11b815260040160405180910390fd5b610b4d610e80565b816001600160a01b03166352d1902d6040518163ffffffff1660e01b8152600401602060405180830381865afa925050508015610dd5575060408051601f3d908101601f19168201909252610dd291810190611c5a565b60015b610dfd57604051634c9c8ce360e01b81526001600160a01b03831660048201526024016105f4565b5f80516020611d5d8339815191528114610e2d57604051632a87526960e21b8152600481018290526024016105f4565b61067783836114ab565b306001600160a01b037f000000000000000000000000000000000000000000000000000000000000000016146108495760405163703e46dd60e11b815260040160405180910390fd5b33610eb27f9016d09d72d40fdae2fd8ceac6b6234c7706214fd39c1cd1e609a0528c199300546001600160a01b031690565b6001600160a01b0316146108495760405163118cdaa760e01b81523360048201526024016105f4565b6001600160a01b038216610f0457604051633250574960e11b81525f60048201526024016105f4565b5f610f1083835f610bcd565b90506001600160a01b03811615610677576040516339e3563760e11b81525f60048201526024016105f4565b7f9016d09d72d40fdae2fd8ceac6b6234c7706214fd39c1cd1e609a0528c19930080546001600160a01b031981166001600160a01b03848116918217845560405192169182907f8be0079c531659141344cd1fd0a4f28419497f9722a3daafe3b4186f6b6457e0905f90a3505050565b5f807ff0c57e16840df040f15088dc2f81fe391c3923bec73e23a9662efc9c229c6a00610505565b610fdc611500565b6105cb8282611525565b610fee611500565b610b4d81611555565b5f80516020611d3d8339815191526001600160a01b03841661102e5760405163a9fbf51f60e01b81525f60048201526024016105f4565b6001600160a01b03831661106057604051630b61174360e31b81526001600160a01b03841660048201526024016105f4565b6001600160a01b038481165f818152600584016020908152604080832094881680845294825291829020805460ff191687151590811790915591519182527f17307eab39ab6107e8899845ad3d59bd9653f200f220920489ca2b5937696c31910160405180910390a350505050565b6001600160a01b0383163b156109d457604051630a85bd0160e11b81526001600160a01b0384169063150b7a0290611111908890889087908790600401611c71565b6020604051808303815f875af192505050801561114b575060408051601f3d908101601f1916820190925261114891810190611cad565b60015b6111b2573d808015611178576040519150601f19603f3d011682016040523d82523d5f602084013e61117d565b606091505b5080515f036111aa57604051633250574960e11b81526001600160a01b03851660048201526024016105f4565b805160208201fd5b6001600160e01b03198116630a85bd0160e11b146111ee57604051633250574960e11b81526001600160a01b03851660048201526024016105f4565b505050505050565b6060815f0361121c5750506040805180820190915260018152600360fc1b602082015290565b815f5b8115611245578061122f81611bbf565b915061123e9050600a83611cdc565b915061121f565b5f8167ffffffffffffffff81111561125f5761125f611857565b6040519080825280601f01601f191660200182016040528015611289576020820181803683370190505b5090505b84156112f35761129e600183611cef565b91506112ab600a86611d02565b6112b6906030611d15565b60f81b8183815181106112cb576112cb611d28565b60200101906001600160f81b03191690815f1a9053506112ec600a86611cdc565b945061128d565b949350505050565b5f9081527f80bb2b638cc20bc4d0a60d66940f3ab4a00c1d7b313497ca82fb0b4ab007930260205260409020546001600160a01b031690565b5f80516020611d3d833981519152818061135657506001600160a01b03831615155b15611417575f61136585610b50565b90506001600160a01b038416158015906113915750836001600160a01b0316816001600160a01b031614155b80156113a457506113a28185610ac7565b155b156113cd5760405163a9fbf51f60e01b81526001600160a01b03851660048201526024016105f4565b82156114155784866001600160a01b0316826001600160a01b03167f8c5be1e5ebec7d5bd14f71427d1e84f3dd0314c0f7b2291e5b200ac8c7c3b92560405160405180910390a45b505b5f93845260040160205250506040902080546001600160a01b0319166001600160a01b0392909216919091179055565b61145283838361155d565b610677576001600160a01b03831661148057604051637e27328960e01b8152600481018290526024016105f4565b60405163177e802f60e01b81526001600160a01b0383166004820152602481018290526044016105f4565b6114b4826115c1565b6040516001600160a01b038316907fbc7cd75a20ee27fd9adebab32041f755214dbc6bffa90cc0225b39da2e5c2d3b905f90a28051156114f8576106778282611624565b6105cb6116c4565b6115086116e3565b61084957604051631afcd79f60e31b815260040160405180910390fd5b61152d611500565b5f80516020611d3d833981519152806115468482611aef565b50600181016106578382611aef565b610b1b611500565b5f6001600160a01b038316158015906112f35750826001600160a01b0316846001600160a01b0316148061159657506115968484610ac7565b806112f35750826001600160a01b03166115af83610b87565b6001600160a01b031614949350505050565b806001600160a01b03163b5f036115f657604051634c9c8ce360e01b81526001600160a01b03821660048201526024016105f4565b5f80516020611d5d83398151915280546001600160a01b0319166001600160a01b0392909216919091179055565b60605f61163184846116fc565b905080801561165257505f3d118061165257505f846001600160a01b03163b115b156116675761165f61170f565b915050610505565b801561169157604051639996b31560e01b81526001600160a01b03851660048201526024016105f4565b3d156116a45761169f611728565b6116bd565b60405163d6bda27560e01b815260040160405180910390fd5b5092915050565b34156108495760405163b398979f60e01b815260040160405180910390fd5b5f6116ec610fac565b54600160401b900460ff16919050565b5f805f835160208501865af49392505050565b6040513d81523d5f602083013e3d602001810160405290565b6040513d5f823e3d81fd5b6001600160e01b031981168114610b4d575f80fd5b5f60208284031215611758575f80fd5b813561176381611733565b9392505050565b5f5b8381101561178457818101518382015260200161176c565b50505f910152565b5f81518084526117a381602086016020860161176a565b601f01601f19169290920160200192915050565b602081525f611763602083018461178c565b5f602082840312156117d9575f80fd5b5035919050565b80356001600160a01b0381168114610742575f80fd5b5f8060408385031215611807575f80fd5b611810836117e0565b946020939093013593505050565b5f805f60608486031215611830575f80fd5b611839846117e0565b9250611847602085016117e0565b9150604084013590509250925092565b634e487b7160e01b5f52604160045260245ffd5b5f67ffffffffffffffff8084111561188557611885611857565b604051601f8501601f19908116603f011681019082821181831017156118ad576118ad611857565b816040528093508581528686860111156118c5575f80fd5b858560208301375f602087830101525050509392505050565b5f82601f8301126118ed575f80fd5b6117638383356020850161186b565b5f806040838503121561190d575f80fd5b611916836117e0565b9150602083013567ffffffffffffffff811115611931575f80fd5b61193d858286016118de565b9150509250929050565b5f60208284031215611957575f80fd5b813567ffffffffffffffff81111561196d575f80fd5b8201601f8101841361197d575f80fd5b6112f38482356020840161186b565b5f6020828403121561199c575f80fd5b611763826117e0565b5f80604083850312156119b6575f80fd5b6119bf836117e0565b9150602083013580151581146119d3575f80fd5b809150509250929050565b5f805f80608085870312156119f1575f80fd5b6119fa856117e0565b9350611a08602086016117e0565b925060408501359150606085013567ffffffffffffffff811115611a2a575f80fd5b611a36878288016118de565b91505092959194509250565b5f8060408385031215611a53575f80fd5b611a5c836117e0565b9150611a6a602084016117e0565b90509250929050565b600181811c90821680611a8757607f821691505b602082108103611aa557634e487b7160e01b5f52602260045260245ffd5b50919050565b601f82111561067757805f5260205f20601f840160051c81016020851015611ad05750805b601f840160051c820191505b818110156109d4575f8155600101611adc565b815167ffffffffffffffff811115611b0957611b09611857565b611b1d81611b178454611a73565b84611aab565b602080601f831160018114611b50575f8415611b395750858301515b5f19600386901b1c1916600185901b1785556111ee565b5f85815260208120601f198616915b82811015611b7e57888601518255948401946001909101908401611b5f565b5085821015611b9b57878501515f19600388901b60f8161c191681555b5050505050600190811b01905550565b634e487b7160e01b5f52601160045260245ffd5b5f60018201611bd057611bd0611bab565b5060010190565b5f808454611be481611a73565b60018281168015611bfc5760018114611c1157611c3d565b60ff1984168752821515830287019450611c3d565b885f526020805f205f5b85811015611c345781548a820152908401908201611c1b565b50505082870194505b505050508351611c5181836020880161176a565b01949350505050565b5f60208284031215611c6a575f80fd5b5051919050565b6001600160a01b03858116825284166020820152604081018390526080606082018190525f90611ca39083018461178c565b9695505050505050565b5f60208284031215611cbd575f80fd5b815161176381611733565b634e487b7160e01b5f52601260045260245ffd5b5f82611cea57611cea611cc8565b500490565b8181038181111561050557610505611bab565b5f82611d1057611d10611cc8565b500690565b8082018082111561050557610505611bab565b634e487b7160e01b5f52603260045260245ffdfe80bb2b638cc20bc4d0a60d66940f3ab4a00c1d7b313497ca82fb0b4ab0079300360894a13ba1a3210667c828492db98dca3e2076cc3735a920a3ca505d382bbca264697066735822122041b6e078b65c2dd6c6519c8873994298907e4fe61007fe2ee323500eb568965d64736f6c63430008180033","linkReferences":{}},"methodIdentifiers":{"UPGRADE_INTERFACE_VERSION()":"ad3cb1cc","approve(address,uint256)":"095ea7b3","balanceOf(address)":"70a08231","baseURI()":"6c0360eb","getApproved(uint256)":"081812fc","initialize()":"8129fc1c","isApprovedForAll(address,address)":"e985e9c5","maxSupply()":"d5abeb01","mint(address)":"6a627842","name()":"06fdde03","owner()":"8da5cb5b","ownerOf(uint256)":"6352211e","proxiableUUID()":"52d1902d","renounceOwnership()":"715018a6","safeTransferFrom(address,address,uint256)":"42842e0e","safeTransferFrom(address,address,uint256,bytes)":"b88d4fde","setApprovalForAll(address,bool)":"a22cb465","setBaseURI(string)":"55f804b3","setMaxSupply(uint256)":"6f8b44b0","supportsInterface(bytes4)":"01ffc9a7","symbol()":"95d89b41","tokenId()":"17d70f7c","tokenURI(uint256)":"c87b56dd","transferFrom(address,address,uint256)":"23b872dd","transferOwnership(address)":"f2fde38b","upgradeToAndCall(address,bytes)":"4f1ef286"},"id":75}