{"abi":[{"type":"function","name":"multicall","inputs":[{"name":"calls","type":"tuple[]","internalType":"struct Multicall.Call[]","components":[{"name":"data","type":"bytes","internalType":"bytes"}]}],"outputs":[{"name":"results","type":"bytes[]","internalType":"bytes[]"}],"stateMutability":"nonpayable"}],"bytecode":{"object":"0x608060405234801561000f575f80fd5b506103ba8061001d5f395ff3fe608060405234801561000f575f80fd5b5060043610610029575f3560e01c8063b512ac4e1461002d575b5f80fd5b61004061003b3660046101c2565b610056565b60405161004d9190610231565b60405180910390f35b60608167ffffffffffffffff811115610071576100716102c1565b6040519080825280602002602001820160405280156100a457816020015b606081526020019060019003908161008f5790505b5090505f5b828110156101bb575f80308686858181106100c6576100c66102d5565b90506020028101906100d891906102e9565b6100e29080610307565b6040516100f0929190610351565b5f60405180830381855af49150503d805f8114610128576040519150601f19603f3d011682016040523d82523d5f602084013e61012d565b606091505b5091509150816101885780511561014957604051818152815181fd5b60405162461bcd60e51b815260206004820152601060248201526f135d5b1d1a58d85b1b0819985a5b195960821b604482015260640160405180910390fd5b8084848151811061019b5761019b6102d5565b6020026020010181905250505080806101b390610360565b9150506100a9565b5092915050565b5f80602083850312156101d3575f80fd5b823567ffffffffffffffff808211156101ea575f80fd5b818501915085601f8301126101fd575f80fd5b81358181111561020b575f80fd5b8660208260051b850101111561021f575f80fd5b60209290920196919550909350505050565b5f602080830181845280855180835260408601915060408160051b87010192508387015f805b838110156102b357888603603f1901855282518051808852835b8181101561028c578281018a01518982018b01528901610271565b508781018901849052601f01601f1916909601870195509386019391860191600101610257565b509398975050505050505050565b634e487b7160e01b5f52604160045260245ffd5b634e487b7160e01b5f52603260045260245ffd5b5f8235601e198336030181126102fd575f80fd5b9190910192915050565b5f808335601e1984360301811261031c575f80fd5b83018035915067ffffffffffffffff821115610336575f80fd5b60200191503681900382131561034a575f80fd5b9250929050565b818382375f9101908152919050565b5f6001820161037d57634e487b7160e01b5f52601160045260245ffd5b506001019056fea2646970667358221220ed7d2cf755bed73b63af735436929fb5e3db43e597757fd46292e1e1b656e05464736f6c63430008140033","linkReferences":{}},"methodIdentifiers":{"multicall((bytes)[])":"b512ac4e"},"id":21}