{"abi":[{"type":"constructor","inputs":[{"name":"_paymentToken","type":"address","internalType":"address"},{"name":"_nftContract","type":"address","internalType":"address"},{"name":"_nftPrice","type":"uint256","internalType":"uint256"},{"name":"_merkleRoot","type":"bytes32","internalType":"bytes32"}],"stateMutability":"nonpayable"},{"type":"function","name":"DISCOUNT","inputs":[],"outputs":[{"name":"","type":"uint256","internalType":"uint256"}],"stateMutability":"view"},{"type":"function","name":"DISCOUNT_DIVISOR","inputs":[],"outputs":[{"name":"","type":"uint256","internalType":"uint256"}],"stateMutability":"view"},{"type":"function","name":"activeListings","inputs":[{"name":"","type":"uint256","internalType":"uint256"}],"outputs":[{"name":"","type":"uint256","internalType":"uint256"}],"stateMutability":"view"},{"type":"function","name":"buyNFT","inputs":[{"name":"tokenId","type":"uint256","internalType":"uint256"}],"outputs":[],"stateMutability":"nonpayable"},{"type":"function","name":"buyNFTInWhitelist","inputs":[{"name":"tokenId","type":"uint256","internalType":"uint256"},{"name":"proof","type":"bytes32[]","internalType":"bytes32[]"}],"outputs":[],"stateMutability":"nonpayable"},{"type":"function","name":"calculatePrice","inputs":[{"name":"isWhitelisted","type":"bool","internalType":"bool"}],"outputs":[{"name":"","type":"uint256","internalType":"uint256"}],"stateMutability":"view"},{"type":"function","name":"getActiveListing","inputs":[{"name":"index","type":"uint256","internalType":"uint256"}],"outputs":[{"name":"","type":"uint256","internalType":"uint256"}],"stateMutability":"view"},{"type":"function","name":"getActiveListingsCount","inputs":[],"outputs":[{"name":"","type":"uint256","internalType":"uint256"}],"stateMutability":"view"},{"type":"function","name":"getNFTListing","inputs":[{"name":"tokenId","type":"uint256","internalType":"uint256"}],"outputs":[{"name":"","type":"tuple","internalType":"struct WhitelistMerkleNFTMarket.NFTListing","components":[{"name":"tokenId","type":"uint256","internalType":"uint256"},{"name":"price","type":"uint256","internalType":"uint256"},{"name":"active","type":"bool","internalType":"bool"}]}],"stateMutability":"view"},{"type":"function","name":"hasClaimed","inputs":[{"name":"","type":"address","internalType":"address"}],"outputs":[{"name":"","type":"bool","internalType":"bool"}],"stateMutability":"view"},{"type":"function","name":"listNFT","inputs":[{"name":"tokenId","type":"uint256","internalType":"uint256"},{"name":"price","type":"uint256","internalType":"uint256"}],"outputs":[],"stateMutability":"nonpayable"},{"type":"function","name":"listNFTWhitelist","inputs":[{"name":"tokenId","type":"uint256","internalType":"uint256"},{"name":"price","type":"uint256","internalType":"uint256"},{"name":"isWhitelisted","type":"bool","internalType":"bool"}],"outputs":[],"stateMutability":"nonpayable"},{"type":"function","name":"listings","inputs":[{"name":"","type":"uint256","internalType":"uint256"}],"outputs":[{"name":"tokenId","type":"uint256","internalType":"uint256"},{"name":"price","type":"uint256","internalType":"uint256"},{"name":"active","type":"bool","internalType":"bool"}],"stateMutability":"view"},{"type":"function","name":"merkleRoot","inputs":[],"outputs":[{"name":"","type":"bytes32","internalType":"bytes32"}],"stateMutability":"view"},{"type":"function","name":"multicall","inputs":[{"name":"data","type":"bytes[]","internalType":"bytes[]"}],"outputs":[{"name":"results","type":"bytes[]","internalType":"bytes[]"}],"stateMutability":"nonpayable"},{"type":"function","name":"nftContract","inputs":[],"outputs":[{"name":"","type":"address","internalType":"contract SimpleNFT"}],"stateMutability":"view"},{"type":"function","name":"nftPrice","inputs":[],"outputs":[{"name":"","type":"uint256","internalType":"uint256"}],"stateMutability":"view"},{"type":"function","name":"paymentToken","inputs":[],"outputs":[{"name":"","type":"address","internalType":"contract MyPermitToken"}],"stateMutability":"view"},{"type":"function","name":"permitPrePay","inputs":[{"name":"owner","type":"address","internalType":"address"},{"name":"spender","type":"address","internalType":"address"},{"name":"value","type":"uint256","internalType":"uint256"},{"name":"deadline","type":"uint256","internalType":"uint256"},{"name":"v","type":"uint8","internalType":"uint8"},{"name":"r","type":"bytes32","internalType":"bytes32"},{"name":"s","type":"bytes32","internalType":"bytes32"}],"outputs":[],"stateMutability":"nonpayable"},{"type":"function","name":"updateMerkleRoot","inputs":[{"name":"_merkleRoot","type":"bytes32","internalType":"bytes32"}],"outputs":[],"stateMutability":"nonpayable"},{"type":"function","name":"updateNFTPrice","inputs":[{"name":"_nftPrice","type":"uint256","internalType":"uint256"}],"outputs":[],"stateMutability":"nonpayable"},{"type":"function","name":"usedPermitSignatures","inputs":[{"name":"","type":"bytes32","internalType":"bytes32"}],"outputs":[{"name":"","type":"bool","internalType":"bool"}],"stateMutability":"view"},{"type":"function","name":"verifyWhitelist","inputs":[{"name":"proof","type":"bytes32[]","internalType":"bytes32[]"}],"outputs":[{"name":"","type":"bool","internalType":"bool"}],"stateMutability":"view"},{"type":"function","name":"withdrawNFT","inputs":[{"name":"tokenId","type":"uint256","internalType":"uint256"}],"outputs":[],"stateMutability":"nonpayable"},{"type":"function","name":"withdrawTokens","inputs":[{"name":"amount","type":"uint256","internalType":"uint256"}],"outputs":[],"stateMutability":"nonpayable"},{"type":"event","name":"MerkleRootUpdated","inputs":[{"name":"newRoot","type":"bytes32","indexed":false,"internalType":"bytes32"}],"anonymous":false},{"type":"event","name":"NFTListed","inputs":[{"name":"tokenId","type":"uint256","indexed":true,"internalType":"uint256"},{"name":"price","type":"uint256","indexed":false,"internalType":"uint256"},{"name":"whitelisted","type":"bool","indexed":false,"internalType":"bool"}],"anonymous":false},{"type":"event","name":"NFTPurchased","inputs":[{"name":"tokenId","type":"uint256","indexed":true,"internalType":"uint256"},{"name":"buyer","type":"address","indexed":true,"internalType":"address"},{"name":"paidAmount","type":"uint256","indexed":false,"internalType":"uint256"},{"name":"usedDiscount","type":"bool","indexed":false,"internalType":"bool"}],"anonymous":false},{"type":"event","name":"PermitUsed","inputs":[{"name":"permitHash","type":"bytes32","indexed":true,"internalType":"bytes32"}],"anonymous":false},{"type":"error","name":"AddressEmptyCode","inputs":[{"name":"target","type":"address","internalType":"address"}]},{"type":"error","name":"FailedCall","inputs":[]}],"bytecode":{"object":"0x608060405234801562000010575f80fd5b506040516200185238038062001852833981016040819052620000339162000141565b6001600160a01b0384166200008f5760405162461bcd60e51b815260206004820152601d60248201527f496e76616c6964207061796d656e7420746f6b656e206164647265737300000060448201526064015b60405180910390fd5b6001600160a01b038316620000e75760405162461bcd60e51b815260206004820152601c60248201527f496e76616c6964204e465420636f6e7472616374206164647265737300000000604482015260640162000086565b5f80546001600160a01b039586166001600160a01b031991821617909155600180549490951693169290921790925560039190915560025562000186565b80516001600160a01b03811681146200013c575f80fd5b919050565b5f805f806080858703121562000155575f80fd5b620001608562000125565b9350620001706020860162000125565b6040860151606090960151949790965092505050565b6116be80620001945f395ff3fe608060405234801561000f575f80fd5b506004361061016d575f3560e01c80634783f0ef116100d957806394383f1411610093578063b0d6af161161006e578063b0d6af1614610356578063d56d229d14610369578063de74e57b1461037c578063e34bf0c5146103ca575f80fd5b806394383f14146103105780639b8f554a14610323578063ac9650d814610336575f80fd5b80634783f0ef146102a557806351ed8288146102b857806361cf4863146102cb578063656f8a25146102de57806373b2e80e146102e65780637b55927c14610308575f80fd5b806321277c961161012a57806321277c961461021757806325f699421461022a5780632eb4a7ab1461023d5780633013ce2914610246578063315a095d14610270578063466f4c2614610283575f80fd5b8063023245d7146101715780630d37b457146101865780630d39fc81146101a15780630ea59c4b146101aa5780631030f05f146101e157806316b76df5146101f4575b5f80fd5b61018461017f366004611299565b6103dd565b005b61018e603281565b6040519081526020015b60405180910390f35b61018e60035481565b6101bd6101b8366004611299565b610441565b60408051825181526020808401519082015291810151151590820152606001610198565b61018e6101ef366004611299565b6104a1565b6102076102023660046112f8565b610512565b6040519015158152602001610198565b61018e610225366004611347565b610564565b61018461023836600461137d565b610597565b61018e60025481565b5f54610258906001600160a01b031681565b6040516001600160a01b039091168152602001610198565b61018461027e366004611299565b6106db565b610207610291366004611299565b60056020525f908152604090205460ff1681565b6101846102b3366004611299565b610750565b6101846102c6366004611299565b61078b565b61018e6102d9366004611299565b6109bb565b61018e606481565b6102076102f43660046113ee565b60046020525f908152604090205460ff1681565b60075461018e565b61018461031e366004611409565b6109da565b610184610331366004611429565b610b9d565b6103496103443660046112f8565b610e73565b6040516101989190611493565b610184610364366004611299565b600355565b600154610258906001600160a01b031681565b6103ad61038a366004611299565b60066020525f908152604090208054600182015460029092015490919060ff1683565b604080519384526020840192909252151590820152606001610198565b6101846103d836600461150b565b610f59565b600154604051632142170760e11b81526001600160a01b03909116906342842e0e9061041190309033908690600401611541565b5f604051808303815f87803b158015610428575f80fd5b505af115801561043a573d5f803e3d5ffd5b5050505050565b61046460405180606001604052805f81526020015f81526020015f151581525090565b505f908152600660209081526040918290208251606081018452815481526001820154928101929092526002015460ff1615159181019190915290565b6007545f9082106104ef5760405162461bcd60e51b8152602060048201526013602482015272496e646578206f7574206f6620626f756e647360681b60448201526064015b60405180910390fd5b6007828154811061050257610502611565565b905f5260205f2001549050919050565b6040516bffffffffffffffffffffffff193360601b1660208201525f90819060340160405160208183030381529060405280519060200120905061055a848460025484611120565b9150505b92915050565b5f811561058f57606461057860328261158d565b60035461058591906115a0565b61055e91906115b7565b505060035490565b5f5460405163d505accf60e01b81526001600160a01b0389811660048301528881166024830152604482018890526064820187905260ff8616608483015260a4820185905260c482018490529091169063d505accf9060e4015f604051808303815f87803b158015610607575f80fd5b505af1158015610619573d5f803e3d5ffd5b50506040516bffffffffffffffffffffffff1960608b811b821660208401528a901b16603482015260488101889052606881018790526001600160f81b031960f887901b1660888201526089810185905260a981018490525f925060c901905060408051601f1981840301815282825280516020918201205f8181526005909252918120805460ff1916600117905590925082917f884dc78e49ae0a35ccef660d03d5f2fe8cf94dda96a672be6d499bbc934e392c9190a25050505050505050565b5f5460405163a9059cbb60e01b8152336004820152602481018390526001600160a01b039091169063a9059cbb906044016020604051808303815f875af1158015610728573d5f803e3d5ffd5b505050506040513d601f19601f8201168201806040525081019061074c91906115d6565b5050565b60028190556040518181527f90004c04698bc3322499a575ed3752dd4abf33e0a7294c06a787a0fe01bea9419060200160405180910390a150565b5f8181526006602052604090206002015460ff166107dc5760405162461bcd60e51b815260206004820152600e60248201526d139195081b9bdd081b1a5cdd195960921b60448201526064016104e6565b335f9081526004602052604090205460ff161561082d5760405162461bcd60e51b815260206004820152600f60248201526e105b1c9958591e4818db185a5b5959608a1b60448201526064016104e6565b5f6108375f610564565b5f546040516323b872dd60e01b81529192506001600160a01b0316906323b872dd9061086b90339030908690600401611541565b6020604051808303815f875af1158015610887573d5f803e3d5ffd5b505050506040513d601f19601f820116820180604052508101906108ab91906115d6565b6108e85760405162461bcd60e51b815260206004820152600e60248201526d14185e5b595b9d0819985a5b195960921b60448201526064016104e6565b600154604051632142170760e11b81526001600160a01b03909116906342842e0e9061091c90309033908790600401611541565b5f604051808303815f87803b158015610933575f80fd5b505af1158015610945573d5f803e3d5ffd5b5050335f8181526004602090815260408083208054600160ff199182161790915588845260068352818420600201805490911690558051878152918201929092529193508592507f79277b2ba2983fe2a5a300b591bc4ba54643ff0d6b31c1ba900e4b79b92a473e910160405180910390a35050565b600781815481106109ca575f80fd5b5f91825260209091200154905081565b6001546040516331a9108f60e11b81526004810184905230916001600160a01b031690636352211e90602401602060405180830381865afa158015610a21573d5f803e3d5ffd5b505050506040513d601f19601f82011682018060405250810190610a4591906115f1565b6001600160a01b031614610a975760405162461bcd60e51b8152602060048201526019602482015278139195081b9bdd081bdddb995908189e4818dbdb9d1c9858dd603a1b60448201526064016104e6565b5f8111610ae65760405162461bcd60e51b815260206004820152601c60248201527f5072696365206d7573742062652067726561746572207468616e20300000000060448201526064016104e6565b60408051606081018252838152602080820184815260018385018181525f8881526006855286812095518655925185830155516002909401805460ff19169415159490941790935560078054938401815581527fa66cc928b5edb82af9bd49922954155ab7b0942694bea4ce44661d9a8736c68890920185905582518481529081019190915283917f162ec0e3c08aa95adfe865dd7edc3609c1fb09c69fe3547a02e7e8dcc2681d54910160405180910390a25050565b5f8381526006602052604090206002015460ff16610bee5760405162461bcd60e51b815260206004820152600e60248201526d139195081b9bdd081b1a5cdd195960921b60448201526064016104e6565b335f9081526004602052604090205460ff1615610c3f5760405162461bcd60e51b815260206004820152600f60248201526e105b1c9958591e4818db185a5b5959608a1b60448201526064016104e6565b610c498282610512565b610c885760405162461bcd60e51b815260206004820152601060248201526f139bdd081a5b881dda1a5d195b1a5cdd60821b60448201526064016104e6565b5f5460405163e43252d760e01b81523360048201526001600160a01b039091169063e43252d7906024015f604051808303815f87803b158015610cc9575f80fd5b505af1158015610cdb573d5f803e3d5ffd5b505050505f610cea6001610564565b5f546040516323b872dd60e01b81529192506001600160a01b0316906323b872dd90610d1e90339030908690600401611541565b6020604051808303815f875af1158015610d3a573d5f803e3d5ffd5b505050506040513d601f19601f82011682018060405250810190610d5e91906115d6565b610d9b5760405162461bcd60e51b815260206004820152600e60248201526d14185e5b595b9d0819985a5b195960921b60448201526064016104e6565b600154604051632142170760e11b81526001600160a01b03909116906342842e0e90610dcf90309033908990600401611541565b5f604051808303815f87803b158015610de6575f80fd5b505af1158015610df8573d5f803e3d5ffd5b5050335f8181526004602090815260408083208054600160ff1991821681179092558b8552600684529382902060020180549094169093558051878152918201929092529193508792507f79277b2ba2983fe2a5a300b591bc4ba54643ff0d6b31c1ba900e4b79b92a473e910160405180910390a350505050565b604080515f8152602081019091526060908267ffffffffffffffff811115610e9d57610e9d61160c565b604051908082528060200260200182016040528015610ed057816020015b6060815260200190600190039081610ebb5790505b5091505f5b83811015610f5157610f2c30868684818110610ef357610ef3611565565b9050602002810190610f059190611620565b85604051602001610f1893929190611663565b6040516020818303038152906040526111c2565b838281518110610f3e57610f3e611565565b6020908102919091010152600101610ed5565b505092915050565b6001546040516331a9108f60e11b81526004810185905230916001600160a01b031690636352211e90602401602060405180830381865afa158015610fa0573d5f803e3d5ffd5b505050506040513d601f19601f82011682018060405250810190610fc491906115f1565b6001600160a01b0316146110165760405162461bcd60e51b8152602060048201526019602482015278139195081b9bdd081bdddb995908189e4818dbdb9d1c9858dd603a1b60448201526064016104e6565b5f82116110655760405162461bcd60e51b815260206004820152601c60248201527f5072696365206d7573742062652067726561746572207468616e20300000000060448201526064016104e6565b60408051606081018252848152602080820185815260018385018181525f8981526006855286812095518655925185830155516002909401805460ff19169415159490941790935560078054938401815590527fa66cc928b5edb82af9bd49922954155ab7b0942694bea4ce44661d9a8736c68890910185905581518481528315159181019190915284917f162ec0e3c08aa95adfe865dd7edc3609c1fb09c69fe3547a02e7e8dcc2681d54910160405180910390a2505050565b5f81815b858110156111b6575f87878381811061113f5761113f611565565b9050602002013590508083116111805760408051602081018590529081018290526060016040516020818303038152906040528051906020012092506111ad565b60408051602081018390529081018490526060016040516020818303038152906040528051906020012092505b50600101611124565b50909214949350505050565b60605f6111cf8484611262565b90508080156111f057505f3d11806111f057505f846001600160a01b03163b115b15611205576111fd611275565b91505061055e565b801561122f57604051639996b31560e01b81526001600160a01b03851660048201526024016104e6565b3d156112425761123d61128e565b61125b565b60405163d6bda27560e01b815260040160405180910390fd5b5092915050565b5f805f835160208501865af49392505050565b6040513d81523d5f602083013e3d602001810160405290565b6040513d5f823e3d81fd5b5f602082840312156112a9575f80fd5b5035919050565b5f8083601f8401126112c0575f80fd5b50813567ffffffffffffffff8111156112d7575f80fd5b6020830191508360208260051b85010111156112f1575f80fd5b9250929050565b5f8060208385031215611309575f80fd5b823567ffffffffffffffff81111561131f575f80fd5b61132b858286016112b0565b90969095509350505050565b8015158114611344575f80fd5b50565b5f60208284031215611357575f80fd5b813561136281611337565b9392505050565b6001600160a01b0381168114611344575f80fd5b5f805f805f805f60e0888a031215611393575f80fd5b873561139e81611369565b965060208801356113ae81611369565b95506040880135945060608801359350608088013560ff811681146113d1575f80fd5b9699959850939692959460a0840135945060c09093013592915050565b5f602082840312156113fe575f80fd5b813561136281611369565b5f806040838503121561141a575f80fd5b50508035926020909101359150565b5f805f6040848603121561143b575f80fd5b83359250602084013567ffffffffffffffff811115611458575f80fd5b611464868287016112b0565b9497909650939450505050565b5f5b8381101561148b578181015183820152602001611473565b50505f910152565b5f602080830181845280855180835260408601915060408160051b87010192508387015f5b828110156114fe57878503603f19018452815180518087526114df818989018a8501611471565b601f01601f1916959095018601945092850192908501906001016114b8565b5092979650505050505050565b5f805f6060848603121561151d575f80fd5b8335925060208401359150604084013561153681611337565b809150509250925092565b6001600160a01b039384168152919092166020820152604081019190915260600190565b634e487b7160e01b5f52603260045260245ffd5b634e487b7160e01b5f52601160045260245ffd5b8181038181111561055e5761055e611579565b808202811582820484141761055e5761055e611579565b5f826115d157634e487b7160e01b5f52601260045260245ffd5b500490565b5f602082840312156115e6575f80fd5b815161136281611337565b5f60208284031215611601575f80fd5b815161136281611369565b634e487b7160e01b5f52604160045260245ffd5b5f808335601e19843603018112611635575f80fd5b83018035915067ffffffffffffffff82111561164f575f80fd5b6020019150368190038213156112f1575f80fd5b828482375f8382015f8152835161167e818360208801611471565b019594505050505056fea264697066735822122012f3c56af83f5f8db536053b0098dafadb27fcdd820d200d0d610b1c7de17ca564736f6c63430008180033","linkReferences":{}},"methodIdentifiers":{"DISCOUNT()":"0d37b457","DISCOUNT_DIVISOR()":"656f8a25","activeListings(uint256)":"61cf4863","buyNFT(uint256)":"51ed8288","buyNFTInWhitelist(uint256,bytes32[])":"9b8f554a","calculatePrice(bool)":"21277c96","getActiveListing(uint256)":"1030f05f","getActiveListingsCount()":"7b55927c","getNFTListing(uint256)":"0ea59c4b","hasClaimed(address)":"73b2e80e","listNFT(uint256,uint256)":"94383f14","listNFTWhitelist(uint256,uint256,bool)":"e34bf0c5","listings(uint256)":"de74e57b","merkleRoot()":"2eb4a7ab","multicall(bytes[])":"ac9650d8","nftContract()":"d56d229d","nftPrice()":"0d39fc81","paymentToken()":"3013ce29","permitPrePay(address,address,uint256,uint256,uint8,bytes32,bytes32)":"25f69942","updateMerkleRoot(bytes32)":"4783f0ef","updateNFTPrice(uint256)":"b0d6af16","usedPermitSignatures(bytes32)":"466f4c26","verifyWhitelist(bytes32[])":"16b76df5","withdrawNFT(uint256)":"023245d7","withdrawTokens(uint256)":"315a095d"},"id":87}