{"abi":[{"type":"function","name":"allowance","inputs":[{"name":"","type":"address","internalType":"address"},{"name":"","type":"address","internalType":"address"}],"outputs":[{"name":"","type":"uint256","internalType":"uint256"}],"stateMutability":"view"},{"type":"function","name":"approve","inputs":[{"name":"spender","type":"address","internalType":"address"},{"name":"value","type":"uint256","internalType":"uint256"}],"outputs":[{"name":"","type":"bool","internalType":"bool"}],"stateMutability":"nonpayable"},{"type":"function","name":"balanceOf","inputs":[{"name":"","type":"address","internalType":"address"}],"outputs":[{"name":"","type":"uint256","internalType":"uint256"}],"stateMutability":"view"},{"type":"function","name":"decimals","inputs":[],"outputs":[{"name":"","type":"uint8","internalType":"uint8"}],"stateMutability":"view"},{"type":"function","name":"factory","inputs":[],"outputs":[{"name":"","type":"address","internalType":"address"}],"stateMutability":"view"},{"type":"function","name":"initialize","inputs":[{"name":"_symbol","type":"string","internalType":"string"},{"name":"_totalSupply","type":"uint256","internalType":"uint256"},{"name":"_perMint","type":"uint256","internalType":"uint256"},{"name":"_price","type":"uint256","internalType":"uint256"},{"name":"_issuer","type":"address","internalType":"address"},{"name":"_factory","type":"address","internalType":"address"},{"name":"_projectOwner","type":"address","internalType":"address"}],"outputs":[],"stateMutability":"nonpayable"},{"type":"function","name":"issuer","inputs":[],"outputs":[{"name":"","type":"address","internalType":"address"}],"stateMutability":"view"},{"type":"function","name":"maxSupply","inputs":[],"outputs":[{"name":"","type":"uint256","internalType":"uint256"}],"stateMutability":"view"},{"type":"function","name":"mint","inputs":[{"name":"to","type":"address","internalType":"address"},{"name":"amount","type":"uint256","internalType":"uint256"}],"outputs":[],"stateMutability":"nonpayable"},{"type":"function","name":"minted","inputs":[],"outputs":[{"name":"","type":"uint256","internalType":"uint256"}],"stateMutability":"view"},{"type":"function","name":"name","inputs":[],"outputs":[{"name":"","type":"string","internalType":"string"}],"stateMutability":"view"},{"type":"function","name":"perMint","inputs":[],"outputs":[{"name":"","type":"uint256","internalType":"uint256"}],"stateMutability":"view"},{"type":"function","name":"price","inputs":[],"outputs":[{"name":"","type":"uint256","internalType":"uint256"}],"stateMutability":"view"},{"type":"function","name":"projectOwner","inputs":[],"outputs":[{"name":"","type":"address","internalType":"address"}],"stateMutability":"view"},{"type":"function","name":"symbol","inputs":[],"outputs":[{"name":"","type":"string","internalType":"string"}],"stateMutability":"view"},{"type":"function","name":"totalSupply","inputs":[],"outputs":[{"name":"","type":"uint256","internalType":"uint256"}],"stateMutability":"view"},{"type":"function","name":"transfer","inputs":[{"name":"to","type":"address","internalType":"address"},{"name":"value","type":"uint256","internalType":"uint256"}],"outputs":[{"name":"","type":"bool","internalType":"bool"}],"stateMutability":"nonpayable"},{"type":"function","name":"transferFrom","inputs":[{"name":"from","type":"address","internalType":"address"},{"name":"to","type":"address","internalType":"address"},{"name":"value","type":"uint256","internalType":"uint256"}],"outputs":[{"name":"","type":"bool","internalType":"bool"}],"stateMutability":"nonpayable"},{"type":"event","name":"Approval","inputs":[{"name":"owner","type":"address","indexed":true,"internalType":"address"},{"name":"spender","type":"address","indexed":true,"internalType":"address"},{"name":"value","type":"uint256","indexed":false,"internalType":"uint256"}],"anonymous":false},{"type":"event","name":"Mint","inputs":[{"name":"to","type":"address","indexed":true,"internalType":"address"},{"name":"amount","type":"uint256","indexed":false,"internalType":"uint256"}],"anonymous":false},{"type":"event","name":"Transfer","inputs":[{"name":"from","type":"address","indexed":true,"internalType":"address"},{"name":"to","type":"address","indexed":true,"internalType":"address"},{"name":"value","type":"uint256","indexed":false,"internalType":"uint256"}],"anonymous":false}],"bytecode":{"object":"0x60806040526002805460ff1916601217905534801561001c575f80fd5b50610d508061002a5f395ff3fe608060405234801561000f575f80fd5b5060043610610111575f3560e01c806370a082311161009e578063a9059cbb1161006e578063a9059cbb14610234578063c45a015514610247578063d5abeb011461025a578063dd62ed3e14610263578063f8209d951461028d575f80fd5b806370a08231146101f157806395d89b4114610210578063a035b1fe14610218578063a4475ce414610221575f80fd5b80631d143848116100e45780631d1438481461017657806323b872dd146101a1578063313ce567146101b457806340c10f19146101d35780634f02c420146101e8575f80fd5b806306fdde0314610115578063095ea7b3146101335780630ed62b021461015657806318160ddd1461016d575b5f80fd5b61011d6102a0565b60405161012a9190610961565b60405180910390f35b6101466101413660046109ae565b61032b565b604051901515815260200161012a565b61015f60055481565b60405190815260200161012a565b61015f60035481565b600754610189906001600160a01b031681565b6040516001600160a01b03909116815260200161012a565b6101466101af3660046109d6565b610397565b6002546101c19060ff1681565b60405160ff909116815260200161012a565b6101e66101e13660046109ae565b61059f565b005b61015f600a5481565b61015f6101ff366004610a0f565b600b6020525f908152604090205481565b61011d610723565b61015f60065481565b600954610189906001600160a01b031681565b6101466102423660046109ae565b610730565b600854610189906001600160a01b031681565b61015f60045481565b61015f610271366004610a2f565b600c60209081525f928352604080842090915290825290205481565b6101e661029b366004610a74565b610863565b5f80546102ac90610b6b565b80601f01602080910402602001604051908101604052809291908181526020018280546102d890610b6b565b80156103235780601f106102fa57610100808354040283529160200191610323565b820191905f5260205f20905b81548152906001019060200180831161030657829003601f168201915b505050505081565b335f818152600c602090815260408083206001600160a01b038716808552925280832085905551919290917f8c5be1e5ebec7d5bd14f71427d1e84f3dd0314c0f7b2291e5b200ac8c7c3b925906103859086815260200190565b60405180910390a35060015b92915050565b5f6001600160a01b0383166103ee5760405162461bcd60e51b81526020600482015260186024820152775472616e7366657220746f207a65726f206164647265737360401b60448201526064015b60405180910390fd5b6001600160a01b0384165f908152600b602052604090205482111561044c5760405162461bcd60e51b8152602060048201526014602482015273496e73756666696369656e742062616c616e636560601b60448201526064016103e5565b6001600160a01b0384165f908152600c602090815260408083203384529091529020548211156104b75760405162461bcd60e51b8152602060048201526016602482015275496e73756666696369656e7420616c6c6f77616e636560501b60448201526064016103e5565b6001600160a01b0384165f908152600b6020526040812080548492906104de908490610bb7565b90915550506001600160a01b0383165f908152600b60205260408120805484929061050a908490610bca565b90915550506001600160a01b0384165f908152600c6020908152604080832033845290915281208054849290610541908490610bb7565b92505081905550826001600160a01b0316846001600160a01b03167fddf252ad1be2c89b69c2b068fc378daa952ba7f163c4a11628f55a4df523b3ef8460405161058d91815260200190565b60405180910390a35060019392505050565b6008546001600160a01b031633146105f15760405162461bcd60e51b815260206004820152601560248201527413db9b1e48199858dd1bdc9e4818d85b881b5a5b9d605a1b60448201526064016103e5565b60045481600a546106029190610bca565b11156106455760405162461bcd60e51b815260206004820152601260248201527145786365656473206d617820737570706c7960701b60448201526064016103e5565b6001600160a01b0382165f908152600b60205260408120805483929061066c908490610bca565b925050819055508060035f8282546106849190610bca565b9250508190555080600a5f82825461069c9190610bca565b90915550506040518181526001600160a01b038316907f0f6798a560793a54c3bcfe86a93cde1e73087d944c0ea20544137d41213968859060200160405180910390a26040518181526001600160a01b038316905f907fddf252ad1be2c89b69c2b068fc378daa952ba7f163c4a11628f55a4df523b3ef9060200160405180910390a35050565b600180546102ac90610b6b565b5f6001600160a01b0383166107825760405162461bcd60e51b81526020600482015260186024820152775472616e7366657220746f207a65726f206164647265737360401b60448201526064016103e5565b335f908152600b60205260409020548211156107d75760405162461bcd60e51b8152602060048201526014602482015273496e73756666696369656e742062616c616e636560601b60448201526064016103e5565b335f908152600b6020526040812080548492906107f5908490610bb7565b90915550506001600160a01b0383165f908152600b602052604081208054849290610821908490610bca565b90915550506040518281526001600160a01b0384169033907fddf252ad1be2c89b69c2b068fc378daa952ba7f163c4a11628f55a4df523b3ef90602001610385565b6008546001600160a01b0316156108b25760405162461bcd60e51b8152602060048201526013602482015272105b1c9958591e481a5b9a5d1a585b1a5e9959606a1b60448201526064016103e5565b866040516020016108c39190610bdd565b6040516020818303038152906040525f90816108df9190610c5e565b5060016108ec8882610c5e565b50600495909555600593909355600691909155600780546001600160a01b039283166001600160a01b03199182161790915560088054938316938216939093179092556009805491909316911617905550565b5f5b83811015610959578181015183820152602001610941565b50505f910152565b602081525f825180602084015261097f81604085016020870161093f565b601f01601f19169190910160400192915050565b80356001600160a01b03811681146109a9575f80fd5b919050565b5f80604083850312156109bf575f80fd5b6109c883610993565b946020939093013593505050565b5f805f606084860312156109e8575f80fd5b6109f184610993565b92506109ff60208501610993565b9150604084013590509250925092565b5f60208284031215610a1f575f80fd5b610a2882610993565b9392505050565b5f8060408385031215610a40575f80fd5b610a4983610993565b9150610a5760208401610993565b90509250929050565b634e487b7160e01b5f52604160045260245ffd5b5f805f805f805f60e0888a031215610a8a575f80fd5b873567ffffffffffffffff80821115610aa1575f80fd5b818a0191508a601f830112610ab4575f80fd5b813581811115610ac657610ac6610a60565b604051601f8201601f19908116603f01168101908382118183101715610aee57610aee610a60565b816040528281528d6020848701011115610b06575f80fd5b826020860160208301375f60208483010152809b505050505050602088013595506040880135945060608801359350610b4160808901610993565b9250610b4f60a08901610993565b9150610b5d60c08901610993565b905092959891949750929550565b600181811c90821680610b7f57607f821691505b602082108103610b9d57634e487b7160e01b5f52602260045260245ffd5b50919050565b634e487b7160e01b5f52601160045260245ffd5b8181038181111561039157610391610ba3565b8082018082111561039157610391610ba3565b6b026b2b6b2902a37b5b2b71d160a51b81525f8251610c0381600c85016020870161093f565b91909101600c0192915050565b601f821115610c59575f81815260208120601f850160051c81016020861015610c365750805b601f850160051c820191505b81811015610c5557828155600101610c42565b5050505b505050565b815167ffffffffffffffff811115610c7857610c78610a60565b610c8c81610c868454610b6b565b84610c10565b602080601f831160018114610cbf575f8415610ca85750858301515b5f19600386901b1c1916600185901b178555610c55565b5f85815260208120601f198616915b82811015610ced57888601518255948401946001909101908401610cce565b5085821015610d0a57878501515f19600388901b60f8161c191681555b5050505050600190811b0190555056fea26469706673582212200c312d41ede220ce71156b4ad62683969e015dad86c852d0ccd06c1e689ec6c364736f6c63430008140033","linkReferences":{}},"methodIdentifiers":{"allowance(address,address)":"dd62ed3e","approve(address,uint256)":"095ea7b3","balanceOf(address)":"70a08231","decimals()":"313ce567","factory()":"c45a0155","initialize(string,uint256,uint256,uint256,address,address,address)":"f8209d95","issuer()":"1d143848","maxSupply()":"d5abeb01","mint(address,uint256)":"40c10f19","minted()":"4f02c420","name()":"06fdde03","perMint()":"0ed62b02","price()":"a035b1fe","projectOwner()":"a4475ce4","symbol()":"95d89b41","totalSupply()":"18160ddd","transfer(address,uint256)":"a9059cbb","transferFrom(address,address,uint256)":"23b872dd"},"id":20}