{"abi":[{"type":"constructor","inputs":[{"name":"initialOwner","type":"address","internalType":"address"}],"stateMutability":"nonpayable"},{"type":"function","name":"CLOCK_MODE","inputs":[],"outputs":[{"name":"","type":"string","internalType":"string"}],"stateMutability":"view"},{"type":"function","name":"allowance","inputs":[{"name":"owner","type":"address","internalType":"address"},{"name":"spender","type":"address","internalType":"address"}],"outputs":[{"name":"","type":"uint256","internalType":"uint256"}],"stateMutability":"view"},{"type":"function","name":"approve","inputs":[{"name":"spender","type":"address","internalType":"address"},{"name":"value","type":"uint256","internalType":"uint256"}],"outputs":[{"name":"","type":"bool","internalType":"bool"}],"stateMutability":"nonpayable"},{"type":"function","name":"balanceOf","inputs":[{"name":"account","type":"address","internalType":"address"}],"outputs":[{"name":"","type":"uint256","internalType":"uint256"}],"stateMutability":"view"},{"type":"function","name":"checkpoints","inputs":[{"name":"account","type":"address","internalType":"address"},{"name":"pos","type":"uint32","internalType":"uint32"}],"outputs":[{"name":"","type":"tuple","internalType":"struct Checkpoints.Checkpoint208","components":[{"name":"_key","type":"uint48","internalType":"uint48"},{"name":"_value","type":"uint208","internalType":"uint208"}]}],"stateMutability":"view"},{"type":"function","name":"clock","inputs":[],"outputs":[{"name":"","type":"uint48","internalType":"uint48"}],"stateMutability":"view"},{"type":"function","name":"decimals","inputs":[],"outputs":[{"name":"","type":"uint8","internalType":"uint8"}],"stateMutability":"view"},{"type":"function","name":"delegate","inputs":[{"name":"delegatee","type":"address","internalType":"address"}],"outputs":[],"stateMutability":"nonpayable"},{"type":"function","name":"delegateBySig","inputs":[{"name":"delegatee","type":"address","internalType":"address"},{"name":"nonce","type":"uint256","internalType":"uint256"},{"name":"expiry","type":"uint256","internalType":"uint256"},{"name":"v","type":"uint8","internalType":"uint8"},{"name":"r","type":"bytes32","internalType":"bytes32"},{"name":"s","type":"bytes32","internalType":"bytes32"}],"outputs":[],"stateMutability":"nonpayable"},{"type":"function","name":"delegates","inputs":[{"name":"account","type":"address","internalType":"address"}],"outputs":[{"name":"","type":"address","internalType":"address"}],"stateMutability":"view"},{"type":"function","name":"eip712Domain","inputs":[],"outputs":[{"name":"fields","type":"bytes1","internalType":"bytes1"},{"name":"name","type":"string","internalType":"string"},{"name":"version","type":"string","internalType":"string"},{"name":"chainId","type":"uint256","internalType":"uint256"},{"name":"verifyingContract","type":"address","internalType":"address"},{"name":"salt","type":"bytes32","internalType":"bytes32"},{"name":"extensions","type":"uint256[]","internalType":"uint256[]"}],"stateMutability":"view"},{"type":"function","name":"getPastTotalSupply","inputs":[{"name":"timepoint","type":"uint256","internalType":"uint256"}],"outputs":[{"name":"","type":"uint256","internalType":"uint256"}],"stateMutability":"view"},{"type":"function","name":"getPastVotes","inputs":[{"name":"account","type":"address","internalType":"address"},{"name":"timepoint","type":"uint256","internalType":"uint256"}],"outputs":[{"name":"","type":"uint256","internalType":"uint256"}],"stateMutability":"view"},{"type":"function","name":"getVotes","inputs":[{"name":"account","type":"address","internalType":"address"}],"outputs":[{"name":"","type":"uint256","internalType":"uint256"}],"stateMutability":"view"},{"type":"function","name":"mint","inputs":[{"name":"to","type":"address","internalType":"address"},{"name":"amount","type":"uint256","internalType":"uint256"}],"outputs":[],"stateMutability":"nonpayable"},{"type":"function","name":"name","inputs":[],"outputs":[{"name":"","type":"string","internalType":"string"}],"stateMutability":"view"},{"type":"function","name":"nonces","inputs":[{"name":"owner","type":"address","internalType":"address"}],"outputs":[{"name":"","type":"uint256","internalType":"uint256"}],"stateMutability":"view"},{"type":"function","name":"numCheckpoints","inputs":[{"name":"account","type":"address","internalType":"address"}],"outputs":[{"name":"","type":"uint32","internalType":"uint32"}],"stateMutability":"view"},{"type":"function","name":"owner","inputs":[],"outputs":[{"name":"","type":"address","internalType":"address"}],"stateMutability":"view"},{"type":"function","name":"renounceOwnership","inputs":[],"outputs":[],"stateMutability":"nonpayable"},{"type":"function","name":"symbol","inputs":[],"outputs":[{"name":"","type":"string","internalType":"string"}],"stateMutability":"view"},{"type":"function","name":"totalSupply","inputs":[],"outputs":[{"name":"","type":"uint256","internalType":"uint256"}],"stateMutability":"view"},{"type":"function","name":"transfer","inputs":[{"name":"to","type":"address","internalType":"address"},{"name":"value","type":"uint256","internalType":"uint256"}],"outputs":[{"name":"","type":"bool","internalType":"bool"}],"stateMutability":"nonpayable"},{"type":"function","name":"transferFrom","inputs":[{"name":"from","type":"address","internalType":"address"},{"name":"to","type":"address","internalType":"address"},{"name":"value","type":"uint256","internalType":"uint256"}],"outputs":[{"name":"","type":"bool","internalType":"bool"}],"stateMutability":"nonpayable"},{"type":"function","name":"transferOwnership","inputs":[{"name":"newOwner","type":"address","internalType":"address"}],"outputs":[],"stateMutability":"nonpayable"},{"type":"event","name":"Approval","inputs":[{"name":"owner","type":"address","indexed":true,"internalType":"address"},{"name":"spender","type":"address","indexed":true,"internalType":"address"},{"name":"value","type":"uint256","indexed":false,"internalType":"uint256"}],"anonymous":false},{"type":"event","name":"DelegateChanged","inputs":[{"name":"delegator","type":"address","indexed":true,"internalType":"address"},{"name":"fromDelegate","type":"address","indexed":true,"internalType":"address"},{"name":"toDelegate","type":"address","indexed":true,"internalType":"address"}],"anonymous":false},{"type":"event","name":"DelegateVotesChanged","inputs":[{"name":"delegate","type":"address","indexed":true,"internalType":"address"},{"name":"previousVotes","type":"uint256","indexed":false,"internalType":"uint256"},{"name":"newVotes","type":"uint256","indexed":false,"internalType":"uint256"}],"anonymous":false},{"type":"event","name":"EIP712DomainChanged","inputs":[],"anonymous":false},{"type":"event","name":"OwnershipTransferred","inputs":[{"name":"previousOwner","type":"address","indexed":true,"internalType":"address"},{"name":"newOwner","type":"address","indexed":true,"internalType":"address"}],"anonymous":false},{"type":"event","name":"Transfer","inputs":[{"name":"from","type":"address","indexed":true,"internalType":"address"},{"name":"to","type":"address","indexed":true,"internalType":"address"},{"name":"value","type":"uint256","indexed":false,"internalType":"uint256"}],"anonymous":false},{"type":"error","name":"CheckpointUnorderedInsertion","inputs":[]},{"type":"error","name":"ECDSAInvalidSignature","inputs":[]},{"type":"error","name":"ECDSAInvalidSignatureLength","inputs":[{"name":"length","type":"uint256","internalType":"uint256"}]},{"type":"error","name":"ECDSAInvalidSignatureS","inputs":[{"name":"s","type":"bytes32","internalType":"bytes32"}]},{"type":"error","name":"ERC20ExceededSafeSupply","inputs":[{"name":"increasedSupply","type":"uint256","internalType":"uint256"},{"name":"cap","type":"uint256","internalType":"uint256"}]},{"type":"error","name":"ERC20InsufficientAllowance","inputs":[{"name":"spender","type":"address","internalType":"address"},{"name":"allowance","type":"uint256","internalType":"uint256"},{"name":"needed","type":"uint256","internalType":"uint256"}]},{"type":"error","name":"ERC20InsufficientBalance","inputs":[{"name":"sender","type":"address","internalType":"address"},{"name":"balance","type":"uint256","internalType":"uint256"},{"name":"needed","type":"uint256","internalType":"uint256"}]},{"type":"error","name":"ERC20InvalidApprover","inputs":[{"name":"approver","type":"address","internalType":"address"}]},{"type":"error","name":"ERC20InvalidReceiver","inputs":[{"name":"receiver","type":"address","internalType":"address"}]},{"type":"error","name":"ERC20InvalidSender","inputs":[{"name":"sender","type":"address","internalType":"address"}]},{"type":"error","name":"ERC20InvalidSpender","inputs":[{"name":"spender","type":"address","internalType":"address"}]},{"type":"error","name":"ERC5805FutureLookup","inputs":[{"name":"timepoint","type":"uint256","internalType":"uint256"},{"name":"clock","type":"uint48","internalType":"uint48"}]},{"type":"error","name":"ERC6372InconsistentClock","inputs":[]},{"type":"error","name":"InvalidAccountNonce","inputs":[{"name":"account","type":"address","internalType":"address"},{"name":"currentNonce","type":"uint256","internalType":"uint256"}]},{"type":"error","name":"InvalidShortString","inputs":[]},{"type":"error","name":"OwnableInvalidOwner","inputs":[{"name":"owner","type":"address","internalType":"address"}]},{"type":"error","name":"OwnableUnauthorizedAccount","inputs":[{"name":"account","type":"address","internalType":"address"}]},{"type":"error","name":"SafeCastOverflowedUintDowncast","inputs":[{"name":"bits","type":"uint8","internalType":"uint8"},{"name":"value","type":"uint256","internalType":"uint256"}]},{"type":"error","name":"StringTooLong","inputs":[{"name":"str","type":"string","internalType":"string"}]},{"type":"error","name":"VotesExpiredSignature","inputs":[{"name":"expiry","type":"uint256","internalType":"uint256"}]}],"bytecode":{"object":"0x61016060405234801562000011575f80fd5b50604051620029c0380380620029c083398101604081905262000034916200094d565b806040518060400160405280600c81526020016b2b37ba34b733902a37b5b2b760a11b815250604051806040016040528060018152602001603160f81b8152506040518060400160405280600c81526020016b2b37ba34b733902a37b5b2b760a11b815250604051806040016040528060038152602001621593d560ea1b8152508160039081620000c6919062000a12565b506004620000d5828262000a12565b50620000e791508390506005620001f8565b61012052620000f8816006620001f8565b61014052815160208084019190912060e052815190820120610100524660a0526200018560e05161010051604080517f8b73c3c69bb8fe3d512ecc4cf759cc79239f7b179b0ffacaa9a75d522b39400f60208201529081019290925260608201524660808201523060a08201525f9060c00160405160208183030381529060405280519060200120905090565b60805250503060c0526001600160a01b038116620001bd57604051631e4fbdf760e01b81525f60048201526024015b60405180910390fd5b620001c88162000230565b50620001f133620001dc6012600a62000beb565b620001eb90620f424062000bfb565b62000281565b5062000d00565b5f60208351101562000217576200020f83620002bd565b90506200022a565b8162000224848262000a12565b5060ff90505b92915050565b600b80546001600160a01b038381166001600160a01b0319831681179093556040519116919082907f8be0079c531659141344cd1fd0a4f28419497f9722a3daafe3b4186f6b6457e0905f90a35050565b6001600160a01b038216620002ac5760405163ec442f0560e01b81525f6004820152602401620001b4565b620002b95f8383620002ff565b5050565b5f80829050601f81511115620002ea578260405163305a27a960e01b8152600401620001b4919062000c15565b8051620002f78262000c63565b179392505050565b6200030c83838362000311565b505050565b6200031e8383836200037f565b6001600160a01b03831662000372575f6200033860025490565b90506001600160d01b03808211156200036f57604051630e58ae9360e11b81526004810183905260248101829052604401620001b4565b50505b6200030c838383620004ae565b6001600160a01b038316620003ad578060025f828254620003a1919062000c87565b909155506200041f9050565b6001600160a01b0383165f9081526020819052604090205481811015620004015760405163391434e360e21b81526001600160a01b03851660048201526024810182905260448101839052606401620001b4565b6001600160a01b0384165f9081526020819052604090209082900390555b6001600160a01b0382166200043d576002805482900390556200045b565b6001600160a01b0382165f9081526020819052604090208054820190555b816001600160a01b0316836001600160a01b03167fddf252ad1be2c89b69c2b068fc378daa952ba7f163c4a11628f55a4df523b3ef83604051620004a191815260200190565b60405180910390a3505050565b6001600160a01b038316620004e357620004e0600a620007a36200054560201b17620004da8462000559565b62000592565b50505b6001600160a01b03821662000512576200050f600a620007ae620005ce60201b17620004da8462000559565b50505b6001600160a01b038381165f908152600860205260408082205485841683529120546200030c92918216911683620005db565b5f62000552828462000c9d565b9392505050565b5f6001600160d01b038211156200058e576040516306dfcc6560e41b815260d0600482015260248101839052604401620001b4565b5090565b5f80620005c1620005a26200073d565b620005b8620005b1886200074d565b868860201c565b87919062000799565b915091505b935093915050565b5f62000552828462000cc7565b816001600160a01b0316836001600160a01b031614158015620005fd57505f81115b156200030c576001600160a01b038316156200069e576001600160a01b0383165f908152600960209081526040822082916200064a9190620005ce901b620007ae17620004da8662000559565b6001600160d01b031691506001600160d01b03169150846001600160a01b03165f80516020620029a0833981519152838360405162000693929190918252602082015260400190565b60405180910390a250505b6001600160a01b038216156200030c576001600160a01b0382165f90815260096020908152604082208291620006e5919062000545901b620007a317620004da8662000559565b6001600160d01b031691506001600160d01b03169150836001600160a01b03165f80516020620029a083398151915283836040516200072e929190918252602082015260400190565b60405180910390a25050505050565b5f62000748620007a8565b905090565b80545f908015620007915762000777836200076a60018462000cea565b5f91825260209091200190565b54660100000000000090046001600160d01b031662000552565b5f9392505050565b5f80620005c1858585620007b4565b5f620007484362000919565b82545f9081908015620008bb575f620007d4876200076a60018562000cea565b805490915065ffffffffffff80821691660100000000000090046001600160d01b03169088168211156200081b57604051632520601d60e01b815260040160405180910390fd5b8765ffffffffffff168265ffffffffffff16036200085957825465ffffffffffff1666010000000000006001600160d01b03891602178355620008ac565b6040805180820190915265ffffffffffff808a1682526001600160d01b03808a1660208085019182528d54600181018f555f8f815291909120945191519092166601000000000000029216919091179101555b9450859350620005c692505050565b50506040805180820190915265ffffffffffff80851682526001600160d01b0380851660208085019182528854600181018a555f8a8152918220955192519093166601000000000000029190931617920191909155905081620005c6565b5f65ffffffffffff8211156200058e576040516306dfcc6560e41b81526030600482015260248101839052604401620001b4565b5f602082840312156200095e575f80fd5b81516001600160a01b038116811462000552575f80fd5b634e487b7160e01b5f52604160045260245ffd5b600181811c908216806200099e57607f821691505b602082108103620009bd57634e487b7160e01b5f52602260045260245ffd5b50919050565b601f8211156200030c57805f5260205f20601f840160051c81016020851015620009ea5750805b601f840160051c820191505b8181101562000a0b575f8155600101620009f6565b5050505050565b81516001600160401b0381111562000a2e5762000a2e62000975565b62000a468162000a3f845462000989565b84620009c3565b602080601f83116001811462000a7c575f841562000a645750858301515b5f19600386901b1c1916600185901b17855562000ad6565b5f85815260208120601f198616915b8281101562000aac5788860151825594840194600190910190840162000a8b565b508582101562000aca57878501515f19600388901b60f8161c191681555b505060018460011b0185555b505050505050565b634e487b7160e01b5f52601160045260245ffd5b600181815b8085111562000b3257815f190482111562000b165762000b1662000ade565b8085161562000b2457918102915b93841c939080029062000af7565b509250929050565b5f8262000b4a575060016200022a565b8162000b5857505f6200022a565b816001811462000b71576002811462000b7c5762000b9c565b60019150506200022a565b60ff84111562000b905762000b9062000ade565b50506001821b6200022a565b5060208310610133831016604e8410600b841016171562000bc1575081810a6200022a565b62000bcd838362000af2565b805f190482111562000be35762000be362000ade565b029392505050565b5f6200055260ff84168362000b3a565b80820281158282048414176200022a576200022a62000ade565b5f602080835283518060208501525f5b8181101562000c435785810183015185820160400152820162000c25565b505f604082860101526040601f19601f8301168501019250505092915050565b80516020808301519190811015620009bd575f1960209190910360031b1b16919050565b808201808211156200022a576200022a62000ade565b6001600160d01b0381811683821601908082111562000cc05762000cc062000ade565b5092915050565b6001600160d01b0382811682821603908082111562000cc05762000cc062000ade565b818103818111156200022a576200022a62000ade565b60805160a05160c05160e051610100516101205161014051611c4e62000d525f395f610b2401525f610af701525f61125801525f61123001525f61118b01525f6111b501525f6111df0152611c4e5ff3fe608060405234801561000f575f80fd5b506004361061016d575f3560e01c8063715018a6116100d957806395d89b4111610093578063c3cda5201161006e578063c3cda52014610378578063dd62ed3e1461038b578063f1127ed8146103c3578063f2fde38b14610402575f80fd5b806395d89b411461034a5780639ab24eb014610352578063a9059cbb14610365575f80fd5b8063715018a6146102bc5780637ecebe00146102c457806384b0196e146102ec5780638da5cb5b146103075780638e539e8c1461031857806391ddadf41461032b575f80fd5b806340c10f191161012a57806340c10f19146101f95780634bf5d7e91461020e578063587cde1e146102165780635c19a95c146102595780636fcfff451461026c57806370a0823114610294575f80fd5b806306fdde0314610171578063095ea7b31461018f57806318160ddd146101b257806323b872dd146101c4578063313ce567146101d75780633a46b1a8146101e6575b5f80fd5b610179610415565b6040516101869190611905565b60405180910390f35b6101a261019d366004611932565b6104a5565b6040519015158152602001610186565b6002545b604051908152602001610186565b6101a26101d236600461195a565b6104be565b60405160128152602001610186565b6101b66101f4366004611932565b6104e1565b61020c610207366004611932565b61051b565b005b610179610531565b610241610224366004611993565b6001600160a01b039081165f908152600860205260409020541690565b6040516001600160a01b039091168152602001610186565b61020c610267366004611993565b6105a9565b61027f61027a366004611993565b6105b4565b60405163ffffffff9091168152602001610186565b6101b66102a2366004611993565b6001600160a01b03165f9081526020819052604090205490565b61020c6105be565b6101b66102d2366004611993565b6001600160a01b03165f9081526007602052604090205490565b6102f46105d1565b60405161018697969594939291906119ac565b600b546001600160a01b0316610241565b6101b6610326366004611a43565b610613565b610333610637565b60405165ffffffffffff9091168152602001610186565b610179610645565b6101b6610360366004611993565b610654565b6101a2610373366004611932565b610674565b61020c610386366004611a5a565b610681565b6101b6610399366004611ab5565b6001600160a01b039182165f90815260016020908152604080832093909416825291909152205490565b6103d66103d1366004611ae6565b610742565b60408051825165ffffffffffff1681526020928301516001600160d01b03169281019290925201610186565b61020c610410366004611993565b610766565b60606003805461042490611b23565b80601f016020809104026020016040519081016040528092919081815260200182805461045090611b23565b801561049b5780601f106104725761010080835404028352916020019161049b565b820191905f5260205f20905b81548152906001019060200180831161047e57829003601f168201915b5050505050905090565b5f336104b28185856107b9565b60019150505b92915050565b5f336104cb8582856107cb565b6104d6858585610847565b506001949350505050565b5f61050b6104ee836108a4565b6001600160a01b0385165f908152600960205260409020906108f2565b6001600160d01b03169392505050565b6105236109a2565b61052d82826109cf565b5050565b606061053b610a03565b65ffffffffffff1661054b610637565b65ffffffffffff1614610571576040516301bfc1c560e61b815260040160405180910390fd5b5060408051808201909152601d81527f6d6f64653d626c6f636b6e756d6265722666726f6d3d64656661756c74000000602082015290565b3361052d8183610a0d565b5f6104b882610a7e565b6105c66109a2565b6105cf5f610a9f565b565b5f6060805f805f60606105e2610af0565b6105ea610b1d565b604080515f80825260208201909252600f60f81b9b939a50919850469750309650945092509050565b5f610628610620836108a4565b600a906108f2565b6001600160d01b031692915050565b5f610640610a03565b905090565b60606004805461042490611b23565b6001600160a01b0381165f90815260096020526040812061062890610b4a565b5f336104b2818585610847565b834211156106aa57604051632341d78760e11b8152600481018590526024015b60405180910390fd5b604080517fe48329057bfd03d55e49b547132e39cffd9c1820ad7b9d4c5307691425d15adf60208201526001600160a01b0388169181019190915260608101869052608081018590525f906107239061071b9060a00160405160208183030381529060405280519060200120610b81565b858585610bad565b905061072f8187610bd9565b6107398188610a0d565b50505050505050565b604080518082019091525f808252602082015261075f8383610c2b565b9392505050565b61076e6109a2565b6001600160a01b03811661079757604051631e4fbdf760e01b81525f60048201526024016106a1565b6107a081610a9f565b50565b5f61075f8284611b6f565b5f61075f8284611b96565b6107c68383836001610c5f565b505050565b6001600160a01b038381165f908152600160209081526040808320938616835292905220545f19811015610841578181101561083357604051637dc7a0d960e11b81526001600160a01b038416600482015260248101829052604481018390526064016106a1565b61084184848484035f610c5f565b50505050565b6001600160a01b03831661087057604051634b637e8f60e11b81525f60048201526024016106a1565b6001600160a01b0382166108995760405163ec442f0560e01b81525f60048201526024016106a1565b6107c6838383610d31565b5f806108ae610637565b90508065ffffffffffff1683106108e957604051637669fc0f60e11b81526004810184905265ffffffffffff821660248201526044016106a1565b61075f83610d3c565b81545f908181600581111561094e575f61090b84610d72565b6109159085611bb6565b5f8881526020902090915081015465ffffffffffff908116908716101561093e5780915061094c565b610949816001611bc9565b92505b505b5f61095b87878585610eca565b905080156109955761097f87610972600184611bb6565b5f91825260209091200190565b54600160301b90046001600160d01b0316610997565b5f5b979650505050505050565b600b546001600160a01b031633146105cf5760405163118cdaa760e01b81523360048201526024016106a1565b6001600160a01b0382166109f85760405163ec442f0560e01b81525f60048201526024016106a1565b61052d5f8383610d31565b5f61064043610d3c565b6001600160a01b038281165f8181526008602052604080822080548686166001600160a01b0319821681179092559151919094169392849290917f3134e8a2e6d97e929a7e54011ea5485d7d196dd5f0ba4d4ef95803e8e3fc257f9190a46107c68183610a7986610f20565b610f3d565b6001600160a01b0381165f908152600960205260408120546104b8906110a6565b600b80546001600160a01b038381166001600160a01b0319831681179093556040519116919082907f8be0079c531659141344cd1fd0a4f28419497f9722a3daafe3b4186f6b6457e0905f90a35050565b60606106407f000000000000000000000000000000000000000000000000000000000000000060056110d6565b60606106407f000000000000000000000000000000000000000000000000000000000000000060066110d6565b80545f908015610b7957610b6383610972600184611bb6565b54600160301b90046001600160d01b031661075f565b5f9392505050565b5f6104b8610b8d61117f565b8360405161190160f01b8152600281019290925260228201526042902090565b5f805f80610bbd888888886112a8565b925092509250610bcd8282611370565b50909695505050505050565b6001600160a01b0382165f9081526007602052604090208054600181019091558181146107c6576040516301d4b62360e61b81526001600160a01b0384166004820152602481018290526044016106a1565b604080518082019091525f80825260208201526001600160a01b0383165f90815260096020526040902061075f9083611428565b6001600160a01b038416610c885760405163e602df0560e01b81525f60048201526024016106a1565b6001600160a01b038316610cb157604051634a1406b160e11b81525f60048201526024016106a1565b6001600160a01b038085165f908152600160209081526040808320938716835292905220829055801561084157826001600160a01b0316846001600160a01b03167f8c5be1e5ebec7d5bd14f71427d1e84f3dd0314c0f7b2291e5b200ac8c7c3b92584604051610d2391815260200190565b60405180910390a350505050565b6107c6838383611495565b5f65ffffffffffff821115610d6e576040516306dfcc6560e41b815260306004820152602481018390526044016106a1565b5090565b5f60018211610d7f575090565b816001600160801b8210610d985760809190911c9060401b5b680100000000000000008210610db35760409190911c9060201b5b6401000000008210610dca5760209190911c9060101b5b620100008210610ddf5760109190911c9060081b5b6101008210610df35760089190911c9060041b5b60108210610e065760049190911c9060021b5b60048210610e125760011b5b600302600190811c90818581610e2a57610e2a611bdc565b048201901c90506001818581610e4257610e42611bdc565b048201901c90506001818581610e5a57610e5a611bdc565b048201901c90506001818581610e7257610e72611bdc565b048201901c90506001818581610e8a57610e8a611bdc565b048201901c90506001818581610ea257610ea2611bdc565b048201901c9050610ec1818581610ebb57610ebb611bdc565b04821190565b90039392505050565b5f5b81831015610f18575f85815260209020838316600285851804019081015465ffffffffffff86811691161115610f0457809250610f12565b610f0f816001611bc9565b93505b50610ecc565b509392505050565b6001600160a01b0381165f908152602081905260408120546104b8565b816001600160a01b0316836001600160a01b031614158015610f5e57505f81115b156107c6576001600160a01b03831615611005576001600160a01b0383165f9081526009602052604081208190610fa0906107ae610f9b866114fb565b61152e565b6001600160d01b031691506001600160d01b03169150846001600160a01b03167fdec2bacdd2f05b59de34da9b523dff8be42e5e38e818c82fdb0bae774387a7248383604051610ffa929190918252602082015260400190565b60405180910390a250505b6001600160a01b038216156107c6576001600160a01b0382165f908152600960205260408120819061103d906107a3610f9b866114fb565b6001600160d01b031691506001600160d01b03169150836001600160a01b03167fdec2bacdd2f05b59de34da9b523dff8be42e5e38e818c82fdb0bae774387a7248383604051611097929190918252602082015260400190565b60405180910390a25050505050565b5f63ffffffff821115610d6e576040516306dfcc6560e41b815260206004820152602481018390526044016106a1565b606060ff83146110f0576110e983611566565b90506104b8565b8180546110fc90611b23565b80601f016020809104026020016040519081016040528092919081815260200182805461112890611b23565b80156111735780601f1061114a57610100808354040283529160200191611173565b820191905f5260205f20905b81548152906001019060200180831161115657829003601f168201915b505050505090506104b8565b5f306001600160a01b037f0000000000000000000000000000000000000000000000000000000000000000161480156111d757507f000000000000000000000000000000000000000000000000000000000000000046145b1561120157507f000000000000000000000000000000000000000000000000000000000000000090565b610640604080517f8b73c3c69bb8fe3d512ecc4cf759cc79239f7b179b0ffacaa9a75d522b39400f60208201527f0000000000000000000000000000000000000000000000000000000000000000918101919091527f000000000000000000000000000000000000000000000000000000000000000060608201524660808201523060a08201525f9060c00160405160208183030381529060405280519060200120905090565b5f80807f7fffffffffffffffffffffffffffffff5d576e7357a4501ddfe92f46681b20a08411156112e157505f91506003905082611366565b604080515f808252602082018084528a905260ff891692820192909252606081018790526080810186905260019060a0016020604051602081039080840390855afa158015611332573d5f803e3d5ffd5b5050604051601f1901519150506001600160a01b03811661135d57505f925060019150829050611366565b92505f91508190505b9450945094915050565b5f82600381111561138357611383611bf0565b0361138c575050565b60018260038111156113a0576113a0611bf0565b036113be5760405163f645eedf60e01b815260040160405180910390fd5b60028260038111156113d2576113d2611bf0565b036113f35760405163fce698f760e01b8152600481018290526024016106a1565b600382600381111561140757611407611bf0565b0361052d576040516335e2f38360e21b8152600481018290526024016106a1565b604080518082019091525f8082526020820152825f018263ffffffff168154811061145557611455611c04565b5f9182526020918290206040805180820190915291015465ffffffffffff81168252600160301b90046001600160d01b0316918101919091529392505050565b6114a08383836115a3565b6001600160a01b0383166114f0575f6114b860025490565b90506001600160d01b03808211156114ed57604051630e58ae9360e11b815260048101839052602481018290526044016106a1565b50505b6107c68383836116c9565b5f6001600160d01b03821115610d6e576040516306dfcc6560e41b815260d06004820152602481018390526044016106a1565b5f8061155961153b610637565b61155161154788610b4a565b868863ffffffff16565b87919061173e565b915091505b935093915050565b60605f6115728361174b565b6040805160208082528183019092529192505f91906020820181803683375050509182525060208101929092525090565b6001600160a01b0383166115cd578060025f8282546115c29190611bc9565b9091555061163d9050565b6001600160a01b0383165f908152602081905260409020548181101561161f5760405163391434e360e21b81526001600160a01b038516600482015260248101829052604481018390526064016106a1565b6001600160a01b0384165f9081526020819052604090209082900390555b6001600160a01b03821661165957600280548290039055611677565b6001600160a01b0382165f9081526020819052604090208054820190555b816001600160a01b0316836001600160a01b03167fddf252ad1be2c89b69c2b068fc378daa952ba7f163c4a11628f55a4df523b3ef836040516116bc91815260200190565b60405180910390a3505050565b6001600160a01b0383166116eb576116e8600a6107a3610f9b846114fb565b50505b6001600160a01b03821661170d5761170a600a6107ae610f9b846114fb565b50505b6001600160a01b038381165f908152600860205260408082205485841683529120546107c692918216911683610f3d565b5f80611559858585611772565b5f60ff8216601f8111156104b857604051632cd44ac360e21b815260040160405180910390fd5b82545f9081908015611868575f61178e87610972600185611bb6565b805490915065ffffffffffff80821691600160301b90046001600160d01b03169088168211156117d157604051632520601d60e01b815260040160405180910390fd5b8765ffffffffffff168265ffffffffffff160361180a57825465ffffffffffff16600160301b6001600160d01b0389160217835561185a565b6040805180820190915265ffffffffffff808a1682526001600160d01b03808a1660208085019182528d54600181018f555f8f81529190912094519151909216600160301b029216919091179101555b945085935061155e92505050565b50506040805180820190915265ffffffffffff80851682526001600160d01b0380851660208085019182528854600181018a555f8a815291822095519251909316600160301b02919093161792019190915590508161155e565b5f81518084525f5b818110156118e6576020818501810151868301820152016118ca565b505f602082860101526020601f19601f83011685010191505092915050565b602081525f61075f60208301846118c2565b80356001600160a01b038116811461192d575f80fd5b919050565b5f8060408385031215611943575f80fd5b61194c83611917565b946020939093013593505050565b5f805f6060848603121561196c575f80fd5b61197584611917565b925061198360208501611917565b9150604084013590509250925092565b5f602082840312156119a3575f80fd5b61075f82611917565b60ff60f81b881681525f602060e060208401526119cc60e084018a6118c2565b83810360408501526119de818a6118c2565b606085018990526001600160a01b038816608086015260a0850187905284810360c0860152855180825260208088019350909101905f5b81811015611a3157835183529284019291840191600101611a15565b50909c9b505050505050505050505050565b5f60208284031215611a53575f80fd5b5035919050565b5f805f805f8060c08789031215611a6f575f80fd5b611a7887611917565b95506020870135945060408701359350606087013560ff81168114611a9b575f80fd5b9598949750929560808101359460a0909101359350915050565b5f8060408385031215611ac6575f80fd5b611acf83611917565b9150611add60208401611917565b90509250929050565b5f8060408385031215611af7575f80fd5b611b0083611917565b9150602083013563ffffffff81168114611b18575f80fd5b809150509250929050565b600181811c90821680611b3757607f821691505b602082108103611b5557634e487b7160e01b5f52602260045260245ffd5b50919050565b634e487b7160e01b5f52601160045260245ffd5b6001600160d01b03818116838216019080821115611b8f57611b8f611b5b565b5092915050565b6001600160d01b03828116828216039080821115611b8f57611b8f611b5b565b818103818111156104b8576104b8611b5b565b808201808211156104b8576104b8611b5b565b634e487b7160e01b5f52601260045260245ffd5b634e487b7160e01b5f52602160045260245ffd5b634e487b7160e01b5f52603260045260245ffdfea2646970667358221220019c8fde674bf7f20a4943912129966abfd337aca644f73959102e8928b5b38e64736f6c63430008180033dec2bacdd2f05b59de34da9b523dff8be42e5e38e818c82fdb0bae774387a724","linkReferences":{}},"methodIdentifiers":{"CLOCK_MODE()":"4bf5d7e9","allowance(address,address)":"dd62ed3e","approve(address,uint256)":"095ea7b3","balanceOf(address)":"70a08231","checkpoints(address,uint32)":"f1127ed8","clock()":"91ddadf4","decimals()":"313ce567","delegate(address)":"5c19a95c","delegateBySig(address,uint256,uint256,uint8,bytes32,bytes32)":"c3cda520","delegates(address)":"587cde1e","eip712Domain()":"84b0196e","getPastTotalSupply(uint256)":"8e539e8c","getPastVotes(address,uint256)":"3a46b1a8","getVotes(address)":"9ab24eb0","mint(address,uint256)":"40c10f19","name()":"06fdde03","nonces(address)":"7ecebe00","numCheckpoints(address)":"6fcfff45","owner()":"8da5cb5b","renounceOwnership()":"715018a6","symbol()":"95d89b41","totalSupply()":"18160ddd","transfer(address,uint256)":"a9059cbb","transferFrom(address,address,uint256)":"23b872dd","transferOwnership(address)":"f2fde38b"},"id":66}