{"abi":[{"type":"constructor","inputs":[],"stateMutability":"nonpayable"},{"type":"function","name":"deployMeme","inputs":[{"name":"symbol","type":"string","internalType":"string"},{"name":"totalSupply","type":"uint256","internalType":"uint256"},{"name":"perMint","type":"uint256","internalType":"uint256"},{"name":"price","type":"uint256","internalType":"uint256"}],"outputs":[{"name":"","type":"address","internalType":"address"}],"stateMutability":"nonpayable"},{"type":"function","name":"implementation","inputs":[],"outputs":[{"name":"","type":"address","internalType":"address"}],"stateMutability":"view"},{"type":"function","name":"memeTokens","inputs":[{"name":"","type":"address","internalType":"address"}],"outputs":[{"name":"symbol","type":"string","internalType":"string"},{"name":"totalSupply","type":"uint256","internalType":"uint256"},{"name":"perMint","type":"uint256","internalType":"uint256"},{"name":"price","type":"uint256","internalType":"uint256"},{"name":"issuer","type":"address","internalType":"address"}],"stateMutability":"view"},{"type":"function","name":"mintMeme","inputs":[{"name":"tokenAddr","type":"address","internalType":"address"}],"outputs":[],"stateMutability":"payable"},{"type":"function","name":"projectOwner","inputs":[],"outputs":[{"name":"","type":"address","internalType":"address"}],"stateMutability":"view"},{"type":"event","name":"MemeDeployed","inputs":[{"name":"tokenAddress","type":"address","indexed":true,"internalType":"address"},{"name":"symbol","type":"string","indexed":false,"internalType":"string"},{"name":"issuer","type":"address","indexed":true,"internalType":"address"}],"anonymous":false},{"type":"event","name":"MemeMinted","inputs":[{"name":"tokenAddress","type":"address","indexed":true,"internalType":"address"},{"name":"buyer","type":"address","indexed":true,"internalType":"address"},{"name":"amount","type":"uint256","indexed":false,"internalType":"uint256"},{"name":"price","type":"uint256","indexed":false,"internalType":"uint256"}],"anonymous":false}],"bytecode":{"object":"0x608060405234801561000f575f80fd5b505f80546001600160a01b0319163317905560405161002d9061006c565b604051809103905ff080158015610046573d5f803e3d5ffd5b50600180546001600160a01b0319166001600160a01b0392909216919091179055610079565b610d7a80610bce83390190565b610b48806100865f395ff3fe608060405260043610610049575f3560e01c8063324896781461004d57806358f54ffc146100625780635c60da1b1461009e578063a4475ce4146100bd578063bcd02f26146100db575b5f80fd5b61006061005b3660046107b1565b61010b565b005b34801561006d575f80fd5b5061008161007c3660046107f2565b6104d8565b6040516001600160a01b0390911681526020015b60405180910390f35b3480156100a9575f80fd5b50600154610081906001600160a01b031681565b3480156100c8575f80fd5b505f54610081906001600160a01b031681565b3480156100e6575f80fd5b506100fa6100f53660046107b1565b610627565b6040516100959594939291906108f3565b6001600160a01b0381165f90815260026020526040808220815160a0810190925280548290829061013b90610932565b80601f016020809104026020016040519081016040528092919081815260200182805461016790610932565b80156101b25780601f10610189576101008083540402835291602001916101b2565b820191905f5260205f20905b81548152906001019060200180831161019557829003601f168201915b50505091835250506001820154602082015260028201546040820152600382015460608201526004909101546001600160a01b0390811660809283015290820151919250166102395760405162461bcd60e51b815260206004820152600e60248201526d13595b59481b9bdd08199bdd5b9960921b60448201526064015b60405180910390fd5b806060015134146102805760405162461bcd60e51b8152602060048201526011602482015270125b98dbdc9c9958dd081c185e5b595b9d607a1b6044820152606401610230565b5f61028c60643461096a565b90505f6102998234610989565b9050348111156102e35760405162461bcd60e51b81526020600482015260156024820152742332b29031b0b631bab630ba34b7b71032b93937b960591b6044820152606401610230565b60408381015190516340c10f1960e01b815233600482015260248101919091526001600160a01b038516906340c10f19906044015f604051808303815f87803b15801561032e575f80fd5b505af1158015610340573d5f803e3d5ffd5b50505f80546040519193506001600160a01b0316915084908381818185875af1925050503d805f811461038e576040519150601f19603f3d011682016040523d82523d5f602084013e610393565b606091505b50509050806103e45760405162461bcd60e51b815260206004820152601b60248201527f50726f6a65637420666565207472616e73666572206661696c656400000000006044820152606401610230565b5f84608001516001600160a01b0316836040515f6040518083038185875af1925050503d805f8114610431576040519150601f19603f3d011682016040523d82523d5f602084013e610436565b606091505b50509050806104875760405162461bcd60e51b815260206004820152601a60248201527f49737375657220666565207472616e73666572206661696c65640000000000006044820152606401610230565b604080860151815190815234602082015233916001600160a01b038916917f394631f876054265a6bd56cfa935a08db73268476a10519add9d0d4c78af56f3910160405180910390a3505050505050565b5f806104e26106e4565b5f5460405163f8209d9560e01b81529192506001600160a01b038084169263f8209d9592610520928b928b928b928b923392309216906004016109a8565b5f604051808303815f87803b158015610537575f80fd5b505af1158015610549573d5f803e3d5ffd5b50506040805160a08101825289815260208082018a9052818301899052606082018890523360808301526001600160a01b0386165f90815260029091529190912081519193509150819061059d9082610a44565b5060208201516001820155604080830151600283015560608301516003830155608090920151600490910180546001600160a01b0319166001600160a01b03928316179055905133918316907fbdc85878e7317555b540e86af6fc75903ae00bc46ede694a24f6458d81c4c79490610616908a90610b00565b60405180910390a395945050505050565b60026020525f908152604090208054819061064190610932565b80601f016020809104026020016040519081016040528092919081815260200182805461066d90610932565b80156106b85780601f1061068f576101008083540402835291602001916106b8565b820191905f5260205f20905b81548152906001019060200180831161069b57829003601f168201915b50505050600183015460028401546003850154600490950154939491939092506001600160a01b031685565b600154604051733d602d80600a3d3981f3363d3d373d3d3d363d7360601b602082015260609190911b6bffffffffffffffffffffffff191660348201526e5af43d82803e903d91602b57fd5bf360881b60488201525f90819060570160405160208183030381529060405290505f8151602083015ff090506001600160a01b0381166107ab5760405162461bcd60e51b81526020600482015260166024820152754661696c656420746f206372656174652070726f787960501b6044820152606401610230565b92915050565b5f602082840312156107c1575f80fd5b81356001600160a01b03811681146107d7575f80fd5b9392505050565b634e487b7160e01b5f52604160045260245ffd5b5f805f8060808587031215610805575f80fd5b843567ffffffffffffffff8082111561081c575f80fd5b818701915087601f83011261082f575f80fd5b813581811115610841576108416107de565b604051601f8201601f19908116603f01168101908382118183101715610869576108696107de565b816040528281528a6020848701011115610881575f80fd5b826020860160208301375f60209382018401529a91890135995050604088013597606001359650945050505050565b5f81518084525f5b818110156108d4576020818501810151868301820152016108b8565b505f602082860101526020601f19601f83011685010191505092915050565b60a081525f61090560a08301886108b0565b602083019690965250604081019390935260608301919091526001600160a01b0316608090910152919050565b600181811c9082168061094657607f821691505b60208210810361096457634e487b7160e01b5f52602260045260245ffd5b50919050565b5f8261098457634e487b7160e01b5f52601260045260245ffd5b500490565b818103818111156107ab57634e487b7160e01b5f52601160045260245ffd5b60e081525f6109ba60e083018a6108b0565b602083019890985250604081019590955260608501939093526001600160a01b039182166080850152811660a08401521660c090910152919050565b601f821115610a3f575f81815260208120601f850160051c81016020861015610a1c5750805b601f850160051c820191505b81811015610a3b57828155600101610a28565b5050505b505050565b815167ffffffffffffffff811115610a5e57610a5e6107de565b610a7281610a6c8454610932565b846109f6565b602080601f831160018114610aa5575f8415610a8e5750858301515b5f19600386901b1c1916600185901b178555610a3b565b5f85815260208120601f198616915b82811015610ad357888601518255948401946001909101908401610ab4565b5085821015610af057878501515f19600388901b60f8161c191681555b5050505050600190811b01905550565b602081525f6107d760208301846108b056fea26469706673582212205560f86983d2e8c0216b677d86715cb16b848636bec50449f8707900e738ae5464736f6c6343000814003360806040526002805460ff1916601217905534801561001c575f80fd5b50610d508061002a5f395ff3fe608060405234801561000f575f80fd5b5060043610610111575f3560e01c806370a082311161009e578063a9059cbb1161006e578063a9059cbb14610234578063c45a015514610247578063d5abeb011461025a578063dd62ed3e14610263578063f8209d951461028d575f80fd5b806370a08231146101f157806395d89b4114610210578063a035b1fe14610218578063a4475ce414610221575f80fd5b80631d143848116100e45780631d1438481461017657806323b872dd146101a1578063313ce567146101b457806340c10f19146101d35780634f02c420146101e8575f80fd5b806306fdde0314610115578063095ea7b3146101335780630ed62b021461015657806318160ddd1461016d575b5f80fd5b61011d6102a0565b60405161012a9190610961565b60405180910390f35b6101466101413660046109ae565b61032b565b604051901515815260200161012a565b61015f60055481565b60405190815260200161012a565b61015f60035481565b600754610189906001600160a01b031681565b6040516001600160a01b03909116815260200161012a565b6101466101af3660046109d6565b610397565b6002546101c19060ff1681565b60405160ff909116815260200161012a565b6101e66101e13660046109ae565b61059f565b005b61015f600a5481565b61015f6101ff366004610a0f565b600b6020525f908152604090205481565b61011d610723565b61015f60065481565b600954610189906001600160a01b031681565b6101466102423660046109ae565b610730565b600854610189906001600160a01b031681565b61015f60045481565b61015f610271366004610a2f565b600c60209081525f928352604080842090915290825290205481565b6101e661029b366004610a74565b610863565b5f80546102ac90610b6b565b80601f01602080910402602001604051908101604052809291908181526020018280546102d890610b6b565b80156103235780601f106102fa57610100808354040283529160200191610323565b820191905f5260205f20905b81548152906001019060200180831161030657829003601f168201915b505050505081565b335f818152600c602090815260408083206001600160a01b038716808552925280832085905551919290917f8c5be1e5ebec7d5bd14f71427d1e84f3dd0314c0f7b2291e5b200ac8c7c3b925906103859086815260200190565b60405180910390a35060015b92915050565b5f6001600160a01b0383166103ee5760405162461bcd60e51b81526020600482015260186024820152775472616e7366657220746f207a65726f206164647265737360401b60448201526064015b60405180910390fd5b6001600160a01b0384165f908152600b602052604090205482111561044c5760405162461bcd60e51b8152602060048201526014602482015273496e73756666696369656e742062616c616e636560601b60448201526064016103e5565b6001600160a01b0384165f908152600c602090815260408083203384529091529020548211156104b75760405162461bcd60e51b8152602060048201526016602482015275496e73756666696369656e7420616c6c6f77616e636560501b60448201526064016103e5565b6001600160a01b0384165f908152600b6020526040812080548492906104de908490610bb7565b90915550506001600160a01b0383165f908152600b60205260408120805484929061050a908490610bca565b90915550506001600160a01b0384165f908152600c6020908152604080832033845290915281208054849290610541908490610bb7565b92505081905550826001600160a01b0316846001600160a01b03167fddf252ad1be2c89b69c2b068fc378daa952ba7f163c4a11628f55a4df523b3ef8460405161058d91815260200190565b60405180910390a35060019392505050565b6008546001600160a01b031633146105f15760405162461bcd60e51b815260206004820152601560248201527413db9b1e48199858dd1bdc9e4818d85b881b5a5b9d605a1b60448201526064016103e5565b60045481600a546106029190610bca565b11156106455760405162461bcd60e51b815260206004820152601260248201527145786365656473206d617820737570706c7960701b60448201526064016103e5565b6001600160a01b0382165f908152600b60205260408120805483929061066c908490610bca565b925050819055508060035f8282546106849190610bca565b9250508190555080600a5f82825461069c9190610bca565b90915550506040518181526001600160a01b038316907f0f6798a560793a54c3bcfe86a93cde1e73087d944c0ea20544137d41213968859060200160405180910390a26040518181526001600160a01b038316905f907fddf252ad1be2c89b69c2b068fc378daa952ba7f163c4a11628f55a4df523b3ef9060200160405180910390a35050565b600180546102ac90610b6b565b5f6001600160a01b0383166107825760405162461bcd60e51b81526020600482015260186024820152775472616e7366657220746f207a65726f206164647265737360401b60448201526064016103e5565b335f908152600b60205260409020548211156107d75760405162461bcd60e51b8152602060048201526014602482015273496e73756666696369656e742062616c616e636560601b60448201526064016103e5565b335f908152600b6020526040812080548492906107f5908490610bb7565b90915550506001600160a01b0383165f908152600b602052604081208054849290610821908490610bca565b90915550506040518281526001600160a01b0384169033907fddf252ad1be2c89b69c2b068fc378daa952ba7f163c4a11628f55a4df523b3ef90602001610385565b6008546001600160a01b0316156108b25760405162461bcd60e51b8152602060048201526013602482015272105b1c9958591e481a5b9a5d1a585b1a5e9959606a1b60448201526064016103e5565b866040516020016108c39190610bdd565b6040516020818303038152906040525f90816108df9190610c5e565b5060016108ec8882610c5e565b50600495909555600593909355600691909155600780546001600160a01b039283166001600160a01b03199182161790915560088054938316938216939093179092556009805491909316911617905550565b5f5b83811015610959578181015183820152602001610941565b50505f910152565b602081525f825180602084015261097f81604085016020870161093f565b601f01601f19169190910160400192915050565b80356001600160a01b03811681146109a9575f80fd5b919050565b5f80604083850312156109bf575f80fd5b6109c883610993565b946020939093013593505050565b5f805f606084860312156109e8575f80fd5b6109f184610993565b92506109ff60208501610993565b9150604084013590509250925092565b5f60208284031215610a1f575f80fd5b610a2882610993565b9392505050565b5f8060408385031215610a40575f80fd5b610a4983610993565b9150610a5760208401610993565b90509250929050565b634e487b7160e01b5f52604160045260245ffd5b5f805f805f805f60e0888a031215610a8a575f80fd5b873567ffffffffffffffff80821115610aa1575f80fd5b818a0191508a601f830112610ab4575f80fd5b813581811115610ac657610ac6610a60565b604051601f8201601f19908116603f01168101908382118183101715610aee57610aee610a60565b816040528281528d6020848701011115610b06575f80fd5b826020860160208301375f60208483010152809b505050505050602088013595506040880135945060608801359350610b4160808901610993565b9250610b4f60a08901610993565b9150610b5d60c08901610993565b905092959891949750929550565b600181811c90821680610b7f57607f821691505b602082108103610b9d57634e487b7160e01b5f52602260045260245ffd5b50919050565b634e487b7160e01b5f52601160045260245ffd5b8181038181111561039157610391610ba3565b8082018082111561039157610391610ba3565b6b026b2b6b2902a37b5b2b71d160a51b81525f8251610c0381600c85016020870161093f565b91909101600c0192915050565b601f821115610c59575f81815260208120601f850160051c81016020861015610c365750805b601f850160051c820191505b81811015610c5557828155600101610c42565b5050505b505050565b815167ffffffffffffffff811115610c7857610c78610a60565b610c8c81610c868454610b6b565b84610c10565b602080601f831160018114610cbf575f8415610ca85750858301515b5f19600386901b1c1916600185901b178555610c55565b5f85815260208120601f198616915b82811015610ced57888601518255948401946001909101908401610cce565b5085821015610d0a57878501515f19600388901b60f8161c191681555b5050505050600190811b0190555056fea26469706673582212200c312d41ede220ce71156b4ad62683969e015dad86c852d0ccd06c1e689ec6c364736f6c63430008140033","linkReferences":{}},"methodIdentifiers":{"deployMeme(string,uint256,uint256,uint256)":"58f54ffc","implementation()":"5c60da1b","memeTokens(address)":"bcd02f26","mintMeme(address)":"32489678","projectOwner()":"a4475ce4"},"id":21}