{"abi":[{"type":"fallback","stateMutability":"payable"},{"type":"receive","stateMutability":"payable"},{"type":"function","name":"MAX_TOP_USERS","inputs":[],"outputs":[{"name":"","type":"uint256","internalType":"uint256"}],"stateMutability":"view"},{"type":"function","name":"balances","inputs":[{"name":"","type":"address","internalType":"address"}],"outputs":[{"name":"","type":"uint256","internalType":"uint256"}],"stateMutability":"view"},{"type":"function","name":"deposit","inputs":[],"outputs":[],"stateMutability":"payable"},{"type":"function","name":"getBalance","inputs":[{"name":"user","type":"address","internalType":"address"}],"outputs":[{"name":"","type":"uint256","internalType":"uint256"}],"stateMutability":"view"},{"type":"function","name":"getTopUsers","inputs":[],"outputs":[{"name":"","type":"address[]","internalType":"address[]"},{"name":"","type":"uint256[]","internalType":"uint256[]"}],"stateMutability":"view"},{"type":"function","name":"getTotalDeposits","inputs":[],"outputs":[{"name":"","type":"uint256","internalType":"uint256"}],"stateMutability":"view"},{"type":"function","name":"head","inputs":[],"outputs":[{"name":"","type":"uint256","internalType":"uint256"}],"stateMutability":"view"},{"type":"function","name":"nodeCount","inputs":[],"outputs":[{"name":"","type":"uint256","internalType":"uint256"}],"stateMutability":"view"},{"type":"function","name":"tail","inputs":[],"outputs":[{"name":"","type":"uint256","internalType":"uint256"}],"stateMutability":"view"},{"type":"function","name":"userNodes","inputs":[{"name":"","type":"uint256","internalType":"uint256"}],"outputs":[{"name":"user","type":"address","internalType":"address"},{"name":"balance","type":"uint256","internalType":"uint256"},{"name":"next","type":"uint256","internalType":"uint256"},{"name":"prev","type":"uint256","internalType":"uint256"}],"stateMutability":"view"},{"type":"event","name":"Deposit","inputs":[{"name":"user","type":"address","indexed":true,"internalType":"address"},{"name":"amount","type":"uint256","indexed":false,"internalType":"uint256"},{"name":"newBalance","type":"uint256","indexed":false,"internalType":"uint256"}],"anonymous":false}],"bytecode":{"object":"0x608060405234801561000f575f80fd5b506109748061001d5f395ff3fe608060405260043610610094575f3560e01c80638f7dcfa3116100585780638f7dcfa31461019c57806393d28055146101b1578063d0e30db0146100a3578063f39dfb17146101c5578063f8b2cb4f146101e7576100a3565b806313d8c840146100ab578063168a4822146100d357806327e235e3146100e55780633badaecb146101105780636da49b8314610187576100a3565b366100a3576100a161021b565b005b6100a161021b565b3480156100b6575f80fd5b506100c060035481565b6040519081526020015b60405180910390f35b3480156100de575f80fd5b50476100c0565b3480156100f0575f80fd5b506100c06100ff3660046107f6565b5f6020819052908152604090205481565b34801561011b575f80fd5b5061015d61012a366004610823565b600160208190525f918252604090912080549181015460028201546003909201546001600160a01b039093169290919084565b604080516001600160a01b03909516855260208501939093529183015260608201526080016100ca565b348015610192575f80fd5b506100c060045481565b3480156101a7575f80fd5b506100c060025481565b3480156101bc575f80fd5b506100c0600a81565b3480156101d0575f80fd5b506101d96102f7565b6040516100ca92919061083a565b3480156101f2575f80fd5b506100c06102013660046107f6565b6001600160a01b03165f9081526020819052604090205490565b5f341161027c5760405162461bcd60e51b815260206004820152602560248201527f4465706f73697420616d6f756e74206d75737420626520677265617465722074604482015264068616e20360dc1b606482015260840160405180910390fd5b335f908152602081905260408120805434929061029a9084906108d0565b9091555050335f81815260208190526040902054906102b9908261044b565b604080513481526020810183905233917f90890809c654f11d6e72a28fa60149770a0d11ec6c92319d6ceb2bb0a4ea1a15910160405180910390a250565b6060805f60045467ffffffffffffffff811115610316576103166108e9565b60405190808252806020026020018201604052801561033f578160200160208202803683370190505b5090505f60045467ffffffffffffffff81111561035e5761035e6108e9565b604051908082528060200260200182016040528015610387578160200160208202803683370190505b506002549091505f5b811580159061039f5750600a81105b15610440575f8281526001602052604090205484516001600160a01b03909116908590839081106103d2576103d26108fd565b6001600160a01b039092166020928302919091018201525f838152600191829052604090200154835184908390811061040d5761040d6108fd565b6020908102919091018101919091525f92835260019052604090912060020154908061043881610911565b915050610390565b509194909350915050565b6002545f905b8015610496575f818152600160205260409020546001600160a01b038086169116036104805760019150610496565b5f90815260016020526040902060020154610451565b81156104ab576104a681846104bb565b6104b5565b6104b58484610555565b50505050565b5f828152600160208190526040909120805491018290556001600160a01b03166104e48361061f565b604080516080810182526001600160a01b03838116825260208083018681525f848601818152606086018281528a835260019485905296909120945185546001600160a01b0319169416939093178455519083015551600282015590516003909101556105508361070a565b505050565b600a60045410610589576003545f9081526001602081905260409091200154811161057e575050565b61058960035461061f565b5f600454600161059991906108d0565b604080516080810182526001600160a01b03868116825260208083018781525f84860181815260608601828152888352600194859052968220955186546001600160a01b0319169516949094178555905191840191909155905160028301559151600390910155600480549293509061061183610911565b91905055506105508161070a565b5f818152600160205260408120600381015490910361066157600280820154908190551561065c576002545f908152600160205260408120600301555b6106c3565b80600201545f0361069457600380820154908190551561065c576003545f908152600160205260408120600201556106c3565b600280820154600380840180545f90815260016020526040808220909501849055905492815292909220909101555b5f828152600160208190526040822080546001600160a01b031916815590810182905560028101829055600301819055600480549161070183610929565b91905055505050565b5f81815260016020526040812060025490910361072c57506002819055600355565b6002545b801580159061075357506001808301545f83815260208390526040902090910154115b1561076e575f90815260016020526040902060020154610730565b805f036107995750600380545f90815260016020526040902060020183905580549181019190915555565b60025481036107c45750600280549181018290555f9182526001602052604090912060030182905555565b60028281018290555f828152600160205260408082206003908101805491909601819055825281209091018490555255565b5f60208284031215610806575f80fd5b81356001600160a01b038116811461081c575f80fd5b9392505050565b5f60208284031215610833575f80fd5b5035919050565b604080825283519082018190525f906020906060840190828701845b8281101561087b5781516001600160a01b031684529284019290840190600101610856565b505050838103828501528451808252858301918301905f5b818110156108af57835183529284019291840191600101610893565b5090979650505050505050565b634e487b7160e01b5f52601160045260245ffd5b808201808211156108e3576108e36108bc565b92915050565b634e487b7160e01b5f52604160045260245ffd5b634e487b7160e01b5f52603260045260245ffd5b5f60018201610922576109226108bc565b5060010190565b5f81610937576109376108bc565b505f19019056fea2646970667358221220604955b408659f0f43a7b71f168ae8022fdff926d7fb8607e002ba1bd7fe1e0864736f6c63430008180033","linkReferences":{}},"methodIdentifiers":{"MAX_TOP_USERS()":"93d28055","balances(address)":"27e235e3","deposit()":"d0e30db0","getBalance(address)":"f8b2cb4f","getTopUsers()":"f39dfb17","getTotalDeposits()":"168a4822","head()":"8f7dcfa3","nodeCount()":"6da49b83","tail()":"13d8c840","userNodes(uint256)":"3badaecb"},"id":50}