{"abi":[{"type":"function","name":"arbitrageur","inputs":[],"outputs":[{"name":"","type":"address","internalType":"address"}],"stateMutability":"view"},{"type":"function","name":"executeArbitrage","inputs":[{"name":"poolA","type":"address","internalType":"address"},{"name":"poolB","type":"address","internalType":"address"},{"name":"tokenA","type":"address","internalType":"address"},{"name":"tokenB","type":"address","internalType":"address"},{"name":"amountBorrowed","type":"uint256","internalType":"uint256"}],"outputs":[],"stateMutability":"nonpayable"},{"type":"function","name":"setArbitrageur","inputs":[{"name":"_arbitrageur","type":"address","internalType":"address"}],"outputs":[],"stateMutability":"nonpayable"},{"type":"function","name":"uniswapV2Call","inputs":[{"name":"sender","type":"address","internalType":"address"},{"name":"amount0","type":"uint256","internalType":"uint256"},{"name":"amount1","type":"uint256","internalType":"uint256"},{"name":"data","type":"bytes","internalType":"bytes"}],"outputs":[],"stateMutability":"nonpayable"},{"type":"event","name":"ArbitrageExecuted","inputs":[{"name":"amountBorrowed","type":"uint256","indexed":false,"internalType":"uint256"},{"name":"amountExchanged","type":"uint256","indexed":false,"internalType":"uint256"},{"name":"profit","type":"uint256","indexed":false,"internalType":"uint256"}],"anonymous":false}],"bytecode":{"object":"0x608060405234801561000f575f80fd5b506109958061001d5f395ff3fe608060405234801561000f575f80fd5b506004361061004a575f3560e01c806310d1e85c1461004e578063830d557c14610063578063b3115c5c14610092578063cbbf3c6b146100c0575b5f80fd5b61006161005c3660046106eb565b6100d3565b005b610061610071366004610779565b5f80546001600160a01b0319166001600160a01b0392909216919091179055565b5f546100a4906001600160a01b031681565b6040516001600160a01b03909116815260200160405180910390f35b6100616100ce36600461079b565b61063a565b5f8080806100e3858701876107fb565b93509350935093505f6103e5826103e86100fd919061085d565b610107919061087a565b610112906001610899565b60405163095ea7b360e01b81526001600160a01b038781166004830152602482018590529192509084169063095ea7b3906044016020604051808303815f875af1158015610162573d5f803e3d5ffd5b505050506040513d601f19601f8201168201806040525081019061018691906108ac565b506001600160a01b03851663022c0d9f60046101a385600361085d565b6101ad919061087a565b6040516001600160e01b031960e084901b16815260048101919091525f6024820181905230604483015260806064830152608482015260a4015f604051808303815f87803b1580156101fd575f80fd5b505af115801561020f573d5f803e3d5ffd5b50506040516370a0823160e01b81523060048201525f92506001600160a01b03861691506370a0823190602401602060405180830381865afa158015610257573d5f803e3d5ffd5b505050506040513d601f19601f8201168201806040525081019061027b91906108cb565b90508181101561038b575f61029082846108e2565b90506001600160a01b03861663095ea7b3886102ad84600261085d565b6040516001600160e01b031960e085901b1681526001600160a01b03909216600483015260248201526044016020604051808303815f875af11580156102f5573d5f803e3d5ffd5b505050506040513d601f19601f8201168201806040525081019061031991906108ac565b5060405163022c0d9f60e01b81525f60048201819052602482018390523060448301526080606483015260848201526001600160a01b0388169063022c0d9f9060a4015f604051808303815f87803b158015610373575f80fd5b505af1158015610385573d5f803e3d5ffd5b50505050505b60405163a9059cbb60e01b8152336004820152602481018390526001600160a01b0385169063a9059cbb906044016020604051808303815f875af11580156103d5573d5f803e3d5ffd5b505050506040513d601f19601f820116820180604052508101906103f991906108ac565b506040516370a0823160e01b81523060048201525f906001600160a01b038716906370a0823190602401602060405180830381865afa15801561043e573d5f803e3d5ffd5b505050506040513d601f19601f8201168201806040525081019061046291906108cb565b6040516370a0823160e01b81523060048201529091505f906001600160a01b038716906370a0823190602401602060405180830381865afa1580156104a9573d5f803e3d5ffd5b505050506040513d601f19601f820116820180604052508101906104cd91906108cb565b9050811561054a575f5460405163a9059cbb60e01b81526001600160a01b039182166004820152602481018490529088169063a9059cbb906044016020604051808303815f875af1158015610524573d5f803e3d5ffd5b505050506040513d601f19601f8201168201806040525081019061054891906108ac565b505b80156105c5575f5460405163a9059cbb60e01b81526001600160a01b039182166004820152602481018390529087169063a9059cbb906044016020604051808303815f875af115801561059f573d5f803e3d5ffd5b505050506040513d601f19601f820116820180604052508101906105c391906108ac565b505b5f6105d08284610899565b90507f9f51370fe0eed8407b751449f0bf9ae3f5667f007a2ab895d820da7e2983ebab86600461060182600361085d565b61060b919061087a565b604080519283526020830191909152810183905260600160405180910390a15050505050505050505050505050565b604080516001600160a01b03868116602083015285811682840152848116606083015260808083018590528351808403909101815260a083019384905263022c0d9f60e01b90935287169063022c0d9f9061069f905f9086903090879060a4016108f5565b5f604051808303815f87803b1580156106b6575f80fd5b505af11580156106c8573d5f803e3d5ffd5b50505050505050505050565b6001600160a01b03811681146106e8575f80fd5b50565b5f805f805f608086880312156106ff575f80fd5b853561070a816106d4565b94506020860135935060408601359250606086013567ffffffffffffffff80821115610734575f80fd5b818801915088601f830112610747575f80fd5b813581811115610755575f80fd5b896020828501011115610766575f80fd5b9699959850939650602001949392505050565b5f60208284031215610789575f80fd5b8135610794816106d4565b9392505050565b5f805f805f60a086880312156107af575f80fd5b85356107ba816106d4565b945060208601356107ca816106d4565b935060408601356107da816106d4565b925060608601356107ea816106d4565b949793965091946080013592915050565b5f805f806080858703121561080e575f80fd5b8435610819816106d4565b93506020850135610829816106d4565b92506040850135610839816106d4565b9396929550929360600135925050565b634e487b7160e01b5f52601160045260245ffd5b808202811582820484141761087457610874610849565b92915050565b5f8261089457634e487b7160e01b5f52601260045260245ffd5b500490565b8082018082111561087457610874610849565b5f602082840312156108bc575f80fd5b81518015158114610794575f80fd5b5f602082840312156108db575f80fd5b5051919050565b8181038181111561087457610874610849565b8481525f602085602084015260018060a01b03851660408401526080606084015283518060808501525f5b8181101561093c5785810183015185820160a001528201610920565b505f60a0828601015260a0601f19601f830116850101925050509594505050505056fea2646970667358221220e2e65c87ce4b3357ba420ae930654ebbdc26ec72431f20a9ab1671240b5d119964736f6c63430008180033","linkReferences":{}},"methodIdentifiers":{"arbitrageur()":"b3115c5c","executeArbitrage(address,address,address,address,uint256)":"cbbf3c6b","setArbitrageur(address)":"830d557c","uniswapV2Call(address,uint256,uint256,bytes)":"10d1e85c"},"id":59}