{"abi":[{"type":"function","name":"arbitrageur","inputs":[],"outputs":[{"name":"","type":"address","internalType":"address"}],"stateMutability":"view"},{"type":"function","name":"executeArbitrage","inputs":[{"name":"poolA","type":"address","internalType":"address"},{"name":"poolB","type":"address","internalType":"address"},{"name":"tokenA","type":"address","internalType":"address"},{"name":"tokenB","type":"address","internalType":"address"},{"name":"amountBorrowed","type":"uint256","internalType":"uint256"}],"outputs":[],"stateMutability":"nonpayable"},{"type":"function","name":"setArbitrageur","inputs":[{"name":"_arbitrageur","type":"address","internalType":"address"}],"outputs":[],"stateMutability":"nonpayable"},{"type":"function","name":"uniswapV2Call","inputs":[{"name":"sender","type":"address","internalType":"address"},{"name":"amount0","type":"uint256","internalType":"uint256"},{"name":"amount1","type":"uint256","internalType":"uint256"},{"name":"data","type":"bytes","internalType":"bytes"}],"outputs":[],"stateMutability":"nonpayable"},{"type":"event","name":"ArbitrageExecuted","inputs":[{"name":"amountBorrowed","type":"uint256","indexed":false,"internalType":"uint256"},{"name":"amountExchanged","type":"uint256","indexed":false,"internalType":"uint256"},{"name":"profit","type":"uint256","indexed":false,"internalType":"uint256"}],"anonymous":false}],"bytecode":{"object":"0x608060405234801561000f575f80fd5b506118438061001d5f395ff3fe608060405234801561000f575f80fd5b506004361061004a575f3560e01c806310d1e85c1461004e578063830d557c14610063578063b3115c5c14610092578063cbbf3c6b146100c0575b5f80fd5b61006161005c36600461111b565b6100d3565b005b6100616100713660046111a9565b5f80546001600160a01b0319166001600160a01b0392909216919091179055565b5f546100a4906001600160a01b031681565b6040516001600160a01b03909116815260200160405180910390f35b6100616100ce3660046111cb565b610c6a565b5f8080806100e38587018761122b565b93509350935093505f8089116100f957876100fb565b885b905061011f6040518060600160405280602181526020016117c16021913982611010565b6101566040518060400160405280601581526020017420202043616c6c657220416464726573733a20257360581b81525033611059565b61018d6040518060400160405280601581526020017420202053656e64657220416464726573733a20257360581b8152508b611059565b5f6103e561019d836103e861128d565b6101a791906112aa565b6101b29060016112c9565b90506101d66040518060600160405280602d815260200161150e602d913982611010565b6040516370a0823160e01b81523060048201525f906001600160a01b038616906370a0823190602401602060405180830381865afa15801561021a573d5f803e3d5ffd5b505050506040513d601f19601f8201168201806040525081019061023e91906112dc565b90506102626040518060600160405280602d815260200161155e602d913982611010565b61028460405180606001604052806028815260200161158b6028913984611010565b60405163095ea7b360e01b81526001600160a01b0388811660048301526024820185905286169063095ea7b3906044016020604051808303815f875af11580156102d0573d5f803e3d5ffd5b505050506040513d601f19601f820116820180604052508101906102f491906112f3565b505f876001600160a01b0316630dfe16816040518163ffffffff1660e01b8152600401602060405180830381865afa158015610332573d5f803e3d5ffd5b505050506040513d601f19601f820116820180604052508101906103569190611312565b90505f886001600160a01b031663d21220a76040518163ffffffff1660e01b8152600401602060405180830381865afa158015610395573d5f803e3d5ffd5b505050506040513d601f19601f820116820180604052508101906103b99190611312565b90506103f060405180604001604052806013815260200172372e20506f6f6c4220546f6b656e303a20257360681b81525083611059565b61042560405180604001604052806013815260200172382e20506f6f6c4220546f6b656e313a20257360681b81525082611059565b6104466040518060600160405280602a8152602001611737602a913961109e565b876001600160a01b0316826001600160a01b0316036104e3576104806040518060800160405280604181526020016116b06041913961109e565b60405163022c0d9f60e01b81526001600160a01b038a169063022c0d9f906104b1906001905f90309060040161132d565b5f604051808303815f87803b1580156104c8575f80fd5b505af11580156104da573d5f803e3d5ffd5b5050505061057c565b876001600160a01b0316816001600160a01b03160361057c5761051d6040518060800160405280604181526020016116096041913961109e565b60405163022c0d9f60e01b81526001600160a01b038a169063022c0d9f9061054e905f90600190309060040161132d565b5f604051808303815f87803b158015610565575f80fd5b505af1158015610577573d5f803e3d5ffd5b505050505b6040516370a0823160e01b81523060048201525f906001600160a01b038916906370a0823190602401602060405180830381865afa1580156105c0573d5f803e3d5ffd5b505050506040513d601f19601f820116820180604052508101906105e491906112dc565b90506106086040518060600160405280602481526020016116f16024913982611010565b6040516370a0823160e01b81523060048201525f906001600160a01b038b16906370a0823190602401602060405180830381865afa15801561064c573d5f803e3d5ffd5b505050506040513d601f19601f8201168201806040525081019061067091906112dc565b90506106946040518060600160405280602481526020016114ea6024913982611010565b85821015610901575f6106a7838861135a565b90506106cb60405180606001604052806034815260200161167c6034913982611010565b6106ed6040518060600160405280602981526020016114c16029913983611010565b60405163095ea7b360e01b81526001600160a01b038d81166004830152602482018490528c169063095ea7b3906044016020604051808303815f875af1158015610739573d5f803e3d5ffd5b505050506040513d601f19601f8201168201806040525081019061075d91906112f3565b506107806040518060600160405280602c81526020016117e2602c913982611010565b8a6001600160a01b0316856001600160a01b0316036107fb5760405163022c0d9f60e01b81526001600160a01b038d169063022c0d9f906107c9905f908590309060040161132d565b5f604051808303815f87803b1580156107e0575f80fd5b505af11580156107f2573d5f803e3d5ffd5b50505050610872565b8a6001600160a01b0316846001600160a01b0316036108725760405163022c0d9f60e01b81526001600160a01b038d169063022c0d9f906108449084905f90309060040161132d565b5f604051808303815f87803b15801561085b575f80fd5b505af115801561086d573d5f803e3d5ffd5b505050505b6040516370a0823160e01b81523060048201525f906001600160a01b038c16906370a0823190602401602060405180830381865afa1580156108b6573d5f803e3d5ffd5b505050506040513d601f19601f820116820180604052508101906108da91906112dc565b90506108fe6040518060600160405280602881526020016117616028913982611010565b50505b6109236040518060600160405280602281526020016117156022913987611010565b60405163a9059cbb60e01b8152336004820152602481018790526001600160a01b038a169063a9059cbb906044016020604051808303815f875af115801561096d573d5f803e3d5ffd5b505050506040513d601f19601f8201168201806040525081019061099191906112f3565b506040516370a0823160e01b81523060048201525f906001600160a01b038c16906370a0823190602401602060405180830381865afa1580156109d6573d5f803e3d5ffd5b505050506040513d601f19601f820116820180604052508101906109fa91906112dc565b6040516370a0823160e01b81523060048201529091505f906001600160a01b038c16906370a0823190602401602060405180830381865afa158015610a41573d5f803e3d5ffd5b505050506040513d601f19601f82011682018060405250810190610a6591906112dc565b9050610a8960405180606001604052806023815260200161153b6023913983611010565b610aab60405180606001604052806023815260200161147b6023913982611010565b8115610b4857610ad36040518060600160405280603881526020016117896038913983611010565b5f5460405163a9059cbb60e01b81526001600160a01b03918216600482015260248101849052908d169063a9059cbb906044016020604051808303815f875af1158015610b22573d5f803e3d5ffd5b505050506040513d601f19601f82011682018060405250810190610b4691906112f3565b505b8015610be557610b706040518060600160405280603881526020016114436038913982611010565b5f5460405163a9059cbb60e01b81526001600160a01b03918216600482015260248101839052908c169063a9059cbb906044016020604051808303815f875af1158015610bbf573d5f803e3d5ffd5b505050506040513d601f19601f82011682018060405250810190610be391906112f3565b505b5f610bf082846112c9565b9050610c146040518060600160405280603081526020016115d96030913982611010565b604080518b8152600160208201529081018290527f9f51370fe0eed8407b751449f0bf9ae3f5667f007a2ab895d820da7e2983ebab9060600160405180910390a150505050505050505050505050505050505050565b610c8b60405180606001604052806023815260200161149e6023913961109e565b610cad60405180606001604052806032815260200161164a6032913982611010565b610ce360405180604001604052806014815260200173202020506f6f6c4120416464726573733a20257360601b81525086611059565b610d1960405180604001604052806014815260200173202020506f6f6c4220416464726573733a20257360601b81525085611059565b610d5060405180604001604052806015815260200174202020546f6b656e4120416464726573733a20257360581b81525084611059565b610d8760405180604001604052806015815260200174202020546f6b656e4220416464726573733a20257360581b81525083611059565b5f856001600160a01b0316630dfe16816040518163ffffffff1660e01b8152600401602060405180830381865afa158015610dc4573d5f803e3d5ffd5b505050506040513d601f19601f82011682018060405250810190610de89190611312565b90505f866001600160a01b031663d21220a76040518163ffffffff1660e01b8152600401602060405180830381865afa158015610e27573d5f803e3d5ffd5b505050506040513d601f19601f82011682018060405250810190610e4b9190611312565b9050610e8260405180604001604052806013815260200172202020506f6f6c4120546f6b656e303a20257360681b81525083611059565b610eb760405180604001604052806013815260200172202020506f6f6c4120546f6b656e313a20257360681b81525082611059565b604080516001600160a01b03888116602083015287811682840152861660608201526080808201869052825180830390910181526101008201909252602660a08201818152610f10929091906115b39060c0013961109e565b846001600160a01b0316836001600160a01b031603610f8d5760405163022c0d9f60e01b81526001600160a01b0389169063022c0d9f90610f5b9087905f90309087906004016113b0565b5f604051808303815f87803b158015610f72575f80fd5b505af1158015610f84573d5f803e3d5ffd5b50505050611006565b846001600160a01b0316826001600160a01b0316036110065760405163022c0d9f60e01b81526001600160a01b0389169063022c0d9f90610fd8905f908890309087906004016113b0565b5f604051808303815f87803b158015610fef575f80fd5b505af1158015611001573d5f803e3d5ffd5b505050505b5050505050505050565b61105582826040516024016110269291906113e6565b60408051601f198184030181529190526020810180516001600160e01b0316632d839cb360e21b1790526110e4565b5050565b611055828260405160240161106f929190611407565b60408051601f198184030181529190526020810180516001600160e01b031663319af33360e01b1790526110e4565b6110e1816040516024016110b29190611430565b60408051601f198184030181529190526020810180516001600160e01b031663104c13eb60e21b1790526110e4565b50565b6110e1815f6a636f6e736f6c652e6c6f6790505f80835160208501845afa505050565b6001600160a01b03811681146110e1575f80fd5b5f805f805f6080868803121561112f575f80fd5b853561113a81611107565b94506020860135935060408601359250606086013567ffffffffffffffff80821115611164575f80fd5b818801915088601f830112611177575f80fd5b813581811115611185575f80fd5b896020828501011115611196575f80fd5b9699959850939650602001949392505050565b5f602082840312156111b9575f80fd5b81356111c481611107565b9392505050565b5f805f805f60a086880312156111df575f80fd5b85356111ea81611107565b945060208601356111fa81611107565b9350604086013561120a81611107565b9250606086013561121a81611107565b949793965091946080013592915050565b5f805f806080858703121561123e575f80fd5b843561124981611107565b9350602085013561125981611107565b9250604085013561126981611107565b9396929550929360600135925050565b634e487b7160e01b5f52601160045260245ffd5b80820281158282048414176112a4576112a4611279565b92915050565b5f826112c457634e487b7160e01b5f52601260045260245ffd5b500490565b808201808211156112a4576112a4611279565b5f602082840312156112ec575f80fd5b5051919050565b5f60208284031215611303575f80fd5b815180151581146111c4575f80fd5b5f60208284031215611322575f80fd5b81516111c481611107565b92835260208301919091526001600160a01b031660408201526080606082018190525f9082015260a00190565b818103818111156112a4576112a4611279565b5f81518084525f5b8181101561139157602081850181015186830182015201611375565b505f602082860101526020601f19601f83011685010191505092915050565b84815283602082015260018060a01b0383166040820152608060608201525f6113dc608083018461136d565b9695505050505050565b604081525f6113f8604083018561136d565b90508260208301529392505050565b604081525f611419604083018561136d565b905060018060a01b03831660208301529392505050565b602081525f6111c4602083018461136d56fe31382e205472616e7366657272696e6720546f6b656e422050726f66697420746f2041726269747261676575723a20257320546f6b656e4231362e2046696e616c20546f6b656e422042616c616e63653a20257320546f6b656e420a3d3d3d20466c617368205377617020457865637574696f6e205374657073203d3d3d31312e20417070726f76696e6720546f6b656e4120666f7220506f6f6c423a20257320546f6b656e41392e2043757272656e7420546f6b656e412042616c616e63653a20257320546f6b656e41342e20416d6f756e7420746f2052657061792028696e636c7564696e6720666565293a20257320546f6b656e4231352e2046696e616c20546f6b656e412042616c616e63653a20257320546f6b656e41352e2043757272656e7420636f6e747261637420546f6b656e422062616c616e63653a20257320546f6b656e42362e20417070726f76696e6720546f6b656e4220666f7220506f6f6c423a20257320546f6b656e42322e2043616c6c696e6720506f6f6c41207377617020746f20626f72726f7720546f6b656e4231392e2041726269747261676520436f6d706c657465642c20546f74616c2050726f6669743a20257320746f6b656e73202020546f6b656e4120697320746f6b656e312c2063616c6c696e672073776170207769746820616d6f756e74304f75743d302c20616d6f756e74314f75743d31312e20537461727420466c6173682053776170204172626974726167653a20426f72726f77696e6720257320546f6b656e4231302e20546f6b656e422062616c616e636520696e73756666696369656e742c206e656564202573206d6f726520546f6b656e42202020546f6b656e4120697320746f6b656e302c2063616c6c696e672073776170207769746820616d6f756e74304f75743d312c20616d6f756e74314f75743d30382e2043757272656e7420546f6b656e422042616c616e63653a20257320546f6b656e4231342e205265706179696e6720466c617368204c6f616e3a20257320546f6b656e42392e2045786368616e67696e6720546f6b656e4220666f72203120546f6b656e4120696e20506f6f6c4231332e20546f6b656e422042616c616e636520616674657220737761703a20257320546f6b656e4231372e205472616e7366657272696e6720546f6b656e412050726f66697420746f2041726269747261676575723a20257320546f6b656e41332e20526563656976656420466c617368204c6f616e3a20257320546f6b656e4231322e2045786368616e67696e6720546f6b656e4120666f7220257320546f6b656e4220696e20506f6f6c42a2646970667358221220d1b71c2b9ba719123de875860532a64584589d4ddd666778a01ad30739a22c3c64736f6c63430008180033","linkReferences":{}},"methodIdentifiers":{"arbitrageur()":"b3115c5c","executeArbitrage(address,address,address,address,uint256)":"cbbf3c6b","setArbitrageur(address)":"830d557c","uniswapV2Call(address,uint256,uint256,bytes)":"10d1e85c"},"id":28}