{"abi":[{"type":"constructor","inputs":[{"name":"initialOwner","type":"address","internalType":"address"}],"stateMutability":"nonpayable"},{"type":"function","name":"ANNUAL_DEFLATION_RATE","inputs":[],"outputs":[{"name":"","type":"uint256","internalType":"uint256"}],"stateMutability":"view"},{"type":"function","name":"INITIAL_SUPPLY","inputs":[],"outputs":[{"name":"","type":"uint256","internalType":"uint256"}],"stateMutability":"view"},{"type":"function","name":"allowance","inputs":[{"name":"owner","type":"address","internalType":"address"},{"name":"spender","type":"address","internalType":"address"}],"outputs":[{"name":"","type":"uint256","internalType":"uint256"}],"stateMutability":"view"},{"type":"function","name":"approve","inputs":[{"name":"spender","type":"address","internalType":"address"},{"name":"value","type":"uint256","internalType":"uint256"}],"outputs":[{"name":"","type":"bool","internalType":"bool"}],"stateMutability":"nonpayable"},{"type":"function","name":"balanceOf","inputs":[{"name":"account","type":"address","internalType":"address"}],"outputs":[{"name":"","type":"uint256","internalType":"uint256"}],"stateMutability":"view"},{"type":"function","name":"burn","inputs":[{"name":"amount","type":"uint256","internalType":"uint256"}],"outputs":[],"stateMutability":"nonpayable"},{"type":"function","name":"decimals","inputs":[],"outputs":[{"name":"","type":"uint8","internalType":"uint8"}],"stateMutability":"view"},{"type":"function","name":"deflationFactor","inputs":[],"outputs":[{"name":"","type":"uint256","internalType":"uint256"}],"stateMutability":"view"},{"type":"function","name":"lastRebaseTimestamp","inputs":[],"outputs":[{"name":"","type":"uint256","internalType":"uint256"}],"stateMutability":"view"},{"type":"function","name":"mint","inputs":[{"name":"to","type":"address","internalType":"address"},{"name":"amount","type":"uint256","internalType":"uint256"}],"outputs":[],"stateMutability":"nonpayable"},{"type":"function","name":"name","inputs":[],"outputs":[{"name":"","type":"string","internalType":"string"}],"stateMutability":"view"},{"type":"function","name":"owner","inputs":[],"outputs":[{"name":"","type":"address","internalType":"address"}],"stateMutability":"view"},{"type":"function","name":"rebase","inputs":[],"outputs":[],"stateMutability":"nonpayable"},{"type":"function","name":"renounceOwnership","inputs":[],"outputs":[],"stateMutability":"nonpayable"},{"type":"function","name":"symbol","inputs":[],"outputs":[{"name":"","type":"string","internalType":"string"}],"stateMutability":"view"},{"type":"function","name":"totalSupply","inputs":[],"outputs":[{"name":"","type":"uint256","internalType":"uint256"}],"stateMutability":"view"},{"type":"function","name":"transfer","inputs":[{"name":"to","type":"address","internalType":"address"},{"name":"value","type":"uint256","internalType":"uint256"}],"outputs":[{"name":"","type":"bool","internalType":"bool"}],"stateMutability":"nonpayable"},{"type":"function","name":"transferFrom","inputs":[{"name":"from","type":"address","internalType":"address"},{"name":"to","type":"address","internalType":"address"},{"name":"value","type":"uint256","internalType":"uint256"}],"outputs":[{"name":"","type":"bool","internalType":"bool"}],"stateMutability":"nonpayable"},{"type":"function","name":"transferOwnership","inputs":[{"name":"newOwner","type":"address","internalType":"address"}],"outputs":[],"stateMutability":"nonpayable"},{"type":"event","name":"Approval","inputs":[{"name":"owner","type":"address","indexed":true,"internalType":"address"},{"name":"spender","type":"address","indexed":true,"internalType":"address"},{"name":"value","type":"uint256","indexed":false,"internalType":"uint256"}],"anonymous":false},{"type":"event","name":"OwnershipTransferred","inputs":[{"name":"previousOwner","type":"address","indexed":true,"internalType":"address"},{"name":"newOwner","type":"address","indexed":true,"internalType":"address"}],"anonymous":false},{"type":"event","name":"Rebase","inputs":[{"name":"newDeflationFactor","type":"uint256","indexed":false,"internalType":"uint256"}],"anonymous":false},{"type":"event","name":"Transfer","inputs":[{"name":"from","type":"address","indexed":true,"internalType":"address"},{"name":"to","type":"address","indexed":true,"internalType":"address"},{"name":"value","type":"uint256","indexed":false,"internalType":"uint256"}],"anonymous":false},{"type":"error","name":"ERC20InsufficientAllowance","inputs":[{"name":"spender","type":"address","internalType":"address"},{"name":"allowance","type":"uint256","internalType":"uint256"},{"name":"needed","type":"uint256","internalType":"uint256"}]},{"type":"error","name":"ERC20InsufficientBalance","inputs":[{"name":"sender","type":"address","internalType":"address"},{"name":"balance","type":"uint256","internalType":"uint256"},{"name":"needed","type":"uint256","internalType":"uint256"}]},{"type":"error","name":"ERC20InvalidApprover","inputs":[{"name":"approver","type":"address","internalType":"address"}]},{"type":"error","name":"ERC20InvalidReceiver","inputs":[{"name":"receiver","type":"address","internalType":"address"}]},{"type":"error","name":"ERC20InvalidSender","inputs":[{"name":"sender","type":"address","internalType":"address"}]},{"type":"error","name":"ERC20InvalidSpender","inputs":[{"name":"spender","type":"address","internalType":"address"}]},{"type":"error","name":"OwnableInvalidOwner","inputs":[{"name":"owner","type":"address","internalType":"address"}]},{"type":"error","name":"OwnableUnauthorizedAccount","inputs":[{"name":"account","type":"address","internalType":"address"}]}],"bytecode":{"object":"0x608060405261271060075534801562000016575f80fd5b5060405162000fba38038062000fba83398101604081905262000039916200015e565b80604051806040016040528060128152602001712232b33630ba34b7b730b93c902a37b5b2b760711b815250604051806040016040528060048152602001631111519360e21b81525081600390816200009391906200022b565b506004620000a282826200022b565b5050506001600160a01b038116620000d357604051631e4fbdf760e01b81525f600482015260240160405180910390fd5b620000de816200010d565b506001600160a01b03165f9081526008602052604090206a52b7d2dcc80cd2e4000000905542600655620002f7565b600580546001600160a01b038381166001600160a01b0319831681179093556040519116919082907f8be0079c531659141344cd1fd0a4f28419497f9722a3daafe3b4186f6b6457e0905f90a35050565b5f602082840312156200016f575f80fd5b81516001600160a01b038116811462000186575f80fd5b9392505050565b634e487b7160e01b5f52604160045260245ffd5b600181811c90821680620001b657607f821691505b602082108103620001d557634e487b7160e01b5f52602260045260245ffd5b50919050565b601f8211156200022657805f5260205f20601f840160051c81016020851015620002025750805b601f840160051c820191505b8181101562000223575f81556001016200020e565b50505b505050565b81516001600160401b038111156200024757620002476200018d565b6200025f81620002588454620001a1565b84620001db565b602080601f83116001811462000295575f84156200027d5750858301515b5f19600386901b1c1916600185901b178555620002ef565b5f85815260208120601f198616915b82811015620002c557888601518255948401946001909101908401620002a4565b5085821015620002e357878501515f19600388901b60f8161c191681555b505060018460011b0185555b505050505050565b610cb580620003055f395ff3fe608060405234801561000f575f80fd5b506004361061011c575f3560e01c806370a08231116100a9578063a9059cbb1161006e578063a9059cbb14610222578063af14052c14610235578063b86a2fd71461023d578063dd62ed3e14610246578063f2fde38b1461027e575f80fd5b806370a08231146101dc578063715018a6146101ef578063755273ab146101f75780638da5cb5b146101ff57806395d89b411461021a575f80fd5b80632ff2e9dc116100ef5780632ff2e9dc1461018a578063313ce5671461019c57806331870b92146101ab57806340c10f19146101b457806342966c68146101c9575f80fd5b806306fdde0314610120578063095ea7b31461013e57806318160ddd1461016157806323b872dd14610177575b5f80fd5b610128610291565b6040516101359190610a60565b60405180910390f35b61015161014c366004610ac7565b610321565b6040519015158152602001610135565b61016961033a565b604051908152602001610135565b610151610185366004610aef565b610366565b6101696a52b7d2dcc80cd2e400000081565b60405160128152602001610135565b61016960075481565b6101c76101c2366004610ac7565b6104ef565b005b6101c76101d7366004610b28565b61058c565b6101696101ea366004610b3f565b61065d565b6101c7610697565b610169600181565b6005546040516001600160a01b039091168152602001610135565b6101286106aa565b610151610230366004610ac7565b6106b9565b6101c761079f565b61016960065481565b610169610254366004610b58565b6001600160a01b039182165f90815260016020908152604080832093909416825291909152205490565b6101c761028c366004610b3f565b6108c0565b6060600380546102a090610b89565b80601f01602080910402602001604051908101604052809291908181526020018280546102cc90610b89565b80156103175780601f106102ee57610100808354040283529160200191610317565b820191905f5260205f20905b8154815290600101906020018083116102fa57829003601f168201915b5050505050905090565b5f3361032e8185856108fd565b60019150505b92915050565b5f6127106007546a52b7d2dcc80cd2e40000006103579190610bd5565b6103619190610bec565b905090565b5f816103718561065d565b10156103985760405162461bcd60e51b815260040161038f90610c0b565b60405180910390fd5b6001600160a01b0384165f908152600160209081526040808320338452909152902054828110156104045760405162461bcd60e51b8152602060048201526016602482015275496e73756666696369656e7420616c6c6f77616e636560501b604482015260640161038f565b61041885336104138685610c39565b6108fd565b6007545f9060018161042c87612710610bd5565b6104369190610c4c565b6104409190610c39565b61044a9190610bec565b6001600160a01b0387165f90815260086020526040812080549293508392909190610476908490610c39565b90915550506001600160a01b0385165f90815260086020526040812080548392906104a2908490610c4c565b92505081905550846001600160a01b0316866001600160a01b03165f80516020610c60833981519152866040516104db91815260200190565b60405180910390a350600195945050505050565b6104f761090f565b6007545f9060018161050b85612710610bd5565b6105159190610c4c565b61051f9190610c39565b6105299190610bec565b6001600160a01b0384165f90815260086020526040812080549293508392909190610555908490610c4c565b90915550506040518281526001600160a01b038416905f905f80516020610c608339815191529060200160405180910390a3505050565b806105963361065d565b10156105b45760405162461bcd60e51b815260040161038f90610c0b565b335f818152600860205260408120549183906105cf9061065d565b6105d99190610c39565b6007549091505f906001816105f085612710610bd5565b6105fa9190610c4c565b6106049190610c39565b61060e9190610bec565b90505f61061b8285610c39565b335f8181526008602052604080822086905551929350915f80516020610c608339815191529061064e9089815260200190565b60405180910390a35050505050565b6001600160a01b0381165f90815260086020526040812054600754612710906106869083610bd5565b6106909190610bec565b9392505050565b61069f61090f565b6106a85f61093c565b565b6060600480546102a090610b89565b5f816106c43361065d565b10156106e25760405162461bcd60e51b815260040161038f90610c0b565b6007545f906001816106f686612710610bd5565b6107009190610c4c565b61070a9190610c39565b6107149190610bec565b335f90815260086020526040812080549293508392909190610737908490610c39565b90915550506001600160a01b0384165f9081526008602052604081208054839290610763908490610c4c565b90915550506040518381526001600160a01b0385169033905f80516020610c608339815191529060200160405180910390a35060019392505050565b6107a761090f565b6006546107b8906301e13380610c4c565b4210156108075760405162461bcd60e51b815260206004820152601a60248201527f4e6f7420656e6f7567682074696d652068617320706173736564000000000000604482015260640161038f565b5f606460016007546108199190610bd5565b6108239190610bec565b6007546108309190610c39565b90505f81116108815760405162461bcd60e51b815260206004820152601f60248201527f4465666c6174696f6e20666163746f722063616e6e6f74206265207a65726f00604482015260640161038f565b6007819055426006556040518181527fafae32ce2847c13a56ab802c034c27d3c19f1d61be48c424c5df134145cd44d09060200160405180910390a150565b6108c861090f565b6001600160a01b0381166108f157604051631e4fbdf760e01b81525f600482015260240161038f565b6108fa8161093c565b50565b61090a838383600161098d565b505050565b6005546001600160a01b031633146106a85760405163118cdaa760e01b815233600482015260240161038f565b600580546001600160a01b038381166001600160a01b0319831681179093556040519116919082907f8be0079c531659141344cd1fd0a4f28419497f9722a3daafe3b4186f6b6457e0905f90a35050565b6001600160a01b0384166109b65760405163e602df0560e01b81525f600482015260240161038f565b6001600160a01b0383166109df57604051634a1406b160e11b81525f600482015260240161038f565b6001600160a01b038085165f9081526001602090815260408083209387168352929052208290558015610a5a57826001600160a01b0316846001600160a01b03167f8c5be1e5ebec7d5bd14f71427d1e84f3dd0314c0f7b2291e5b200ac8c7c3b92584604051610a5191815260200190565b60405180910390a35b50505050565b5f602080835283518060208501525f5b81811015610a8c57858101830151858201604001528201610a70565b505f604082860101526040601f19601f8301168501019250505092915050565b80356001600160a01b0381168114610ac2575f80fd5b919050565b5f8060408385031215610ad8575f80fd5b610ae183610aac565b946020939093013593505050565b5f805f60608486031215610b01575f80fd5b610b0a84610aac565b9250610b1860208501610aac565b9150604084013590509250925092565b5f60208284031215610b38575f80fd5b5035919050565b5f60208284031215610b4f575f80fd5b61069082610aac565b5f8060408385031215610b69575f80fd5b610b7283610aac565b9150610b8060208401610aac565b90509250929050565b600181811c90821680610b9d57607f821691505b602082108103610bbb57634e487b7160e01b5f52602260045260245ffd5b50919050565b634e487b7160e01b5f52601160045260245ffd5b808202811582820484141761033457610334610bc1565b5f82610c0657634e487b7160e01b5f52601260045260245ffd5b500490565b602080825260149082015273496e73756666696369656e742062616c616e636560601b604082015260600190565b8181038181111561033457610334610bc1565b8082018082111561033457610334610bc156feddf252ad1be2c89b69c2b068fc378daa952ba7f163c4a11628f55a4df523b3efa264697066735822122028001043af16b8ab3af3fee684396e8eb914046e90bc9eca46086c21fec0d1d864736f6c63430008180033","linkReferences":{}},"methodIdentifiers":{"ANNUAL_DEFLATION_RATE()":"755273ab","INITIAL_SUPPLY()":"2ff2e9dc","allowance(address,address)":"dd62ed3e","approve(address,uint256)":"095ea7b3","balanceOf(address)":"70a08231","burn(uint256)":"42966c68","decimals()":"313ce567","deflationFactor()":"31870b92","lastRebaseTimestamp()":"b86a2fd7","mint(address,uint256)":"40c10f19","name()":"06fdde03","owner()":"8da5cb5b","rebase()":"af14052c","renounceOwnership()":"715018a6","symbol()":"95d89b41","totalSupply()":"18160ddd","transfer(address,uint256)":"a9059cbb","transferFrom(address,address,uint256)":"23b872dd","transferOwnership(address)":"f2fde38b"},"id":77}