{"abi":[{"type":"constructor","inputs":[{"name":"_name","type":"string","internalType":"string"},{"name":"_symbol","type":"string","internalType":"string"},{"name":"_totalSupply","type":"uint256","internalType":"uint256"}],"stateMutability":"nonpayable"},{"type":"function","name":"addToWhitelist","inputs":[{"name":"account","type":"address","internalType":"address"}],"outputs":[],"stateMutability":"nonpayable"},{"type":"function","name":"allowance","inputs":[{"name":"","type":"address","internalType":"address"},{"name":"","type":"address","internalType":"address"}],"outputs":[{"name":"","type":"uint256","internalType":"uint256"}],"stateMutability":"view"},{"type":"function","name":"approve","inputs":[{"name":"spender","type":"address","internalType":"address"},{"name":"value","type":"uint256","internalType":"uint256"}],"outputs":[{"name":"","type":"bool","internalType":"bool"}],"stateMutability":"nonpayable"},{"type":"function","name":"balanceOf","inputs":[{"name":"","type":"address","internalType":"address"}],"outputs":[{"name":"","type":"uint256","internalType":"uint256"}],"stateMutability":"view"},{"type":"function","name":"decimals","inputs":[],"outputs":[{"name":"","type":"uint8","internalType":"uint8"}],"stateMutability":"view"},{"type":"function","name":"isWhitelisted","inputs":[{"name":"account","type":"address","internalType":"address"}],"outputs":[{"name":"","type":"bool","internalType":"bool"}],"stateMutability":"view"},{"type":"function","name":"mint","inputs":[{"name":"to","type":"address","internalType":"address"},{"name":"amount","type":"uint256","internalType":"uint256"}],"outputs":[],"stateMutability":"nonpayable"},{"type":"function","name":"name","inputs":[],"outputs":[{"name":"","type":"string","internalType":"string"}],"stateMutability":"view"},{"type":"function","name":"nonces","inputs":[{"name":"","type":"address","internalType":"address"}],"outputs":[{"name":"","type":"uint256","internalType":"uint256"}],"stateMutability":"view"},{"type":"function","name":"permit","inputs":[{"name":"owner","type":"address","internalType":"address"},{"name":"spender","type":"address","internalType":"address"},{"name":"value","type":"uint256","internalType":"uint256"},{"name":"deadline","type":"uint256","internalType":"uint256"},{"name":"v","type":"uint8","internalType":"uint8"},{"name":"r","type":"bytes32","internalType":"bytes32"},{"name":"s","type":"bytes32","internalType":"bytes32"}],"outputs":[],"stateMutability":"nonpayable"},{"type":"function","name":"removeFromWhitelist","inputs":[{"name":"account","type":"address","internalType":"address"}],"outputs":[],"stateMutability":"nonpayable"},{"type":"function","name":"symbol","inputs":[],"outputs":[{"name":"","type":"string","internalType":"string"}],"stateMutability":"view"},{"type":"function","name":"totalSupply","inputs":[],"outputs":[{"name":"","type":"uint256","internalType":"uint256"}],"stateMutability":"view"},{"type":"function","name":"transfer","inputs":[{"name":"to","type":"address","internalType":"address"},{"name":"value","type":"uint256","internalType":"uint256"}],"outputs":[{"name":"","type":"bool","internalType":"bool"}],"stateMutability":"nonpayable"},{"type":"function","name":"transferFrom","inputs":[{"name":"from","type":"address","internalType":"address"},{"name":"to","type":"address","internalType":"address"},{"name":"value","type":"uint256","internalType":"uint256"}],"outputs":[{"name":"","type":"bool","internalType":"bool"}],"stateMutability":"nonpayable"},{"type":"function","name":"whitelist","inputs":[{"name":"","type":"address","internalType":"address"}],"outputs":[{"name":"","type":"bool","internalType":"bool"}],"stateMutability":"view"},{"type":"event","name":"Approval","inputs":[{"name":"owner","type":"address","indexed":true,"internalType":"address"},{"name":"spender","type":"address","indexed":true,"internalType":"address"},{"name":"value","type":"uint256","indexed":false,"internalType":"uint256"}],"anonymous":false},{"type":"event","name":"RemovedFromWhitelist","inputs":[{"name":"account","type":"address","indexed":true,"internalType":"address"}],"anonymous":false},{"type":"event","name":"Transfer","inputs":[{"name":"from","type":"address","indexed":true,"internalType":"address"},{"name":"to","type":"address","indexed":true,"internalType":"address"},{"name":"value","type":"uint256","indexed":false,"internalType":"uint256"}],"anonymous":false},{"type":"event","name":"Whitelisted","inputs":[{"name":"account","type":"address","indexed":true,"internalType":"address"}],"anonymous":false}],"bytecode":{"object":"0x60806040526002805460ff191660121790553480156200001d575f80fd5b50604051620010613803806200106183398101604081905262000040916200016c565b5f6200004d848262000266565b5060016200005c838262000266565b506003819055335f818152600460209081526040808320859055518481527fddf252ad1be2c89b69c2b068fc378daa952ba7f163c4a11628f55a4df523b3ef910160405180910390a35050506200032e565b634e487b7160e01b5f52604160045260245ffd5b5f82601f830112620000d2575f80fd5b81516001600160401b0380821115620000ef57620000ef620000ae565b604051601f8301601f19908116603f011681019082821181831017156200011a576200011a620000ae565b8160405283815260209250868385880101111562000136575f80fd5b5f91505b838210156200015957858201830151818301840152908201906200013a565b5f93810190920192909252949350505050565b5f805f606084860312156200017f575f80fd5b83516001600160401b038082111562000196575f80fd5b620001a487838801620000c2565b94506020860151915080821115620001ba575f80fd5b50620001c986828701620000c2565b925050604084015190509250925092565b600181811c90821680620001ef57607f821691505b6020821081036200020e57634e487b7160e01b5f52602260045260245ffd5b50919050565b601f82111562000261575f81815260208120601f850160051c810160208610156200023c5750805b601f850160051c820191505b818110156200025d5782815560010162000248565b5050505b505050565b81516001600160401b03811115620002825762000282620000ae565b6200029a81620002938454620001da565b8462000214565b602080601f831160018114620002d0575f8415620002b85750858301515b5f19600386901b1c1916600185901b1785556200025d565b5f85815260208120601f198616915b828110156200030057888601518255948401946001909101908401620002df565b50858210156200031e57878501515f19600388901b60f8161c191681555b5050505050600190811b01905550565b610d25806200033c5f395ff3fe608060405234801561000f575f80fd5b50600436106100fb575f3560e01c80637ecebe0011610093578063a9059cbb11610063578063a9059cbb14610244578063d505accf14610257578063dd62ed3e1461026a578063e43252d714610294575f80fd5b80637ecebe00146101e85780638ab1d6811461020757806395d89b411461021a5780639b19251a14610222575f80fd5b8063313ce567116100ce578063313ce5671461016a5780633af32abf1461018957806340c10f19146101b457806370a08231146101c9575f80fd5b806306fdde03146100ff578063095ea7b31461011d57806318160ddd1461014057806323b872dd14610157575b5f80fd5b6101076102a7565b6040516101149190610a44565b60405180910390f35b61013061012b366004610aaa565b610332565b6040519015158152602001610114565b61014960035481565b604051908152602001610114565b610130610165366004610ad2565b61039e565b6002546101779060ff1681565b60405160ff9091168152602001610114565b610130610197366004610b0b565b6001600160a01b03165f9081526007602052604090205460ff1690565b6101c76101c2366004610aaa565b610554565b005b6101496101d7366004610b0b565b60046020525f908152604090205481565b6101496101f6366004610b0b565b60066020525f908152604090205481565b6101c7610215366004610b0b565b6105da565b610107610622565b610130610230366004610b0b565b60076020525f908152604090205460ff1681565b610130610252366004610aaa565b61062f565b6101c7610265366004610b2b565b610710565b610149610278366004610b98565b600560209081525f928352604080842090915290825290205481565b6101c76102a2366004610b0b565b6109f9565b5f80546102b390610bc9565b80601f01602080910402602001604051908101604052809291908181526020018280546102df90610bc9565b801561032a5780601f106103015761010080835404028352916020019161032a565b820191905f5260205f20905b81548152906001019060200180831161030d57829003601f168201915b505050505081565b335f8181526005602090815260408083206001600160a01b038716808552925280832085905551919290917f8c5be1e5ebec7d5bd14f71427d1e84f3dd0314c0f7b2291e5b200ac8c7c3b9259061038c9086815260200190565b60405180910390a35060015b92915050565b6001600160a01b0383165f90815260056020908152604080832033845290915281205482111561040e5760405162461bcd60e51b8152602060048201526016602482015275496e73756666696369656e7420616c6c6f77616e636560501b60448201526064015b60405180910390fd5b6001600160a01b0384165f9081526004602052604090205482111561046c5760405162461bcd60e51b8152602060048201526014602482015273496e73756666696369656e742062616c616e636560601b6044820152606401610405565b6001600160a01b0384165f9081526005602090815260408083203384529091528120805484929061049e908490610c15565b90915550506001600160a01b0384165f90815260046020526040812080548492906104ca908490610c15565b90915550506001600160a01b0383165f90815260046020526040812080548492906104f6908490610c28565b92505081905550826001600160a01b0316846001600160a01b03167fddf252ad1be2c89b69c2b068fc378daa952ba7f163c4a11628f55a4df523b3ef8460405161054291815260200190565b60405180910390a35060019392505050565b8060035f8282546105659190610c28565b90915550506001600160a01b0382165f9081526004602052604081208054839290610591908490610c28565b90915550506040518181526001600160a01b038316905f907fddf252ad1be2c89b69c2b068fc378daa952ba7f163c4a11628f55a4df523b3ef9060200160405180910390a35050565b6001600160a01b0381165f81815260076020526040808220805460ff19169055517fcdd2e9b91a56913d370075169cefa1602ba36be5301664f752192bb1709df7579190a250565b600180546102b390610bc9565b335f908152600460205260408120548211156106845760405162461bcd60e51b8152602060048201526014602482015273496e73756666696369656e742062616c616e636560601b6044820152606401610405565b335f90815260046020526040812080548492906106a2908490610c15565b90915550506001600160a01b0383165f90815260046020526040812080548492906106ce908490610c28565b90915550506040518281526001600160a01b0384169033907fddf252ad1be2c89b69c2b068fc378daa952ba7f163c4a11628f55a4df523b3ef9060200161038c565b834211156107515760405162461bcd60e51b815260206004820152600e60248201526d14195c9b5a5d08195e1c1a5c995960921b6044820152606401610405565b5f7f8b73c3c69bb8fe3d512ecc4cf759cc79239f7b179b0ffacaa9a75d522b39400f5f6040516107819190610c3b565b60408051918290038220828201825260018352603160f81b602093840152815180840194909452838201527fc89efdaa54c0f20c7adf612882df0950f5a951637e0307cdcb4c672f298b8bc66060840152617a6960808401523060a0808501919091528151808503909101815260c0840182528051908301206001600160a01b038c81165f81815260068652848120547f6e71edae12b1b97f4d1f60370fef10105fa2faae0126114a169c64845d6126c960e0890152610100880192909252918d1661012087015261014086018c90526101608601526101808086018b9052835180870390910181526101a086019093528251929093019190912061190160f01b6101c08501526101c284018290526101e28401819052909350916102020160408051601f1981840301815282825280516020918201205f80855291840180845281905260ff8a169284019290925260608301889052608083018790529092509060019060a0016020604051602081039080840390855afa158015610908573d5f803e3d5ffd5b5050506020604051035190508a6001600160a01b0316816001600160a01b0316146109695760405162461bcd60e51b8152602060048201526011602482015270496e76616c6964207369676e617475726560781b6044820152606401610405565b6001600160a01b038b165f90815260066020526040812080549161098c83610cd7565b90915550506001600160a01b038b81165f818152600560209081526040808320948f16808452948252918290208d905590518c81527f8c5be1e5ebec7d5bd14f71427d1e84f3dd0314c0f7b2291e5b200ac8c7c3b925910160405180910390a35050505050505050505050565b6001600160a01b0381165f81815260076020526040808220805460ff19166001179055517faab7954e9d246b167ef88aeddad35209ca2489d95a8aeb59e288d9b19fae5a549190a250565b5f6020808352835180828501525f5b81811015610a6f57858101830151858201604001528201610a53565b505f604082860101526040601f19601f8301168501019250505092915050565b80356001600160a01b0381168114610aa5575f80fd5b919050565b5f8060408385031215610abb575f80fd5b610ac483610a8f565b946020939093013593505050565b5f805f60608486031215610ae4575f80fd5b610aed84610a8f565b9250610afb60208501610a8f565b9150604084013590509250925092565b5f60208284031215610b1b575f80fd5b610b2482610a8f565b9392505050565b5f805f805f805f60e0888a031215610b41575f80fd5b610b4a88610a8f565b9650610b5860208901610a8f565b95506040880135945060608801359350608088013560ff81168114610b7b575f80fd5b9699959850939692959460a0840135945060c09093013592915050565b5f8060408385031215610ba9575f80fd5b610bb283610a8f565b9150610bc060208401610a8f565b90509250929050565b600181811c90821680610bdd57607f821691505b602082108103610bfb57634e487b7160e01b5f52602260045260245ffd5b50919050565b634e487b7160e01b5f52601160045260245ffd5b8181038181111561039857610398610c01565b8082018082111561039857610398610c01565b5f80835481600182811c915080831680610c5657607f831692505b60208084108203610c7557634e487b7160e01b86526022600452602486fd5b818015610c895760018114610c9e57610cc9565b60ff1986168952841515850289019650610cc9565b5f8a8152602090205f5b86811015610cc15781548b820152908501908301610ca8565b505084890196505b509498975050505050505050565b5f60018201610ce857610ce8610c01565b506001019056fea2646970667358221220fa6a156bd49dadd42e89718e0b3d8121b1eede25cc53bcce6e1d48b5cfd915dd64736f6c63430008140033","linkReferences":{}},"methodIdentifiers":{"addToWhitelist(address)":"e43252d7","allowance(address,address)":"dd62ed3e","approve(address,uint256)":"095ea7b3","balanceOf(address)":"70a08231","decimals()":"313ce567","isWhitelisted(address)":"3af32abf","mint(address,uint256)":"40c10f19","name()":"06fdde03","nonces(address)":"7ecebe00","permit(address,address,uint256,uint256,uint8,bytes32,bytes32)":"d505accf","removeFromWhitelist(address)":"8ab1d681","symbol()":"95d89b41","totalSupply()":"18160ddd","transfer(address,uint256)":"a9059cbb","transferFrom(address,address,uint256)":"23b872dd","whitelist(address)":"9b19251a"},"id":30}