{"abi":[{"type":"constructor","inputs":[{"name":"_name","type":"string","internalType":"string"},{"name":"_symbol","type":"string","internalType":"string"},{"name":"_totalSupply","type":"uint256","internalType":"uint256"}],"stateMutability":"nonpayable"},{"type":"function","name":"allowance","inputs":[{"name":"","type":"address","internalType":"address"},{"name":"","type":"address","internalType":"address"}],"outputs":[{"name":"","type":"uint256","internalType":"uint256"}],"stateMutability":"view"},{"type":"function","name":"approve","inputs":[{"name":"spender","type":"address","internalType":"address"},{"name":"value","type":"uint256","internalType":"uint256"}],"outputs":[{"name":"","type":"bool","internalType":"bool"}],"stateMutability":"nonpayable"},{"type":"function","name":"balanceOf","inputs":[{"name":"","type":"address","internalType":"address"}],"outputs":[{"name":"","type":"uint256","internalType":"uint256"}],"stateMutability":"view"},{"type":"function","name":"decimals","inputs":[],"outputs":[{"name":"","type":"uint8","internalType":"uint8"}],"stateMutability":"view"},{"type":"function","name":"mint","inputs":[{"name":"to","type":"address","internalType":"address"},{"name":"amount","type":"uint256","internalType":"uint256"}],"outputs":[],"stateMutability":"nonpayable"},{"type":"function","name":"name","inputs":[],"outputs":[{"name":"","type":"string","internalType":"string"}],"stateMutability":"view"},{"type":"function","name":"nonces","inputs":[{"name":"","type":"address","internalType":"address"}],"outputs":[{"name":"","type":"uint256","internalType":"uint256"}],"stateMutability":"view"},{"type":"function","name":"permit","inputs":[{"name":"owner","type":"address","internalType":"address"},{"name":"spender","type":"address","internalType":"address"},{"name":"value","type":"uint256","internalType":"uint256"},{"name":"deadline","type":"uint256","internalType":"uint256"},{"name":"v","type":"uint8","internalType":"uint8"},{"name":"r","type":"bytes32","internalType":"bytes32"},{"name":"s","type":"bytes32","internalType":"bytes32"}],"outputs":[],"stateMutability":"nonpayable"},{"type":"function","name":"symbol","inputs":[],"outputs":[{"name":"","type":"string","internalType":"string"}],"stateMutability":"view"},{"type":"function","name":"totalSupply","inputs":[],"outputs":[{"name":"","type":"uint256","internalType":"uint256"}],"stateMutability":"view"},{"type":"function","name":"transfer","inputs":[{"name":"to","type":"address","internalType":"address"},{"name":"value","type":"uint256","internalType":"uint256"}],"outputs":[{"name":"","type":"bool","internalType":"bool"}],"stateMutability":"nonpayable"},{"type":"function","name":"transferFrom","inputs":[{"name":"from","type":"address","internalType":"address"},{"name":"to","type":"address","internalType":"address"},{"name":"value","type":"uint256","internalType":"uint256"}],"outputs":[{"name":"","type":"bool","internalType":"bool"}],"stateMutability":"nonpayable"},{"type":"event","name":"Approval","inputs":[{"name":"owner","type":"address","indexed":true,"internalType":"address"},{"name":"spender","type":"address","indexed":true,"internalType":"address"},{"name":"value","type":"uint256","indexed":false,"internalType":"uint256"}],"anonymous":false},{"type":"event","name":"Transfer","inputs":[{"name":"from","type":"address","indexed":true,"internalType":"address"},{"name":"to","type":"address","indexed":true,"internalType":"address"},{"name":"value","type":"uint256","indexed":false,"internalType":"uint256"}],"anonymous":false}],"bytecode":{"object":"0x60806040526002805460ff191660121790553480156200001d575f80fd5b5060405162000f1938038062000f1983398101604081905262000040916200016f565b5f6200004d848262000267565b5060016200005c838262000267565b506003819055335f818152600460209081526040808320859055518481527fddf252ad1be2c89b69c2b068fc378daa952ba7f163c4a11628f55a4df523b3ef910160405180910390a350505062000333565b634e487b7160e01b5f52604160045260245ffd5b5f82601f830112620000d2575f80fd5b81516001600160401b0380821115620000ef57620000ef620000ae565b604051601f8301601f19908116603f011681019082821181831017156200011a576200011a620000ae565b816040528381526020925086602085880101111562000137575f80fd5b5f91505b838210156200015a57858201830151818301840152908201906200013b565b5f602085830101528094505050505092915050565b5f805f6060848603121562000182575f80fd5b83516001600160401b038082111562000199575f80fd5b620001a787838801620000c2565b94506020860151915080821115620001bd575f80fd5b50620001cc86828701620000c2565b925050604084015190509250925092565b600181811c90821680620001f257607f821691505b6020821081036200021157634e487b7160e01b5f52602260045260245ffd5b50919050565b601f8211156200026257805f5260205f20601f840160051c810160208510156200023e5750805b601f840160051c820191505b818110156200025f575f81556001016200024a565b50505b505050565b81516001600160401b03811115620002835762000283620000ae565b6200029b81620002948454620001dd565b8462000217565b602080601f831160018114620002d1575f8415620002b95750858301515b5f19600386901b1c1916600185901b1785556200032b565b5f85815260208120601f198616915b828110156200030157888601518255948401946001909101908401620002e0565b50858210156200031f57878501515f19600388901b60f8161c191681555b505060018460011b0185555b505050505050565b610bd880620003415f395ff3fe608060405234801561000f575f80fd5b50600436106100b1575f3560e01c806370a082311161006e57806370a08231146101545780637ecebe001461017357806395d89b4114610192578063a9059cbb1461019a578063d505accf146101ad578063dd62ed3e146101c0575f80fd5b806306fdde03146100b5578063095ea7b3146100d357806318160ddd146100f657806323b872dd1461010d578063313ce5671461012057806340c10f191461013f575b5f80fd5b6100bd6101ea565b6040516100ca91906108f4565b60405180910390f35b6100e66100e136600461095b565b610275565b60405190151581526020016100ca565b6100ff60035481565b6040519081526020016100ca565b6100e661011b366004610983565b6102e1565b60025461012d9060ff1681565b60405160ff90911681526020016100ca565b61015261014d36600461095b565b610497565b005b6100ff6101623660046109bc565b60046020525f908152604090205481565b6100ff6101813660046109bc565b60066020525f908152604090205481565b6100bd61051d565b6100e66101a836600461095b565b61052a565b6101526101bb3660046109dc565b61060b565b6100ff6101ce366004610a49565b600560209081525f928352604080842090915290825290205481565b5f80546101f690610a7a565b80601f016020809104026020016040519081016040528092919081815260200182805461022290610a7a565b801561026d5780601f106102445761010080835404028352916020019161026d565b820191905f5260205f20905b81548152906001019060200180831161025057829003601f168201915b505050505081565b335f8181526005602090815260408083206001600160a01b038716808552925280832085905551919290917f8c5be1e5ebec7d5bd14f71427d1e84f3dd0314c0f7b2291e5b200ac8c7c3b925906102cf9086815260200190565b60405180910390a35060015b92915050565b6001600160a01b0383165f9081526005602090815260408083203384529091528120548211156103515760405162461bcd60e51b8152602060048201526016602482015275496e73756666696369656e7420616c6c6f77616e636560501b60448201526064015b60405180910390fd5b6001600160a01b0384165f908152600460205260409020548211156103af5760405162461bcd60e51b8152602060048201526014602482015273496e73756666696369656e742062616c616e636560601b6044820152606401610348565b6001600160a01b0384165f908152600560209081526040808320338452909152812080548492906103e1908490610ac6565b90915550506001600160a01b0384165f908152600460205260408120805484929061040d908490610ac6565b90915550506001600160a01b0383165f9081526004602052604081208054849290610439908490610ad9565b92505081905550826001600160a01b0316846001600160a01b03167fddf252ad1be2c89b69c2b068fc378daa952ba7f163c4a11628f55a4df523b3ef8460405161048591815260200190565b60405180910390a35060019392505050565b8060035f8282546104a89190610ad9565b90915550506001600160a01b0382165f90815260046020526040812080548392906104d4908490610ad9565b90915550506040518181526001600160a01b038316905f907fddf252ad1be2c89b69c2b068fc378daa952ba7f163c4a11628f55a4df523b3ef9060200160405180910390a35050565b600180546101f690610a7a565b335f9081526004602052604081205482111561057f5760405162461bcd60e51b8152602060048201526014602482015273496e73756666696369656e742062616c616e636560601b6044820152606401610348565b335f908152600460205260408120805484929061059d908490610ac6565b90915550506001600160a01b0383165f90815260046020526040812080548492906105c9908490610ad9565b90915550506040518281526001600160a01b0384169033907fddf252ad1be2c89b69c2b068fc378daa952ba7f163c4a11628f55a4df523b3ef906020016102cf565b8342111561064c5760405162461bcd60e51b815260206004820152600e60248201526d14195c9b5a5d08195e1c1a5c995960921b6044820152606401610348565b5f7f8b73c3c69bb8fe3d512ecc4cf759cc79239f7b179b0ffacaa9a75d522b39400f5f60405161067c9190610aec565b60408051918290038220828201825260018352603160f81b602093840152815180840194909452838201527fc89efdaa54c0f20c7adf612882df0950f5a951637e0307cdcb4c672f298b8bc66060840152617a6960808401523060a0808501919091528151808503909101815260c0840182528051908301206001600160a01b038c81165f81815260068652848120547f6e71edae12b1b97f4d1f60370fef10105fa2faae0126114a169c64845d6126c960e0890152610100880192909252918d1661012087015261014086018c90526101608601526101808086018b9052835180870390910181526101a086019093528251929093019190912061190160f01b6101c08501526101c284018290526101e28401819052909350916102020160408051601f1981840301815282825280516020918201205f80855291840180845281905260ff8a169284019290925260608301889052608083018790529092509060019060a0016020604051602081039080840390855afa158015610803573d5f803e3d5ffd5b5050506020604051035190508a6001600160a01b0316816001600160a01b0316146108645760405162461bcd60e51b8152602060048201526011602482015270496e76616c6964207369676e617475726560781b6044820152606401610348565b6001600160a01b038b165f90815260066020526040812080549161088783610b8a565b90915550506001600160a01b038b81165f818152600560209081526040808320948f16808452948252918290208d905590518c81527f8c5be1e5ebec7d5bd14f71427d1e84f3dd0314c0f7b2291e5b200ac8c7c3b925910160405180910390a35050505050505050505050565b5f602080835283518060208501525f5b8181101561092057858101830151858201604001528201610904565b505f604082860101526040601f19601f8301168501019250505092915050565b80356001600160a01b0381168114610956575f80fd5b919050565b5f806040838503121561096c575f80fd5b61097583610940565b946020939093013593505050565b5f805f60608486031215610995575f80fd5b61099e84610940565b92506109ac60208501610940565b9150604084013590509250925092565b5f602082840312156109cc575f80fd5b6109d582610940565b9392505050565b5f805f805f805f60e0888a0312156109f2575f80fd5b6109fb88610940565b9650610a0960208901610940565b95506040880135945060608801359350608088013560ff81168114610a2c575f80fd5b9699959850939692959460a0840135945060c09093013592915050565b5f8060408385031215610a5a575f80fd5b610a6383610940565b9150610a7160208401610940565b90509250929050565b600181811c90821680610a8e57607f821691505b602082108103610aac57634e487b7160e01b5f52602260045260245ffd5b50919050565b634e487b7160e01b5f52601160045260245ffd5b818103818111156102db576102db610ab2565b808201808211156102db576102db610ab2565b5f8083545f60018260011c91506001831680610b0957607f831692505b60208084108203610b2857634e487b7160e01b5f52602260045260245ffd5b818015610b3c5760018114610b5157610b7c565b60ff1986168952841515850289019650610b7c565b5f8a8152602090205f5b86811015610b745781548b820152908501908301610b5b565b505084890196505b509498975050505050505050565b5f60018201610b9b57610b9b610ab2565b506001019056fea2646970667358221220c112df5ee7406192d8762f74beebe19f3e55e30da7a1b368a28a58c85755f90464736f6c63430008180033","linkReferences":{}},"methodIdentifiers":{"allowance(address,address)":"dd62ed3e","approve(address,uint256)":"095ea7b3","balanceOf(address)":"70a08231","decimals()":"313ce567","mint(address,uint256)":"40c10f19","name()":"06fdde03","nonces(address)":"7ecebe00","permit(address,address,uint256,uint256,uint8,bytes32,bytes32)":"d505accf","symbol()":"95d89b41","totalSupply()":"18160ddd","transfer(address,uint256)":"a9059cbb","transferFrom(address,address,uint256)":"23b872dd"},"id":83}