{"abi":[{"type":"constructor","inputs":[{"name":"_name","type":"string","internalType":"string"},{"name":"_symbol","type":"string","internalType":"string"},{"name":"_totalSupply","type":"uint256","internalType":"uint256"}],"stateMutability":"nonpayable"},{"type":"function","name":"allowance","inputs":[{"name":"","type":"address","internalType":"address"},{"name":"","type":"address","internalType":"address"}],"outputs":[{"name":"","type":"uint256","internalType":"uint256"}],"stateMutability":"view"},{"type":"function","name":"approve","inputs":[{"name":"spender","type":"address","internalType":"address"},{"name":"value","type":"uint256","internalType":"uint256"}],"outputs":[{"name":"","type":"bool","internalType":"bool"}],"stateMutability":"nonpayable"},{"type":"function","name":"balanceOf","inputs":[{"name":"","type":"address","internalType":"address"}],"outputs":[{"name":"","type":"uint256","internalType":"uint256"}],"stateMutability":"view"},{"type":"function","name":"decimals","inputs":[],"outputs":[{"name":"","type":"uint8","internalType":"uint8"}],"stateMutability":"view"},{"type":"function","name":"mint","inputs":[{"name":"to","type":"address","internalType":"address"},{"name":"amount","type":"uint256","internalType":"uint256"}],"outputs":[],"stateMutability":"nonpayable"},{"type":"function","name":"name","inputs":[],"outputs":[{"name":"","type":"string","internalType":"string"}],"stateMutability":"view"},{"type":"function","name":"nonces","inputs":[{"name":"","type":"address","internalType":"address"}],"outputs":[{"name":"","type":"uint256","internalType":"uint256"}],"stateMutability":"view"},{"type":"function","name":"permit","inputs":[{"name":"owner","type":"address","internalType":"address"},{"name":"spender","type":"address","internalType":"address"},{"name":"value","type":"uint256","internalType":"uint256"},{"name":"deadline","type":"uint256","internalType":"uint256"},{"name":"v","type":"uint8","internalType":"uint8"},{"name":"r","type":"bytes32","internalType":"bytes32"},{"name":"s","type":"bytes32","internalType":"bytes32"}],"outputs":[],"stateMutability":"nonpayable"},{"type":"function","name":"symbol","inputs":[],"outputs":[{"name":"","type":"string","internalType":"string"}],"stateMutability":"view"},{"type":"function","name":"totalSupply","inputs":[],"outputs":[{"name":"","type":"uint256","internalType":"uint256"}],"stateMutability":"view"},{"type":"function","name":"transfer","inputs":[{"name":"to","type":"address","internalType":"address"},{"name":"value","type":"uint256","internalType":"uint256"}],"outputs":[{"name":"","type":"bool","internalType":"bool"}],"stateMutability":"nonpayable"},{"type":"function","name":"transferFrom","inputs":[{"name":"from","type":"address","internalType":"address"},{"name":"to","type":"address","internalType":"address"},{"name":"value","type":"uint256","internalType":"uint256"}],"outputs":[{"name":"","type":"bool","internalType":"bool"}],"stateMutability":"nonpayable"},{"type":"event","name":"Approval","inputs":[{"name":"owner","type":"address","indexed":true,"internalType":"address"},{"name":"spender","type":"address","indexed":true,"internalType":"address"},{"name":"value","type":"uint256","indexed":false,"internalType":"uint256"}],"anonymous":false},{"type":"event","name":"Transfer","inputs":[{"name":"from","type":"address","indexed":true,"internalType":"address"},{"name":"to","type":"address","indexed":true,"internalType":"address"},{"name":"value","type":"uint256","indexed":false,"internalType":"uint256"}],"anonymous":false}],"bytecode":{"object":"0x60806040526002805460ff191660121790553480156200001d575f80fd5b5060405162000f1138038062000f1183398101604081905262000040916200016c565b5f6200004d848262000266565b5060016200005c838262000266565b506003819055335f818152600460209081526040808320859055518481527fddf252ad1be2c89b69c2b068fc378daa952ba7f163c4a11628f55a4df523b3ef910160405180910390a35050506200032e565b634e487b7160e01b5f52604160045260245ffd5b5f82601f830112620000d2575f80fd5b81516001600160401b0380821115620000ef57620000ef620000ae565b604051601f8301601f19908116603f011681019082821181831017156200011a576200011a620000ae565b8160405283815260209250868385880101111562000136575f80fd5b5f91505b838210156200015957858201830151818301840152908201906200013a565b5f93810190920192909252949350505050565b5f805f606084860312156200017f575f80fd5b83516001600160401b038082111562000196575f80fd5b620001a487838801620000c2565b94506020860151915080821115620001ba575f80fd5b50620001c986828701620000c2565b925050604084015190509250925092565b600181811c90821680620001ef57607f821691505b6020821081036200020e57634e487b7160e01b5f52602260045260245ffd5b50919050565b601f82111562000261575f81815260208120601f850160051c810160208610156200023c5750805b601f850160051c820191505b818110156200025d5782815560010162000248565b5050505b505050565b81516001600160401b03811115620002825762000282620000ae565b6200029a81620002938454620001da565b8462000214565b602080601f831160018114620002d0575f8415620002b85750858301515b5f19600386901b1c1916600185901b1785556200025d565b5f85815260208120601f198616915b828110156200030057888601518255948401946001909101908401620002df565b50858210156200031e57878501515f19600388901b60f8161c191681555b5050505050600190811b01905550565b610bd5806200033c5f395ff3fe608060405234801561000f575f80fd5b50600436106100b1575f3560e01c806370a082311161006e57806370a08231146101545780637ecebe001461017357806395d89b4114610192578063a9059cbb1461019a578063d505accf146101ad578063dd62ed3e146101c0575f80fd5b806306fdde03146100b5578063095ea7b3146100d357806318160ddd146100f657806323b872dd1461010d578063313ce5671461012057806340c10f191461013f575b5f80fd5b6100bd6101ea565b6040516100ca91906108f4565b60405180910390f35b6100e66100e136600461095a565b610275565b60405190151581526020016100ca565b6100ff60035481565b6040519081526020016100ca565b6100e661011b366004610982565b6102e1565b60025461012d9060ff1681565b60405160ff90911681526020016100ca565b61015261014d36600461095a565b610497565b005b6100ff6101623660046109bb565b60046020525f908152604090205481565b6100ff6101813660046109bb565b60066020525f908152604090205481565b6100bd61051d565b6100e66101a836600461095a565b61052a565b6101526101bb3660046109db565b61060b565b6100ff6101ce366004610a48565b600560209081525f928352604080842090915290825290205481565b5f80546101f690610a79565b80601f016020809104026020016040519081016040528092919081815260200182805461022290610a79565b801561026d5780601f106102445761010080835404028352916020019161026d565b820191905f5260205f20905b81548152906001019060200180831161025057829003601f168201915b505050505081565b335f8181526005602090815260408083206001600160a01b038716808552925280832085905551919290917f8c5be1e5ebec7d5bd14f71427d1e84f3dd0314c0f7b2291e5b200ac8c7c3b925906102cf9086815260200190565b60405180910390a35060015b92915050565b6001600160a01b0383165f9081526005602090815260408083203384529091528120548211156103515760405162461bcd60e51b8152602060048201526016602482015275496e73756666696369656e7420616c6c6f77616e636560501b60448201526064015b60405180910390fd5b6001600160a01b0384165f908152600460205260409020548211156103af5760405162461bcd60e51b8152602060048201526014602482015273496e73756666696369656e742062616c616e636560601b6044820152606401610348565b6001600160a01b0384165f908152600560209081526040808320338452909152812080548492906103e1908490610ac5565b90915550506001600160a01b0384165f908152600460205260408120805484929061040d908490610ac5565b90915550506001600160a01b0383165f9081526004602052604081208054849290610439908490610ad8565b92505081905550826001600160a01b0316846001600160a01b03167fddf252ad1be2c89b69c2b068fc378daa952ba7f163c4a11628f55a4df523b3ef8460405161048591815260200190565b60405180910390a35060019392505050565b8060035f8282546104a89190610ad8565b90915550506001600160a01b0382165f90815260046020526040812080548392906104d4908490610ad8565b90915550506040518181526001600160a01b038316905f907fddf252ad1be2c89b69c2b068fc378daa952ba7f163c4a11628f55a4df523b3ef9060200160405180910390a35050565b600180546101f690610a79565b335f9081526004602052604081205482111561057f5760405162461bcd60e51b8152602060048201526014602482015273496e73756666696369656e742062616c616e636560601b6044820152606401610348565b335f908152600460205260408120805484929061059d908490610ac5565b90915550506001600160a01b0383165f90815260046020526040812080548492906105c9908490610ad8565b90915550506040518281526001600160a01b0384169033907fddf252ad1be2c89b69c2b068fc378daa952ba7f163c4a11628f55a4df523b3ef906020016102cf565b8342111561064c5760405162461bcd60e51b815260206004820152600e60248201526d14195c9b5a5d08195e1c1a5c995960921b6044820152606401610348565b5f7f8b73c3c69bb8fe3d512ecc4cf759cc79239f7b179b0ffacaa9a75d522b39400f5f60405161067c9190610aeb565b60408051918290038220828201825260018352603160f81b602093840152815180840194909452838201527fc89efdaa54c0f20c7adf612882df0950f5a951637e0307cdcb4c672f298b8bc66060840152617a6960808401523060a0808501919091528151808503909101815260c0840182528051908301206001600160a01b038c81165f81815260068652848120547f6e71edae12b1b97f4d1f60370fef10105fa2faae0126114a169c64845d6126c960e0890152610100880192909252918d1661012087015261014086018c90526101608601526101808086018b9052835180870390910181526101a086019093528251929093019190912061190160f01b6101c08501526101c284018290526101e28401819052909350916102020160408051601f1981840301815282825280516020918201205f80855291840180845281905260ff8a169284019290925260608301889052608083018790529092509060019060a0016020604051602081039080840390855afa158015610803573d5f803e3d5ffd5b5050506020604051035190508a6001600160a01b0316816001600160a01b0316146108645760405162461bcd60e51b8152602060048201526011602482015270496e76616c6964207369676e617475726560781b6044820152606401610348565b6001600160a01b038b165f90815260066020526040812080549161088783610b87565b90915550506001600160a01b038b81165f818152600560209081526040808320948f16808452948252918290208d905590518c81527f8c5be1e5ebec7d5bd14f71427d1e84f3dd0314c0f7b2291e5b200ac8c7c3b925910160405180910390a35050505050505050505050565b5f6020808352835180828501525f5b8181101561091f57858101830151858201604001528201610903565b505f604082860101526040601f19601f8301168501019250505092915050565b80356001600160a01b0381168114610955575f80fd5b919050565b5f806040838503121561096b575f80fd5b6109748361093f565b946020939093013593505050565b5f805f60608486031215610994575f80fd5b61099d8461093f565b92506109ab6020850161093f565b9150604084013590509250925092565b5f602082840312156109cb575f80fd5b6109d48261093f565b9392505050565b5f805f805f805f60e0888a0312156109f1575f80fd5b6109fa8861093f565b9650610a086020890161093f565b95506040880135945060608801359350608088013560ff81168114610a2b575f80fd5b9699959850939692959460a0840135945060c09093013592915050565b5f8060408385031215610a59575f80fd5b610a628361093f565b9150610a706020840161093f565b90509250929050565b600181811c90821680610a8d57607f821691505b602082108103610aab57634e487b7160e01b5f52602260045260245ffd5b50919050565b634e487b7160e01b5f52601160045260245ffd5b818103818111156102db576102db610ab1565b808201808211156102db576102db610ab1565b5f80835481600182811c915080831680610b0657607f831692505b60208084108203610b2557634e487b7160e01b86526022600452602486fd5b818015610b395760018114610b4e57610b79565b60ff1986168952841515850289019650610b79565b5f8a8152602090205f5b86811015610b715781548b820152908501908301610b58565b505084890196505b509498975050505050505050565b5f60018201610b9857610b98610ab1565b506001019056fea264697066735822122064e99741dabdab9ef336a5c1ee016756416abe4feac24fdc6c948bdaf9eeb33464736f6c63430008140033","linkReferences":{}},"methodIdentifiers":{"allowance(address,address)":"dd62ed3e","approve(address,uint256)":"095ea7b3","balanceOf(address)":"70a08231","decimals()":"313ce567","mint(address,uint256)":"40c10f19","name()":"06fdde03","nonces(address)":"7ecebe00","permit(address,address,uint256,uint256,uint8,bytes32,bytes32)":"d505accf","symbol()":"95d89b41","totalSupply()":"18160ddd","transfer(address,uint256)":"a9059cbb","transferFrom(address,address,uint256)":"23b872dd"},"id":33}