{"abi":[{"type":"constructor","inputs":[{"name":"_name","type":"string","internalType":"string"},{"name":"_symbol","type":"string","internalType":"string"}],"stateMutability":"nonpayable"},{"type":"function","name":"approve","inputs":[{"name":"to","type":"address","internalType":"address"},{"name":"tokenId","type":"uint256","internalType":"uint256"}],"outputs":[],"stateMutability":"nonpayable"},{"type":"function","name":"balanceOf","inputs":[{"name":"","type":"address","internalType":"address"}],"outputs":[{"name":"","type":"uint256","internalType":"uint256"}],"stateMutability":"view"},{"type":"function","name":"baseURI","inputs":[],"outputs":[{"name":"","type":"string","internalType":"string"}],"stateMutability":"view"},{"type":"function","name":"batchMintNFT","inputs":[{"name":"to","type":"address","internalType":"address"},{"name":"uris","type":"string[]","internalType":"string[]"}],"outputs":[{"name":"","type":"uint256[]","internalType":"uint256[]"}],"stateMutability":"nonpayable"},{"type":"function","name":"getApproved","inputs":[{"name":"","type":"uint256","internalType":"uint256"}],"outputs":[{"name":"","type":"address","internalType":"address"}],"stateMutability":"view"},{"type":"function","name":"getCurrentTokenId","inputs":[],"outputs":[{"name":"","type":"uint256","internalType":"uint256"}],"stateMutability":"view"},{"type":"function","name":"getTokenURI","inputs":[{"name":"tokenId","type":"uint256","internalType":"uint256"}],"outputs":[{"name":"","type":"string","internalType":"string"}],"stateMutability":"view"},{"type":"function","name":"isApprovedForAll","inputs":[{"name":"","type":"address","internalType":"address"},{"name":"","type":"address","internalType":"address"}],"outputs":[{"name":"","type":"bool","internalType":"bool"}],"stateMutability":"view"},{"type":"function","name":"mintNFT","inputs":[{"name":"to","type":"address","internalType":"address"},{"name":"uri","type":"string","internalType":"string"}],"outputs":[{"name":"","type":"uint256","internalType":"uint256"}],"stateMutability":"nonpayable"},{"type":"function","name":"name","inputs":[],"outputs":[{"name":"","type":"string","internalType":"string"}],"stateMutability":"view"},{"type":"function","name":"ownerOf","inputs":[{"name":"","type":"uint256","internalType":"uint256"}],"outputs":[{"name":"","type":"address","internalType":"address"}],"stateMutability":"view"},{"type":"function","name":"safeTransferFrom","inputs":[{"name":"from","type":"address","internalType":"address"},{"name":"to","type":"address","internalType":"address"},{"name":"tokenId","type":"uint256","internalType":"uint256"}],"outputs":[],"stateMutability":"nonpayable"},{"type":"function","name":"setApprovalForAll","inputs":[{"name":"operator","type":"address","internalType":"address"},{"name":"approved","type":"bool","internalType":"bool"}],"outputs":[],"stateMutability":"nonpayable"},{"type":"function","name":"setBaseURI","inputs":[{"name":"_baseURI","type":"string","internalType":"string"}],"outputs":[],"stateMutability":"nonpayable"},{"type":"function","name":"symbol","inputs":[],"outputs":[{"name":"","type":"string","internalType":"string"}],"stateMutability":"view"},{"type":"function","name":"tokenURI","inputs":[{"name":"","type":"uint256","internalType":"uint256"}],"outputs":[{"name":"","type":"string","internalType":"string"}],"stateMutability":"view"},{"type":"function","name":"totalSupply","inputs":[],"outputs":[{"name":"","type":"uint256","internalType":"uint256"}],"stateMutability":"view"},{"type":"function","name":"transferFrom","inputs":[{"name":"from","type":"address","internalType":"address"},{"name":"to","type":"address","internalType":"address"},{"name":"tokenId","type":"uint256","internalType":"uint256"}],"outputs":[],"stateMutability":"nonpayable"},{"type":"function","name":"version","inputs":[],"outputs":[{"name":"","type":"uint256","internalType":"uint256"}],"stateMutability":"view"},{"type":"event","name":"Approval","inputs":[{"name":"owner","type":"address","indexed":true,"internalType":"address"},{"name":"approved","type":"address","indexed":true,"internalType":"address"},{"name":"tokenId","type":"uint256","indexed":true,"internalType":"uint256"}],"anonymous":false},{"type":"event","name":"ApprovalForAll","inputs":[{"name":"owner","type":"address","indexed":true,"internalType":"address"},{"name":"operator","type":"address","indexed":true,"internalType":"address"},{"name":"approved","type":"bool","indexed":false,"internalType":"bool"}],"anonymous":false},{"type":"event","name":"Transfer","inputs":[{"name":"from","type":"address","indexed":true,"internalType":"address"},{"name":"to","type":"address","indexed":true,"internalType":"address"},{"name":"tokenId","type":"uint256","indexed":true,"internalType":"uint256"}],"anonymous":false}],"bytecode":{"object":"0x608060405234801562000010575f80fd5b506040516200152938038062001529833981016040819052620000339162000166565b81815f62000042838262000256565b50600162000051828262000256565b505060016009555060408051808201909152601981527f68747470733a2f2f6578616d706c652e636f6d2f6e6674732f000000000000006020820152600a906200009c908262000256565b50505062000322565b634e487b7160e01b5f52604160045260245ffd5b5f82601f830112620000c9575f80fd5b81516001600160401b0380821115620000e657620000e6620000a5565b604051601f8301601f19908116603f01168101908282118183101715620001115762000111620000a5565b81604052838152602092508660208588010111156200012e575f80fd5b5f91505b8382101562000151578582018301518183018401529082019062000132565b5f602085830101528094505050505092915050565b5f806040838503121562000178575f80fd5b82516001600160401b03808211156200018f575f80fd5b6200019d86838701620000b9565b93506020850151915080821115620001b3575f80fd5b50620001c285828601620000b9565b9150509250929050565b600181811c90821680620001e157607f821691505b6020821081036200020057634e487b7160e01b5f52602260045260245ffd5b50919050565b601f8211156200025157805f5260205f20601f840160051c810160208510156200022d5750805b601f840160051c820191505b818110156200024e575f815560010162000239565b50505b505050565b81516001600160401b03811115620002725762000272620000a5565b6200028a81620002838454620001cc565b8462000206565b602080601f831160018114620002c0575f8415620002a85750858301515b5f19600386901b1c1916600185901b1785556200031a565b5f85815260208120601f198616915b82811015620002f057888601518255948401946001909101908401620002cf565b50858210156200030e57878501515f19600388901b60f8161c191681555b505060018460011b0185555b505050505050565b6111f980620003305f395ff3fe608060405234801561000f575f80fd5b506004361061011c575f3560e01c806356189236116100a9578063a22cb4651161006e578063a22cb4651461025e578063c87b56dd14610271578063dd2e230314610284578063e985e9c5146102a4578063eacabe14146102e1575f80fd5b806356189236146101ff5780636352211e146102075780636c0360eb1461022f57806370a082311461023757806395d89b4114610256575f80fd5b806323b872dd116100ef57806323b872dd146101aa5780633bb3a24d146101bd57806342842e0e146101d057806354fd4d50146101e357806355f804b3146101ec575f80fd5b806306fdde0314610120578063081812fc1461013e578063095ea7b31461017e57806318160ddd14610193575b5f80fd5b6101286102f4565b6040516101359190610b7d565b60405180910390f35b61016661014c366004610b96565b60056020525f90815260409020546001600160a01b031681565b6040516001600160a01b039091168152602001610135565b61019161018c366004610bc8565b61037f565b005b61019c60025481565b604051908152602001610135565b6101916101b8366004610bf0565b61042f565b6101286101cb366004610b96565b6105ce565b6101916101de366004610bf0565b61065d565b61019c60095481565b6101916101fa366004610cda565b610687565b60085461019c565b610166610215366004610b96565b60036020525f90815260409020546001600160a01b031681565b610128610697565b61019c610245366004610d0c565b60046020525f908152604090205481565b6101286106a4565b61019161026c366004610d25565b6106b1565b61012861027f366004610b96565b61071c565b610297610292366004610d5e565b610734565b6040516101359190610e2d565b6102d16102b2366004610e70565b600660209081525f928352604080842090915290825290205460ff1681565b6040519015158152602001610135565b61019c6102ef366004610ea1565b6107da565b5f805461030090610eec565b80601f016020809104026020016040519081016040528092919081815260200182805461032c90610eec565b80156103775780601f1061034e57610100808354040283529160200191610377565b820191905f5260205f20905b81548152906001019060200180831161035a57829003601f168201915b505050505081565b61038933826108a1565b6103c95760405162461bcd60e51b815260206004820152600c60248201526b139bdd08185c1c1c9bdd995960a21b60448201526064015b60405180910390fd5b5f81815260056020908152604080832080546001600160a01b0319166001600160a01b038781169182179092556003909352818420549151859492909116917f8c5be1e5ebec7d5bd14f71427d1e84f3dd0314c0f7b2291e5b200ac8c7c3b92591a45050565b61043933826108a1565b6104745760405162461bcd60e51b815260206004820152600c60248201526b139bdd08185c1c1c9bdd995960a21b60448201526064016103c0565b5f818152600360205260409020546001600160a01b038481169116146104cc5760405162461bcd60e51b815260206004820152600d60248201526c24b73b30b634b21037bbb732b960991b60448201526064016103c0565b6001600160a01b0382166105165760405162461bcd60e51b8152602060048201526011602482015270125b9d985b1a59081c9958da5c1a595b9d607a1b60448201526064016103c0565b5f81815260036020908152604080832080546001600160a01b0319166001600160a01b0387811691909117909155861683526004909152812080549161055b83610f38565b90915550506001600160a01b0382165f90815260046020526040812080549161058383610f4d565b919050555080826001600160a01b0316846001600160a01b03167fddf252ad1be2c89b69c2b068fc378daa952ba7f163c4a11628f55a4df523b3ef60405160405180910390a4505050565b5f818152600360205260409020546060906001600160a01b031661062b5760405162461bcd60e51b8152602060048201526014602482015273151bdad95b88191bd95cc81b9bdd08195e1a5cdd60621b60448201526064016103c0565b600a61063683610919565b604051602001610647929190610f65565b6040516020818303038152906040529050919050565b61066883838361042f565b61068283838360405180602001604052805f815250610a16565b505050565b600a610693828261102c565b5050565b600a805461030090610eec565b6001805461030090610eec565b335f8181526006602090815260408083206001600160a01b03871680855290835292819020805460ff191686151590811790915590519081529192917f17307eab39ab6107e8899845ad3d59bd9653f200f220920489ca2b5937696c31910160405180910390a35050565b60076020525f90815260409020805461030090610eec565b60605f825167ffffffffffffffff81111561075157610751610c29565b60405190808252806020026020018201604052801561077a578160200160208202803683370190505b5090505f5b83518110156107d0576107ab8585838151811061079e5761079e6110ec565b60200260200101516107da565b8282815181106107bd576107bd6110ec565b602090810291909101015260010161077f565b5090505b92915050565b600880545f918190836107ec83610f4d565b90915550505f81815260036020908152604080832080546001600160a01b0319166001600160a01b03891690811790915583526004909152812080549161083283610f4d565b90915550505f81815260076020526040902061084e848261102c565b5060028054905f61085e83610f4d565b909155505060405181906001600160a01b038616905f907fddf252ad1be2c89b69c2b068fc378daa952ba7f163c4a11628f55a4df523b3ef908290a49392505050565b5f818152600360205260408120546001600160a01b039081169084168114806108e257505f838152600560205260409020546001600160a01b038581169116145b8061091157506001600160a01b038082165f9081526006602090815260408083209388168352929052205460ff165b949350505050565b6060815f0361093f5750506040805180820190915260018152600360fc1b602082015290565b815f5b8115610968578061095281610f4d565b91506109619050600a83611114565b9150610942565b5f8167ffffffffffffffff81111561098257610982610c29565b6040519080825280601f01601f1916602001820160405280156109ac576020820181803683370190505b5090505b8415610911576109c1600183611127565b91506109ce600a8661113a565b6109d990603061114d565b60f81b8183815181106109ee576109ee6110ec565b60200101906001600160f81b03191690815f1a905350610a0f600a86611114565b94506109b0565b6001600160a01b0383163b15610b2a57604051630a85bd0160e11b81526001600160a01b0384169063150b7a0290610a58903390889087908790600401611160565b6020604051808303815f875af1925050508015610a92575060408051601f3d908101601f19168201909252610a8f9181019061119c565b60015b610ad35760405162461bcd60e51b81526020600482015260126024820152712737ba1022a9219b9918a932b1b2b4bb32b960711b60448201526064016103c0565b6001600160e01b03198116630a85bd0160e11b14610b285760405162461bcd60e51b81526020600482015260126024820152712737ba1022a9219b9918a932b1b2b4bb32b960711b60448201526064016103c0565b505b50505050565b5f5b83811015610b4a578181015183820152602001610b32565b50505f910152565b5f8151808452610b69816020860160208601610b30565b601f01601f19169290920160200192915050565b602081525f610b8f6020830184610b52565b9392505050565b5f60208284031215610ba6575f80fd5b5035919050565b80356001600160a01b0381168114610bc3575f80fd5b919050565b5f8060408385031215610bd9575f80fd5b610be283610bad565b946020939093013593505050565b5f805f60608486031215610c02575f80fd5b610c0b84610bad565b9250610c1960208501610bad565b9150604084013590509250925092565b634e487b7160e01b5f52604160045260245ffd5b604051601f8201601f1916810167ffffffffffffffff81118282101715610c6657610c66610c29565b604052919050565b5f82601f830112610c7d575f80fd5b813567ffffffffffffffff811115610c9757610c97610c29565b610caa601f8201601f1916602001610c3d565b818152846020838601011115610cbe575f80fd5b816020850160208301375f918101602001919091529392505050565b5f60208284031215610cea575f80fd5b813567ffffffffffffffff811115610d00575f80fd5b61091184828501610c6e565b5f60208284031215610d1c575f80fd5b610b8f82610bad565b5f8060408385031215610d36575f80fd5b610d3f83610bad565b915060208301358015158114610d53575f80fd5b809150509250929050565b5f8060408385031215610d6f575f80fd5b610d7883610bad565b915060208084013567ffffffffffffffff80821115610d95575f80fd5b818601915086601f830112610da8575f80fd5b813581811115610dba57610dba610c29565b8060051b610dc9858201610c3d565b918252838101850191858101908a841115610de2575f80fd5b86860192505b83831015610e1c57823585811115610dfe575f80fd5b610e0c8c89838a0101610c6e565b8352509186019190860190610de8565b809750505050505050509250929050565b602080825282518282018190525f9190848201906040850190845b81811015610e6457835183529284019291840191600101610e48565b50909695505050505050565b5f8060408385031215610e81575f80fd5b610e8a83610bad565b9150610e9860208401610bad565b90509250929050565b5f8060408385031215610eb2575f80fd5b610ebb83610bad565b9150602083013567ffffffffffffffff811115610ed6575f80fd5b610ee285828601610c6e565b9150509250929050565b600181811c90821680610f0057607f821691505b602082108103610f1e57634e487b7160e01b5f52602260045260245ffd5b50919050565b634e487b7160e01b5f52601160045260245ffd5b5f81610f4657610f46610f24565b505f190190565b5f60018201610f5e57610f5e610f24565b5060010190565b5f808454610f7281610eec565b60018281168015610f8a5760018114610f9f57610fcb565b60ff1984168752821515830287019450610fcb565b885f526020805f205f5b85811015610fc25781548a820152908401908201610fa9565b50505082870194505b505050508351610fdf818360208801610b30565b01949350505050565b601f82111561068257805f5260205f20601f840160051c8101602085101561100d5750805b601f840160051c820191505b81811015610b28575f8155600101611019565b815167ffffffffffffffff81111561104657611046610c29565b61105a816110548454610eec565b84610fe8565b602080601f83116001811461108d575f84156110765750858301515b5f19600386901b1c1916600185901b1785556110e4565b5f85815260208120601f198616915b828110156110bb5788860151825594840194600190910190840161109c565b50858210156110d857878501515f19600388901b60f8161c191681555b505060018460011b0185555b505050505050565b634e487b7160e01b5f52603260045260245ffd5b634e487b7160e01b5f52601260045260245ffd5b5f8261112257611122611100565b500490565b818103818111156107d4576107d4610f24565b5f8261114857611148611100565b500690565b808201808211156107d4576107d4610f24565b6001600160a01b03858116825284166020820152604081018390526080606082018190525f9061119290830184610b52565b9695505050505050565b5f602082840312156111ac575f80fd5b81516001600160e01b031981168114610b8f575f80fdfea2646970667358221220e0fe55feba232cf1089eb51693bb719100eab74b2d927fe9e7e9f9ddc3116d5c64736f6c63430008180033","linkReferences":{}},"methodIdentifiers":{"approve(address,uint256)":"095ea7b3","balanceOf(address)":"70a08231","baseURI()":"6c0360eb","batchMintNFT(address,string[])":"dd2e2303","getApproved(uint256)":"081812fc","getCurrentTokenId()":"56189236","getTokenURI(uint256)":"3bb3a24d","isApprovedForAll(address,address)":"e985e9c5","mintNFT(address,string)":"eacabe14","name()":"06fdde03","ownerOf(uint256)":"6352211e","safeTransferFrom(address,address,uint256)":"42842e0e","setApprovalForAll(address,bool)":"a22cb465","setBaseURI(string)":"55f804b3","symbol()":"95d89b41","tokenURI(uint256)":"c87b56dd","totalSupply()":"18160ddd","transferFrom(address,address,uint256)":"23b872dd","version()":"54fd4d50"},"id":73}