{"abi":[{"type":"function","name":"UPGRADE_INTERFACE_VERSION","inputs":[],"outputs":[{"name":"","type":"string","internalType":"string"}],"stateMutability":"view"},{"type":"function","name":"buyNFT","inputs":[{"name":"nftContract","type":"address","internalType":"address"},{"name":"tokenId","type":"uint256","internalType":"uint256"}],"outputs":[],"stateMutability":"payable"},{"type":"function","name":"getDomainSeparator","inputs":[],"outputs":[{"name":"","type":"bytes32","internalType":"bytes32"}],"stateMutability":"view"},{"type":"function","name":"initialize","inputs":[],"outputs":[],"stateMutability":"nonpayable"},{"type":"function","name":"listNFT","inputs":[{"name":"nftContract","type":"address","internalType":"address"},{"name":"tokenId","type":"uint256","internalType":"uint256"},{"name":"price","type":"uint256","internalType":"uint256"}],"outputs":[],"stateMutability":"nonpayable"},{"type":"function","name":"listings","inputs":[{"name":"","type":"address","internalType":"address"},{"name":"","type":"uint256","internalType":"uint256"}],"outputs":[{"name":"seller","type":"address","internalType":"address"},{"name":"price","type":"uint256","internalType":"uint256"},{"name":"active","type":"bool","internalType":"bool"}],"stateMutability":"view"},{"type":"function","name":"owner","inputs":[],"outputs":[{"name":"","type":"address","internalType":"address"}],"stateMutability":"view"},{"type":"function","name":"permitBuy","inputs":[{"name":"nftContract","type":"address","internalType":"address"},{"name":"tokenId","type":"uint256","internalType":"uint256"},{"name":"price","type":"uint256","internalType":"uint256"},{"name":"deadline","type":"uint256","internalType":"uint256"},{"name":"v","type":"uint8","internalType":"uint8"},{"name":"r","type":"bytes32","internalType":"bytes32"},{"name":"s","type":"bytes32","internalType":"bytes32"}],"outputs":[],"stateMutability":"payable"},{"type":"function","name":"permitList","inputs":[{"name":"tokenId","type":"uint256","internalType":"uint256"},{"name":"price","type":"uint256","internalType":"uint256"},{"name":"deadline","type":"uint256","internalType":"uint256"},{"name":"v","type":"uint8","internalType":"uint8"},{"name":"r","type":"bytes32","internalType":"bytes32"},{"name":"s","type":"bytes32","internalType":"bytes32"}],"outputs":[{"name":"","type":"bool","internalType":"bool"}],"stateMutability":"view"},{"type":"function","name":"permitListNFT","inputs":[{"name":"nftContract","type":"address","internalType":"address"},{"name":"tokenId","type":"uint256","internalType":"uint256"},{"name":"price","type":"uint256","internalType":"uint256"},{"name":"deadline","type":"uint256","internalType":"uint256"},{"name":"v","type":"uint8","internalType":"uint8"},{"name":"r","type":"bytes32","internalType":"bytes32"},{"name":"s","type":"bytes32","internalType":"bytes32"}],"outputs":[],"stateMutability":"nonpayable"},{"type":"function","name":"proxiableUUID","inputs":[],"outputs":[{"name":"","type":"bytes32","internalType":"bytes32"}],"stateMutability":"view"},{"type":"function","name":"removeNFT","inputs":[{"name":"nftContract","type":"address","internalType":"address"},{"name":"tokenId","type":"uint256","internalType":"uint256"}],"outputs":[],"stateMutability":"nonpayable"},{"type":"function","name":"renounceOwnership","inputs":[],"outputs":[],"stateMutability":"nonpayable"},{"type":"function","name":"transferOwnership","inputs":[{"name":"newOwner","type":"address","internalType":"address"}],"outputs":[],"stateMutability":"nonpayable"},{"type":"function","name":"upgradeTo","inputs":[{"name":"newImplementation","type":"address","internalType":"address"}],"outputs":[],"stateMutability":"nonpayable"},{"type":"function","name":"upgradeToAndCall","inputs":[{"name":"newImplementation","type":"address","internalType":"address"},{"name":"data","type":"bytes","internalType":"bytes"}],"outputs":[],"stateMutability":"payable"},{"type":"event","name":"Initialized","inputs":[{"name":"version","type":"uint64","indexed":false,"internalType":"uint64"}],"anonymous":false},{"type":"event","name":"NFTListed","inputs":[{"name":"nftContract","type":"address","indexed":true,"internalType":"address"},{"name":"tokenId","type":"uint256","indexed":true,"internalType":"uint256"},{"name":"seller","type":"address","indexed":true,"internalType":"address"},{"name":"price","type":"uint256","indexed":false,"internalType":"uint256"}],"anonymous":false},{"type":"event","name":"NFTPurchased","inputs":[{"name":"nftContract","type":"address","indexed":true,"internalType":"address"},{"name":"tokenId","type":"uint256","indexed":true,"internalType":"uint256"},{"name":"buyer","type":"address","indexed":true,"internalType":"address"},{"name":"price","type":"uint256","indexed":false,"internalType":"uint256"}],"anonymous":false},{"type":"event","name":"NFTRemoved","inputs":[{"name":"nftContract","type":"address","indexed":true,"internalType":"address"},{"name":"tokenId","type":"uint256","indexed":true,"internalType":"uint256"},{"name":"seller","type":"address","indexed":true,"internalType":"address"}],"anonymous":false},{"type":"event","name":"OwnershipTransferred","inputs":[{"name":"previousOwner","type":"address","indexed":true,"internalType":"address"},{"name":"newOwner","type":"address","indexed":true,"internalType":"address"}],"anonymous":false},{"type":"event","name":"Upgraded","inputs":[{"name":"implementation","type":"address","indexed":true,"internalType":"address"}],"anonymous":false},{"type":"error","name":"AddressEmptyCode","inputs":[{"name":"target","type":"address","internalType":"address"}]},{"type":"error","name":"ECDSAInvalidSignature","inputs":[]},{"type":"error","name":"ECDSAInvalidSignatureLength","inputs":[{"name":"length","type":"uint256","internalType":"uint256"}]},{"type":"error","name":"ECDSAInvalidSignatureS","inputs":[{"name":"s","type":"bytes32","internalType":"bytes32"}]},{"type":"error","name":"ERC1967InvalidImplementation","inputs":[{"name":"implementation","type":"address","internalType":"address"}]},{"type":"error","name":"ERC1967NonPayable","inputs":[]},{"type":"error","name":"FailedCall","inputs":[]},{"type":"error","name":"InvalidInitialization","inputs":[]},{"type":"error","name":"NotInitializing","inputs":[]},{"type":"error","name":"OwnableInvalidOwner","inputs":[{"name":"owner","type":"address","internalType":"address"}]},{"type":"error","name":"OwnableUnauthorizedAccount","inputs":[{"name":"account","type":"address","internalType":"address"}]},{"type":"error","name":"UUPSUnauthorizedCallContext","inputs":[]},{"type":"error","name":"UUPSUnsupportedProxiableUUID","inputs":[{"name":"slot","type":"bytes32","internalType":"bytes32"}]}],"bytecode":{"object":"0x60a060405230608052348015610013575f80fd5b50608051611bca61003a5f395f818161128c015281816112b501526113ec0152611bca5ff3fe6080604052600436106100ee575f3560e01c80638da5cb5b11610087578063b71b9bbf11610057578063b71b9bbf146102d2578063ebabf794146102f1578063ed24911d14610320578063f2fde38b14610334575f80fd5b80638da5cb5b1461021d578063a82ba76f14610263578063ad05f1b414610276578063ad3cb1cc14610295575f80fd5b80634f1ef286116100c25780634f1ef286146101c057806352d1902d146101d3578063715018a6146101f55780638129fc1c14610209575f80fd5b806207df30146100f2578063254f68e61461016d5780633659cfe61461018257806349fd566b146101a1575b5f80fd5b3480156100fd575f80fd5b5061014161010c366004611889565b5f6020818152928152604080822090935290815220805460018201546002909201546001600160a01b03909116919060ff1683565b604080516001600160a01b03909416845260208401929092521515908201526060015b60405180910390f35b61018061017b3660046118c8565b610353565b005b34801561018d575f80fd5b5061018061019c366004611928565b61048d565b3480156101ac575f80fd5b506101806101bb366004611889565b6104b9565b6101806101ce36600461195e565b61058f565b3480156101de575f80fd5b506101e76105ae565b604051908152602001610164565b348015610200575f80fd5b506101806105c9565b348015610214575f80fd5b506101806105dc565b348015610228575f80fd5b507f9016d09d72d40fdae2fd8ceac6b6234c7706214fd39c1cd1e609a0528c199300546040516001600160a01b039091168152602001610164565b610180610271366004611889565b6106d4565b348015610281575f80fd5b50610180610290366004611a1c565b610776565b3480156102a0575f80fd5b506102c5604051806040016040528060058152602001640352e302e360dc1b81525081565b6040516101649190611a4e565b3480156102dd575f80fd5b506101806102ec3660046118c8565b610ac7565b3480156102fc575f80fd5b5061031061030b366004611a9a565b610ec1565b6040519015158152602001610164565b34801561032b575f80fd5b506101e7610fa3565b34801561033f575f80fd5b5061018061034e366004611928565b611073565b610361868686868686610ec1565b6103a65760405162461bcd60e51b8152602060048201526011602482015270496e76616c6964207369676e617475726560781b60448201526064015b60405180910390fd5b6001600160a01b0387165f908152602081815260408083208984529091529020600281015460ff166103ea5760405162461bcd60e51b815260040161039d90611ae7565b8581600101541461042e5760405162461bcd60e51b815260206004820152600e60248201526d0a0e4d2c6ca40dad2e6dac2e8c6d60931b604482015260640161039d565b8534146104785760405162461bcd60e51b8152602060048201526018602482015277125b98dbdc9c9958dd081c185e5b595b9d08185b5bdd5b9d60421b604482015260640161039d565b6104838888836110ad565b5050505050505050565b61049561121e565b61049e81611279565b6104b68160405180602001604052805f81525061058f565b50565b6001600160a01b0382165f908152602081815260408083208484529091529020600281015460ff166104fd5760405162461bcd60e51b815260040161039d90611ae7565b80546001600160a01b031633146105475760405162461bcd60e51b815260206004820152600e60248201526d2737ba103a34329039b2b63632b960911b604482015260640161039d565b60028101805460ff19169055604051339083906001600160a01b038616907f81904fa06bddfcd978320961877f1318cf1d7d785b3868fe5c53ad2e6323e076905f90a4505050565b610597611281565b6105a082611279565b6105aa8282611325565b5050565b5f6105b76113e1565b505f80516020611b7583398151915290565b6105d161121e565b6105da5f61142a565b565b5f6105e561149a565b805490915060ff600160401b820416159067ffffffffffffffff165f8115801561060c5750825b90505f8267ffffffffffffffff1660011480156106285750303b155b905081158015610636575080155b156106545760405163f92ee8a960e01b815260040160405180910390fd5b845467ffffffffffffffff19166001178555831561067e57845460ff60401b1916600160401b1785555b610687336114c4565b83156106cd57845460ff60401b19168555604051600181527fc7f505b2f371ae2175ee4913f4499e1f2633a7b5936321eed1cdaeb6115181d29060200160405180910390a15b5050505050565b6001600160a01b0382165f908152602081815260408083208484529091529020600281015460ff166107185760405162461bcd60e51b815260040161039d90611ae7565b806001015434146107665760405162461bcd60e51b8152602060048201526018602482015277125b98dbdc9c9958dd081c185e5b595b9d08185b5bdd5b9d60421b604482015260640161039d565b6107718383836110ad565b505050565b5f81116107c55760405162461bcd60e51b815260206004820152601c60248201527f5072696365206d7573742062652067726561746572207468616e203000000000604482015260640161039d565b6001600160a01b0383165f9081526020818152604080832085845290915290206002015460ff161561082e5760405162461bcd60e51b815260206004820152601260248201527113919508185b1c9958591e481b1a5cdd195960721b604482015260640161039d565b6040516331a9108f60e11b815260048101839052839033906001600160a01b03831690636352211e90602401602060405180830381865afa158015610875573d5f803e3d5ffd5b505050506040513d601f19601f820116820180604052508101906108999190611b0f565b6001600160a01b0316146108ea5760405162461bcd60e51b8152602060048201526018602482015277139bdd081d1a19481bdddb995c881bd9881d1a194813919560421b604482015260640161039d565b60405163e985e9c560e01b81523360048201523060248201526001600160a01b0382169063e985e9c590604401602060405180830381865afa158015610932573d5f803e3d5ffd5b505050506040513d601f19601f820116820180604052508101906109569190611b2a565b806109d0575060405163020604bf60e21b81526004810184905230906001600160a01b0383169063081812fc90602401602060405180830381865afa1580156109a1573d5f803e3d5ffd5b505050506040513d601f19601f820116820180604052508101906109c59190611b0f565b6001600160a01b0316145b610a1c5760405162461bcd60e51b815260206004820152601b60248201527f4e4654206e6f7420617070726f76656420666f72206d61726b65740000000000604482015260640161039d565b6040805160608101825233808252602080830186815260018486018181526001600160a01b038b81165f8181528087528981208d82528752899020975188546001600160a01b0319169216919091178755925191860191909155516002909401805460ff191694151594909417909355925185815290928692917f392a0f172cb29479635d0b2219b2f96ef24f74dfdf328cb09f1496efe6cfddbe910160405180910390a450505050565b610ad5868686868686610ec1565b610b155760405162461bcd60e51b8152602060048201526011602482015270496e76616c6964207369676e617475726560781b604482015260640161039d565b5f8511610b645760405162461bcd60e51b815260206004820152601c60248201527f5072696365206d7573742062652067726561746572207468616e203000000000604482015260640161039d565b6001600160a01b0387165f9081526020818152604080832089845290915290206002015460ff1615610bcd5760405162461bcd60e51b815260206004820152601260248201527113919508185b1c9958591e481b1a5cdd195960721b604482015260640161039d565b6040516331a9108f60e11b815260048101879052879033906001600160a01b03831690636352211e90602401602060405180830381865afa158015610c14573d5f803e3d5ffd5b505050506040513d601f19601f82011682018060405250810190610c389190611b0f565b6001600160a01b031614610c895760405162461bcd60e51b8152602060048201526018602482015277139bdd081d1a19481bdddb995c881bd9881d1a194813919560421b604482015260640161039d565b60405163e985e9c560e01b81523360048201523060248201526001600160a01b0382169063e985e9c590604401602060405180830381865afa158015610cd1573d5f803e3d5ffd5b505050506040513d601f19601f82011682018060405250810190610cf59190611b2a565b80610d6f575060405163020604bf60e21b81526004810188905230906001600160a01b0383169063081812fc90602401602060405180830381865afa158015610d40573d5f803e3d5ffd5b505050506040513d601f19601f82011682018060405250810190610d649190611b0f565b6001600160a01b0316145b610dbb5760405162461bcd60e51b815260206004820152601b60248201527f4e4654206e6f7420617070726f76656420666f72206d61726b65740000000000604482015260640161039d565b6040518060600160405280336001600160a01b03168152602001878152602001600115158152505f808a6001600160a01b03166001600160a01b031681526020019081526020015f205f8981526020019081526020015f205f820151815f015f6101000a8154816001600160a01b0302191690836001600160a01b03160217905550602082015181600101556040820151816002015f6101000a81548160ff021916908315150217905550905050336001600160a01b031687896001600160a01b03167f392a0f172cb29479635d0b2219b2f96ef24f74dfdf328cb09f1496efe6cfddbe89604051610eaf91815260200190565b60405180910390a45050505050505050565b5f84421115610f065760405162461bcd60e51b815260206004820152601160248201527014da59db985d1d5c9948195e1c1a5c9959607a1b604482015260640161039d565b6040805160208101899052908101879052606081018690525f906080016040516020818303038152906040528051906020012090505f610f44610fa3565b60405161190160f01b60208201526022810191909152604281018390526062016040516020818303038152906040528051906020012090505f610f89828888886114d5565b6001600160a01b0316331493505050509695505050505050565b604080518082018252600981526813919513585c9ad95d60ba1b6020918201528151808301835260018152603160f81b9082015281517f8b73c3c69bb8fe3d512ecc4cf759cc79239f7b179b0ffacaa9a75d522b39400f818301527f54e9f28a63c0492085c59cec415c43dc0da96af38a9e0ee5f5258a6711e71961818401527fc89efdaa54c0f20c7adf612882df0950f5a951637e0307cdcb4c672f298b8bc660608201524660808201523060a0808301919091528351808303909101815260c0909101909252815191012090565b61107b61121e565b6001600160a01b0381166110a457604051631e4fbdf760e01b81525f600482015260240161039d565b6104b68161142a565b60028101805460ff191690558054604051632142170760e11b81526001600160a01b0391821660048201523360248201526044810184905284918216906342842e0e906064015f604051808303815f87803b15801561110a575f80fd5b505af115801561111c573d5f803e3d5ffd5b5050835460018501546040515f94506001600160a01b039092169250908381818185875af1925050503d805f811461116f576040519150601f19603f3d011682016040523d82523d5f602084013e611174565b606091505b50509050806111c55760405162461bcd60e51b815260206004820152601860248201527f4661696c656420746f207472616e736665722066756e64730000000000000000604482015260640161039d565b336001600160a01b031684866001600160a01b03167fd0de3e759b6d8ae4ab8dfd56f0869b691034bf2f14b896155287e5cd61d66a70866001015460405161120f91815260200190565b60405180910390a45050505050565b336112507f9016d09d72d40fdae2fd8ceac6b6234c7706214fd39c1cd1e609a0528c199300546001600160a01b031690565b6001600160a01b0316146105da5760405163118cdaa760e01b815233600482015260240161039d565b6104b661121e565b306001600160a01b037f000000000000000000000000000000000000000000000000000000000000000016148061130757507f00000000000000000000000000000000000000000000000000000000000000006001600160a01b03166112fb5f80516020611b75833981519152546001600160a01b031690565b6001600160a01b031614155b156105da5760405163703e46dd60e11b815260040160405180910390fd5b816001600160a01b03166352d1902d6040518163ffffffff1660e01b8152600401602060405180830381865afa92505050801561137f575060408051601f3d908101601f1916820190925261137c91810190611b49565b60015b6113a757604051634c9c8ce360e01b81526001600160a01b038316600482015260240161039d565b5f80516020611b7583398151915281146113d757604051632a87526960e21b81526004810182905260240161039d565b6107718383611501565b306001600160a01b037f000000000000000000000000000000000000000000000000000000000000000016146105da5760405163703e46dd60e11b815260040160405180910390fd5b7f9016d09d72d40fdae2fd8ceac6b6234c7706214fd39c1cd1e609a0528c19930080546001600160a01b031981166001600160a01b03848116918217845560405192169182907f8be0079c531659141344cd1fd0a4f28419497f9722a3daafe3b4186f6b6457e0905f90a3505050565b5f807ff0c57e16840df040f15088dc2f81fe391c3923bec73e23a9662efc9c229c6a005b92915050565b6114cc611556565b6104b68161157b565b5f805f806114e588888888611583565b9250925092506114f5828261164b565b50909695505050505050565b61150a82611703565b6040516001600160a01b038316907fbc7cd75a20ee27fd9adebab32041f755214dbc6bffa90cc0225b39da2e5c2d3b905f90a280511561154e576107718282611766565b6105aa611806565b61155e611825565b6105da57604051631afcd79f60e31b815260040160405180910390fd5b61107b611556565b5f80807f7fffffffffffffffffffffffffffffff5d576e7357a4501ddfe92f46681b20a08411156115bc57505f91506003905082611641565b604080515f808252602082018084528a905260ff891692820192909252606081018790526080810186905260019060a0016020604051602081039080840390855afa15801561160d573d5f803e3d5ffd5b5050604051601f1901519150506001600160a01b03811661163857505f925060019150829050611641565b92505f91508190505b9450945094915050565b5f82600381111561165e5761165e611b60565b03611667575050565b600182600381111561167b5761167b611b60565b036116995760405163f645eedf60e01b815260040160405180910390fd5b60028260038111156116ad576116ad611b60565b036116ce5760405163fce698f760e01b81526004810182905260240161039d565b60038260038111156116e2576116e2611b60565b036105aa576040516335e2f38360e21b81526004810182905260240161039d565b806001600160a01b03163b5f0361173857604051634c9c8ce360e01b81526001600160a01b038216600482015260240161039d565b5f80516020611b7583398151915280546001600160a01b0319166001600160a01b0392909216919091179055565b60605f611773848461183e565b905080801561179457505f3d118061179457505f846001600160a01b03163b115b156117a9576117a1611851565b9150506114be565b80156117d357604051639996b31560e01b81526001600160a01b038516600482015260240161039d565b3d156117e6576117e161186a565b6117ff565b60405163d6bda27560e01b815260040160405180910390fd5b5092915050565b34156105da5760405163b398979f60e01b815260040160405180910390fd5b5f61182e61149a565b54600160401b900460ff16919050565b5f805f835160208501865af49392505050565b6040513d81523d5f602083013e3d602001810160405290565b6040513d5f823e3d81fd5b6001600160a01b03811681146104b6575f80fd5b5f806040838503121561189a575f80fd5b82356118a581611875565b946020939093013593505050565b803560ff811681146118c3575f80fd5b919050565b5f805f805f805f60e0888a0312156118de575f80fd5b87356118e981611875565b965060208801359550604088013594506060880135935061190c608089016118b3565b925060a0880135915060c0880135905092959891949750929550565b5f60208284031215611938575f80fd5b813561194381611875565b9392505050565b634e487b7160e01b5f52604160045260245ffd5b5f806040838503121561196f575f80fd5b823561197a81611875565b9150602083013567ffffffffffffffff80821115611996575f80fd5b818501915085601f8301126119a9575f80fd5b8135818111156119bb576119bb61194a565b604051601f8201601f19908116603f011681019083821181831017156119e3576119e361194a565b816040528281528860208487010111156119fb575f80fd5b826020860160208301375f6020848301015280955050505050509250929050565b5f805f60608486031215611a2e575f80fd5b8335611a3981611875565b95602085013595506040909401359392505050565b5f602080835283518060208501525f5b81811015611a7a57858101830151858201604001528201611a5e565b505f604082860101526040601f19601f8301168501019250505092915050565b5f805f805f8060c08789031215611aaf575f80fd5b863595506020870135945060408701359350611acd606088016118b3565b92506080870135915060a087013590509295509295509295565b6020808252600e908201526d139195081b9bdd081b1a5cdd195960921b604082015260600190565b5f60208284031215611b1f575f80fd5b815161194381611875565b5f60208284031215611b3a575f80fd5b81518015158114611943575f80fd5b5f60208284031215611b59575f80fd5b5051919050565b634e487b7160e01b5f52602160045260245ffdfe360894a13ba1a3210667c828492db98dca3e2076cc3735a920a3ca505d382bbca2646970667358221220d04dff7d49442d5c30137524ec244df6fc90d3322bc8b69c767d0de1cfc507ea64736f6c63430008180033","linkReferences":{}},"methodIdentifiers":{"UPGRADE_INTERFACE_VERSION()":"ad3cb1cc","buyNFT(address,uint256)":"a82ba76f","getDomainSeparator()":"ed24911d","initialize()":"8129fc1c","listNFT(address,uint256,uint256)":"ad05f1b4","listings(address,uint256)":"0007df30","owner()":"8da5cb5b","permitBuy(address,uint256,uint256,uint256,uint8,bytes32,bytes32)":"254f68e6","permitList(uint256,uint256,uint256,uint8,bytes32,bytes32)":"ebabf794","permitListNFT(address,uint256,uint256,uint256,uint8,bytes32,bytes32)":"b71b9bbf","proxiableUUID()":"52d1902d","removeNFT(address,uint256)":"49fd566b","renounceOwnership()":"715018a6","transferOwnership(address)":"f2fde38b","upgradeTo(address)":"3659cfe6","upgradeToAndCall(address,bytes)":"4f1ef286"},"id":81}