{"abi":[{"type":"constructor","inputs":[{"name":"initialOwner","type":"address","internalType":"address"},{"name":"usdt_","type":"address","internalType":"contract IERC20"}],"stateMutability":"nonpayable"},{"type":"receive","stateMutability":"payable"},{"type":"function","name":"EXERCISE_DATE","inputs":[],"outputs":[{"name":"","type":"uint256","internalType":"uint256"}],"stateMutability":"view"},{"type":"function","name":"EXERCISE_WINDOW","inputs":[],"outputs":[{"name":"","type":"uint256","internalType":"uint256"}],"stateMutability":"view"},{"type":"function","name":"STRIKE_PRICE","inputs":[],"outputs":[{"name":"","type":"uint256","internalType":"uint256"}],"stateMutability":"view"},{"type":"function","name":"allowance","inputs":[{"name":"owner","type":"address","internalType":"address"},{"name":"spender","type":"address","internalType":"address"}],"outputs":[{"name":"","type":"uint256","internalType":"uint256"}],"stateMutability":"view"},{"type":"function","name":"approve","inputs":[{"name":"spender","type":"address","internalType":"address"},{"name":"value","type":"uint256","internalType":"uint256"}],"outputs":[{"name":"","type":"bool","internalType":"bool"}],"stateMutability":"nonpayable"},{"type":"function","name":"balanceOf","inputs":[{"name":"account","type":"address","internalType":"address"}],"outputs":[{"name":"","type":"uint256","internalType":"uint256"}],"stateMutability":"view"},{"type":"function","name":"decimals","inputs":[],"outputs":[{"name":"","type":"uint8","internalType":"uint8"}],"stateMutability":"view"},{"type":"function","name":"ethReserve","inputs":[],"outputs":[{"name":"","type":"uint256","internalType":"uint256"}],"stateMutability":"view"},{"type":"function","name":"exercise","inputs":[{"name":"amount","type":"uint256","internalType":"uint256"}],"outputs":[],"stateMutability":"nonpayable"},{"type":"function","name":"expire","inputs":[],"outputs":[],"stateMutability":"nonpayable"},{"type":"function","name":"expired","inputs":[],"outputs":[{"name":"","type":"bool","internalType":"bool"}],"stateMutability":"view"},{"type":"function","name":"mint","inputs":[{"name":"to","type":"address","internalType":"address"}],"outputs":[],"stateMutability":"payable"},{"type":"function","name":"name","inputs":[],"outputs":[{"name":"","type":"string","internalType":"string"}],"stateMutability":"view"},{"type":"function","name":"owner","inputs":[],"outputs":[{"name":"","type":"address","internalType":"address"}],"stateMutability":"view"},{"type":"function","name":"renounceOwnership","inputs":[],"outputs":[],"stateMutability":"nonpayable"},{"type":"function","name":"symbol","inputs":[],"outputs":[{"name":"","type":"string","internalType":"string"}],"stateMutability":"view"},{"type":"function","name":"totalSupply","inputs":[],"outputs":[{"name":"","type":"uint256","internalType":"uint256"}],"stateMutability":"view"},{"type":"function","name":"transfer","inputs":[{"name":"to","type":"address","internalType":"address"},{"name":"value","type":"uint256","internalType":"uint256"}],"outputs":[{"name":"","type":"bool","internalType":"bool"}],"stateMutability":"nonpayable"},{"type":"function","name":"transferFrom","inputs":[{"name":"from","type":"address","internalType":"address"},{"name":"to","type":"address","internalType":"address"},{"name":"value","type":"uint256","internalType":"uint256"}],"outputs":[{"name":"","type":"bool","internalType":"bool"}],"stateMutability":"nonpayable"},{"type":"function","name":"transferOwnership","inputs":[{"name":"newOwner","type":"address","internalType":"address"}],"outputs":[],"stateMutability":"nonpayable"},{"type":"function","name":"usdt","inputs":[],"outputs":[{"name":"","type":"address","internalType":"contract IERC20"}],"stateMutability":"view"},{"type":"event","name":"Approval","inputs":[{"name":"owner","type":"address","indexed":true,"internalType":"address"},{"name":"spender","type":"address","indexed":true,"internalType":"address"},{"name":"value","type":"uint256","indexed":false,"internalType":"uint256"}],"anonymous":false},{"type":"event","name":"OwnershipTransferred","inputs":[{"name":"previousOwner","type":"address","indexed":true,"internalType":"address"},{"name":"newOwner","type":"address","indexed":true,"internalType":"address"}],"anonymous":false},{"type":"event","name":"Transfer","inputs":[{"name":"from","type":"address","indexed":true,"internalType":"address"},{"name":"to","type":"address","indexed":true,"internalType":"address"},{"name":"value","type":"uint256","indexed":false,"internalType":"uint256"}],"anonymous":false},{"type":"error","name":"AlreadyExpired","inputs":[]},{"type":"error","name":"ERC20InsufficientAllowance","inputs":[{"name":"spender","type":"address","internalType":"address"},{"name":"allowance","type":"uint256","internalType":"uint256"},{"name":"needed","type":"uint256","internalType":"uint256"}]},{"type":"error","name":"ERC20InsufficientBalance","inputs":[{"name":"sender","type":"address","internalType":"address"},{"name":"balance","type":"uint256","internalType":"uint256"},{"name":"needed","type":"uint256","internalType":"uint256"}]},{"type":"error","name":"ERC20InvalidApprover","inputs":[{"name":"approver","type":"address","internalType":"address"}]},{"type":"error","name":"ERC20InvalidReceiver","inputs":[{"name":"receiver","type":"address","internalType":"address"}]},{"type":"error","name":"ERC20InvalidSender","inputs":[{"name":"sender","type":"address","internalType":"address"}]},{"type":"error","name":"ERC20InvalidSpender","inputs":[{"name":"spender","type":"address","internalType":"address"}]},{"type":"error","name":"InsufficientOPTokenBalance","inputs":[]},{"type":"error","name":"MintClosed","inputs":[]},{"type":"error","name":"NotExerciseDay","inputs":[]},{"type":"error","name":"NotExpired","inputs":[]},{"type":"error","name":"OwnableInvalidOwner","inputs":[{"name":"owner","type":"address","internalType":"address"}]},{"type":"error","name":"OwnableUnauthorizedAccount","inputs":[{"name":"account","type":"address","internalType":"address"}]},{"type":"error","name":"SafeERC20FailedOperation","inputs":[{"name":"token","type":"address","internalType":"address"}]},{"type":"error","name":"TransferFailed","inputs":[]},{"type":"error","name":"ZeroAmount","inputs":[]}],"bytecode":{"object":"0x60a060405234801562000010575f80fd5b50604051620012193803806200121983398101604081905262000033916200014d565b816040518060400160405280600c81526020016b27b83a34b7b7102a37b5b2b760a11b8152506040518060400160405280600281526020016104f560f41b815250816003908162000085919062000228565b50600462000094828262000228565b5050506001600160a01b038116620000c557604051631e4fbdf760e01b81525f600482015260240160405180910390fd5b620000d081620000e4565b506001600160a01b031660805250620002f4565b600580546001600160a01b038381166001600160a01b0319831681179093556040519116919082907f8be0079c531659141344cd1fd0a4f28419497f9722a3daafe3b4186f6b6457e0905f90a35050565b6001600160a01b03811681146200014a575f80fd5b50565b5f80604083850312156200015f575f80fd5b82516200016c8162000135565b60208401519092506200017f8162000135565b809150509250929050565b634e487b7160e01b5f52604160045260245ffd5b600181811c90821680620001b357607f821691505b602082108103620001d257634e487b7160e01b5f52602260045260245ffd5b50919050565b601f8211156200022357805f5260205f20601f840160051c81016020851015620001ff5750805b601f840160051c820191505b8181101562000220575f81556001016200020b565b50505b505050565b81516001600160401b038111156200024457620002446200018a565b6200025c816200025584546200019e565b84620001d8565b602080601f83116001811462000292575f84156200027a5750858301515b5f19600386901b1c1916600185901b178555620002ec565b5f85815260208120601f198616915b82811015620002c257888601518255948401946001909101908401620002a1565b5085821015620002e057878501515f19600388901b60f8161c191681555b505060018460011b0185555b505050505050565b608051610f05620003145f395f81816101db01526107750152610f055ff3fe608060405260043610610129575f3560e01c806370a08231116100a85780639c1e3b7b1161006d5780639c1e3b7b14610324578063a9059cbb1461033b578063b07f0a411461035a578063d62ccb3f14610379578063dd62ed3e1461038e578063f2fde38b146103d2575f80fd5b806370a0823114610297578063715018a6146102cb57806379599f96146102df5780638da5cb5b146102f357806395d89b4114610310575f80fd5b806330a4ec72116100ee57806330a4ec7214610215578063313ce5671461022b5780634c2067c71461024657806362e888bb146102665780636a62784214610282575f80fd5b806306fdde0314610134578063095ea7b31461015e57806318160ddd1461018d57806323b872dd146101ab5780632f48ab7d146101ca575f80fd5b3661013057005b5f80fd5b34801561013f575f80fd5b506101486103f1565b6040516101559190610cf7565b60405180910390f35b348015610169575f80fd5b5061017d610178366004610d5e565b610481565b6040519015158152602001610155565b348015610198575f80fd5b506002545b604051908152602001610155565b3480156101b6575f80fd5b5061017d6101c5366004610d86565b61049a565b3480156101d5575f80fd5b506101fd7f000000000000000000000000000000000000000000000000000000000000000081565b6040516001600160a01b039091168152602001610155565b348015610220575f80fd5b5061019d6201518081565b348015610236575f80fd5b5060405160128152602001610155565b348015610251575f80fd5b5060055461017d90600160a01b900460ff1681565b348015610271575f80fd5b5061019d686194049f30f720000081565b610295610290366004610dbf565b6104bd565b005b3480156102a2575f80fd5b5061019d6102b1366004610dbf565b6001600160a01b03165f9081526020819052604090205490565b3480156102d6575f80fd5b50610295610559565b3480156102ea575f80fd5b5061029561056c565b3480156102fe575f80fd5b506005546001600160a01b03166101fd565b34801561031b575f80fd5b50610148610670565b34801561032f575f80fd5b5061019d636a1efe0081565b348015610346575f80fd5b5061017d610355366004610d5e565b61067f565b348015610365575f80fd5b50610295610374366004610ddf565b61068c565b348015610384575f80fd5b5061019d60065481565b348015610399575f80fd5b5061019d6103a8366004610df6565b6001600160a01b039182165f90815260016020908152604080832093909416825291909152205490565b3480156103dd575f80fd5b506102956103ec366004610dbf565b610828565b60606003805461040090610e27565b80601f016020809104026020016040519081016040528092919081815260200182805461042c90610e27565b80156104775780601f1061044e57610100808354040283529160200191610477565b820191905f5260205f20905b81548152906001019060200180831161045a57829003601f168201915b5050505050905090565b5f3361048e818585610867565b60019150505b92915050565b5f336104a7858285610874565b6104b28585856108f0565b506001949350505050565b6104c561094d565b345f036104e557604051631f2a200560e01b815260040160405180910390fd5b600554600160a01b900460ff16156105105760405163506b27c560e11b815260040160405180910390fd5b636a1efe0042106105345760405163589ed34b60e01b815260040160405180910390fd5b3461053f828261097a565b8060065f8282546105509190610e73565b90915550505050565b61056161094d565b61056a5f6109ae565b565b61057461094d565b61058562015180636a1efe00610e73565b4210156105a55760405163d0404f8560e01b815260040160405180910390fd5b600554600160a01b900460ff16156105d05760405163506b27c560e11b815260040160405180910390fd5b6005805460ff60a01b1916600160a01b17905547801561066d575f6105fd6005546001600160a01b031690565b6001600160a01b0316826040515f6040518083038185875af1925050503d805f8114610644576040519150601f19603f3d011682016040523d82523d5f602084013e610649565b606091505b505090508061066b576040516312171d8360e31b815260040160405180910390fd5b505b50565b60606004805461040090610e27565b5f3361048e8185856108f0565b805f036106ac57604051631f2a200560e01b815260040160405180910390fd5b600554600160a01b900460ff16156106d75760405163506b27c560e11b815260040160405180910390fd5b6106e0426109ff565b6106fd57604051631eea9abb60e21b815260040160405180910390fd5b335f9081526020819052604090205481111561072c5760405163e4e5ad0360e01b815260040160405180910390fd5b5f670de0b6b3a7640000610749686194049f30f720000084610e86565b6107539190610e9d565b905061079d3361076b6005546001600160a01b031690565b6001600160a01b037f000000000000000000000000000000000000000000000000000000000000000016919084610a28565b6107a73383610a5e565b8160065f8282546107b89190610ebc565b90915550506040515f90339084908381818185875af1925050503d805f81146107fc576040519150601f19603f3d011682016040523d82523d5f602084013e610801565b606091505b5050905080610823576040516312171d8360e31b815260040160405180910390fd5b505050565b61083061094d565b6001600160a01b03811661085e57604051631e4fbdf760e01b81525f60048201526024015b60405180910390fd5b61066d816109ae565b6108238383836001610a92565b6001600160a01b038381165f908152600160209081526040808320938616835292905220545f198110156108ea57818110156108dc57604051637dc7a0d960e11b81526001600160a01b03841660048201526024810182905260448101839052606401610855565b6108ea84848484035f610a92565b50505050565b6001600160a01b03831661091957604051634b637e8f60e11b81525f6004820152602401610855565b6001600160a01b0382166109425760405163ec442f0560e01b81525f6004820152602401610855565b610823838383610b64565b6005546001600160a01b0316331461056a5760405163118cdaa760e01b8152336004820152602401610855565b6001600160a01b0382166109a35760405163ec442f0560e01b81525f6004820152602401610855565b61066b5f8383610b64565b600580546001600160a01b038381166001600160a01b0319831681179093556040519116919082907f8be0079c531659141344cd1fd0a4f28419497f9722a3daafe3b4186f6b6457e0905f90a35050565b5f636a1efe0082101580156104945750610a2062015180636a1efe00610e73565b821092915050565b610a36848484846001610c8a565b6108ea57604051635274afe760e01b81526001600160a01b0385166004820152602401610855565b6001600160a01b038216610a8757604051634b637e8f60e11b81525f6004820152602401610855565b61066b825f83610b64565b6001600160a01b038416610abb5760405163e602df0560e01b81525f6004820152602401610855565b6001600160a01b038316610ae457604051634a1406b160e11b81525f6004820152602401610855565b6001600160a01b038085165f90815260016020908152604080832093871683529290522082905580156108ea57826001600160a01b0316846001600160a01b03167f8c5be1e5ebec7d5bd14f71427d1e84f3dd0314c0f7b2291e5b200ac8c7c3b92584604051610b5691815260200190565b60405180910390a350505050565b6001600160a01b038316610b8e578060025f828254610b839190610e73565b90915550610bfe9050565b6001600160a01b0383165f9081526020819052604090205481811015610be05760405163391434e360e21b81526001600160a01b03851660048201526024810182905260448101839052606401610855565b6001600160a01b0384165f9081526020819052604090209082900390555b6001600160a01b038216610c1a57600280548290039055610c38565b6001600160a01b0382165f9081526020819052604090208054820190555b816001600160a01b0316836001600160a01b03167fddf252ad1be2c89b69c2b068fc378daa952ba7f163c4a11628f55a4df523b3ef83604051610c7d91815260200190565b60405180910390a3505050565b6040516323b872dd60e01b5f8181526001600160a01b038781166004528616602452604485905291602083606481808c5af1925060015f51148316610ce6578383151615610cda573d5f823e3d81fd5b5f883b113d1516831692505b604052505f60605295945050505050565b5f602080835283518060208501525f5b81811015610d2357858101830151858201604001528201610d07565b505f604082860101526040601f19601f8301168501019250505092915050565b80356001600160a01b0381168114610d59575f80fd5b919050565b5f8060408385031215610d6f575f80fd5b610d7883610d43565b946020939093013593505050565b5f805f60608486031215610d98575f80fd5b610da184610d43565b9250610daf60208501610d43565b9150604084013590509250925092565b5f60208284031215610dcf575f80fd5b610dd882610d43565b9392505050565b5f60208284031215610def575f80fd5b5035919050565b5f8060408385031215610e07575f80fd5b610e1083610d43565b9150610e1e60208401610d43565b90509250929050565b600181811c90821680610e3b57607f821691505b602082108103610e5957634e487b7160e01b5f52602260045260245ffd5b50919050565b634e487b7160e01b5f52601160045260245ffd5b8082018082111561049457610494610e5f565b808202811582820484141761049457610494610e5f565b5f82610eb757634e487b7160e01b5f52601260045260245ffd5b500490565b8181038181111561049457610494610e5f56fea2646970667358221220c18243469ff2594a32e18a4d54156132d1cd72fb876b3afe15322bdd88b350e264736f6c63430008180033","linkReferences":{}},"methodIdentifiers":{"EXERCISE_DATE()":"9c1e3b7b","EXERCISE_WINDOW()":"30a4ec72","STRIKE_PRICE()":"62e888bb","allowance(address,address)":"dd62ed3e","approve(address,uint256)":"095ea7b3","balanceOf(address)":"70a08231","decimals()":"313ce567","ethReserve()":"d62ccb3f","exercise(uint256)":"b07f0a41","expire()":"79599f96","expired()":"4c2067c7","mint(address)":"6a627842","name()":"06fdde03","owner()":"8da5cb5b","renounceOwnership()":"715018a6","symbol()":"95d89b41","totalSupply()":"18160ddd","transfer(address,uint256)":"a9059cbb","transferFrom(address,address,uint256)":"23b872dd","transferOwnership(address)":"f2fde38b","usdt()":"2f48ab7d"},"id":30}