{"abi":[{"type":"function","name":"multicall","inputs":[{"name":"calls","type":"tuple[]","internalType":"struct MulticallHelper.Call[]","components":[{"name":"target","type":"address","internalType":"address"},{"name":"data","type":"bytes","internalType":"bytes"}]}],"outputs":[{"name":"results","type":"tuple[]","internalType":"struct MulticallHelper.Result[]","components":[{"name":"success","type":"bool","internalType":"bool"},{"name":"data","type":"bytes","internalType":"bytes"}]}],"stateMutability":"nonpayable"},{"type":"function","name":"multicallAddress","inputs":[{"name":"calls","type":"tuple[]","internalType":"struct MulticallHelper.Call[]","components":[{"name":"target","type":"address","internalType":"address"},{"name":"data","type":"bytes","internalType":"bytes"}]}],"outputs":[{"name":"results","type":"address[]","internalType":"address[]"}],"stateMutability":"nonpayable"},{"type":"function","name":"multicallBool","inputs":[{"name":"calls","type":"tuple[]","internalType":"struct MulticallHelper.Call[]","components":[{"name":"target","type":"address","internalType":"address"},{"name":"data","type":"bytes","internalType":"bytes"}]}],"outputs":[{"name":"results","type":"bool[]","internalType":"bool[]"}],"stateMutability":"nonpayable"},{"type":"function","name":"multicallBytes32","inputs":[{"name":"calls","type":"tuple[]","internalType":"struct MulticallHelper.Call[]","components":[{"name":"target","type":"address","internalType":"address"},{"name":"data","type":"bytes","internalType":"bytes"}]}],"outputs":[{"name":"results","type":"bytes32[]","internalType":"bytes32[]"}],"stateMutability":"nonpayable"},{"type":"function","name":"multicallUint256","inputs":[{"name":"calls","type":"tuple[]","internalType":"struct MulticallHelper.Call[]","components":[{"name":"target","type":"address","internalType":"address"},{"name":"data","type":"bytes","internalType":"bytes"}]}],"outputs":[{"name":"results","type":"uint256[]","internalType":"uint256[]"}],"stateMutability":"nonpayable"},{"type":"function","name":"multicallUint256Array","inputs":[{"name":"calls","type":"tuple[]","internalType":"struct MulticallHelper.Call[]","components":[{"name":"target","type":"address","internalType":"address"},{"name":"data","type":"bytes","internalType":"bytes"}]}],"outputs":[{"name":"results","type":"uint256[][]","internalType":"uint256[][]"}],"stateMutability":"nonpayable"}],"bytecode":{"object":"0x608060405234801561000f575f80fd5b50610f9c8061001d5f395ff3fe608060405234801561000f575f80fd5b5060043610610060575f3560e01c80634042439114610064578063547ff5291461008d5780635b117673146100ad578063b55ff521146100cd578063caa5c23f146100ed578063d73a8cb21461010d575b5f80fd5b610077610072366004610ada565b61012d565b6040516100849190610b49565b60405180910390f35b6100a061009b366004610ada565b6102da565b6040516100849190610bc8565b6100c06100bb366004610ada565b610486565b6040516100849190610c2a565b6100e06100db366004610ada565b61061b565b6040516100849190610c43565b6101006100fb366004610ada565b6107b2565b6040516100849190610c7a565b61012061011b366004610ada565b61091d565b6040516100849190610d26565b60608167ffffffffffffffff81111561014857610148610d66565b604051908082528060200260200182016040528015610171578160200160208202803683370190505b5090505f5b828110156102d3575f8085858481811061019257610192610d7a565b90506020028101906101a49190610d8e565b6101b2906020810190610dc3565b6001600160a01b03168686858181106101cd576101cd610d7a565b90506020028101906101df9190610d8e565b6101ed906020810190610dde565b6040516101fb929190610e28565b5f60405180830381855af49150503d805f8114610233576040519150601f19603f3d011682016040523d82523d5f602084013e610238565b606091505b5091509150816102635760405162461bcd60e51b815260040161025a90610e37565b60405180910390fd5b8051156102a5578080602001905181019061027e9190610e5c565b84848151811061029057610290610d7a565b911515602092830291909101909101526102c9565b5f8484815181106102b8576102b8610d7a565b911515602092830291909101909101525b5050600101610176565b5092915050565b60608167ffffffffffffffff8111156102f5576102f5610d66565b60405190808252806020026020018201604052801561032857816020015b60608152602001906001900390816103135790505b5090505f5b828110156102d3575f8085858481811061034957610349610d7a565b905060200281019061035b9190610d8e565b610369906020810190610dc3565b6001600160a01b031686868581811061038457610384610d7a565b90506020028101906103969190610d8e565b6103a4906020810190610dde565b6040516103b2929190610e28565b5f60405180830381855af49150503d805f81146103ea576040519150601f19603f3d011682016040523d82523d5f602084013e6103ef565b606091505b5091509150816104115760405162461bcd60e51b815260040161025a90610e37565b80511561044e578080602001905181019061042c9190610e7b565b84848151811061043e5761043e610d7a565b602002602001018190525061047c565b604080515f815260208101909152845185908590811061047057610470610d7a565b60200260200101819052505b505060010161032d565b60608167ffffffffffffffff8111156104a1576104a1610d66565b6040519080825280602002602001820160405280156104ca578160200160208202803683370190505b5090505f5b828110156102d3575f808585848181106104eb576104eb610d7a565b90506020028101906104fd9190610d8e565b61050b906020810190610dc3565b6001600160a01b031686868581811061052657610526610d7a565b90506020028101906105389190610d8e565b610546906020810190610dde565b604051610554929190610e28565b5f60405180830381855af49150503d805f811461058c576040519150601f19603f3d011682016040523d82523d5f602084013e610591565b606091505b5091509150816105b35760405162461bcd60e51b815260040161025a90610e37565b8051156105f157808060200190518101906105ce9190610f34565b8484815181106105e0576105e0610d7a565b602002602001018181525050610611565b5f84848151811061060457610604610d7a565b6020026020010181815250505b50506001016104cf565b60608167ffffffffffffffff81111561063657610636610d66565b60405190808252806020026020018201604052801561065f578160200160208202803683370190505b5090505f5b828110156102d3575f8085858481811061068057610680610d7a565b90506020028101906106929190610d8e565b6106a0906020810190610dc3565b6001600160a01b03168686858181106106bb576106bb610d7a565b90506020028101906106cd9190610d8e565b6106db906020810190610dde565b6040516106e9929190610e28565b5f60405180830381855af49150503d805f8114610721576040519150601f19603f3d011682016040523d82523d5f602084013e610726565b606091505b5091509150816107485760405162461bcd60e51b815260040161025a90610e37565b80511561078657808060200190518101906107639190610f34565b84848151811061077557610775610d7a565b6020026020010181815250506107a8565b5f801b84848151811061079b5761079b610d7a565b6020026020010181815250505b5050600101610664565b60608167ffffffffffffffff8111156107cd576107cd610d66565b60405190808252806020026020018201604052801561081257816020015b604080518082019091525f8152606060208201528152602001906001900390816107eb5790505b5090505f5b828110156102d3575f8085858481811061083357610833610d7a565b90506020028101906108459190610d8e565b610853906020810190610dc3565b6001600160a01b031686868581811061086e5761086e610d7a565b90506020028101906108809190610d8e565b61088e906020810190610dde565b60405161089c929190610e28565b5f604051808303815f865af19150503d805f81146108d5576040519150601f19603f3d011682016040523d82523d5f602084013e6108da565b606091505b5091509150604051806040016040528083151581526020018281525084848151811061090857610908610d7a565b60209081029190910101525050600101610817565b60608167ffffffffffffffff81111561093857610938610d66565b604051908082528060200260200182016040528015610961578160200160208202803683370190505b5090505f5b828110156102d3575f8085858481811061098257610982610d7a565b90506020028101906109949190610d8e565b6109a2906020810190610dc3565b6001600160a01b03168686858181106109bd576109bd610d7a565b90506020028101906109cf9190610d8e565b6109dd906020810190610dde565b6040516109eb929190610e28565b5f60405180830381855af49150503d805f8114610a23576040519150601f19603f3d011682016040523d82523d5f602084013e610a28565b606091505b509150915081610a4a5760405162461bcd60e51b815260040161025a90610e37565b805115610a9c5780806020019051810190610a659190610f4b565b848481518110610a7757610a77610d7a565b60200260200101906001600160a01b031690816001600160a01b031681525050610ad0565b5f848481518110610aaf57610aaf610d7a565b60200260200101906001600160a01b031690816001600160a01b0316815250505b5050600101610966565b5f8060208385031215610aeb575f80fd5b823567ffffffffffffffff80821115610b02575f80fd5b818501915085601f830112610b15575f80fd5b813581811115610b23575f80fd5b8660208260051b8501011115610b37575f80fd5b60209290920196919550909350505050565b602080825282518282018190525f9190848201906040850190845b81811015610b82578351151583529284019291840191600101610b64565b50909695505050505050565b5f815180845260208085019450602084015f5b83811015610bbd57815187529582019590820190600101610ba1565b509495945050505050565b5f60208083016020845280855180835260408601915060408160051b8701019250602087015f5b82811015610c1d57603f19888603018452610c0b858351610b8e565b94509285019290850190600101610bef565b5092979650505050505050565b602081525f610c3c6020830184610b8e565b9392505050565b602080825282518282018190525f9190848201906040850190845b81811015610b8257835183529284019291840191600101610c5e565b5f60208083018184528085518083526040925060408601915060408160051b8701018488015f5b83811015610d1857888303603f19018552815180511515845287015187840187905280518785018190525f5b81811015610ce9578281018a0151868201606001528901610ccd565b505f85820160609081019190915296890196601f909101601f1916909401909301925090860190600101610ca1565b509098975050505050505050565b602080825282518282018190525f9190848201906040850190845b81811015610b825783516001600160a01b031683529284019291840191600101610d41565b634e487b7160e01b5f52604160045260245ffd5b634e487b7160e01b5f52603260045260245ffd5b5f8235603e19833603018112610da2575f80fd5b9190910192915050565b6001600160a01b0381168114610dc0575f80fd5b50565b5f60208284031215610dd3575f80fd5b8135610c3c81610dac565b5f808335601e19843603018112610df3575f80fd5b83018035915067ffffffffffffffff821115610e0d575f80fd5b602001915036819003821315610e21575f80fd5b9250929050565b818382375f9101908152919050565b6020808252600b908201526a10d85b1b0819985a5b195960aa1b604082015260600190565b5f60208284031215610e6c575f80fd5b81518015158114610c3c575f80fd5b5f6020808385031215610e8c575f80fd5b825167ffffffffffffffff80821115610ea3575f80fd5b818501915085601f830112610eb6575f80fd5b815181811115610ec857610ec8610d66565b8060051b604051601f19603f83011681018181108582111715610eed57610eed610d66565b604052918252848201925083810185019188831115610f0a575f80fd5b938501935b82851015610f2857845184529385019392850192610f0f565b98975050505050505050565b5f60208284031215610f44575f80fd5b5051919050565b5f60208284031215610f5b575f80fd5b8151610c3c81610dac56fea26469706673582212208cfe7b66793675143d6ef64927f2461b57e3aad575810ed5024b5cf3458c2ae164736f6c63430008180033","linkReferences":{}},"methodIdentifiers":{"multicall((address,bytes)[])":"caa5c23f","multicallAddress((address,bytes)[])":"d73a8cb2","multicallBool((address,bytes)[])":"40424391","multicallBytes32((address,bytes)[])":"b55ff521","multicallUint256((address,bytes)[])":"5b117673","multicallUint256Array((address,bytes)[])":"547ff529"},"id":56}