{"abi":[{"type":"function","name":"multicall","inputs":[{"name":"calls","type":"tuple[]","internalType":"struct MulticallHelper.Call[]","components":[{"name":"target","type":"address","internalType":"address"},{"name":"data","type":"bytes","internalType":"bytes"}]}],"outputs":[{"name":"results","type":"tuple[]","internalType":"struct MulticallHelper.Result[]","components":[{"name":"success","type":"bool","internalType":"bool"},{"name":"data","type":"bytes","internalType":"bytes"}]}],"stateMutability":"nonpayable"},{"type":"function","name":"multicallAddress","inputs":[{"name":"calls","type":"tuple[]","internalType":"struct MulticallHelper.Call[]","components":[{"name":"target","type":"address","internalType":"address"},{"name":"data","type":"bytes","internalType":"bytes"}]}],"outputs":[{"name":"results","type":"address[]","internalType":"address[]"}],"stateMutability":"nonpayable"},{"type":"function","name":"multicallBool","inputs":[{"name":"calls","type":"tuple[]","internalType":"struct MulticallHelper.Call[]","components":[{"name":"target","type":"address","internalType":"address"},{"name":"data","type":"bytes","internalType":"bytes"}]}],"outputs":[{"name":"results","type":"bool[]","internalType":"bool[]"}],"stateMutability":"nonpayable"},{"type":"function","name":"multicallBytes32","inputs":[{"name":"calls","type":"tuple[]","internalType":"struct MulticallHelper.Call[]","components":[{"name":"target","type":"address","internalType":"address"},{"name":"data","type":"bytes","internalType":"bytes"}]}],"outputs":[{"name":"results","type":"bytes32[]","internalType":"bytes32[]"}],"stateMutability":"nonpayable"},{"type":"function","name":"multicallUint256","inputs":[{"name":"calls","type":"tuple[]","internalType":"struct MulticallHelper.Call[]","components":[{"name":"target","type":"address","internalType":"address"},{"name":"data","type":"bytes","internalType":"bytes"}]}],"outputs":[{"name":"results","type":"uint256[]","internalType":"uint256[]"}],"stateMutability":"nonpayable"},{"type":"function","name":"multicallUint256Array","inputs":[{"name":"calls","type":"tuple[]","internalType":"struct MulticallHelper.Call[]","components":[{"name":"target","type":"address","internalType":"address"},{"name":"data","type":"bytes","internalType":"bytes"}]}],"outputs":[{"name":"results","type":"uint256[][]","internalType":"uint256[][]"}],"stateMutability":"nonpayable"}],"bytecode":{"object":"0x608060405234801561000f575f80fd5b50610ffd8061001d5f395ff3fe608060405234801561000f575f80fd5b5060043610610060575f3560e01c80634042439114610064578063547ff5291461008d5780635b117673146100ad578063b55ff521146100cd578063caa5c23f146100ed578063d73a8cb21461010d575b5f80fd5b610077610072366004610b1c565b61012d565b6040516100849190610b8b565b60405180910390f35b6100a061009b366004610b1c565b6102e5565b6040516100849190610c09565b6100c06100bb366004610b1c565b61049c565b6040516100849190610c69565b6100e06100db366004610b1c565b61063c565b6040516100849190610c82565b6101006100fb366004610b1c565b6107de565b6040516100849190610cb9565b61012061011b366004610b1c565b610954565b6040516100849190610d63565b60608167ffffffffffffffff81111561014857610148610da3565b604051908082528060200260200182016040528015610171578160200160208202803683370190505b5090505f5b828110156102de575f8085858481811061019257610192610db7565b90506020028101906101a49190610dcb565b6101b2906020810190610e00565b6001600160a01b03168686858181106101cd576101cd610db7565b90506020028101906101df9190610dcb565b6101ed906020810190610e1b565b6040516101fb929190610e65565b5f60405180830381855af49150503d805f8114610233576040519150601f19603f3d011682016040523d82523d5f602084013e610238565b606091505b5091509150816102635760405162461bcd60e51b815260040161025a90610e74565b60405180910390fd5b8051156102a5578080602001905181019061027e9190610e99565b84848151811061029057610290610db7565b911515602092830291909101909101526102c9565b5f8484815181106102b8576102b8610db7565b911515602092830291909101909101525b505080806102d690610eb8565b915050610176565b5092915050565b60608167ffffffffffffffff81111561030057610300610da3565b60405190808252806020026020018201604052801561033357816020015b606081526020019060019003908161031e5790505b5090505f5b828110156102de575f8085858481811061035457610354610db7565b90506020028101906103669190610dcb565b610374906020810190610e00565b6001600160a01b031686868581811061038f5761038f610db7565b90506020028101906103a19190610dcb565b6103af906020810190610e1b565b6040516103bd929190610e65565b5f60405180830381855af49150503d805f81146103f5576040519150601f19603f3d011682016040523d82523d5f602084013e6103fa565b606091505b50915091508161041c5760405162461bcd60e51b815260040161025a90610e74565b80511561045957808060200190518101906104379190610edc565b84848151811061044957610449610db7565b6020026020010181905250610487565b604080515f815260208101909152845185908590811061047b5761047b610db7565b60200260200101819052505b5050808061049490610eb8565b915050610338565b60608167ffffffffffffffff8111156104b7576104b7610da3565b6040519080825280602002602001820160405280156104e0578160200160208202803683370190505b5090505f5b828110156102de575f8085858481811061050157610501610db7565b90506020028101906105139190610dcb565b610521906020810190610e00565b6001600160a01b031686868581811061053c5761053c610db7565b905060200281019061054e9190610dcb565b61055c906020810190610e1b565b60405161056a929190610e65565b5f60405180830381855af49150503d805f81146105a2576040519150601f19603f3d011682016040523d82523d5f602084013e6105a7565b606091505b5091509150816105c95760405162461bcd60e51b815260040161025a90610e74565b80511561060757808060200190518101906105e49190610f95565b8484815181106105f6576105f6610db7565b602002602001018181525050610627565b5f84848151811061061a5761061a610db7565b6020026020010181815250505b5050808061063490610eb8565b9150506104e5565b60608167ffffffffffffffff81111561065757610657610da3565b604051908082528060200260200182016040528015610680578160200160208202803683370190505b5090505f5b828110156102de575f808585848181106106a1576106a1610db7565b90506020028101906106b39190610dcb565b6106c1906020810190610e00565b6001600160a01b03168686858181106106dc576106dc610db7565b90506020028101906106ee9190610dcb565b6106fc906020810190610e1b565b60405161070a929190610e65565b5f60405180830381855af49150503d805f8114610742576040519150601f19603f3d011682016040523d82523d5f602084013e610747565b606091505b5091509150816107695760405162461bcd60e51b815260040161025a90610e74565b8051156107a757808060200190518101906107849190610f95565b84848151811061079657610796610db7565b6020026020010181815250506107c9565b5f801b8484815181106107bc576107bc610db7565b6020026020010181815250505b505080806107d690610eb8565b915050610685565b60608167ffffffffffffffff8111156107f9576107f9610da3565b60405190808252806020026020018201604052801561083e57816020015b604080518082019091525f8152606060208201528152602001906001900390816108175790505b5090505f5b828110156102de575f8085858481811061085f5761085f610db7565b90506020028101906108719190610dcb565b61087f906020810190610e00565b6001600160a01b031686868581811061089a5761089a610db7565b90506020028101906108ac9190610dcb565b6108ba906020810190610e1b565b6040516108c8929190610e65565b5f604051808303815f865af19150503d805f8114610901576040519150601f19603f3d011682016040523d82523d5f602084013e610906565b606091505b5091509150604051806040016040528083151581526020018281525084848151811061093457610934610db7565b60200260200101819052505050808061094c90610eb8565b915050610843565b60608167ffffffffffffffff81111561096f5761096f610da3565b604051908082528060200260200182016040528015610998578160200160208202803683370190505b5090505f5b828110156102de575f808585848181106109b9576109b9610db7565b90506020028101906109cb9190610dcb565b6109d9906020810190610e00565b6001600160a01b03168686858181106109f4576109f4610db7565b9050602002810190610a069190610dcb565b610a14906020810190610e1b565b604051610a22929190610e65565b5f60405180830381855af49150503d805f8114610a5a576040519150601f19603f3d011682016040523d82523d5f602084013e610a5f565b606091505b509150915081610a815760405162461bcd60e51b815260040161025a90610e74565b805115610ad35780806020019051810190610a9c9190610fac565b848481518110610aae57610aae610db7565b60200260200101906001600160a01b031690816001600160a01b031681525050610b07565b5f848481518110610ae657610ae6610db7565b60200260200101906001600160a01b031690816001600160a01b0316815250505b50508080610b1490610eb8565b91505061099d565b5f8060208385031215610b2d575f80fd5b823567ffffffffffffffff80821115610b44575f80fd5b818501915085601f830112610b57575f80fd5b813581811115610b65575f80fd5b8660208260051b8501011115610b79575f80fd5b60209290920196919550909350505050565b602080825282518282018190525f9190848201906040850190845b81811015610bc4578351151583529284019291840191600101610ba6565b50909695505050505050565b5f8151808452602080850194508084015f5b83811015610bfe57815187529582019590820190600101610be2565b509495945050505050565b5f602080830181845280855180835260408601915060408160051b87010192508387015f5b82811015610c5c57603f19888603018452610c4a858351610bd0565b94509285019290850190600101610c2e565b5092979650505050505050565b602081525f610c7b6020830184610bd0565b9392505050565b602080825282518282018190525f9190848201906040850190845b81811015610bc457835183529284019291840191600101610c9d565b5f6020808301818452808551808352604092508286019150828160051b8701018488015f805b84811015610d5457898403603f1901865282518051151585528801518885018890528051888601819052835b81811015610d27578281018b0151878201606001528a01610d0b565b508581016060908101859052978a0197601f909101601f1916909501909401935091870191600101610cdf565b50919998505050505050505050565b602080825282518282018190525f9190848201906040850190845b81811015610bc45783516001600160a01b031683529284019291840191600101610d7e565b634e487b7160e01b5f52604160045260245ffd5b634e487b7160e01b5f52603260045260245ffd5b5f8235603e19833603018112610ddf575f80fd5b9190910192915050565b6001600160a01b0381168114610dfd575f80fd5b50565b5f60208284031215610e10575f80fd5b8135610c7b81610de9565b5f808335601e19843603018112610e30575f80fd5b83018035915067ffffffffffffffff821115610e4a575f80fd5b602001915036819003821315610e5e575f80fd5b9250929050565b818382375f9101908152919050565b6020808252600b908201526a10d85b1b0819985a5b195960aa1b604082015260600190565b5f60208284031215610ea9575f80fd5b81518015158114610c7b575f80fd5b5f60018201610ed557634e487b7160e01b5f52601160045260245ffd5b5060010190565b5f6020808385031215610eed575f80fd5b825167ffffffffffffffff80821115610f04575f80fd5b818501915085601f830112610f17575f80fd5b815181811115610f2957610f29610da3565b8060051b604051601f19603f83011681018181108582111715610f4e57610f4e610da3565b604052918252848201925083810185019188831115610f6b575f80fd5b938501935b82851015610f8957845184529385019392850192610f70565b98975050505050505050565b5f60208284031215610fa5575f80fd5b5051919050565b5f60208284031215610fbc575f80fd5b8151610c7b81610de956fea264697066735822122075de1d2bcaea8e2f6c38a8cb03b8b10bf9861ddc5f317d3646ccf6424c2db17d64736f6c63430008140033","linkReferences":{}},"methodIdentifiers":{"multicall((address,bytes)[])":"caa5c23f","multicallAddress((address,bytes)[])":"d73a8cb2","multicallBool((address,bytes)[])":"40424391","multicallBytes32((address,bytes)[])":"b55ff521","multicallUint256((address,bytes)[])":"5b117673","multicallUint256Array((address,bytes)[])":"547ff529"},"id":29}