{"abi":[{"type":"constructor","inputs":[{"name":"_usdc","type":"address","internalType":"address"},{"name":"vEth","type":"uint256","internalType":"uint256"},{"name":"vUSDC","type":"uint256","internalType":"uint256"}],"stateMutability":"nonpayable"},{"type":"function","name":"USDC","inputs":[],"outputs":[{"name":"","type":"address","internalType":"contract IERC20"}],"stateMutability":"view"},{"type":"function","name":"calculatePnL","inputs":[{"name":"user","type":"address","internalType":"address"}],"outputs":[{"name":"","type":"int256","internalType":"int256"}],"stateMutability":"view"},{"type":"function","name":"closePosition","inputs":[],"outputs":[],"stateMutability":"nonpayable"},{"type":"function","name":"liquidatePosition","inputs":[{"name":"_user","type":"address","internalType":"address"}],"outputs":[],"stateMutability":"nonpayable"},{"type":"function","name":"openPosition","inputs":[{"name":"_margin","type":"uint256","internalType":"uint256"},{"name":"level","type":"uint256","internalType":"uint256"},{"name":"long","type":"bool","internalType":"bool"}],"outputs":[],"stateMutability":"nonpayable"},{"type":"function","name":"openPrice","inputs":[{"name":"","type":"address","internalType":"address"}],"outputs":[{"name":"","type":"uint256","internalType":"uint256"}],"stateMutability":"view"},{"type":"function","name":"oraclePrice","inputs":[],"outputs":[{"name":"","type":"uint256","internalType":"uint256"}],"stateMutability":"view"},{"type":"function","name":"positions","inputs":[{"name":"","type":"address","internalType":"address"}],"outputs":[{"name":"margin","type":"uint256","internalType":"uint256"},{"name":"borrowed","type":"uint256","internalType":"uint256"},{"name":"position","type":"int256","internalType":"int256"}],"stateMutability":"view"},{"type":"function","name":"setOraclePrice","inputs":[{"name":"_price","type":"uint256","internalType":"uint256"}],"outputs":[],"stateMutability":"nonpayable"},{"type":"function","name":"vETHAmount","inputs":[],"outputs":[{"name":"","type":"uint256","internalType":"uint256"}],"stateMutability":"view"},{"type":"function","name":"vK","inputs":[],"outputs":[{"name":"","type":"uint256","internalType":"uint256"}],"stateMutability":"view"},{"type":"function","name":"vUSDCAmount","inputs":[],"outputs":[{"name":"","type":"uint256","internalType":"uint256"}],"stateMutability":"view"}],"bytecode":{"object":"0x608060405234801561000f575f80fd5b50604051610f0c380380610f0c83398101604081905261002e91610088565b600380546001600160a01b0319166001600160a01b0385161790556001829055600281905561005d81836100c7565b5f558161007282670de0b6b3a76400006100c7565b61007c91906100f0565b6004555061010f915050565b5f805f6060848603121561009a575f80fd5b83516001600160a01b03811681146100b0575f80fd5b602085015160409095015190969495509392505050565b80820281158282048414176100ea57634e487b7160e01b5f52601160045260245ffd5b92915050565b5f8261010a57634e487b7160e01b5f52601260045260245ffd5b500490565b610df08061011c5f395ff3fe608060405234801561000f575f80fd5b50600436106100b1575f3560e01c806389a302711161006e57806389a3027114610154578063b1cbb50f1461017f578063bd64b46114610187578063c393d0e3146101a6578063c65cd86d146101ae578063f8f8bb4b146101c1575f80fd5b80631558c966146100b557806324f454be146100ca578063326f7ee2146100e657806355f57510146100ef578063668aa824146101385780637498a0f014610141575b5f80fd5b6100c86100c3366004610be2565b6101d4565b005b6100d360015481565b6040519081526020015b60405180910390f35b6100d360025481565b61011d6100fd366004610c18565b60066020525f908152604090208054600182015460029092015490919083565b604080519384526020840192909252908201526060016100dd565b6100d360045481565b6100c861014f366004610c18565b610791565b600354610167906001600160a01b031681565b6040516001600160a01b0390911681526020016100dd565b6100d35f5481565b6100d3610195366004610c18565b60056020525f908152604090205481565b6100c861099a565b6100c86101bc366004610c45565b600455565b6100d36101cf366004610c18565b610ad1565b335f90815260066020526040902060020154156102305760405162461bcd60e51b81526020600482015260156024820152742837b9b4ba34b7b71030b63932b0b23c9037b832b760591b60448201526064015b60405180910390fd5b5f821161027f5760405162461bcd60e51b815260206004820152601c60248201527f4c6576656c206d7573742062652067726561746572207468616e2030000000006044820152606401610227565b335f818152600660205260409081902060035491516323b872dd60e01b8152600481019390935230602484015260448301869052916001600160a01b03909116906323b872dd906064016020604051808303815f875af11580156102e5573d5f803e3d5ffd5b505050506040513d601f19601f820116820180604052508101906103099190610c5c565b505f6103158486610c8b565b9050848110156103595760405162461bcd60e51b815260206004820152600f60248201526e416d6f756e74206f766572666c6f7760881b6044820152606401610227565b5f6103648683610ca8565b600454335f908152600560205260409020558684556001840181905590508315610551575f826002546103979190610cbb565b905060025481116103ea5760405162461bcd60e51b815260206004820152601760248201527f6e65775655534443416d6f756e74206f766572666c6f770000000000000000006044820152606401610227565b5f81116104395760405162461bcd60e51b815260206004820152601d60248201527f6e65775655534443416d6f756e742063616e6e6f74206265207a65726f0000006044820152606401610227565b5f5481111561047d5760405162461bcd60e51b815260206004820152601060248201526f416d6f756e7420746f6f206c6172676560801b6044820152606401610227565b5f815f5461048b9190610ce2565b90505f81116104dc5760405162461bcd60e51b815260206004820152601c60248201527f6e657756455448416d6f756e742063616e6e6f74206265207a65726f000000006044820152606401610227565b600154811061052d5760405162461bcd60e51b815260206004820152601960248201527f496e73756666696369656e74207645544820696e20706f6f6c000000000000006044820152606401610227565b5f8160015461053c9190610ca8565b60019290925550600291825590840155610789565b5f600254116105a25760405162461bcd60e51b815260206004820152601a60248201527f7655534443416d6f756e742063616e6e6f74206265207a65726f0000000000006044820152606401610227565b5f600154836105b19190610c8b565b6001549091506105c18483610ce2565b1461060e5760405162461bcd60e51b815260206004820152601760248201527f4f766572666c6f7720696e2063616c63756c6174696f6e0000000000000000006044820152606401610227565b5f6002548261061d9190610ce2565b90505f811161066e5760405162461bcd60e51b815260206004820181905260248201527f536f6c642056455448206d7573742062652067726561746572207468616e20306044820152606401610227565b5f8160015461067d9190610cbb565b905060015481116106c95760405162461bcd60e51b81526020600482015260166024820152756e657756455448416d6f756e74206f766572666c6f7760501b6044820152606401610227565b5f5481111561070d5760405162461bcd60e51b815260206004820152601060248201526f416d6f756e7420746f6f206c6172676560801b6044820152606401610227565b5f815f5461071b9190610ce2565b90505f811161076c5760405162461bcd60e51b815260206004820152601d60248201527f6e65775655534443416d6f756e742063616e6e6f74206265207a65726f0000006044820152606401610227565b6001829055600281905561077f83610cf5565b6002880155505050505b505050505050565b6001600160a01b03811633036107e95760405162461bcd60e51b815260206004820152601960248201527f43616e6e6f74206c697175696461746520796f757273656c66000000000000006044820152606401610227565b6001600160a01b0381165f90815260066020526040812060028101549091036108245760405162461bcd60e51b815260040161022790610d0f565b5f61082e83610ad1565b8254909150606490610841906050610c8b565b61084b9190610ce2565b61085490610cf5565b81126108a25760405162461bcd60e51b815260206004820152601c60248201527f4e6f7420656c696769626c6520666f72206c69717569646174696f6e000000006044820152606401610227565b81545f8213156108bd576108b68282610cbb565b90506108ea565b5f6108c783610cf5565b84549091508110156108e4576108dd8183610ca8565b91506108e8565b5f91505b505b80156109645760035460405163a9059cbb60e01b8152336004820152602481018390526001600160a01b039091169063a9059cbb906044016020604051808303815f875af115801561093e573d5f803e3d5ffd5b505050506040513d601f19601f820116820180604052508101906109629190610c5c565b505b5050506001600160a01b03165f908152600660209081526040808320838155600181018490556002018390556005909152812055565b335f90815260066020526040812060028101549091036109cc5760405162461bcd60e51b815260040161022790610d0f565b5f6109d633610ad1565b82549091505f8213156109f4576109ed8282610cbb565b9050610a29565b5f821215610a29575f610a0683610cf5565b8454909150811115610a1a575f9150610a27565b610a248183610ca8565b91505b505b8015610aa35760035460405163a9059cbb60e01b8152336004820152602481018390526001600160a01b039091169063a9059cbb906044016020604051808303815f875af1158015610a7d573d5f803e3d5ffd5b505050506040513d601f19601f82011682018060405250810190610aa19190610c5c565b505b5050335f90815260066020908152604080832083815560018101849055600201839055600590915281205550565b6001600160a01b0381165f908152600660209081526040808320815160608101835281548152600182015493810193909352600201549082018190528203610b2b5760405162461bcd60e51b815260040161022790610d0f565b6001600160a01b0383165f908152600560205260408082205460045491840151909290811215610b8d575f610b608484610d39565b9050670de0b6b3a7640000856040015182610b7b9190610d5f565b610b859190610d8e565b915050610bc9565b5f610b988385610d39565b9050670de0b6b3a76400008560400151610bb190610cf5565b610bbb9083610d5f565b610bc59190610d8e565b9150505b95945050505050565b8015158114610bdf575f80fd5b50565b5f805f60608486031215610bf4575f80fd5b83359250602084013591506040840135610c0d81610bd2565b809150509250925092565b5f60208284031215610c28575f80fd5b81356001600160a01b0381168114610c3e575f80fd5b9392505050565b5f60208284031215610c55575f80fd5b5035919050565b5f60208284031215610c6c575f80fd5b8151610c3e81610bd2565b634e487b7160e01b5f52601160045260245ffd5b8082028115828204841417610ca257610ca2610c77565b92915050565b81810381811115610ca257610ca2610c77565b80820180821115610ca257610ca2610c77565b634e487b7160e01b5f52601260045260245ffd5b5f82610cf057610cf0610cce565b500490565b5f600160ff1b8201610d0957610d09610c77565b505f0390565b60208082526010908201526f27379037b832b7103837b9b4ba34b7b760811b604082015260600190565b8181035f831280158383131683831282161715610d5857610d58610c77565b5092915050565b8082025f8212600160ff1b84141615610d7a57610d7a610c77565b8181058314821517610ca257610ca2610c77565b5f82610d9c57610d9c610cce565b600160ff1b82145f1984141615610db557610db5610c77565b50059056fea26469706673582212204944953fe7384ce6e51354dc679adfbd73d9517b0e77a8005999d27eb1dae41264736f6c63430008180033","linkReferences":{}},"methodIdentifiers":{"USDC()":"89a30271","calculatePnL(address)":"f8f8bb4b","closePosition()":"c393d0e3","liquidatePosition(address)":"7498a0f0","openPosition(uint256,uint256,bool)":"1558c966","openPrice(address)":"bd64b461","oraclePrice()":"668aa824","positions(address)":"55f57510","setOraclePrice(uint256)":"c65cd86d","vETHAmount()":"24f454be","vK()":"b1cbb50f","vUSDCAmount()":"326f7ee2"},"id":24}