{"abi":[{"type":"constructor","inputs":[{"name":"initialOwner","type":"address","internalType":"address"}],"stateMutability":"nonpayable"},{"type":"function","name":"deposit","inputs":[],"outputs":[],"stateMutability":"payable"},{"type":"function","name":"getBalance","inputs":[],"outputs":[{"name":"","type":"uint256","internalType":"uint256"}],"stateMutability":"view"},{"type":"function","name":"owner","inputs":[],"outputs":[{"name":"","type":"address","internalType":"address"}],"stateMutability":"view"},{"type":"function","name":"renounceOwnership","inputs":[],"outputs":[],"stateMutability":"nonpayable"},{"type":"function","name":"transferOwnership","inputs":[{"name":"newOwner","type":"address","internalType":"address"}],"outputs":[],"stateMutability":"nonpayable"},{"type":"function","name":"withdraw","inputs":[{"name":"to","type":"address","internalType":"address"},{"name":"amount","type":"uint256","internalType":"uint256"}],"outputs":[],"stateMutability":"nonpayable"},{"type":"event","name":"OwnershipTransferred","inputs":[{"name":"previousOwner","type":"address","indexed":true,"internalType":"address"},{"name":"newOwner","type":"address","indexed":true,"internalType":"address"}],"anonymous":false},{"type":"error","name":"OwnableInvalidOwner","inputs":[{"name":"owner","type":"address","internalType":"address"}]},{"type":"error","name":"OwnableUnauthorizedAccount","inputs":[{"name":"account","type":"address","internalType":"address"}]}],"bytecode":{"object":"0x608060405234801561000f575f80fd5b506040516103d63803806103d683398101604081905261002e916100bb565b806001600160a01b03811661005c57604051631e4fbdf760e01b81525f600482015260240160405180910390fd5b6100658161006c565b50506100e8565b5f80546001600160a01b038381166001600160a01b0319831681178455604051919092169283917f8be0079c531659141344cd1fd0a4f28419497f9722a3daafe3b4186f6b6457e09190a35050565b5f602082840312156100cb575f80fd5b81516001600160a01b03811681146100e1575f80fd5b9392505050565b6102e1806100f55f395ff3fe608060405260043610610054575f3560e01c806312065fe014610058578063715018a6146100775780638da5cb5b1461008d578063d0e30db01461008b578063f2fde38b146100b3578063f3fef3a3146100d2575b5f80fd5b348015610063575f80fd5b506040514781526020015b60405180910390f35b348015610082575f80fd5b5061008b6100f1565b005b348015610098575f80fd5b505f546040516001600160a01b03909116815260200161006e565b3480156100be575f80fd5b5061008b6100cd366004610263565b610104565b3480156100dd575f80fd5b5061008b6100ec366004610283565b610146565b6100f96101cd565b6101025f6101f9565b565b61010c6101cd565b6001600160a01b03811661013a57604051631e4fbdf760e01b81525f60048201526024015b60405180910390fd5b610143816101f9565b50565b61014e6101cd565b804710156101955760405162461bcd60e51b8152602060048201526014602482015273496e73756666696369656e742062616c616e636560601b6044820152606401610131565b6040516001600160a01b0383169082156108fc029083905f818181858888f193505050501580156101c8573d5f803e3d5ffd5b505050565b5f546001600160a01b031633146101025760405163118cdaa760e01b8152336004820152602401610131565b5f80546001600160a01b038381166001600160a01b0319831681178455604051919092169283917f8be0079c531659141344cd1fd0a4f28419497f9722a3daafe3b4186f6b6457e09190a35050565b80356001600160a01b038116811461025e575f80fd5b919050565b5f60208284031215610273575f80fd5b61027c82610248565b9392505050565b5f8060408385031215610294575f80fd5b61029d83610248565b94602093909301359350505056fea2646970667358221220a940748d4bca598ab86056e9ef0db44bcbf09197e6b88b60d6f53eb73e38110e64736f6c63430008180033","linkReferences":{}},"methodIdentifiers":{"deposit()":"d0e30db0","getBalance()":"12065fe0","owner()":"8da5cb5b","renounceOwnership()":"715018a6","transferOwnership(address)":"f2fde38b","withdraw(address,uint256)":"f3fef3a3"},"id":63}