{"abi":[{"type":"constructor","inputs":[{"name":"_name","type":"string","internalType":"string"},{"name":"_symbol","type":"string","internalType":"string"}],"stateMutability":"nonpayable"},{"type":"function","name":"approve","inputs":[{"name":"to","type":"address","internalType":"address"},{"name":"tokenId","type":"uint256","internalType":"uint256"}],"outputs":[],"stateMutability":"nonpayable"},{"type":"function","name":"balanceOf","inputs":[{"name":"","type":"address","internalType":"address"}],"outputs":[{"name":"","type":"uint256","internalType":"uint256"}],"stateMutability":"view"},{"type":"function","name":"baseURI","inputs":[],"outputs":[{"name":"","type":"string","internalType":"string"}],"stateMutability":"view"},{"type":"function","name":"batchMintNFT","inputs":[{"name":"to","type":"address","internalType":"address"},{"name":"uris","type":"string[]","internalType":"string[]"}],"outputs":[{"name":"","type":"uint256[]","internalType":"uint256[]"}],"stateMutability":"nonpayable"},{"type":"function","name":"getApproved","inputs":[{"name":"","type":"uint256","internalType":"uint256"}],"outputs":[{"name":"","type":"address","internalType":"address"}],"stateMutability":"view"},{"type":"function","name":"getCurrentTokenId","inputs":[],"outputs":[{"name":"","type":"uint256","internalType":"uint256"}],"stateMutability":"view"},{"type":"function","name":"getTokenURI","inputs":[{"name":"tokenId","type":"uint256","internalType":"uint256"}],"outputs":[{"name":"","type":"string","internalType":"string"}],"stateMutability":"view"},{"type":"function","name":"isApprovedForAll","inputs":[{"name":"","type":"address","internalType":"address"},{"name":"","type":"address","internalType":"address"}],"outputs":[{"name":"","type":"bool","internalType":"bool"}],"stateMutability":"view"},{"type":"function","name":"maxSupply","inputs":[],"outputs":[{"name":"","type":"uint256","internalType":"uint256"}],"stateMutability":"view"},{"type":"function","name":"mintNFT","inputs":[{"name":"to","type":"address","internalType":"address"},{"name":"uri","type":"string","internalType":"string"}],"outputs":[{"name":"","type":"uint256","internalType":"uint256"}],"stateMutability":"nonpayable"},{"type":"function","name":"mintNFTWithPayment","inputs":[{"name":"to","type":"address","internalType":"address"},{"name":"uri","type":"string","internalType":"string"}],"outputs":[{"name":"","type":"uint256","internalType":"uint256"}],"stateMutability":"payable"},{"type":"function","name":"mintPrice","inputs":[],"outputs":[{"name":"","type":"uint256","internalType":"uint256"}],"stateMutability":"view"},{"type":"function","name":"name","inputs":[],"outputs":[{"name":"","type":"string","internalType":"string"}],"stateMutability":"view"},{"type":"function","name":"ownerOf","inputs":[{"name":"","type":"uint256","internalType":"uint256"}],"outputs":[{"name":"","type":"address","internalType":"address"}],"stateMutability":"view"},{"type":"function","name":"safeTransferFrom","inputs":[{"name":"from","type":"address","internalType":"address"},{"name":"to","type":"address","internalType":"address"},{"name":"tokenId","type":"uint256","internalType":"uint256"}],"outputs":[],"stateMutability":"nonpayable"},{"type":"function","name":"setApprovalForAll","inputs":[{"name":"operator","type":"address","internalType":"address"},{"name":"approved","type":"bool","internalType":"bool"}],"outputs":[],"stateMutability":"nonpayable"},{"type":"function","name":"setBaseURI","inputs":[{"name":"_baseURI","type":"string","internalType":"string"}],"outputs":[],"stateMutability":"nonpayable"},{"type":"function","name":"setMaxSupply","inputs":[{"name":"_maxSupply","type":"uint256","internalType":"uint256"}],"outputs":[],"stateMutability":"nonpayable"},{"type":"function","name":"setMintPrice","inputs":[{"name":"_mintPrice","type":"uint256","internalType":"uint256"}],"outputs":[],"stateMutability":"nonpayable"},{"type":"function","name":"symbol","inputs":[],"outputs":[{"name":"","type":"string","internalType":"string"}],"stateMutability":"view"},{"type":"function","name":"tokenURI","inputs":[{"name":"","type":"uint256","internalType":"uint256"}],"outputs":[{"name":"","type":"string","internalType":"string"}],"stateMutability":"view"},{"type":"function","name":"totalSupply","inputs":[],"outputs":[{"name":"","type":"uint256","internalType":"uint256"}],"stateMutability":"view"},{"type":"function","name":"transferFrom","inputs":[{"name":"from","type":"address","internalType":"address"},{"name":"to","type":"address","internalType":"address"},{"name":"tokenId","type":"uint256","internalType":"uint256"}],"outputs":[],"stateMutability":"nonpayable"},{"type":"function","name":"version","inputs":[],"outputs":[{"name":"","type":"uint256","internalType":"uint256"}],"stateMutability":"view"},{"type":"function","name":"withdraw","inputs":[{"name":"amount","type":"uint256","internalType":"uint256"}],"outputs":[],"stateMutability":"nonpayable"},{"type":"event","name":"Approval","inputs":[{"name":"owner","type":"address","indexed":true,"internalType":"address"},{"name":"approved","type":"address","indexed":true,"internalType":"address"},{"name":"tokenId","type":"uint256","indexed":true,"internalType":"uint256"}],"anonymous":false},{"type":"event","name":"ApprovalForAll","inputs":[{"name":"owner","type":"address","indexed":true,"internalType":"address"},{"name":"operator","type":"address","indexed":true,"internalType":"address"},{"name":"approved","type":"bool","indexed":false,"internalType":"bool"}],"anonymous":false},{"type":"event","name":"Transfer","inputs":[{"name":"from","type":"address","indexed":true,"internalType":"address"},{"name":"to","type":"address","indexed":true,"internalType":"address"},{"name":"tokenId","type":"uint256","indexed":true,"internalType":"uint256"}],"anonymous":false}],"bytecode":{"object":"0x608060405234801562000010575f80fd5b506040516200182638038062001826833981016040819052620000339162000181565b818181815f62000044838262000271565b50600162000053828262000271565b505060016009555060408051808201909152601981527f68747470733a2f2f6578616d706c652e636f6d2f6e6674732f000000000000006020820152600a906200009e908262000271565b5050600260095550506103e8600b555067016345785d8a0000600c556200033d565b634e487b7160e01b5f52604160045260245ffd5b5f82601f830112620000e4575f80fd5b81516001600160401b0380821115620001015762000101620000c0565b604051601f8301601f19908116603f011681019082821181831017156200012c576200012c620000c0565b816040528381526020925086602085880101111562000149575f80fd5b5f91505b838210156200016c57858201830151818301840152908201906200014d565b5f602085830101528094505050505092915050565b5f806040838503121562000193575f80fd5b82516001600160401b0380821115620001aa575f80fd5b620001b886838701620000d4565b93506020850151915080821115620001ce575f80fd5b50620001dd85828601620000d4565b9150509250929050565b600181811c90821680620001fc57607f821691505b6020821081036200021b57634e487b7160e01b5f52602260045260245ffd5b50919050565b601f8211156200026c57805f5260205f20601f840160051c81016020851015620002485750805b601f840160051c820191505b8181101562000269575f815560010162000254565b50505b505050565b81516001600160401b038111156200028d576200028d620000c0565b620002a5816200029e8454620001e7565b8462000221565b602080601f831160018114620002db575f8415620002c35750858301515b5f19600386901b1c1916600185901b17855562000335565b5f85815260208120601f198616915b828110156200030b57888601518255948401946001909101908401620002ea565b50858210156200032957878501515f19600388901b60f8161c191681555b505060018460011b0185555b505050505050565b6114db806200034b5f395ff3fe608060405260043610610161575f3560e01c80636817c76c116100cd578063a8135fbc11610087578063dd2e230311610062578063dd2e230314610404578063e985e9c514610430578063eacabe1414610479578063f4a0a52814610498575f80fd5b8063a8135fbc146103bd578063c87b56dd146103d0578063d5abeb01146103ef575f80fd5b80636817c76c146103175780636c0360eb1461032c5780636f8b44b01461034057806370a082311461035f57806395d89b411461038a578063a22cb4651461039e575f80fd5b80633bb3a24d1161011e5780633bb3a24d1461025d57806342842e0e1461027c57806354fd4d501461029b57806355f804b3146102b057806356189236146102cf5780636352211e146102e3575f80fd5b806306fdde0314610165578063081812fc1461018f578063095ea7b3146101db57806318160ddd146101fc57806323b872dd1461021f5780632e1a7d4d1461023e575b5f80fd5b348015610170575f80fd5b506101796104b7565b6040516101869190610e5f565b60405180910390f35b34801561019a575f80fd5b506101c36101a9366004610e71565b60056020525f90815260409020546001600160a01b031681565b6040516001600160a01b039091168152602001610186565b3480156101e6575f80fd5b506101fa6101f5366004610ea3565b610542565b005b348015610207575f80fd5b5061021160025481565b604051908152602001610186565b34801561022a575f80fd5b506101fa610239366004610ecb565b6105f2565b348015610249575f80fd5b506101fa610258366004610e71565b610791565b348015610268575f80fd5b50610179610277366004610e71565b610806565b348015610287575f80fd5b506101fa610296366004610ecb565b610895565b3480156102a6575f80fd5b5061021160095481565b3480156102bb575f80fd5b506101fa6102ca366004610fb5565b6108bf565b3480156102da575f80fd5b50600854610211565b3480156102ee575f80fd5b506101c36102fd366004610e71565b60036020525f90815260409020546001600160a01b031681565b348015610322575f80fd5b50610211600c5481565b348015610337575f80fd5b506101796108cb565b34801561034b575f80fd5b506101fa61035a366004610e71565b600b55565b34801561036a575f80fd5b50610211610379366004610fe7565b60046020525f908152604090205481565b348015610395575f80fd5b506101796108d8565b3480156103a9575f80fd5b506101fa6103b8366004611000565b6108e5565b6102116103cb366004611039565b610950565b3480156103db575f80fd5b506101796103ea366004610e71565b6109ad565b3480156103fa575f80fd5b50610211600b5481565b34801561040f575f80fd5b5061042361041e366004611084565b6109c5565b6040516101869190611153565b34801561043b575f80fd5b5061046961044a366004611196565b600660209081525f928352604080842090915290825290205460ff1681565b6040519015158152602001610186565b348015610484575f80fd5b50610211610493366004611039565b610a69565b3480156104a3575f80fd5b506101fa6104b2366004610e71565b600c55565b5f80546104c3906111c7565b80601f01602080910402602001604051908101604052809291908181526020018280546104ef906111c7565b801561053a5780601f106105115761010080835404028352916020019161053a565b820191905f5260205f20905b81548152906001019060200180831161051d57829003601f168201915b505050505081565b61054c3382610abc565b61058c5760405162461bcd60e51b815260206004820152600c60248201526b139bdd08185c1c1c9bdd995960a21b60448201526064015b60405180910390fd5b5f81815260056020908152604080832080546001600160a01b0319166001600160a01b038781169182179092556003909352818420549151859492909116917f8c5be1e5ebec7d5bd14f71427d1e84f3dd0314c0f7b2291e5b200ac8c7c3b92591a45050565b6105fc3382610abc565b6106375760405162461bcd60e51b815260206004820152600c60248201526b139bdd08185c1c1c9bdd995960a21b6044820152606401610583565b5f818152600360205260409020546001600160a01b0384811691161461068f5760405162461bcd60e51b815260206004820152600d60248201526c24b73b30b634b21037bbb732b960991b6044820152606401610583565b6001600160a01b0382166106d95760405162461bcd60e51b8152602060048201526011602482015270125b9d985b1a59081c9958da5c1a595b9d607a1b6044820152606401610583565b5f81815260036020908152604080832080546001600160a01b0319166001600160a01b0387811691909117909155861683526004909152812080549161071e83611213565b90915550506001600160a01b0382165f90815260046020526040812080549161074683611228565b919050555080826001600160a01b0316846001600160a01b03167fddf252ad1be2c89b69c2b068fc378daa952ba7f163c4a11628f55a4df523b3ef60405160405180910390a4505050565b804710156107d85760405162461bcd60e51b8152602060048201526014602482015273496e73756666696369656e742062616c616e636560601b6044820152606401610583565b604051339082156108fc029083905f818181858888f19350505050158015610802573d5f803e3d5ffd5b5050565b5f818152600360205260409020546060906001600160a01b03166108635760405162461bcd60e51b8152602060048201526014602482015273151bdad95b88191bd95cc81b9bdd08195e1a5cdd60621b6044820152606401610583565b600a61086e83610b34565b60405160200161087f929190611240565b6040516020818303038152906040529050919050565b6108a08383836105f2565b6108ba83838360405180602001604052805f815250610c31565b505050565b600a6108028282611307565b600a80546104c3906111c7565b600180546104c3906111c7565b335f8181526006602090815260408083206001600160a01b03871680855290835292819020805460ff191686151590811790915590519081529192917f17307eab39ab6107e8899845ad3d59bd9653f200f220920489ca2b5937696c31910160405180910390a35050565b5f600c5434101561099a5760405162461bcd60e51b8152602060048201526014602482015273125b9cdd59999a58da595b9d081c185e5b595b9d60621b6044820152606401610583565b6109a48383610a69565b90505b92915050565b60076020525f9081526040902080546104c3906111c7565b60605f825167ffffffffffffffff8111156109e2576109e2610f04565b604051908082528060200260200182016040528015610a0b578160200160208202803683370190505b5090505f5b8351811015610a6157610a3c85858381518110610a2f57610a2f6113c7565b6020026020010151610a69565b828281518110610a4e57610a4e6113c7565b6020908102919091010152600101610a10565b509392505050565b5f600b5460025410610ab25760405162461bcd60e51b815260206004820152601260248201527113585e081cdd5c1c1b1e481c995858da195960721b6044820152606401610583565b6109a48383610d4b565b5f818152600360205260408120546001600160a01b03908116908416811480610afd57505f838152600560205260409020546001600160a01b038581169116145b80610b2c57506001600160a01b038082165f9081526006602090815260408083209388168352929052205460ff165b949350505050565b6060815f03610b5a5750506040805180820190915260018152600360fc1b602082015290565b815f5b8115610b835780610b6d81611228565b9150610b7c9050600a836113ef565b9150610b5d565b5f8167ffffffffffffffff811115610b9d57610b9d610f04565b6040519080825280601f01601f191660200182016040528015610bc7576020820181803683370190505b5090505b8415610b2c57610bdc600183611402565b9150610be9600a86611415565b610bf4906030611428565b60f81b818381518110610c0957610c096113c7565b60200101906001600160f81b03191690815f1a905350610c2a600a866113ef565b9450610bcb565b6001600160a01b0383163b15610d4557604051630a85bd0160e11b81526001600160a01b0384169063150b7a0290610c7390339088908790879060040161143b565b6020604051808303815f875af1925050508015610cad575060408051601f3d908101601f19168201909252610caa91810190611477565b60015b610cee5760405162461bcd60e51b81526020600482015260126024820152712737ba1022a9219b9918a932b1b2b4bb32b960711b6044820152606401610583565b6001600160e01b03198116630a85bd0160e11b14610d435760405162461bcd60e51b81526020600482015260126024820152712737ba1022a9219b9918a932b1b2b4bb32b960711b6044820152606401610583565b505b50505050565b600880545f91819083610d5d83611228565b90915550505f81815260036020908152604080832080546001600160a01b0319166001600160a01b038916908117909155835260049091528120805491610da383611228565b90915550505f818152600760205260409020610dbf8482611307565b5060028054905f610dcf83611228565b909155505060405181906001600160a01b038616905f907fddf252ad1be2c89b69c2b068fc378daa952ba7f163c4a11628f55a4df523b3ef908290a49392505050565b5f5b83811015610e2c578181015183820152602001610e14565b50505f910152565b5f8151808452610e4b816020860160208601610e12565b601f01601f19169290920160200192915050565b602081525f6109a46020830184610e34565b5f60208284031215610e81575f80fd5b5035919050565b80356001600160a01b0381168114610e9e575f80fd5b919050565b5f8060408385031215610eb4575f80fd5b610ebd83610e88565b946020939093013593505050565b5f805f60608486031215610edd575f80fd5b610ee684610e88565b9250610ef460208501610e88565b9150604084013590509250925092565b634e487b7160e01b5f52604160045260245ffd5b604051601f8201601f1916810167ffffffffffffffff81118282101715610f4157610f41610f04565b604052919050565b5f82601f830112610f58575f80fd5b813567ffffffffffffffff811115610f7257610f72610f04565b610f85601f8201601f1916602001610f18565b818152846020838601011115610f99575f80fd5b816020850160208301375f918101602001919091529392505050565b5f60208284031215610fc5575f80fd5b813567ffffffffffffffff811115610fdb575f80fd5b610b2c84828501610f49565b5f60208284031215610ff7575f80fd5b6109a482610e88565b5f8060408385031215611011575f80fd5b61101a83610e88565b91506020830135801515811461102e575f80fd5b809150509250929050565b5f806040838503121561104a575f80fd5b61105383610e88565b9150602083013567ffffffffffffffff81111561106e575f80fd5b61107a85828601610f49565b9150509250929050565b5f8060408385031215611095575f80fd5b61109e83610e88565b915060208084013567ffffffffffffffff808211156110bb575f80fd5b818601915086601f8301126110ce575f80fd5b8135818111156110e0576110e0610f04565b8060051b6110ef858201610f18565b918252838101850191858101908a841115611108575f80fd5b86860192505b8383101561114257823585811115611124575f80fd5b6111328c89838a0101610f49565b835250918601919086019061110e565b809750505050505050509250929050565b602080825282518282018190525f9190848201906040850190845b8181101561118a5783518352928401929184019160010161116e565b50909695505050505050565b5f80604083850312156111a7575f80fd5b6111b083610e88565b91506111be60208401610e88565b90509250929050565b600181811c908216806111db57607f821691505b6020821081036111f957634e487b7160e01b5f52602260045260245ffd5b50919050565b634e487b7160e01b5f52601160045260245ffd5b5f81611221576112216111ff565b505f190190565b5f60018201611239576112396111ff565b5060010190565b5f80845461124d816111c7565b60018281168015611265576001811461127a576112a6565b60ff19841687528215158302870194506112a6565b885f526020805f205f5b8581101561129d5781548a820152908401908201611284565b50505082870194505b5050505083516112ba818360208801610e12565b01949350505050565b601f8211156108ba57805f5260205f20601f840160051c810160208510156112e85750805b601f840160051c820191505b81811015610d43575f81556001016112f4565b815167ffffffffffffffff81111561132157611321610f04565b6113358161132f84546111c7565b846112c3565b602080601f831160018114611368575f84156113515750858301515b5f19600386901b1c1916600185901b1785556113bf565b5f85815260208120601f198616915b8281101561139657888601518255948401946001909101908401611377565b50858210156113b357878501515f19600388901b60f8161c191681555b505060018460011b0185555b505050505050565b634e487b7160e01b5f52603260045260245ffd5b634e487b7160e01b5f52601260045260245ffd5b5f826113fd576113fd6113db565b500490565b818103818111156109a7576109a76111ff565b5f82611423576114236113db565b500690565b808201808211156109a7576109a76111ff565b6001600160a01b03858116825284166020820152604081018390526080606082018190525f9061146d90830184610e34565b9695505050505050565b5f60208284031215611487575f80fd5b81516001600160e01b03198116811461149e575f80fd5b939250505056fea26469706673582212208928d5ccc709736ad4877f86a695ec5b47d71b186f36f20dd2ff237d0bfe3dc764736f6c63430008180033","linkReferences":{}},"methodIdentifiers":{"approve(address,uint256)":"095ea7b3","balanceOf(address)":"70a08231","baseURI()":"6c0360eb","batchMintNFT(address,string[])":"dd2e2303","getApproved(uint256)":"081812fc","getCurrentTokenId()":"56189236","getTokenURI(uint256)":"3bb3a24d","isApprovedForAll(address,address)":"e985e9c5","maxSupply()":"d5abeb01","mintNFT(address,string)":"eacabe14","mintNFTWithPayment(address,string)":"a8135fbc","mintPrice()":"6817c76c","name()":"06fdde03","ownerOf(uint256)":"6352211e","safeTransferFrom(address,address,uint256)":"42842e0e","setApprovalForAll(address,bool)":"a22cb465","setBaseURI(string)":"55f804b3","setMaxSupply(uint256)":"6f8b44b0","setMintPrice(uint256)":"f4a0a528","symbol()":"95d89b41","tokenURI(uint256)":"c87b56dd","totalSupply()":"18160ddd","transferFrom(address,address,uint256)":"23b872dd","version()":"54fd4d50","withdraw(uint256)":"2e1a7d4d"},"id":74}