{"abi":[{"type":"constructor","inputs":[{"name":"_owners","type":"address[]","internalType":"address[]"},{"name":"_required","type":"uint256","internalType":"uint256"}],"stateMutability":"nonpayable"},{"type":"receive","stateMutability":"payable"},{"type":"function","name":"confirm","inputs":[{"name":"txId","type":"uint256","internalType":"uint256"}],"outputs":[],"stateMutability":"nonpayable"},{"type":"function","name":"execute","inputs":[{"name":"txId","type":"uint256","internalType":"uint256"}],"outputs":[],"stateMutability":"nonpayable"},{"type":"function","name":"getOwners","inputs":[],"outputs":[{"name":"","type":"address[]","internalType":"address[]"}],"stateMutability":"view"},{"type":"function","name":"getTransaction","inputs":[{"name":"txId","type":"uint256","internalType":"uint256"}],"outputs":[{"name":"to","type":"address","internalType":"address"},{"name":"value","type":"uint256","internalType":"uint256"},{"name":"data","type":"bytes","internalType":"bytes"},{"name":"executed","type":"bool","internalType":"bool"},{"name":"confirmations","type":"uint256","internalType":"uint256"}],"stateMutability":"view"},{"type":"function","name":"getTransactionCount","inputs":[],"outputs":[{"name":"","type":"uint256","internalType":"uint256"}],"stateMutability":"view"},{"type":"function","name":"isConfirmed","inputs":[{"name":"","type":"uint256","internalType":"uint256"},{"name":"","type":"address","internalType":"address"}],"outputs":[{"name":"","type":"bool","internalType":"bool"}],"stateMutability":"view"},{"type":"function","name":"isOwner","inputs":[{"name":"","type":"address","internalType":"address"}],"outputs":[{"name":"","type":"bool","internalType":"bool"}],"stateMutability":"view"},{"type":"function","name":"owners","inputs":[{"name":"","type":"uint256","internalType":"uint256"}],"outputs":[{"name":"","type":"address","internalType":"address"}],"stateMutability":"view"},{"type":"function","name":"proposal","inputs":[{"name":"to","type":"address","internalType":"address"},{"name":"value","type":"uint256","internalType":"uint256"},{"name":"data","type":"bytes","internalType":"bytes"}],"outputs":[{"name":"","type":"uint256","internalType":"uint256"}],"stateMutability":"nonpayable"},{"type":"function","name":"required","inputs":[],"outputs":[{"name":"","type":"uint256","internalType":"uint256"}],"stateMutability":"view"},{"type":"function","name":"transactions","inputs":[{"name":"","type":"uint256","internalType":"uint256"}],"outputs":[{"name":"to","type":"address","internalType":"address"},{"name":"value","type":"uint256","internalType":"uint256"},{"name":"data","type":"bytes","internalType":"bytes"},{"name":"executed","type":"bool","internalType":"bool"},{"name":"confirmations","type":"uint256","internalType":"uint256"}],"stateMutability":"view"},{"type":"event","name":"Confirmation","inputs":[{"name":"txId","type":"uint256","indexed":true,"internalType":"uint256"},{"name":"confirmer","type":"address","indexed":true,"internalType":"address"}],"anonymous":false},{"type":"event","name":"Deposit","inputs":[{"name":"sender","type":"address","indexed":true,"internalType":"address"},{"name":"amount","type":"uint256","indexed":false,"internalType":"uint256"}],"anonymous":false},{"type":"event","name":"Execution","inputs":[{"name":"txId","type":"uint256","indexed":true,"internalType":"uint256"}],"anonymous":false},{"type":"event","name":"Proposal","inputs":[{"name":"txId","type":"uint256","indexed":true,"internalType":"uint256"},{"name":"proposer","type":"address","indexed":true,"internalType":"address"},{"name":"to","type":"address","indexed":true,"internalType":"address"},{"name":"value","type":"uint256","indexed":false,"internalType":"uint256"},{"name":"data","type":"bytes","indexed":false,"internalType":"bytes"}],"anonymous":false}],"bytecode":{"object":"0x608060405234801562000010575f80fd5b50604051620012d9380380620012d983398101604081905262000033916200026d565b5f8251116200007b5760405162461bcd60e51b815260206004820152600f60248201526e13dddb995c9cc81c995c5d5a5c9959608a1b60448201526064015b60405180910390fd5b5f811180156200008c575081518111155b620000eb5760405162461bcd60e51b815260206004820152602860248201527f496e76616c6964207265717569726564206e756d626572206f6620636f6e6669604482015267726d6174696f6e7360c01b606482015260840162000072565b5f5b825181101562000232575f8382815181106200010d576200010d62000342565b602002602001015190505f6001600160a01b0316816001600160a01b0316036200016a5760405162461bcd60e51b815260206004820152600d60248201526c24b73b30b634b21037bbb732b960991b604482015260640162000072565b6001600160a01b0381165f9081526004602052604090205460ff1615620001c75760405162461bcd60e51b815260206004820152601060248201526f4f776e6572206e6f7420756e6971756560801b604482015260640162000072565b6001600160a01b03165f818152600460205260408120805460ff19166001908117909155815480820183559180527f290decd9548b62a8d60345a988386fc84ba6bc95484008f6362f93160ef3e56390910180546001600160a01b03191690921790915501620000ed565b506001555062000356565b634e487b7160e01b5f52604160045260245ffd5b80516001600160a01b038116811462000268575f80fd5b919050565b5f80604083850312156200027f575f80fd5b82516001600160401b038082111562000296575f80fd5b818501915085601f830112620002aa575f80fd5b8151602082821115620002c157620002c16200023d565b8160051b604051601f19603f83011681018181108682111715620002e957620002e96200023d565b60405292835281830193508481018201928984111562000307575f80fd5b948201945b838610156200033057620003208662000251565b855294820194938201936200030c565b97909101519698969750505050505050565b634e487b7160e01b5f52603260045260245ffd5b610f7580620003645f395ff3fe60806040526004361061009d575f3560e01c80639ace38c2116100625780639ace38c2146101de578063a0e67e2b146101fd578063ba0179b51461021e578063d1adf4d81461023f578063dc8452cd1461025e578063fe0d94c114610273575f80fd5b8063025e7c27146100dd5780632e7700f0146101195780632f54bf6e1461013757806333ea3dc81461017557806380f59a65146101a5575f80fd5b366100d95760405134815233907fe1fffcc4923d04b559f4d29a8bfc6cda04eb5b0d3c460751c2402c5c5cc9109c9060200160405180910390a2005b5f80fd5b3480156100e8575f80fd5b506100fc6100f7366004610b46565b610292565b6040516001600160a01b0390911681526020015b60405180910390f35b348015610124575f80fd5b506002545b604051908152602001610110565b348015610142575f80fd5b50610165610151366004610b78565b60046020525f908152604090205460ff1681565b6040519015158152602001610110565b348015610180575f80fd5b5061019461018f366004610b46565b6102b9565b604051610110959493929190610b98565b3480156101b0575f80fd5b506101656101bf366004610c11565b600360209081525f928352604080842090915290825290205460ff1681565b3480156101e9575f80fd5b506101946101f8366004610b46565b6103ae565b348015610208575f80fd5b50610211610483565b6040516101109190610c3b565b348015610229575f80fd5b5061023d610238366004610b46565b6104e2565b005b34801561024a575f80fd5b50610129610259366004610c87565b6106f8565b348015610269575f80fd5b5061012960015481565b34801561027e575f80fd5b5061023d61028d366004610b46565b61090d565b5f81815481106102a0575f80fd5b5f918252602090912001546001600160a01b0316905081565b5f8060605f805f600287815481106102d3576102d3610d07565b5f918252602090912060059091020180546001820154600383015460048401546002850180549596506001600160a01b039094169492939260ff90921691839061031c90610d1b565b80601f016020809104026020016040519081016040528092919081815260200182805461034890610d1b565b80156103935780601f1061036a57610100808354040283529160200191610393565b820191905f5260205f20905b81548152906001019060200180831161037657829003601f168201915b50505050509250955095509550955095505091939590929450565b600281815481106103bd575f80fd5b5f9182526020909120600590910201805460018201546002830180546001600160a01b0390931694509092916103f290610d1b565b80601f016020809104026020016040519081016040528092919081815260200182805461041e90610d1b565b80156104695780601f1061044057610100808354040283529160200191610469565b820191905f5260205f20905b81548152906001019060200180831161044c57829003601f168201915b505050506003830154600490930154919260ff1691905085565b60605f8054806020026020016040519081016040528092919081815260200182805480156104d857602002820191905f5260205f20905b81546001600160a01b031681526001909101906020018083116104ba575b5050505050905090565b335f9081526004602052604090205460ff166105345760405162461bcd60e51b815260206004820152600c60248201526b2737ba1030b71037bbb732b960a11b60448201526064015b60405180910390fd5b600254819081106105875760405162461bcd60e51b815260206004820152601a60248201527f5472616e73616374696f6e20646f6573206e6f74206578697374000000000000604482015260640161052b565b816002818154811061059b5761059b610d07565b5f91825260209091206003600590920201015460ff16156105fe5760405162461bcd60e51b815260206004820152601c60248201527f5472616e73616374696f6e20616c726561647920657865637574656400000000604482015260640161052b565b5f838152600360209081526040808320338452909152902054839060ff16156106695760405162461bcd60e51b815260206004820152601d60248201527f5472616e73616374696f6e20616c726561647920636f6e6669726d6564000000604482015260640161052b565b5f6002858154811061067d5761067d610d07565b905f5260205f20906005020190506001816004015f82825461069f9190610d53565b90915550505f858152600360209081526040808320338085529252808320805460ff1916600117905551909187917f1f7db319f45151674bbce08ad4e1093bca1941bc7ef2f91ccafd6519406f01019190a35050505050565b335f9081526004602052604081205460ff166107455760405162461bcd60e51b815260206004820152600c60248201526b2737ba1030b71037bbb732b960a11b604482015260640161052b565b5f600280549050905060026040518060a00160405280886001600160a01b0316815260200187815260200186868080601f0160208091040260200160405190810160405280939291908181526020018383808284375f9201829052509385525050506020808301829052604092830182905284546001808201875595835291819020845160059093020180546001600160a01b0319166001600160a01b0390931692909217825583015193810193909355810151909190600282019061080b9082610dd8565b50606082015160038201805460ff191691151591909117905560809091015160049091015560028054600191908390811061084857610848610d07565b905f5260205f2090600502016004015f8282546108659190610d53565b90915550505f81815260036020908152604080832033808552925291829020805460ff1916600117905590516001600160a01b038816919083907f5b6a3c1bd47821bafa6a032c30ffae02d4a8af392d335168896d7c0fb303d224906108d0908a908a908a90610e98565b60405180910390a4604051339082907f1f7db319f45151674bbce08ad4e1093bca1941bc7ef2f91ccafd6519406f0101905f90a395945050505050565b600254819081106109605760405162461bcd60e51b815260206004820152601a60248201527f5472616e73616374696f6e20646f6573206e6f74206578697374000000000000604482015260640161052b565b816002818154811061097457610974610d07565b5f91825260209091206003600590920201015460ff16156109d75760405162461bcd60e51b815260206004820152601c60248201527f5472616e73616374696f6e20616c726561647920657865637574656400000000604482015260640161052b565b5f600284815481106109eb576109eb610d07565b905f5260205f209060050201905060015481600401541015610a4f5760405162461bcd60e51b815260206004820152601860248201527f4e6f7420656e6f75676820636f6e6669726d6174696f6e730000000000000000604482015260640161052b565b60038101805460ff191660019081179091558154908201546040515f926001600160a01b03169190610a85906002860190610ecd565b5f6040518083038185875af1925050503d805f8114610abf576040519150601f19603f3d011682016040523d82523d5f602084013e610ac4565b606091505b5050905080610b155760405162461bcd60e51b815260206004820152601c60248201527f5472616e73616374696f6e20657865637574696f6e206661696c656400000000604482015260640161052b565b60405185907f33e13ecb54c3076d8e8bb8c2881800a4d972b792045ffae98fdf46df365fed75905f90a25050505050565b5f60208284031215610b56575f80fd5b5035919050565b80356001600160a01b0381168114610b73575f80fd5b919050565b5f60208284031215610b88575f80fd5b610b9182610b5d565b9392505050565b60018060a01b03861681525f602086602084015260a0604084015285518060a08501525f5b81811015610bd95787810183015185820160c001528201610bbd565b505f60c0828601015260c0601f19601f83011685010192505050610c01606083018515159052565b8260808301529695505050505050565b5f8060408385031215610c22575f80fd5b82359150610c3260208401610b5d565b90509250929050565b602080825282518282018190525f9190848201906040850190845b81811015610c7b5783516001600160a01b031683529284019291840191600101610c56565b50909695505050505050565b5f805f8060608587031215610c9a575f80fd5b610ca385610b5d565b935060208501359250604085013567ffffffffffffffff80821115610cc6575f80fd5b818701915087601f830112610cd9575f80fd5b813581811115610ce7575f80fd5b886020828501011115610cf8575f80fd5b95989497505060200194505050565b634e487b7160e01b5f52603260045260245ffd5b600181811c90821680610d2f57607f821691505b602082108103610d4d57634e487b7160e01b5f52602260045260245ffd5b50919050565b80820180821115610d7257634e487b7160e01b5f52601160045260245ffd5b92915050565b634e487b7160e01b5f52604160045260245ffd5b601f821115610dd357805f5260205f20601f840160051c81016020851015610db15750805b601f840160051c820191505b81811015610dd0575f8155600101610dbd565b50505b505050565b815167ffffffffffffffff811115610df257610df2610d78565b610e0681610e008454610d1b565b84610d8c565b602080601f831160018114610e39575f8415610e225750858301515b5f19600386901b1c1916600185901b178555610e90565b5f85815260208120601f198616915b82811015610e6757888601518255948401946001909101908401610e48565b5085821015610e8457878501515f19600388901b60f8161c191681555b505060018460011b0185555b505050505050565b83815260406020820152816040820152818360608301375f818301606090810191909152601f909201601f1916010192915050565b5f808354610eda81610d1b565b60018281168015610ef25760018114610f0757610f33565b60ff1984168752821515830287019450610f33565b875f526020805f205f5b85811015610f2a5781548a820152908401908201610f11565b50505082870194505b5092969550505050505056fea2646970667358221220f8223d4ddb6c6ff9d04245b7967af1794e7c7d2e0b4dcda9f0788a432cf3f81464736f6c63430008180033","linkReferences":{}},"methodIdentifiers":{"confirm(uint256)":"ba0179b5","execute(uint256)":"fe0d94c1","getOwners()":"a0e67e2b","getTransaction(uint256)":"33ea3dc8","getTransactionCount()":"2e7700f0","isConfirmed(uint256,address)":"80f59a65","isOwner(address)":"2f54bf6e","owners(uint256)":"025e7c27","proposal(address,uint256,bytes)":"d1adf4d8","required()":"dc8452cd","transactions(uint256)":"9ace38c2"},"id":65}