{"abi":[{"type":"function","name":"UPGRADE_INTERFACE_VERSION","inputs":[],"outputs":[{"name":"","type":"string","internalType":"string"}],"stateMutability":"view"},{"type":"function","name":"buyNFT","inputs":[{"name":"nftContract","type":"address","internalType":"address"},{"name":"tokenId","type":"uint256","internalType":"uint256"}],"outputs":[],"stateMutability":"payable"},{"type":"function","name":"initialize","inputs":[],"outputs":[],"stateMutability":"nonpayable"},{"type":"function","name":"listNFT","inputs":[{"name":"nftContract","type":"address","internalType":"address"},{"name":"tokenId","type":"uint256","internalType":"uint256"},{"name":"price","type":"uint256","internalType":"uint256"}],"outputs":[],"stateMutability":"nonpayable"},{"type":"function","name":"listings","inputs":[{"name":"","type":"address","internalType":"address"},{"name":"","type":"uint256","internalType":"uint256"}],"outputs":[{"name":"seller","type":"address","internalType":"address"},{"name":"price","type":"uint256","internalType":"uint256"},{"name":"active","type":"bool","internalType":"bool"}],"stateMutability":"view"},{"type":"function","name":"owner","inputs":[],"outputs":[{"name":"","type":"address","internalType":"address"}],"stateMutability":"view"},{"type":"function","name":"proxiableUUID","inputs":[],"outputs":[{"name":"","type":"bytes32","internalType":"bytes32"}],"stateMutability":"view"},{"type":"function","name":"removeNFT","inputs":[{"name":"nftContract","type":"address","internalType":"address"},{"name":"tokenId","type":"uint256","internalType":"uint256"}],"outputs":[],"stateMutability":"nonpayable"},{"type":"function","name":"renounceOwnership","inputs":[],"outputs":[],"stateMutability":"nonpayable"},{"type":"function","name":"transferOwnership","inputs":[{"name":"newOwner","type":"address","internalType":"address"}],"outputs":[],"stateMutability":"nonpayable"},{"type":"function","name":"upgradeTo","inputs":[{"name":"newImplementation","type":"address","internalType":"address"}],"outputs":[],"stateMutability":"nonpayable"},{"type":"function","name":"upgradeToAndCall","inputs":[{"name":"newImplementation","type":"address","internalType":"address"},{"name":"data","type":"bytes","internalType":"bytes"}],"outputs":[],"stateMutability":"payable"},{"type":"event","name":"Initialized","inputs":[{"name":"version","type":"uint64","indexed":false,"internalType":"uint64"}],"anonymous":false},{"type":"event","name":"NFTListed","inputs":[{"name":"nftContract","type":"address","indexed":true,"internalType":"address"},{"name":"tokenId","type":"uint256","indexed":true,"internalType":"uint256"},{"name":"seller","type":"address","indexed":true,"internalType":"address"},{"name":"price","type":"uint256","indexed":false,"internalType":"uint256"}],"anonymous":false},{"type":"event","name":"NFTPurchased","inputs":[{"name":"nftContract","type":"address","indexed":true,"internalType":"address"},{"name":"tokenId","type":"uint256","indexed":true,"internalType":"uint256"},{"name":"buyer","type":"address","indexed":true,"internalType":"address"},{"name":"price","type":"uint256","indexed":false,"internalType":"uint256"}],"anonymous":false},{"type":"event","name":"NFTRemoved","inputs":[{"name":"nftContract","type":"address","indexed":true,"internalType":"address"},{"name":"tokenId","type":"uint256","indexed":true,"internalType":"uint256"},{"name":"seller","type":"address","indexed":true,"internalType":"address"}],"anonymous":false},{"type":"event","name":"OwnershipTransferred","inputs":[{"name":"previousOwner","type":"address","indexed":true,"internalType":"address"},{"name":"newOwner","type":"address","indexed":true,"internalType":"address"}],"anonymous":false},{"type":"event","name":"Upgraded","inputs":[{"name":"implementation","type":"address","indexed":true,"internalType":"address"}],"anonymous":false},{"type":"error","name":"AddressEmptyCode","inputs":[{"name":"target","type":"address","internalType":"address"}]},{"type":"error","name":"ERC1967InvalidImplementation","inputs":[{"name":"implementation","type":"address","internalType":"address"}]},{"type":"error","name":"ERC1967NonPayable","inputs":[]},{"type":"error","name":"FailedCall","inputs":[]},{"type":"error","name":"InvalidInitialization","inputs":[]},{"type":"error","name":"NotInitializing","inputs":[]},{"type":"error","name":"OwnableInvalidOwner","inputs":[{"name":"owner","type":"address","internalType":"address"}]},{"type":"error","name":"OwnableUnauthorizedAccount","inputs":[{"name":"account","type":"address","internalType":"address"}]},{"type":"error","name":"UUPSUnauthorizedCallContext","inputs":[]},{"type":"error","name":"UUPSUnsupportedProxiableUUID","inputs":[{"name":"slot","type":"bytes32","internalType":"bytes32"}]}],"bytecode":{"object":"0x60a060405230608052348015610013575f80fd5b506080516111cc61003a5f395f81816109c7015281816109f00152610b2701526111cc5ff3fe6080604052600436106100a4575f3560e01c80638129fc1c116100625780638129fc1c146101ac5780638da5cb5b146101c0578063a82ba76f14610206578063ad05f1b414610219578063ad3cb1cc14610238578063f2fde38b14610275575f80fd5b806207df30146100a85780633659cfe61461012357806349fd566b146101445780634f1ef2861461016357806352d1902d14610176578063715018a614610198575b5f80fd5b3480156100b3575f80fd5b506100f76100c2366004610f89565b5f6020818152928152604080822090935290815220805460018201546002909201546001600160a01b03909116919060ff1683565b604080516001600160a01b03909416845260208401929092521515908201526060015b60405180910390f35b34801561012e575f80fd5b5061014261013d366004610fb3565b610294565b005b34801561014f575f80fd5b5061014261015e366004610f89565b6102c0565b610142610171366004610fe9565b6103bc565b348015610181575f80fd5b5061018a6103db565b60405190815260200161011a565b3480156101a3575f80fd5b506101426103f6565b3480156101b7575f80fd5b50610142610409565b3480156101cb575f80fd5b507f9016d09d72d40fdae2fd8ceac6b6234c7706214fd39c1cd1e609a0528c199300546040516001600160a01b03909116815260200161011a565b610142610214366004610f89565b610501565b348015610224575f80fd5b506101426102333660046110a7565b6105c9565b348015610243575f80fd5b50610268604051806040016040528060058152602001640352e302e360dc1b81525081565b60405161011a91906110d9565b348015610280575f80fd5b5061014261028f366004610fb3565b61091f565b61029c610959565b6102a5816109b4565b6102bd8160405180602001604052805f8152506103bc565b50565b6001600160a01b0382165f908152602081815260408083208484529091529020600281015460ff1661032a5760405162461bcd60e51b815260206004820152600e60248201526d139195081b9bdd081b1a5cdd195960921b60448201526064015b60405180910390fd5b80546001600160a01b031633146103745760405162461bcd60e51b815260206004820152600e60248201526d2737ba103a34329039b2b63632b960911b6044820152606401610321565b60028101805460ff19169055604051339083906001600160a01b038616907f81904fa06bddfcd978320961877f1318cf1d7d785b3868fe5c53ad2e6323e076905f90a4505050565b6103c46109bc565b6103cd826109b4565b6103d78282610a60565b5050565b5f6103e4610b1c565b505f8051602061117783398151915290565b6103fe610959565b6104075f610b65565b565b5f610412610bd5565b805490915060ff600160401b820416159067ffffffffffffffff165f811580156104395750825b90505f8267ffffffffffffffff1660011480156104555750303b155b905081158015610463575080155b156104815760405163f92ee8a960e01b815260040160405180910390fd5b845467ffffffffffffffff1916600117855583156104ab57845460ff60401b1916600160401b1785555b6104b433610bff565b83156104fa57845460ff60401b19168555604051600181527fc7f505b2f371ae2175ee4913f4499e1f2633a7b5936321eed1cdaeb6115181d29060200160405180910390a15b5050505050565b6001600160a01b0382165f908152602081815260408083208484529091529020600281015460ff166105665760405162461bcd60e51b815260206004820152600e60248201526d139195081b9bdd081b1a5cdd195960921b6044820152606401610321565b806001015434146105b95760405162461bcd60e51b815260206004820152601860248201527f496e636f7272656374207061796d656e7420616d6f756e7400000000000000006044820152606401610321565b6105c4838383610c10565b505050565b5f81116106185760405162461bcd60e51b815260206004820152601c60248201527f5072696365206d7573742062652067726561746572207468616e2030000000006044820152606401610321565b6001600160a01b0383165f9081526020818152604080832085845290915290206002015460ff16156106815760405162461bcd60e51b815260206004820152601260248201527113919508185b1c9958591e481b1a5cdd195960721b6044820152606401610321565b6040516331a9108f60e11b815260048101839052839033906001600160a01b03831690636352211e90602401602060405180830381865afa1580156106c8573d5f803e3d5ffd5b505050506040513d601f19601f820116820180604052508101906106ec9190611125565b6001600160a01b0316146107425760405162461bcd60e51b815260206004820152601860248201527f4e6f7420746865206f776e6572206f6620746865204e465400000000000000006044820152606401610321565b60405163e985e9c560e01b81523360048201523060248201526001600160a01b0382169063e985e9c590604401602060405180830381865afa15801561078a573d5f803e3d5ffd5b505050506040513d601f19601f820116820180604052508101906107ae9190611140565b80610828575060405163020604bf60e21b81526004810184905230906001600160a01b0383169063081812fc90602401602060405180830381865afa1580156107f9573d5f803e3d5ffd5b505050506040513d601f19601f8201168201806040525081019061081d9190611125565b6001600160a01b0316145b6108745760405162461bcd60e51b815260206004820152601b60248201527f4e4654206e6f7420617070726f76656420666f72206d61726b657400000000006044820152606401610321565b6040805160608101825233808252602080830186815260018486018181526001600160a01b038b81165f8181528087528981208d82528752899020975188546001600160a01b0319169216919091178755925191860191909155516002909401805460ff191694151594909417909355925185815290928692917f392a0f172cb29479635d0b2219b2f96ef24f74dfdf328cb09f1496efe6cfddbe910160405180910390a450505050565b610927610959565b6001600160a01b03811661095057604051631e4fbdf760e01b81525f6004820152602401610321565b6102bd81610b65565b3361098b7f9016d09d72d40fdae2fd8ceac6b6234c7706214fd39c1cd1e609a0528c199300546001600160a01b031690565b6001600160a01b0316146104075760405163118cdaa760e01b8152336004820152602401610321565b6102bd610959565b306001600160a01b037f0000000000000000000000000000000000000000000000000000000000000000161480610a4257507f00000000000000000000000000000000000000000000000000000000000000006001600160a01b0316610a365f80516020611177833981519152546001600160a01b031690565b6001600160a01b031614155b156104075760405163703e46dd60e11b815260040160405180910390fd5b816001600160a01b03166352d1902d6040518163ffffffff1660e01b8152600401602060405180830381865afa925050508015610aba575060408051601f3d908101601f19168201909252610ab79181019061115f565b60015b610ae257604051634c9c8ce360e01b81526001600160a01b0383166004820152602401610321565b5f805160206111778339815191528114610b1257604051632a87526960e21b815260048101829052602401610321565b6105c48383610d81565b306001600160a01b037f000000000000000000000000000000000000000000000000000000000000000016146104075760405163703e46dd60e11b815260040160405180910390fd5b7f9016d09d72d40fdae2fd8ceac6b6234c7706214fd39c1cd1e609a0528c19930080546001600160a01b031981166001600160a01b03848116918217845560405192169182907f8be0079c531659141344cd1fd0a4f28419497f9722a3daafe3b4186f6b6457e0905f90a3505050565b5f807ff0c57e16840df040f15088dc2f81fe391c3923bec73e23a9662efc9c229c6a005b92915050565b610c07610dd6565b6102bd81610dfb565b60028101805460ff191690558054604051632142170760e11b81526001600160a01b0391821660048201523360248201526044810184905284918216906342842e0e906064015f604051808303815f87803b158015610c6d575f80fd5b505af1158015610c7f573d5f803e3d5ffd5b5050835460018501546040515f94506001600160a01b039092169250908381818185875af1925050503d805f8114610cd2576040519150601f19603f3d011682016040523d82523d5f602084013e610cd7565b606091505b5050905080610d285760405162461bcd60e51b815260206004820152601860248201527f4661696c656420746f207472616e736665722066756e647300000000000000006044820152606401610321565b336001600160a01b031684866001600160a01b03167fd0de3e759b6d8ae4ab8dfd56f0869b691034bf2f14b896155287e5cd61d66a708660010154604051610d7291815260200190565b60405180910390a45050505050565b610d8a82610e03565b6040516001600160a01b038316907fbc7cd75a20ee27fd9adebab32041f755214dbc6bffa90cc0225b39da2e5c2d3b905f90a2805115610dce576105c48282610e66565b6103d7610f06565b610dde610f25565b61040757604051631afcd79f60e31b815260040160405180910390fd5b610927610dd6565b806001600160a01b03163b5f03610e3857604051634c9c8ce360e01b81526001600160a01b0382166004820152602401610321565b5f8051602061117783398151915280546001600160a01b0319166001600160a01b0392909216919091179055565b60605f610e738484610f3e565b9050808015610e9457505f3d1180610e9457505f846001600160a01b03163b115b15610ea957610ea1610f51565b915050610bf9565b8015610ed357604051639996b31560e01b81526001600160a01b0385166004820152602401610321565b3d15610ee657610ee1610f6a565b610eff565b60405163d6bda27560e01b815260040160405180910390fd5b5092915050565b34156104075760405163b398979f60e01b815260040160405180910390fd5b5f610f2e610bd5565b54600160401b900460ff16919050565b5f805f835160208501865af49392505050565b6040513d81523d5f602083013e3d602001810160405290565b6040513d5f823e3d81fd5b6001600160a01b03811681146102bd575f80fd5b5f8060408385031215610f9a575f80fd5b8235610fa581610f75565b946020939093013593505050565b5f60208284031215610fc3575f80fd5b8135610fce81610f75565b9392505050565b634e487b7160e01b5f52604160045260245ffd5b5f8060408385031215610ffa575f80fd5b823561100581610f75565b9150602083013567ffffffffffffffff80821115611021575f80fd5b818501915085601f830112611034575f80fd5b81358181111561104657611046610fd5565b604051601f8201601f19908116603f0116810190838211818310171561106e5761106e610fd5565b81604052828152886020848701011115611086575f80fd5b826020860160208301375f6020848301015280955050505050509250929050565b5f805f606084860312156110b9575f80fd5b83356110c481610f75565b95602085013595506040909401359392505050565b5f602080835283518060208501525f5b81811015611105578581018301518582016040015282016110e9565b505f604082860101526040601f19601f8301168501019250505092915050565b5f60208284031215611135575f80fd5b8151610fce81610f75565b5f60208284031215611150575f80fd5b81518015158114610fce575f80fd5b5f6020828403121561116f575f80fd5b505191905056fe360894a13ba1a3210667c828492db98dca3e2076cc3735a920a3ca505d382bbca2646970667358221220d3595a28585c03cdf20568de04316ada3e755ed11f6d7b427d4661db917db26a64736f6c63430008180033","linkReferences":{}},"methodIdentifiers":{"UPGRADE_INTERFACE_VERSION()":"ad3cb1cc","buyNFT(address,uint256)":"a82ba76f","initialize()":"8129fc1c","listNFT(address,uint256,uint256)":"ad05f1b4","listings(address,uint256)":"0007df30","owner()":"8da5cb5b","proxiableUUID()":"52d1902d","removeNFT(address,uint256)":"49fd566b","renounceOwnership()":"715018a6","transferOwnership(address)":"f2fde38b","upgradeTo(address)":"3659cfe6","upgradeToAndCall(address,bytes)":"4f1ef286"},"id":80}