{"abi":[{"type":"constructor","inputs":[{"name":"initialOwner","type":"address","internalType":"address"},{"name":"_kkToken","type":"address","internalType":"address"}],"stateMutability":"nonpayable"},{"type":"receive","stateMutability":"payable"},{"type":"function","name":"REWARD_PER_BLOCK","inputs":[],"outputs":[{"name":"","type":"uint256","internalType":"uint256"}],"stateMutability":"view"},{"type":"function","name":"accKkPerShare","inputs":[],"outputs":[{"name":"","type":"uint256","internalType":"uint256"}],"stateMutability":"view"},{"type":"function","name":"balanceOf","inputs":[{"name":"account","type":"address","internalType":"address"}],"outputs":[{"name":"","type":"uint256","internalType":"uint256"}],"stateMutability":"view"},{"type":"function","name":"claim","inputs":[],"outputs":[],"stateMutability":"nonpayable"},{"type":"function","name":"earned","inputs":[{"name":"account","type":"address","internalType":"address"}],"outputs":[{"name":"","type":"uint256","internalType":"uint256"}],"stateMutability":"view"},{"type":"function","name":"kkToken","inputs":[],"outputs":[{"name":"","type":"address","internalType":"contract KKToken"}],"stateMutability":"view"},{"type":"function","name":"lastRewardBlock","inputs":[],"outputs":[{"name":"","type":"uint256","internalType":"uint256"}],"stateMutability":"view"},{"type":"function","name":"owner","inputs":[],"outputs":[{"name":"","type":"address","internalType":"address"}],"stateMutability":"view"},{"type":"function","name":"renounceOwnership","inputs":[],"outputs":[],"stateMutability":"nonpayable"},{"type":"function","name":"stake","inputs":[],"outputs":[],"stateMutability":"payable"},{"type":"function","name":"totalStaked","inputs":[],"outputs":[{"name":"","type":"uint256","internalType":"uint256"}],"stateMutability":"view"},{"type":"function","name":"transferOwnership","inputs":[{"name":"newOwner","type":"address","internalType":"address"}],"outputs":[],"stateMutability":"nonpayable"},{"type":"function","name":"unstake","inputs":[{"name":"amount","type":"uint256","internalType":"uint256"}],"outputs":[],"stateMutability":"nonpayable"},{"type":"function","name":"updatePool","inputs":[],"outputs":[],"stateMutability":"nonpayable"},{"type":"function","name":"userInfo","inputs":[{"name":"","type":"address","internalType":"address"}],"outputs":[{"name":"amount","type":"uint256","internalType":"uint256"},{"name":"rewardDebt","type":"uint256","internalType":"uint256"}],"stateMutability":"view"},{"type":"event","name":"Claimed","inputs":[{"name":"user","type":"address","indexed":true,"internalType":"address"},{"name":"amount","type":"uint256","indexed":false,"internalType":"uint256"}],"anonymous":false},{"type":"event","name":"OwnershipTransferred","inputs":[{"name":"previousOwner","type":"address","indexed":true,"internalType":"address"},{"name":"newOwner","type":"address","indexed":true,"internalType":"address"}],"anonymous":false},{"type":"event","name":"Staked","inputs":[{"name":"user","type":"address","indexed":true,"internalType":"address"},{"name":"amount","type":"uint256","indexed":false,"internalType":"uint256"}],"anonymous":false},{"type":"event","name":"Unstaked","inputs":[{"name":"user","type":"address","indexed":true,"internalType":"address"},{"name":"amount","type":"uint256","indexed":false,"internalType":"uint256"}],"anonymous":false},{"type":"error","name":"OwnableInvalidOwner","inputs":[{"name":"owner","type":"address","internalType":"address"}]},{"type":"error","name":"OwnableUnauthorizedAccount","inputs":[{"name":"account","type":"address","internalType":"address"}]}],"bytecode":{"object":"0x608060405234801561000f575f80fd5b50604051610bd9380380610bd983398101604081905261002e916100fa565b816001600160a01b03811661005c57604051631e4fbdf760e01b81525f600482015260240160405180910390fd5b61006581610090565b50600180546001600160a01b0319166001600160a01b0392909216919091179055504360025561012b565b5f80546001600160a01b038381166001600160a01b0319831681178455604051919092169283917f8be0079c531659141344cd1fd0a4f28419497f9722a3daafe3b4186f6b6457e09190a35050565b80516001600160a01b03811681146100f5575f80fd5b919050565b5f806040838503121561010b575f80fd5b610114836100df565b9150610122602084016100df565b90509250929050565b610aa1806101385f395ff3fe6080604052600436106100e6575f3560e01c8063715018a611610087578063975532dc11610057578063975532dc14610272578063a9f8d1811461028d578063e3161ddd146102a2578063f2fde38b146102b6575f80fd5b8063715018a6146101f6578063817b1cd21461020a57806386d1ff3b1461021f5780638da5cb5b14610256575f80fd5b80633a4b66f1116100c25780633a4b66f1146101915780634e71d92d1461019957806352fd7458146101ad57806370a08231146101c2575f80fd5b80628cc262146100f95780631959a0021461012b5780632e17de7814610172575f80fd5b366100f5576100f36102d5565b005b5f80fd5b348015610104575f80fd5b506101186101133660046109b1565b6104a9565b6040519081526020015b60405180910390f35b348015610136575f80fd5b5061015d6101453660046109b1565b60056020525f90815260409020805460019091015482565b60408051928352602083019190915201610122565b34801561017d575f80fd5b506100f361018c3660046109de565b610567565b6100f36102d5565b3480156101a4575f80fd5b506100f361075b565b3480156101b8575f80fd5b5061011860035481565b3480156101cd575f80fd5b506101186101dc3660046109b1565b6001600160a01b03165f9081526005602052604090205490565b348015610201575f80fd5b506100f3610869565b348015610215575f80fd5b5061011860045481565b34801561022a575f80fd5b5060015461023e906001600160a01b031681565b6040516001600160a01b039091168152602001610122565b348015610261575f80fd5b505f546001600160a01b031661023e565b34801561027d575f80fd5b50610118678ac7230489e8000081565b348015610298575f80fd5b5061011860025481565b3480156102ad575f80fd5b506100f361087c565b3480156102c1575f80fd5b506100f36102d03660046109b1565b6108f9565b6102dd61087c565b34806103305760405162461bcd60e51b815260206004820152601d60248201527f416d6f756e74206d7573742062652067726561746572207468616e203000000060448201526064015b60405180910390fd5b335f908152600560205260409020805415610418575f8160010154670de0b6b3a7640000600354845f01546103659190610a09565b61036f9190610a26565b6103799190610a45565b90508015610416576001546040516340c10f1960e01b8152336004820152602481018390526001600160a01b03909116906340c10f19906044015f604051808303815f87803b1580156103ca575f80fd5b505af11580156103dc573d5f803e3d5ffd5b50506040518381523392507fd8138f8a3f377c5259ca548e70e4c2de94f129f5a11036a15b69513cba2b426a915060200160405180910390a25b505b81815f015f82825461042a9190610a58565b90915550506003548154670de0b6b3a76400009161044791610a09565b6104519190610a26565b81600101819055508160045f82825461046a9190610a58565b909155505060405182815233907f9e71bc8eea02a63969f509818f2dafb9254532904319f9dbda79b67bd34a5f3d906020015b60405180910390a25050565b6001600160a01b0381165f908152600560205260408120600354600254431180156104d557505f600454115b1561052f575f600254436104e99190610a45565b90505f6104fe678ac7230489e8000083610a09565b60045490915061051682670de0b6b3a7640000610a09565b6105209190610a26565b61052a9084610a58565b925050505b60018201548254670de0b6b3a76400009061054b908490610a09565b6105559190610a26565b61055f9190610a45565b949350505050565b61056f61087c565b335f90815260056020526040902080548211156105ce5760405162461bcd60e51b815260206004820152601a60248201527f496e73756666696369656e74207374616b656420616d6f756e740000000000006044820152606401610327565b5f8160010154670de0b6b3a7640000600354845f01546105ee9190610a09565b6105f89190610a26565b6106029190610a45565b9050801561069f576001546040516340c10f1960e01b8152336004820152602481018390526001600160a01b03909116906340c10f19906044015f604051808303815f87803b158015610653575f80fd5b505af1158015610665573d5f803e3d5ffd5b50506040518381523392507fd8138f8a3f377c5259ca548e70e4c2de94f129f5a11036a15b69513cba2b426a915060200160405180910390a25b82825f015f8282546106b19190610a45565b90915550506003548254670de0b6b3a7640000916106ce91610a09565b6106d89190610a26565b82600101819055508260045f8282546106f19190610a45565b9091555050604051339084156108fc029085905f818181858888f19350505050158015610720573d5f803e3d5ffd5b5060405183815233907f0f5bb82176feb1b5e747e28471aa92156a04d9f3ab9f45f28e2d704232b93f759060200160405180910390a2505050565b61076361087c565b335f90815260056020526040812060018101546003548254929392670de0b6b3a76400009161079191610a09565b61079b9190610a26565b6107a59190610a45565b90508015610865576001546040516340c10f1960e01b8152336004820152602481018390526001600160a01b03909116906340c10f19906044015f604051808303815f87803b1580156107f6575f80fd5b505af1158015610808573d5f803e3d5ffd5b50506003548454670de0b6b3a764000093506108249250610a09565b61082e9190610a26565b600183015560405181815233907fd8138f8a3f377c5259ca548e70e4c2de94f129f5a11036a15b69513cba2b426a9060200161049d565b5050565b610871610936565b61087a5f610962565b565b600254431161088757565b6004545f036108965743600255565b5f600254436108a59190610a45565b90505f6108ba678ac7230489e8000083610a09565b6004549091506108d282670de0b6b3a7640000610a09565b6108dc9190610a26565b60035f8282546108ec9190610a58565b9091555050436002555050565b610901610936565b6001600160a01b03811661092a57604051631e4fbdf760e01b81525f6004820152602401610327565b61093381610962565b50565b5f546001600160a01b0316331461087a5760405163118cdaa760e01b8152336004820152602401610327565b5f80546001600160a01b038381166001600160a01b0319831681178455604051919092169283917f8be0079c531659141344cd1fd0a4f28419497f9722a3daafe3b4186f6b6457e09190a35050565b5f602082840312156109c1575f80fd5b81356001600160a01b03811681146109d7575f80fd5b9392505050565b5f602082840312156109ee575f80fd5b5035919050565b634e487b7160e01b5f52601160045260245ffd5b8082028115828204841417610a2057610a206109f5565b92915050565b5f82610a4057634e487b7160e01b5f52601260045260245ffd5b500490565b81810381811115610a2057610a206109f5565b80820180821115610a2057610a206109f556fea2646970667358221220f9e3079b94e86981b629c5ae314997484e24c8d2e4ccdbfcc3e76fa20954884164736f6c63430008180033","linkReferences":{}},"methodIdentifiers":{"REWARD_PER_BLOCK()":"975532dc","accKkPerShare()":"52fd7458","balanceOf(address)":"70a08231","claim()":"4e71d92d","earned(address)":"008cc262","kkToken()":"86d1ff3b","lastRewardBlock()":"a9f8d181","owner()":"8da5cb5b","renounceOwnership()":"715018a6","stake()":"3a4b66f1","totalStaked()":"817b1cd2","transferOwnership(address)":"f2fde38b","unstake(uint256)":"2e17de78","updatePool()":"e3161ddd","userInfo(address)":"1959a002"},"id":26}