{"abi":[{"type":"constructor","inputs":[{"name":"_paymentToken","type":"address","internalType":"address"},{"name":"_nftContract","type":"address","internalType":"address"},{"name":"_nftPrice","type":"uint256","internalType":"uint256"},{"name":"_merkleRoot","type":"bytes32","internalType":"bytes32"}],"stateMutability":"nonpayable"},{"type":"function","name":"DISCOUNT","inputs":[],"outputs":[{"name":"","type":"uint256","internalType":"uint256"}],"stateMutability":"view"},{"type":"function","name":"DISCOUNT_DIVISOR","inputs":[],"outputs":[{"name":"","type":"uint256","internalType":"uint256"}],"stateMutability":"view"},{"type":"function","name":"activeListings","inputs":[{"name":"","type":"uint256","internalType":"uint256"}],"outputs":[{"name":"","type":"uint256","internalType":"uint256"}],"stateMutability":"view"},{"type":"function","name":"batchClaimNFT","inputs":[{"name":"tokenIds","type":"uint256[]","internalType":"uint256[]"},{"name":"proofs","type":"bytes32[][]","internalType":"bytes32[][]"},{"name":"isWhitelisted","type":"bool","internalType":"bool"}],"outputs":[],"stateMutability":"nonpayable"},{"type":"function","name":"calculatePrice","inputs":[{"name":"isWhitelisted","type":"bool","internalType":"bool"}],"outputs":[{"name":"","type":"uint256","internalType":"uint256"}],"stateMutability":"view"},{"type":"function","name":"claimNFT","inputs":[{"name":"tokenId","type":"uint256","internalType":"uint256"},{"name":"proof","type":"bytes32[]","internalType":"bytes32[]"},{"name":"isWhitelisted","type":"bool","internalType":"bool"}],"outputs":[],"stateMutability":"nonpayable"},{"type":"function","name":"getActiveListing","inputs":[{"name":"index","type":"uint256","internalType":"uint256"}],"outputs":[{"name":"","type":"uint256","internalType":"uint256"}],"stateMutability":"view"},{"type":"function","name":"getActiveListingsCount","inputs":[],"outputs":[{"name":"","type":"uint256","internalType":"uint256"}],"stateMutability":"view"},{"type":"function","name":"getNFTListing","inputs":[{"name":"tokenId","type":"uint256","internalType":"uint256"}],"outputs":[{"name":"","type":"tuple","internalType":"struct AirdropMerkleNFTMarket.NFTListing","components":[{"name":"tokenId","type":"uint256","internalType":"uint256"},{"name":"price","type":"uint256","internalType":"uint256"},{"name":"active","type":"bool","internalType":"bool"}]}],"stateMutability":"view"},{"type":"function","name":"hasClaimed","inputs":[{"name":"","type":"address","internalType":"address"}],"outputs":[{"name":"","type":"bool","internalType":"bool"}],"stateMutability":"view"},{"type":"function","name":"listNFT","inputs":[{"name":"tokenId","type":"uint256","internalType":"uint256"},{"name":"price","type":"uint256","internalType":"uint256"}],"outputs":[],"stateMutability":"nonpayable"},{"type":"function","name":"listNFTWhitelist","inputs":[{"name":"tokenId","type":"uint256","internalType":"uint256"},{"name":"price","type":"uint256","internalType":"uint256"},{"name":"isWhitelisted","type":"bool","internalType":"bool"}],"outputs":[],"stateMutability":"nonpayable"},{"type":"function","name":"listings","inputs":[{"name":"","type":"uint256","internalType":"uint256"}],"outputs":[{"name":"tokenId","type":"uint256","internalType":"uint256"},{"name":"price","type":"uint256","internalType":"uint256"},{"name":"active","type":"bool","internalType":"bool"}],"stateMutability":"view"},{"type":"function","name":"merkleRoot","inputs":[],"outputs":[{"name":"","type":"bytes32","internalType":"bytes32"}],"stateMutability":"view"},{"type":"function","name":"nftContract","inputs":[],"outputs":[{"name":"","type":"address","internalType":"contract SimpleNFT"}],"stateMutability":"view"},{"type":"function","name":"nftPrice","inputs":[],"outputs":[{"name":"","type":"uint256","internalType":"uint256"}],"stateMutability":"view"},{"type":"function","name":"paymentToken","inputs":[],"outputs":[{"name":"","type":"address","internalType":"contract SimpleToken"}],"stateMutability":"view"},{"type":"function","name":"permitPrePay","inputs":[{"name":"owner","type":"address","internalType":"address"},{"name":"spender","type":"address","internalType":"address"},{"name":"value","type":"uint256","internalType":"uint256"},{"name":"deadline","type":"uint256","internalType":"uint256"},{"name":"v","type":"uint8","internalType":"uint8"},{"name":"r","type":"bytes32","internalType":"bytes32"},{"name":"s","type":"bytes32","internalType":"bytes32"}],"outputs":[],"stateMutability":"nonpayable"},{"type":"function","name":"permitToken","inputs":[],"outputs":[{"name":"","type":"address","internalType":"contract SimpleToken"}],"stateMutability":"view"},{"type":"function","name":"updateMerkleRoot","inputs":[{"name":"_merkleRoot","type":"bytes32","internalType":"bytes32"}],"outputs":[],"stateMutability":"nonpayable"},{"type":"function","name":"updateNFTPrice","inputs":[{"name":"_nftPrice","type":"uint256","internalType":"uint256"}],"outputs":[],"stateMutability":"nonpayable"},{"type":"function","name":"usedPermitSignatures","inputs":[{"name":"","type":"bytes32","internalType":"bytes32"}],"outputs":[{"name":"","type":"bool","internalType":"bool"}],"stateMutability":"view"},{"type":"function","name":"verifyWhitelist","inputs":[{"name":"proof","type":"bytes32[]","internalType":"bytes32[]"}],"outputs":[{"name":"","type":"bool","internalType":"bool"}],"stateMutability":"view"},{"type":"function","name":"withdrawNFT","inputs":[{"name":"tokenId","type":"uint256","internalType":"uint256"}],"outputs":[],"stateMutability":"nonpayable"},{"type":"function","name":"withdrawTokens","inputs":[{"name":"token","type":"address","internalType":"address"},{"name":"amount","type":"uint256","internalType":"uint256"}],"outputs":[],"stateMutability":"nonpayable"},{"type":"event","name":"MerkleRootUpdated","inputs":[{"name":"newRoot","type":"bytes32","indexed":false,"internalType":"bytes32"}],"anonymous":false},{"type":"event","name":"NFTListed","inputs":[{"name":"tokenId","type":"uint256","indexed":true,"internalType":"uint256"},{"name":"price","type":"uint256","indexed":false,"internalType":"uint256"},{"name":"whitelisted","type":"bool","indexed":false,"internalType":"bool"}],"anonymous":false},{"type":"event","name":"NFTPurchased","inputs":[{"name":"tokenId","type":"uint256","indexed":true,"internalType":"uint256"},{"name":"buyer","type":"address","indexed":true,"internalType":"address"},{"name":"paidAmount","type":"uint256","indexed":false,"internalType":"uint256"},{"name":"usedDiscount","type":"bool","indexed":false,"internalType":"bool"}],"anonymous":false},{"type":"event","name":"PermitUsed","inputs":[{"name":"permitHash","type":"bytes32","indexed":true,"internalType":"bytes32"}],"anonymous":false}],"bytecode":{"object":"0x608060405234801562000010575f80fd5b50604051620014ce380380620014ce83398101604081905262000033916200014e565b6001600160a01b0384166200008f5760405162461bcd60e51b815260206004820152601d60248201527f496e76616c6964207061796d656e7420746f6b656e206164647265737300000060448201526064015b60405180910390fd5b6001600160a01b038316620000e75760405162461bcd60e51b815260206004820152601c60248201527f496e76616c6964204e465420636f6e7472616374206164647265737300000000604482015260640162000086565b5f80546001600160a01b039586166001600160a01b03199182168117909255600180548216909217909155600280549490951693169290921790925560049190915560035562000193565b80516001600160a01b038116811462000149575f80fd5b919050565b5f805f806080858703121562000162575f80fd5b6200016d8562000132565b93506200017d6020860162000132565b6040860151606090960151949790965092505050565b61132d80620001a15f395ff3fe608060405234801561000f575f80fd5b506004361061016d575f3560e01c8063466f4c26116100d95780637c1710ff11610093578063b0d6af161161006e578063b0d6af1614610349578063d56d229d1461035c578063de74e57b1461036f578063e34bf0c5146103bd575f80fd5b80637c1710ff14610310578063898700af1461032357806394383f1414610336575f80fd5b8063466f4c26146102965780634783f0ef146102b857806361cf4863146102cb578063656f8a25146102de57806373b2e80e146102e65780637b55927c14610308575f80fd5b806316b76df51161012a57806316b76df514610207578063182b4b5e1461022a57806321277c961461023d57806325f69942146102505780632eb4a7ab146102635780633013ce291461026c575f80fd5b8063023245d71461017157806306b091f9146101865780630d37b457146101995780630d39fc81146101b45780630ea59c4b146101bd5780631030f05f146101f4575b5f80fd5b61018461017f366004610f29565b6103d0565b005b610184610194366004610f57565b610438565b6101a1603281565b6040519081526020015b60405180910390f35b6101a160045481565b6101d06101cb366004610f29565b6104ab565b604080518251815260208084015190820152918101511515908201526060016101ab565b6101a1610202366004610f29565b61050b565b61021a610215366004610fc9565b61057c565b60405190151581526020016101ab565b610184610238366004611015565b6105ce565b6101a161024b366004611093565b610680565b61018461025e3660046110b5565b6106b3565b6101a160035481565b5f5461027e906001600160a01b031681565b6040516001600160a01b0390911681526020016101ab565b61021a6102a4366004610f29565b60066020525f908152604090205460ff1681565b6101846102c6366004610f29565b6107f8565b6101a16102d9366004610f29565b610833565b6101a1606481565b61021a6102f4366004611126565b60056020525f908152604090205460ff1681565b6008546101a1565b61018461031e366004611141565b610852565b60015461027e906001600160a01b031681565b61018461034436600461119c565b610864565b610184610357366004610f29565b600455565b60025461027e906001600160a01b031681565b6103a061037d366004610f29565b60076020525f908152604090208054600182015460029092015490919060ff1683565b6040805193845260208401929092521515908201526060016101ab565b6101846103cb3660046111bc565b610a27565b600254604051632142170760e11b8152306004820152336024820152604481018390526001600160a01b03909116906342842e0e906064015f604051808303815f87803b15801561041f575f80fd5b505af1158015610431573d5f803e3d5ffd5b5050505050565b60405163a9059cbb60e01b8152336004820152602481018290526001600160a01b0383169063a9059cbb906044016020604051808303815f875af1158015610482573d5f803e3d5ffd5b505050506040513d601f19601f820116820180604052508101906104a691906111f2565b505050565b6104ce60405180606001604052805f81526020015f81526020015f151581525090565b505f908152600760209081526040918290208251606081018452815481526001820154928101929092526002015460ff1615159181019190915290565b6008545f9082106105595760405162461bcd60e51b8152602060048201526013602482015272496e646578206f7574206f6620626f756e647360681b60448201526064015b60405180910390fd5b6008828154811061056c5761056c61120d565b905f5260205f2001549050919050565b6040516bffffffffffffffffffffffff193360601b1660208201525f9081906034016040516020818303038152906040528051906020012090506105c4848460035484610bee565b9150505b92915050565b8382146106165760405162461bcd60e51b8152602060048201526016602482015275082e4e4c2f2e640d8cadccee8d040dad2e6dac2e8c6d60531b6044820152606401610550565b5f5b84811015610678576106668686838181106106355761063561120d565b9050602002013585858481811061064e5761064e61120d565b90506020028101906106609190611221565b85610c9a565b806106708161127b565b915050610618565b505050505050565b5f81156106ab576064610694603282611293565b6004546106a191906112a6565b6105c891906112bd565b505060045490565b60015460405163d505accf60e01b81526001600160a01b0389811660048301528881166024830152604482018890526064820187905260ff8616608483015260a4820185905260c482018490529091169063d505accf9060e4015f604051808303815f87803b158015610724575f80fd5b505af1158015610736573d5f803e3d5ffd5b50506040516bffffffffffffffffffffffff1960608b811b821660208401528a901b16603482015260488101889052606881018790526001600160f81b031960f887901b1660888201526089810185905260a981018490525f925060c901905060408051601f1981840301815282825280516020918201205f8181526006909252918120805460ff1916600117905590925082917f884dc78e49ae0a35ccef660d03d5f2fe8cf94dda96a672be6d499bbc934e392c9190a25050505050505050565b60038190556040518181527f90004c04698bc3322499a575ed3752dd4abf33e0a7294c06a787a0fe01bea9419060200160405180910390a150565b60088181548110610842575f80fd5b5f91825260209091200154905081565b61085e84848484610c9a565b50505050565b6002546040516331a9108f60e11b81526004810184905230916001600160a01b031690636352211e90602401602060405180830381865afa1580156108ab573d5f803e3d5ffd5b505050506040513d601f19601f820116820180604052508101906108cf91906112dc565b6001600160a01b0316146109215760405162461bcd60e51b8152602060048201526019602482015278139195081b9bdd081bdddb995908189e4818dbdb9d1c9858dd603a1b6044820152606401610550565b5f81116109705760405162461bcd60e51b815260206004820152601c60248201527f5072696365206d7573742062652067726561746572207468616e2030000000006044820152606401610550565b60408051606081018252838152602080820184815260018385018181525f8881526007855286812095518655925185830155516002909401805460ff19169415159490941790935560088054938401815581527ff3f7a9fe364faab93b216da50a3214154f22a0a2b415b23a84c8169e8b636ee390920185905582518481529081019190915283917f162ec0e3c08aa95adfe865dd7edc3609c1fb09c69fe3547a02e7e8dcc2681d54910160405180910390a25050565b6002546040516331a9108f60e11b81526004810185905230916001600160a01b031690636352211e90602401602060405180830381865afa158015610a6e573d5f803e3d5ffd5b505050506040513d601f19601f82011682018060405250810190610a9291906112dc565b6001600160a01b031614610ae45760405162461bcd60e51b8152602060048201526019602482015278139195081b9bdd081bdddb995908189e4818dbdb9d1c9858dd603a1b6044820152606401610550565b5f8211610b335760405162461bcd60e51b815260206004820152601c60248201527f5072696365206d7573742062652067726561746572207468616e2030000000006044820152606401610550565b60408051606081018252848152602080820185815260018385018181525f8981526007855286812095518655925185830155516002909401805460ff19169415159490941790935560088054938401815590527ff3f7a9fe364faab93b216da50a3214154f22a0a2b415b23a84c8169e8b636ee390910185905581518481528315159181019190915284917f162ec0e3c08aa95adfe865dd7edc3609c1fb09c69fe3547a02e7e8dcc2681d54910160405180910390a2505050565b5f81815b85811015610c8e575f878783818110610c0d57610c0d61120d565b905060200201359050808311610c4e576040805160208101859052908101829052606001604051602081830303815290604052805190602001209250610c7b565b60408051602081018390529081018490526060016040516020818303038152906040528051906020012092505b5080610c868161127b565b915050610bf2565b50909214949350505050565b5f8481526007602052604090206002015460ff16610ceb5760405162461bcd60e51b815260206004820152600e60248201526d139195081b9bdd081b1a5cdd195960921b6044820152606401610550565b335f9081526005602052604090205460ff1615610d3c5760405162461bcd60e51b815260206004820152600f60248201526e105b1c9958591e4818db185a5b5959608a1b6044820152606401610550565b8015610d8b57610d4c838361057c565b610d8b5760405162461bcd60e51b815260206004820152601060248201526f139bdd081a5b881dda1a5d195b1a5cdd60821b6044820152606401610550565b5f610d9582610680565b5f546040516323b872dd60e01b8152336004820152306024820152604481018390529192506001600160a01b0316906323b872dd906064016020604051808303815f875af1158015610de9573d5f803e3d5ffd5b505050506040513d601f19601f82011682018060405250810190610e0d91906111f2565b610e4a5760405162461bcd60e51b815260206004820152600e60248201526d14185e5b595b9d0819985a5b195960921b6044820152606401610550565b600254604051632142170760e11b8152306004820152336024820152604481018790526001600160a01b03909116906342842e0e906064015f604051808303815f87803b158015610e99575f80fd5b505af1158015610eab573d5f803e3d5ffd5b5050335f8181526005602090815260408083208054600160ff19918216179091558b8452600783529281902060020180549093169092558151868152871515918101919091529193508892507f79277b2ba2983fe2a5a300b591bc4ba54643ff0d6b31c1ba900e4b79b92a473e910160405180910390a35050505050565b5f60208284031215610f39575f80fd5b5035919050565b6001600160a01b0381168114610f54575f80fd5b50565b5f8060408385031215610f68575f80fd5b8235610f7381610f40565b946020939093013593505050565b5f8083601f840112610f91575f80fd5b50813567ffffffffffffffff811115610fa8575f80fd5b6020830191508360208260051b8501011115610fc2575f80fd5b9250929050565b5f8060208385031215610fda575f80fd5b823567ffffffffffffffff811115610ff0575f80fd5b610ffc85828601610f81565b90969095509350505050565b8015158114610f54575f80fd5b5f805f805f60608688031215611029575f80fd5b853567ffffffffffffffff80821115611040575f80fd5b61104c89838a01610f81565b90975095506020880135915080821115611064575f80fd5b5061107188828901610f81565b909450925050604086013561108581611008565b809150509295509295909350565b5f602082840312156110a3575f80fd5b81356110ae81611008565b9392505050565b5f805f805f805f60e0888a0312156110cb575f80fd5b87356110d681610f40565b965060208801356110e681610f40565b95506040880135945060608801359350608088013560ff81168114611109575f80fd5b9699959850939692959460a0840135945060c09093013592915050565b5f60208284031215611136575f80fd5b81356110ae81610f40565b5f805f8060608587031215611154575f80fd5b84359350602085013567ffffffffffffffff811115611171575f80fd5b61117d87828801610f81565b909450925050604085013561119181611008565b939692955090935050565b5f80604083850312156111ad575f80fd5b50508035926020909101359150565b5f805f606084860312156111ce575f80fd5b833592506020840135915060408401356111e781611008565b809150509250925092565b5f60208284031215611202575f80fd5b81516110ae81611008565b634e487b7160e01b5f52603260045260245ffd5b5f808335601e19843603018112611236575f80fd5b83018035915067ffffffffffffffff821115611250575f80fd5b6020019150600581901b3603821315610fc2575f80fd5b634e487b7160e01b5f52601160045260245ffd5b5f6001820161128c5761128c611267565b5060010190565b818103818111156105c8576105c8611267565b80820281158282048414176105c8576105c8611267565b5f826112d757634e487b7160e01b5f52601260045260245ffd5b500490565b5f602082840312156112ec575f80fd5b81516110ae81610f4056fea2646970667358221220ddb515758f05bb7bcd2671c56dfe00b085dae31b4bdb436e9594182f94c845a264736f6c63430008140033","linkReferences":{}},"methodIdentifiers":{"DISCOUNT()":"0d37b457","DISCOUNT_DIVISOR()":"656f8a25","activeListings(uint256)":"61cf4863","batchClaimNFT(uint256[],bytes32[][],bool)":"182b4b5e","calculatePrice(bool)":"21277c96","claimNFT(uint256,bytes32[],bool)":"7c1710ff","getActiveListing(uint256)":"1030f05f","getActiveListingsCount()":"7b55927c","getNFTListing(uint256)":"0ea59c4b","hasClaimed(address)":"73b2e80e","listNFT(uint256,uint256)":"94383f14","listNFTWhitelist(uint256,uint256,bool)":"e34bf0c5","listings(uint256)":"de74e57b","merkleRoot()":"2eb4a7ab","nftContract()":"d56d229d","nftPrice()":"0d39fc81","paymentToken()":"3013ce29","permitPrePay(address,address,uint256,uint256,uint8,bytes32,bytes32)":"25f69942","permitToken()":"898700af","updateMerkleRoot(bytes32)":"4783f0ef","updateNFTPrice(uint256)":"b0d6af16","usedPermitSignatures(bytes32)":"466f4c26","verifyWhitelist(bytes32[])":"16b76df5","withdrawNFT(uint256)":"023245d7","withdrawTokens(address,uint256)":"06b091f9"},"id":26}