{"abi":[{"type":"function","name":"allowance","inputs":[{"name":"owner","type":"address","internalType":"address"},{"name":"spender","type":"address","internalType":"address"}],"outputs":[{"name":"","type":"uint256","internalType":"uint256"}],"stateMutability":"view"},{"type":"function","name":"approve","inputs":[{"name":"spender","type":"address","internalType":"address"},{"name":"value","type":"uint256","internalType":"uint256"}],"outputs":[{"name":"","type":"bool","internalType":"bool"}],"stateMutability":"nonpayable"},{"type":"function","name":"balanceOf","inputs":[{"name":"account","type":"address","internalType":"address"}],"outputs":[{"name":"","type":"uint256","internalType":"uint256"}],"stateMutability":"view"},{"type":"function","name":"decimals","inputs":[],"outputs":[{"name":"","type":"uint8","internalType":"uint8"}],"stateMutability":"view"},{"type":"function","name":"initialize","inputs":[{"name":"name","type":"string","internalType":"string"},{"name":"symbol","type":"string","internalType":"string"},{"name":"initialSupply","type":"uint256","internalType":"uint256"}],"outputs":[],"stateMutability":"nonpayable"},{"type":"function","name":"name","inputs":[],"outputs":[{"name":"","type":"string","internalType":"string"}],"stateMutability":"view"},{"type":"function","name":"symbol","inputs":[],"outputs":[{"name":"","type":"string","internalType":"string"}],"stateMutability":"view"},{"type":"function","name":"totalSupply","inputs":[],"outputs":[{"name":"","type":"uint256","internalType":"uint256"}],"stateMutability":"view"},{"type":"function","name":"transfer","inputs":[{"name":"to","type":"address","internalType":"address"},{"name":"value","type":"uint256","internalType":"uint256"}],"outputs":[{"name":"","type":"bool","internalType":"bool"}],"stateMutability":"nonpayable"},{"type":"function","name":"transferFrom","inputs":[{"name":"from","type":"address","internalType":"address"},{"name":"to","type":"address","internalType":"address"},{"name":"value","type":"uint256","internalType":"uint256"}],"outputs":[{"name":"","type":"bool","internalType":"bool"}],"stateMutability":"nonpayable"},{"type":"event","name":"Approval","inputs":[{"name":"owner","type":"address","indexed":true,"internalType":"address"},{"name":"spender","type":"address","indexed":true,"internalType":"address"},{"name":"value","type":"uint256","indexed":false,"internalType":"uint256"}],"anonymous":false},{"type":"event","name":"Initialized","inputs":[{"name":"version","type":"uint64","indexed":false,"internalType":"uint64"}],"anonymous":false},{"type":"event","name":"Transfer","inputs":[{"name":"from","type":"address","indexed":true,"internalType":"address"},{"name":"to","type":"address","indexed":true,"internalType":"address"},{"name":"value","type":"uint256","indexed":false,"internalType":"uint256"}],"anonymous":false},{"type":"error","name":"ERC20InsufficientAllowance","inputs":[{"name":"spender","type":"address","internalType":"address"},{"name":"allowance","type":"uint256","internalType":"uint256"},{"name":"needed","type":"uint256","internalType":"uint256"}]},{"type":"error","name":"ERC20InsufficientBalance","inputs":[{"name":"sender","type":"address","internalType":"address"},{"name":"balance","type":"uint256","internalType":"uint256"},{"name":"needed","type":"uint256","internalType":"uint256"}]},{"type":"error","name":"ERC20InvalidApprover","inputs":[{"name":"approver","type":"address","internalType":"address"}]},{"type":"error","name":"ERC20InvalidReceiver","inputs":[{"name":"receiver","type":"address","internalType":"address"}]},{"type":"error","name":"ERC20InvalidSender","inputs":[{"name":"sender","type":"address","internalType":"address"}]},{"type":"error","name":"ERC20InvalidSpender","inputs":[{"name":"spender","type":"address","internalType":"address"}]},{"type":"error","name":"InvalidInitialization","inputs":[]},{"type":"error","name":"NotInitializing","inputs":[]}],"bytecode":{"object":"0x608060405234801561000f575f80fd5b50610c068061001d5f395ff3fe608060405234801561000f575f80fd5b506004361061009b575f3560e01c806370a082311161006357806370a082311461013357806395d89b4114610167578063a9059cbb1461016f578063b119490e14610182578063dd62ed3e14610197575f80fd5b806306fdde031461009f578063095ea7b3146100bd57806318160ddd146100e057806323b872dd14610111578063313ce56714610124575b5f80fd5b6100a76101aa565b6040516100b49190610837565b60405180910390f35b6100d06100cb36600461089e565b61026a565b60405190151581526020016100b4565b7f52c63247e1f47db19d5ce0460030c497f067ca4cebf71ba98eeadabe20bace02545b6040519081526020016100b4565b6100d061011f3660046108c6565b610283565b604051601281526020016100b4565b6101036101413660046108ff565b6001600160a01b03165f9081525f80516020610bb1833981519152602052604090205490565b6100a76102a6565b6100d061017d36600461089e565b6102e4565b6101956101903660046109bc565b6102f1565b005b6101036101a5366004610a24565b6103f7565b7f52c63247e1f47db19d5ce0460030c497f067ca4cebf71ba98eeadabe20bace0380546060915f80516020610bb1833981519152916101e890610a55565b80601f016020809104026020016040519081016040528092919081815260200182805461021490610a55565b801561025f5780601f106102365761010080835404028352916020019161025f565b820191905f5260205f20905b81548152906001019060200180831161024257829003601f168201915b505050505091505090565b5f33610277818585610440565b60019150505b92915050565b5f33610290858285610452565b61029b8585856104bb565b506001949350505050565b7f52c63247e1f47db19d5ce0460030c497f067ca4cebf71ba98eeadabe20bace0480546060915f80516020610bb1833981519152916101e890610a55565b5f336102778185856104bb565b5f6102fa610518565b805490915060ff600160401b820416159067ffffffffffffffff165f811580156103215750825b90505f8267ffffffffffffffff16600114801561033d5750303b155b90508115801561034b575080155b156103695760405163f92ee8a960e01b815260040160405180910390fd5b845467ffffffffffffffff19166001178555831561039357845460ff60401b1916600160401b1785555b61039d8888610540565b6103a73387610556565b83156103ed57845460ff60401b19168555604051600181527fc7f505b2f371ae2175ee4913f4499e1f2633a7b5936321eed1cdaeb6115181d29060200160405180910390a15b5050505050505050565b6001600160a01b039182165f9081527f52c63247e1f47db19d5ce0460030c497f067ca4cebf71ba98eeadabe20bace016020908152604080832093909416825291909152205490565b61044d838383600161058a565b505050565b5f61045d84846103f7565b90505f198110156104b557818110156104a757604051637dc7a0d960e11b81526001600160a01b038416600482015260248101829052604481018390526064015b60405180910390fd5b6104b584848484035f61058a565b50505050565b6001600160a01b0383166104e457604051634b637e8f60e11b81525f600482015260240161049e565b6001600160a01b03821661050d5760405163ec442f0560e01b81525f600482015260240161049e565b61044d83838361066e565b5f807ff0c57e16840df040f15088dc2f81fe391c3923bec73e23a9662efc9c229c6a0061027d565b6105486107a7565b61055282826107ce565b5050565b6001600160a01b03821661057f5760405163ec442f0560e01b81525f600482015260240161049e565b6105525f838361066e565b5f80516020610bb18339815191526001600160a01b0385166105c15760405163e602df0560e01b81525f600482015260240161049e565b6001600160a01b0384166105ea57604051634a1406b160e11b81525f600482015260240161049e565b6001600160a01b038086165f9081526001830160209081526040808320938816835292905220839055811561066757836001600160a01b0316856001600160a01b03167f8c5be1e5ebec7d5bd14f71427d1e84f3dd0314c0f7b2291e5b200ac8c7c3b9258560405161065e91815260200190565b60405180910390a35b5050505050565b5f80516020610bb18339815191526001600160a01b0384166106a85781816002015f82825461069d9190610a8d565b909155506107189050565b6001600160a01b0384165f90815260208290526040902054828110156106fa5760405163391434e360e21b81526001600160a01b0386166004820152602481018290526044810184905260640161049e565b6001600160a01b0385165f9081526020839052604090209083900390555b6001600160a01b038316610736576002810180548390039055610754565b6001600160a01b0383165f9081526020829052604090208054830190555b826001600160a01b0316846001600160a01b03167fddf252ad1be2c89b69c2b068fc378daa952ba7f163c4a11628f55a4df523b3ef8460405161079991815260200190565b60405180910390a350505050565b6107af61081e565b6107cc57604051631afcd79f60e31b815260040160405180910390fd5b565b6107d66107a7565b5f80516020610bb18339815191527f52c63247e1f47db19d5ce0460030c497f067ca4cebf71ba98eeadabe20bace0361080f8482610af0565b50600481016104b58382610af0565b5f610827610518565b54600160401b900460ff16919050565b5f602080835283518060208501525f5b8181101561086357858101830151858201604001528201610847565b505f604082860101526040601f19601f8301168501019250505092915050565b80356001600160a01b0381168114610899575f80fd5b919050565b5f80604083850312156108af575f80fd5b6108b883610883565b946020939093013593505050565b5f805f606084860312156108d8575f80fd5b6108e184610883565b92506108ef60208501610883565b9150604084013590509250925092565b5f6020828403121561090f575f80fd5b61091882610883565b9392505050565b634e487b7160e01b5f52604160045260245ffd5b5f82601f830112610942575f80fd5b813567ffffffffffffffff8082111561095d5761095d61091f565b604051601f8301601f19908116603f011681019082821181831017156109855761098561091f565b8160405283815286602085880101111561099d575f80fd5b836020870160208301375f602085830101528094505050505092915050565b5f805f606084860312156109ce575f80fd5b833567ffffffffffffffff808211156109e5575f80fd5b6109f187838801610933565b94506020860135915080821115610a06575f80fd5b50610a1386828701610933565b925050604084013590509250925092565b5f8060408385031215610a35575f80fd5b610a3e83610883565b9150610a4c60208401610883565b90509250929050565b600181811c90821680610a6957607f821691505b602082108103610a8757634e487b7160e01b5f52602260045260245ffd5b50919050565b8082018082111561027d57634e487b7160e01b5f52601160045260245ffd5b601f82111561044d57805f5260205f20601f840160051c81016020851015610ad15750805b601f840160051c820191505b81811015610667575f8155600101610add565b815167ffffffffffffffff811115610b0a57610b0a61091f565b610b1e81610b188454610a55565b84610aac565b602080601f831160018114610b51575f8415610b3a5750858301515b5f19600386901b1c1916600185901b178555610ba8565b5f85815260208120601f198616915b82811015610b7f57888601518255948401946001909101908401610b60565b5085821015610b9c57878501515f19600388901b60f8161c191681555b505060018460011b0185555b50505050505056fe52c63247e1f47db19d5ce0460030c497f067ca4cebf71ba98eeadabe20bace00a2646970667358221220df2bdec96741ba5cdb17d6e571f3ba1fdec790f022122f15e12d754278326eb464736f6c63430008180033","linkReferences":{}},"methodIdentifiers":{"allowance(address,address)":"dd62ed3e","approve(address,uint256)":"095ea7b3","balanceOf(address)":"70a08231","decimals()":"313ce567","initialize(string,string,uint256)":"b119490e","name()":"06fdde03","symbol()":"95d89b41","totalSupply()":"18160ddd","transfer(address,uint256)":"a9059cbb","transferFrom(address,address,uint256)":"23b872dd"},"id":71}