{"abi":[{"type":"constructor","inputs":[],"stateMutability":"nonpayable"},{"type":"receive","stateMutability":"payable"},{"type":"function","name":"allowance","inputs":[{"name":"","type":"address","internalType":"address"},{"name":"","type":"address","internalType":"address"}],"outputs":[{"name":"","type":"uint256","internalType":"uint256"}],"stateMutability":"view"},{"type":"function","name":"approve","inputs":[{"name":"spender","type":"address","internalType":"address"},{"name":"value","type":"uint256","internalType":"uint256"}],"outputs":[{"name":"","type":"bool","internalType":"bool"}],"stateMutability":"nonpayable"},{"type":"function","name":"balanceOf","inputs":[{"name":"","type":"address","internalType":"address"}],"outputs":[{"name":"","type":"uint256","internalType":"uint256"}],"stateMutability":"view"},{"type":"function","name":"burn","inputs":[],"outputs":[],"stateMutability":"nonpayable"},{"type":"function","name":"decimals","inputs":[],"outputs":[{"name":"","type":"uint8","internalType":"uint8"}],"stateMutability":"view"},{"type":"function","name":"ethReserve","inputs":[],"outputs":[{"name":"","type":"uint256","internalType":"uint256"}],"stateMutability":"view"},{"type":"function","name":"exercise","inputs":[{"name":"amount","type":"uint256","internalType":"uint256"}],"outputs":[],"stateMutability":"nonpayable"},{"type":"function","name":"expiryDate","inputs":[],"outputs":[{"name":"","type":"uint256","internalType":"uint256"}],"stateMutability":"view"},{"type":"function","name":"issuer","inputs":[],"outputs":[{"name":"","type":"address","internalType":"address"}],"stateMutability":"view"},{"type":"function","name":"mint","inputs":[],"outputs":[],"stateMutability":"payable"},{"type":"function","name":"name","inputs":[],"outputs":[{"name":"","type":"string","internalType":"string"}],"stateMutability":"view"},{"type":"function","name":"strikePrice","inputs":[],"outputs":[{"name":"","type":"uint256","internalType":"uint256"}],"stateMutability":"view"},{"type":"function","name":"symbol","inputs":[],"outputs":[{"name":"","type":"string","internalType":"string"}],"stateMutability":"view"},{"type":"function","name":"totalSupply","inputs":[],"outputs":[{"name":"","type":"uint256","internalType":"uint256"}],"stateMutability":"view"},{"type":"function","name":"transfer","inputs":[{"name":"to","type":"address","internalType":"address"},{"name":"value","type":"uint256","internalType":"uint256"}],"outputs":[{"name":"","type":"bool","internalType":"bool"}],"stateMutability":"nonpayable"},{"type":"function","name":"transferFrom","inputs":[{"name":"from","type":"address","internalType":"address"},{"name":"to","type":"address","internalType":"address"},{"name":"value","type":"uint256","internalType":"uint256"}],"outputs":[{"name":"","type":"bool","internalType":"bool"}],"stateMutability":"nonpayable"},{"type":"event","name":"Approval","inputs":[{"name":"owner","type":"address","indexed":true,"internalType":"address"},{"name":"spender","type":"address","indexed":true,"internalType":"address"},{"name":"value","type":"uint256","indexed":false,"internalType":"uint256"}],"anonymous":false},{"type":"event","name":"Transfer","inputs":[{"name":"from","type":"address","indexed":true,"internalType":"address"},{"name":"to","type":"address","indexed":true,"internalType":"address"},{"name":"value","type":"uint256","indexed":false,"internalType":"uint256"}],"anonymous":false}],"bytecode":{"object":"0x60c0604052600c60809081526b27b83a34b7b7102a37b5b2b760a11b60a0525f906200002c90826200013b565b5060408051808201909152600281526104f560f41b60208201526001906200005590826200013b565b506002805460ff19166012179055686194049f30f7200000600755636a1efe0060085534801562000084575f80fd5b50600680546001600160a01b0319163317905562000207565b634e487b7160e01b5f52604160045260245ffd5b600181811c90821680620000c657607f821691505b602082108103620000e557634e487b7160e01b5f52602260045260245ffd5b50919050565b601f8211156200013657805f5260205f20601f840160051c81016020851015620001125750805b601f840160051c820191505b8181101562000133575f81556001016200011e565b50505b505050565b81516001600160401b038111156200015757620001576200009d565b6200016f81620001688454620000b1565b84620000eb565b602080601f831160018114620001a5575f84156200018d5750858301515b5f19600386901b1c1916600185901b178555620001ff565b5f85815260208120601f198616915b82811015620001d557888601518255948401946001909101908401620001b4565b5085821015620001f357878501515f19600388901b60f8161c191681555b505060018460011b0185555b505050505050565b610c2480620002155f395ff3fe6080604052600436106100f2575f3560e01c8063516dde4311610087578063b07f0a4111610057578063b07f0a411461028b578063c52987cf146102aa578063d62ccb3f146102bf578063dd62ed3e146102d4575f80fd5b8063516dde431461021857806370a082311461022d57806395d89b4114610258578063a9059cbb1461026c575f80fd5b80631d143848116100c25780631d1438481461018357806323b872dd146101ba578063313ce567146101d957806344df8e7014610204575f80fd5b806306fdde03146100fd578063095ea7b3146101275780631249c58b1461015657806318160ddd14610160575f80fd5b366100f957005b5f80fd5b348015610108575f80fd5b5061011161030a565b60405161011e91906109b4565b60405180910390f35b348015610132575f80fd5b50610146610141366004610a1b565b610395565b604051901515815260200161011e565b61015e610401565b005b34801561016b575f80fd5b5061017560035481565b60405190815260200161011e565b34801561018e575f80fd5b506006546101a2906001600160a01b031681565b6040516001600160a01b03909116815260200161011e565b3480156101c5575f80fd5b506101466101d4366004610a43565b6104b0565b3480156101e4575f80fd5b506002546101f29060ff1681565b60405160ff909116815260200161011e565b34801561020f575f80fd5b5061015e61064e565b348015610223575f80fd5b5061017560085481565b348015610238575f80fd5b50610175610247366004610a7c565b60046020525f908152604090205481565b348015610263575f80fd5b5061011161075f565b348015610277575f80fd5b50610146610286366004610a1b565b61076c565b348015610296575f80fd5b5061015e6102a5366004610a9c565b61083a565b3480156102b5575f80fd5b5061017560075481565b3480156102ca575f80fd5b5061017560095481565b3480156102df575f80fd5b506101756102ee366004610ab3565b600560209081525f928352604080842090915290825290205481565b5f805461031690610ae4565b80601f016020809104026020016040519081016040528092919081815260200182805461034290610ae4565b801561038d5780601f106103645761010080835404028352916020019161038d565b820191905f5260205f20905b81548152906001019060200180831161037057829003601f168201915b505050505081565b335f8181526005602090815260408083206001600160a01b038716808552925280832085905551919290917f8c5be1e5ebec7d5bd14f71427d1e84f3dd0314c0f7b2291e5b200ac8c7c3b925906103ef9086815260200190565b60405180910390a35060015b92915050565b6006546001600160a01b031633146104345760405162461bcd60e51b815260040161042b90610b1c565b60405180910390fd5b5f3490508060035f8282546104499190610b72565b9091555050335f908152600460205260408120805483929061046c908490610b72565b925050819055508060095f8282546104849190610b72565b909155505060405181815233905f905f80516020610bcf8339815191529060200160405180910390a350565b6001600160a01b0383165f90815260056020908152604080832033845290915281205482111561051b5760405162461bcd60e51b8152602060048201526016602482015275496e73756666696369656e7420616c6c6f77616e636560501b604482015260640161042b565b6001600160a01b0384165f908152600460205260409020548211156105795760405162461bcd60e51b8152602060048201526014602482015273496e73756666696369656e742062616c616e636560601b604482015260640161042b565b6001600160a01b0384165f908152600560209081526040808320338452909152812080548492906105ab908490610b85565b90915550506001600160a01b0384165f90815260046020526040812080548492906105d7908490610b85565b90915550506001600160a01b0383165f9081526004602052604081208054849290610603908490610b72565b92505081905550826001600160a01b0316846001600160a01b03165f80516020610bcf8339815191528460405161063c91815260200190565b60405180910390a35060019392505050565b6006546001600160a01b031633146106785760405162461bcd60e51b815260040161042b90610b1c565b60085442116106c95760405162461bcd60e51b815260206004820152601a60248201527f43616e206f6e6c79206275726e20616674657220657870697279000000000000604482015260640161042b565b600380545f91829055600680546001600160a01b03908116845260046020526040808520859055915491519293929116905f80516020610bcf833981519152906107169085815260200190565b60405180910390a36006546009546040516001600160a01b039092169181156108fc0291905f818181858888f19350505050158015610757573d5f803e3d5ffd5b50505f600955565b6001805461031690610ae4565b335f908152600460205260408120548211156107c15760405162461bcd60e51b8152602060048201526014602482015273496e73756666696369656e742062616c616e636560601b604482015260640161042b565b335f90815260046020526040812080548492906107df908490610b85565b90915550506001600160a01b0383165f908152600460205260408120805484929061080b908490610b72565b90915550506040518281526001600160a01b0384169033905f80516020610bcf833981519152906020016103ef565b600854421461088b5760405162461bcd60e51b815260206004820181905260248201527f43616e206f6e6c79206578657263697365206f6e206578706972792064617465604482015260640161042b565b335f908152600460205260409020548111156108e95760405162461bcd60e51b815260206004820152601c60248201527f496e73756666696369656e74204f50546f6b656e2062616c616e636500000000604482015260640161042b565b5f670de0b6b3a7640000600754836109019190610b98565b61090b9190610baf565b335f9081526004602052604081208054929350849290919061092e908490610b85565b925050819055508160035f8282546109469190610b85565b90915550506040518281525f9033905f80516020610bcf8339815191529060200160405180910390a38160095f8282546109809190610b85565b9091555050604051339083156108fc029084905f818181858888f193505050501580156109af573d5f803e3d5ffd5b505050565b5f602080835283518060208501525f5b818110156109e0578581018301518582016040015282016109c4565b505f604082860101526040601f19601f8301168501019250505092915050565b80356001600160a01b0381168114610a16575f80fd5b919050565b5f8060408385031215610a2c575f80fd5b610a3583610a00565b946020939093013593505050565b5f805f60608486031215610a55575f80fd5b610a5e84610a00565b9250610a6c60208501610a00565b9150604084013590509250925092565b5f60208284031215610a8c575f80fd5b610a9582610a00565b9392505050565b5f60208284031215610aac575f80fd5b5035919050565b5f8060408385031215610ac4575f80fd5b610acd83610a00565b9150610adb60208401610a00565b90509250929050565b600181811c90821680610af857607f821691505b602082108103610b1657634e487b7160e01b5f52602260045260245ffd5b50919050565b60208082526022908201527f4f6e6c79206973737565722063616e2063616c6c20746869732066756e63746960408201526137b760f11b606082015260800190565b634e487b7160e01b5f52601160045260245ffd5b808201808211156103fb576103fb610b5e565b818103818111156103fb576103fb610b5e565b80820281158282048414176103fb576103fb610b5e565b5f82610bc957634e487b7160e01b5f52601260045260245ffd5b50049056feddf252ad1be2c89b69c2b068fc378daa952ba7f163c4a11628f55a4df523b3efa26469706673582212201e68ff389fa7fa07431e5ff6e4d41d78d34ec84fdd8cf31206cedb611b4cbd6964736f6c63430008180033","linkReferences":{}},"methodIdentifiers":{"allowance(address,address)":"dd62ed3e","approve(address,uint256)":"095ea7b3","balanceOf(address)":"70a08231","burn()":"44df8e70","decimals()":"313ce567","ethReserve()":"d62ccb3f","exercise(uint256)":"b07f0a41","expiryDate()":"516dde43","issuer()":"1d143848","mint()":"1249c58b","name()":"06fdde03","strikePrice()":"c52987cf","symbol()":"95d89b41","totalSupply()":"18160ddd","transfer(address,uint256)":"a9059cbb","transferFrom(address,address,uint256)":"23b872dd"},"id":55}