{"abi":[{"type":"constructor","inputs":[{"name":"_name","type":"string","internalType":"string"},{"name":"_symbol","type":"string","internalType":"string"}],"stateMutability":"nonpayable"},{"type":"function","name":"approve","inputs":[{"name":"to","type":"address","internalType":"address"},{"name":"tokenId","type":"uint256","internalType":"uint256"}],"outputs":[],"stateMutability":"nonpayable"},{"type":"function","name":"balanceOf","inputs":[{"name":"","type":"address","internalType":"address"}],"outputs":[{"name":"","type":"uint256","internalType":"uint256"}],"stateMutability":"view"},{"type":"function","name":"batchMintNFT","inputs":[{"name":"to","type":"address","internalType":"address"},{"name":"uris","type":"string[]","internalType":"string[]"}],"outputs":[{"name":"","type":"uint256[]","internalType":"uint256[]"}],"stateMutability":"nonpayable"},{"type":"function","name":"getApproved","inputs":[{"name":"","type":"uint256","internalType":"uint256"}],"outputs":[{"name":"","type":"address","internalType":"address"}],"stateMutability":"view"},{"type":"function","name":"getCurrentTokenId","inputs":[],"outputs":[{"name":"","type":"uint256","internalType":"uint256"}],"stateMutability":"view"},{"type":"function","name":"isApprovedForAll","inputs":[{"name":"","type":"address","internalType":"address"},{"name":"","type":"address","internalType":"address"}],"outputs":[{"name":"","type":"bool","internalType":"bool"}],"stateMutability":"view"},{"type":"function","name":"mintNFT","inputs":[{"name":"to","type":"address","internalType":"address"},{"name":"uri","type":"string","internalType":"string"}],"outputs":[{"name":"","type":"uint256","internalType":"uint256"}],"stateMutability":"nonpayable"},{"type":"function","name":"name","inputs":[],"outputs":[{"name":"","type":"string","internalType":"string"}],"stateMutability":"view"},{"type":"function","name":"ownerOf","inputs":[{"name":"","type":"uint256","internalType":"uint256"}],"outputs":[{"name":"","type":"address","internalType":"address"}],"stateMutability":"view"},{"type":"function","name":"safeTransferFrom","inputs":[{"name":"from","type":"address","internalType":"address"},{"name":"to","type":"address","internalType":"address"},{"name":"tokenId","type":"uint256","internalType":"uint256"}],"outputs":[],"stateMutability":"nonpayable"},{"type":"function","name":"setApprovalForAll","inputs":[{"name":"operator","type":"address","internalType":"address"},{"name":"approved","type":"bool","internalType":"bool"}],"outputs":[],"stateMutability":"nonpayable"},{"type":"function","name":"symbol","inputs":[],"outputs":[{"name":"","type":"string","internalType":"string"}],"stateMutability":"view"},{"type":"function","name":"tokenURI","inputs":[{"name":"","type":"uint256","internalType":"uint256"}],"outputs":[{"name":"","type":"string","internalType":"string"}],"stateMutability":"view"},{"type":"function","name":"totalSupply","inputs":[],"outputs":[{"name":"","type":"uint256","internalType":"uint256"}],"stateMutability":"view"},{"type":"function","name":"transferFrom","inputs":[{"name":"from","type":"address","internalType":"address"},{"name":"to","type":"address","internalType":"address"},{"name":"tokenId","type":"uint256","internalType":"uint256"}],"outputs":[],"stateMutability":"nonpayable"},{"type":"event","name":"Approval","inputs":[{"name":"owner","type":"address","indexed":true,"internalType":"address"},{"name":"approved","type":"address","indexed":true,"internalType":"address"},{"name":"tokenId","type":"uint256","indexed":true,"internalType":"uint256"}],"anonymous":false},{"type":"event","name":"ApprovalForAll","inputs":[{"name":"owner","type":"address","indexed":true,"internalType":"address"},{"name":"operator","type":"address","indexed":true,"internalType":"address"},{"name":"approved","type":"bool","indexed":false,"internalType":"bool"}],"anonymous":false},{"type":"event","name":"Transfer","inputs":[{"name":"from","type":"address","indexed":true,"internalType":"address"},{"name":"to","type":"address","indexed":true,"internalType":"address"},{"name":"tokenId","type":"uint256","indexed":true,"internalType":"uint256"}],"anonymous":false}],"bytecode":{"object":"0x608060405234801562000010575f80fd5b50604051620011af380380620011af833981016040819052620000339162000119565b5f62000040838262000209565b5060016200004f828262000209565b505050620002d5565b634e487b7160e01b5f52604160045260245ffd5b5f82601f8301126200007c575f80fd5b81516001600160401b038082111562000099576200009962000058565b604051601f8301601f19908116603f01168101908282118183101715620000c457620000c462000058565b8160405283815260209250866020858801011115620000e1575f80fd5b5f91505b83821015620001045785820183015181830184015290820190620000e5565b5f602085830101528094505050505092915050565b5f80604083850312156200012b575f80fd5b82516001600160401b038082111562000142575f80fd5b62000150868387016200006c565b9350602085015191508082111562000166575f80fd5b5062000175858286016200006c565b9150509250929050565b600181811c908216806200019457607f821691505b602082108103620001b357634e487b7160e01b5f52602260045260245ffd5b50919050565b601f8211156200020457805f5260205f20601f840160051c81016020851015620001e05750805b601f840160051c820191505b8181101562000201575f8155600101620001ec565b50505b505050565b81516001600160401b0381111562000225576200022562000058565b6200023d816200023684546200017f565b84620001b9565b602080601f83116001811462000273575f84156200025b5750858301515b5f19600386901b1c1916600185901b178555620002cd565b5f85815260208120601f198616915b82811015620002a35788860151825594840194600190910190840162000282565b5085821015620002c157878501515f19600388901b60f8161c191681555b505060018460011b0185555b505050505050565b610ecc80620002e35f395ff3fe608060405234801561000f575f80fd5b50600436106100f0575f3560e01c80636352211e11610093578063c87b56dd11610063578063c87b56dd1461020e578063dd2e230314610221578063e985e9c514610241578063eacabe141461027e575f80fd5b80636352211e146101ac57806370a08231146101d457806395d89b41146101f3578063a22cb465146101fb575f80fd5b806318160ddd116100ce57806318160ddd1461016757806323b872dd1461017e57806342842e0e1461019157806356189236146101a4575f80fd5b806306fdde03146100f4578063081812fc14610112578063095ea7b314610152575b5f80fd5b6100fc610291565b6040516101099190610965565b60405180910390f35b61013a61012036600461097e565b60056020525f90815260409020546001600160a01b031681565b6040516001600160a01b039091168152602001610109565b6101656101603660046109b0565b61031c565b005b61017060025481565b604051908152602001610109565b61016561018c3660046109d8565b6103cc565b61016561019f3660046109d8565b61056b565b600854610170565b61013a6101ba36600461097e565b60036020525f90815260409020546001600160a01b031681565b6101706101e2366004610a11565b60046020525f908152604090205481565b6100fc610595565b610165610209366004610a2a565b6105a2565b6100fc61021c36600461097e565b61060d565b61023461022f366004610b14565b610625565b6040516101099190610be3565b61026e61024f366004610c26565b600660209081525f928352604080842090915290825290205460ff1681565b6040519015158152602001610109565b61017061028c366004610c57565b6106c9565b5f805461029d90610ca2565b80601f01602080910402602001604051908101604052809291908181526020018280546102c990610ca2565b80156103145780601f106102eb57610100808354040283529160200191610314565b820191905f5260205f20905b8154815290600101906020018083116102f757829003601f168201915b505050505081565b6103263382610790565b6103665760405162461bcd60e51b815260206004820152600c60248201526b139bdd08185c1c1c9bdd995960a21b60448201526064015b60405180910390fd5b5f81815260056020908152604080832080546001600160a01b0319166001600160a01b038781169182179092556003909352818420549151859492909116917f8c5be1e5ebec7d5bd14f71427d1e84f3dd0314c0f7b2291e5b200ac8c7c3b92591a45050565b6103d63382610790565b6104115760405162461bcd60e51b815260206004820152600c60248201526b139bdd08185c1c1c9bdd995960a21b604482015260640161035d565b5f818152600360205260409020546001600160a01b038481169116146104695760405162461bcd60e51b815260206004820152600d60248201526c24b73b30b634b21037bbb732b960991b604482015260640161035d565b6001600160a01b0382166104b35760405162461bcd60e51b8152602060048201526011602482015270125b9d985b1a59081c9958da5c1a595b9d607a1b604482015260640161035d565b5f81815260036020908152604080832080546001600160a01b0319166001600160a01b038781169190911790915586168352600490915281208054916104f883610cee565b90915550506001600160a01b0382165f90815260046020526040812080549161052083610d03565b919050555080826001600160a01b0316846001600160a01b03167fddf252ad1be2c89b69c2b068fc378daa952ba7f163c4a11628f55a4df523b3ef60405160405180910390a4505050565b6105768383836103cc565b61059083838360405180602001604052805f815250610808565b505050565b6001805461029d90610ca2565b335f8181526006602090815260408083206001600160a01b03871680855290835292819020805460ff191686151590811790915590519081529192917f17307eab39ab6107e8899845ad3d59bd9653f200f220920489ca2b5937696c31910160405180910390a35050565b60076020525f90815260409020805461029d90610ca2565b60605f825167ffffffffffffffff81111561064257610642610a63565b60405190808252806020026020018201604052801561066b578160200160208202803683370190505b5090505f5b83518110156106c15761069c8585838151811061068f5761068f610d1b565b60200260200101516106c9565b8282815181106106ae576106ae610d1b565b6020908102919091010152600101610670565b509392505050565b600880545f918190836106db83610d03565b90915550505f81815260036020908152604080832080546001600160a01b0319166001600160a01b03891690811790915583526004909152812080549161072183610d03565b90915550505f81815260076020526040902061073d8482610d73565b5060028054905f61074d83610d03565b909155505060405181906001600160a01b038616905f907fddf252ad1be2c89b69c2b068fc378daa952ba7f163c4a11628f55a4df523b3ef908290a49392505050565b5f818152600360205260408120546001600160a01b039081169084168114806107d157505f838152600560205260409020546001600160a01b038581169116145b8061080057506001600160a01b038082165f9081526006602090815260408083209388168352929052205460ff165b949350505050565b6001600160a01b0383163b1561091c57604051630a85bd0160e11b81526001600160a01b0384169063150b7a029061084a903390889087908790600401610e33565b6020604051808303815f875af1925050508015610884575060408051601f3d908101601f1916820190925261088191810190610e6f565b60015b6108c55760405162461bcd60e51b81526020600482015260126024820152712737ba1022a9219b9918a932b1b2b4bb32b960711b604482015260640161035d565b6001600160e01b03198116630a85bd0160e11b1461091a5760405162461bcd60e51b81526020600482015260126024820152712737ba1022a9219b9918a932b1b2b4bb32b960711b604482015260640161035d565b505b50505050565b5f81518084525f5b818110156109465760208185018101518683018201520161092a565b505f602082860101526020601f19601f83011685010191505092915050565b602081525f6109776020830184610922565b9392505050565b5f6020828403121561098e575f80fd5b5035919050565b80356001600160a01b03811681146109ab575f80fd5b919050565b5f80604083850312156109c1575f80fd5b6109ca83610995565b946020939093013593505050565b5f805f606084860312156109ea575f80fd5b6109f384610995565b9250610a0160208501610995565b9150604084013590509250925092565b5f60208284031215610a21575f80fd5b61097782610995565b5f8060408385031215610a3b575f80fd5b610a4483610995565b915060208301358015158114610a58575f80fd5b809150509250929050565b634e487b7160e01b5f52604160045260245ffd5b604051601f8201601f1916810167ffffffffffffffff81118282101715610aa057610aa0610a63565b604052919050565b5f82601f830112610ab7575f80fd5b813567ffffffffffffffff811115610ad157610ad1610a63565b610ae4601f8201601f1916602001610a77565b818152846020838601011115610af8575f80fd5b816020850160208301375f918101602001919091529392505050565b5f8060408385031215610b25575f80fd5b610b2e83610995565b915060208084013567ffffffffffffffff80821115610b4b575f80fd5b818601915086601f830112610b5e575f80fd5b813581811115610b7057610b70610a63565b8060051b610b7f858201610a77565b918252838101850191858101908a841115610b98575f80fd5b86860192505b83831015610bd257823585811115610bb4575f80fd5b610bc28c89838a0101610aa8565b8352509186019190860190610b9e565b809750505050505050509250929050565b602080825282518282018190525f9190848201906040850190845b81811015610c1a57835183529284019291840191600101610bfe565b50909695505050505050565b5f8060408385031215610c37575f80fd5b610c4083610995565b9150610c4e60208401610995565b90509250929050565b5f8060408385031215610c68575f80fd5b610c7183610995565b9150602083013567ffffffffffffffff811115610c8c575f80fd5b610c9885828601610aa8565b9150509250929050565b600181811c90821680610cb657607f821691505b602082108103610cd457634e487b7160e01b5f52602260045260245ffd5b50919050565b634e487b7160e01b5f52601160045260245ffd5b5f81610cfc57610cfc610cda565b505f190190565b5f60018201610d1457610d14610cda565b5060010190565b634e487b7160e01b5f52603260045260245ffd5b601f82111561059057805f5260205f20601f840160051c81016020851015610d545750805b601f840160051c820191505b8181101561091a575f8155600101610d60565b815167ffffffffffffffff811115610d8d57610d8d610a63565b610da181610d9b8454610ca2565b84610d2f565b602080601f831160018114610dd4575f8415610dbd5750858301515b5f19600386901b1c1916600185901b178555610e2b565b5f85815260208120601f198616915b82811015610e0257888601518255948401946001909101908401610de3565b5085821015610e1f57878501515f19600388901b60f8161c191681555b505060018460011b0185555b505050505050565b6001600160a01b03858116825284166020820152604081018390526080606082018190525f90610e6590830184610922565b9695505050505050565b5f60208284031215610e7f575f80fd5b81516001600160e01b031981168114610977575f80fdfea264697066735822122069298f8c2d044f4ae14b7fd5e661dc2801735eee4ce0d450f0254d8be568e13e64736f6c63430008180033","linkReferences":{}},"methodIdentifiers":{"approve(address,uint256)":"095ea7b3","balanceOf(address)":"70a08231","batchMintNFT(address,string[])":"dd2e2303","getApproved(uint256)":"081812fc","getCurrentTokenId()":"56189236","isApprovedForAll(address,address)":"e985e9c5","mintNFT(address,string)":"eacabe14","name()":"06fdde03","ownerOf(uint256)":"6352211e","safeTransferFrom(address,address,uint256)":"42842e0e","setApprovalForAll(address,bool)":"a22cb465","symbol()":"95d89b41","tokenURI(uint256)":"c87b56dd","totalSupply()":"18160ddd","transferFrom(address,address,uint256)":"23b872dd"},"id":69}