{"abi":[{"type":"constructor","inputs":[],"stateMutability":"nonpayable"},{"type":"function","name":"UPGRADE_INTERFACE_VERSION","inputs":[],"outputs":[{"name":"","type":"string","internalType":"string"}],"stateMutability":"view"},{"type":"function","name":"approve","inputs":[{"name":"to","type":"address","internalType":"address"},{"name":"tokenId","type":"uint256","internalType":"uint256"}],"outputs":[],"stateMutability":"nonpayable"},{"type":"function","name":"balanceOf","inputs":[{"name":"owner","type":"address","internalType":"address"}],"outputs":[{"name":"","type":"uint256","internalType":"uint256"}],"stateMutability":"view"},{"type":"function","name":"getApproved","inputs":[{"name":"tokenId","type":"uint256","internalType":"uint256"}],"outputs":[{"name":"","type":"address","internalType":"address"}],"stateMutability":"view"},{"type":"function","name":"initialize","inputs":[],"outputs":[],"stateMutability":"nonpayable"},{"type":"function","name":"isApprovedForAll","inputs":[{"name":"owner","type":"address","internalType":"address"},{"name":"operator","type":"address","internalType":"address"}],"outputs":[{"name":"","type":"bool","internalType":"bool"}],"stateMutability":"view"},{"type":"function","name":"mint","inputs":[{"name":"to","type":"address","internalType":"address"}],"outputs":[{"name":"","type":"uint256","internalType":"uint256"}],"stateMutability":"nonpayable"},{"type":"function","name":"name","inputs":[],"outputs":[{"name":"","type":"string","internalType":"string"}],"stateMutability":"view"},{"type":"function","name":"owner","inputs":[],"outputs":[{"name":"","type":"address","internalType":"address"}],"stateMutability":"view"},{"type":"function","name":"ownerOf","inputs":[{"name":"tokenId","type":"uint256","internalType":"uint256"}],"outputs":[{"name":"","type":"address","internalType":"address"}],"stateMutability":"view"},{"type":"function","name":"proxiableUUID","inputs":[],"outputs":[{"name":"","type":"bytes32","internalType":"bytes32"}],"stateMutability":"view"},{"type":"function","name":"renounceOwnership","inputs":[],"outputs":[],"stateMutability":"nonpayable"},{"type":"function","name":"safeTransferFrom","inputs":[{"name":"from","type":"address","internalType":"address"},{"name":"to","type":"address","internalType":"address"},{"name":"tokenId","type":"uint256","internalType":"uint256"}],"outputs":[],"stateMutability":"nonpayable"},{"type":"function","name":"safeTransferFrom","inputs":[{"name":"from","type":"address","internalType":"address"},{"name":"to","type":"address","internalType":"address"},{"name":"tokenId","type":"uint256","internalType":"uint256"},{"name":"data","type":"bytes","internalType":"bytes"}],"outputs":[],"stateMutability":"nonpayable"},{"type":"function","name":"setApprovalForAll","inputs":[{"name":"operator","type":"address","internalType":"address"},{"name":"approved","type":"bool","internalType":"bool"}],"outputs":[],"stateMutability":"nonpayable"},{"type":"function","name":"supportsInterface","inputs":[{"name":"interfaceId","type":"bytes4","internalType":"bytes4"}],"outputs":[{"name":"","type":"bool","internalType":"bool"}],"stateMutability":"view"},{"type":"function","name":"symbol","inputs":[],"outputs":[{"name":"","type":"string","internalType":"string"}],"stateMutability":"view"},{"type":"function","name":"tokenId","inputs":[],"outputs":[{"name":"","type":"uint256","internalType":"uint256"}],"stateMutability":"view"},{"type":"function","name":"tokenURI","inputs":[{"name":"tokenId","type":"uint256","internalType":"uint256"}],"outputs":[{"name":"","type":"string","internalType":"string"}],"stateMutability":"view"},{"type":"function","name":"transferFrom","inputs":[{"name":"from","type":"address","internalType":"address"},{"name":"to","type":"address","internalType":"address"},{"name":"tokenId","type":"uint256","internalType":"uint256"}],"outputs":[],"stateMutability":"nonpayable"},{"type":"function","name":"transferOwnership","inputs":[{"name":"newOwner","type":"address","internalType":"address"}],"outputs":[],"stateMutability":"nonpayable"},{"type":"function","name":"upgradeToAndCall","inputs":[{"name":"newImplementation","type":"address","internalType":"address"},{"name":"data","type":"bytes","internalType":"bytes"}],"outputs":[],"stateMutability":"payable"},{"type":"event","name":"Approval","inputs":[{"name":"owner","type":"address","indexed":true,"internalType":"address"},{"name":"approved","type":"address","indexed":true,"internalType":"address"},{"name":"tokenId","type":"uint256","indexed":true,"internalType":"uint256"}],"anonymous":false},{"type":"event","name":"ApprovalForAll","inputs":[{"name":"owner","type":"address","indexed":true,"internalType":"address"},{"name":"operator","type":"address","indexed":true,"internalType":"address"},{"name":"approved","type":"bool","indexed":false,"internalType":"bool"}],"anonymous":false},{"type":"event","name":"Initialized","inputs":[{"name":"version","type":"uint64","indexed":false,"internalType":"uint64"}],"anonymous":false},{"type":"event","name":"OwnershipTransferred","inputs":[{"name":"previousOwner","type":"address","indexed":true,"internalType":"address"},{"name":"newOwner","type":"address","indexed":true,"internalType":"address"}],"anonymous":false},{"type":"event","name":"Transfer","inputs":[{"name":"from","type":"address","indexed":true,"internalType":"address"},{"name":"to","type":"address","indexed":true,"internalType":"address"},{"name":"tokenId","type":"uint256","indexed":true,"internalType":"uint256"}],"anonymous":false},{"type":"event","name":"Upgraded","inputs":[{"name":"implementation","type":"address","indexed":true,"internalType":"address"}],"anonymous":false},{"type":"error","name":"AddressEmptyCode","inputs":[{"name":"target","type":"address","internalType":"address"}]},{"type":"error","name":"ERC1967InvalidImplementation","inputs":[{"name":"implementation","type":"address","internalType":"address"}]},{"type":"error","name":"ERC1967NonPayable","inputs":[]},{"type":"error","name":"ERC721IncorrectOwner","inputs":[{"name":"sender","type":"address","internalType":"address"},{"name":"tokenId","type":"uint256","internalType":"uint256"},{"name":"owner","type":"address","internalType":"address"}]},{"type":"error","name":"ERC721InsufficientApproval","inputs":[{"name":"operator","type":"address","internalType":"address"},{"name":"tokenId","type":"uint256","internalType":"uint256"}]},{"type":"error","name":"ERC721InvalidApprover","inputs":[{"name":"approver","type":"address","internalType":"address"}]},{"type":"error","name":"ERC721InvalidOperator","inputs":[{"name":"operator","type":"address","internalType":"address"}]},{"type":"error","name":"ERC721InvalidOwner","inputs":[{"name":"owner","type":"address","internalType":"address"}]},{"type":"error","name":"ERC721InvalidReceiver","inputs":[{"name":"receiver","type":"address","internalType":"address"}]},{"type":"error","name":"ERC721InvalidSender","inputs":[{"name":"sender","type":"address","internalType":"address"}]},{"type":"error","name":"ERC721NonexistentToken","inputs":[{"name":"tokenId","type":"uint256","internalType":"uint256"}]},{"type":"error","name":"FailedCall","inputs":[]},{"type":"error","name":"InvalidInitialization","inputs":[]},{"type":"error","name":"NotInitializing","inputs":[]},{"type":"error","name":"OwnableInvalidOwner","inputs":[{"name":"owner","type":"address","internalType":"address"}]},{"type":"error","name":"OwnableUnauthorizedAccount","inputs":[{"name":"account","type":"address","internalType":"address"}]},{"type":"error","name":"UUPSUnauthorizedCallContext","inputs":[]},{"type":"error","name":"UUPSUnsupportedProxiableUUID","inputs":[{"name":"slot","type":"bytes32","internalType":"bytes32"}]}],"bytecode":{"object":"0x60a060405230608052348015610013575f80fd5b5061001c610021565b6100d3565b7ff0c57e16840df040f15088dc2f81fe391c3923bec73e23a9662efc9c229c6a00805468010000000000000000900460ff16156100715760405163f92ee8a960e01b815260040160405180910390fd5b80546001600160401b03908116146100d05780546001600160401b0319166001600160401b0390811782556040519081527fc7f505b2f371ae2175ee4913f4499e1f2633a7b5936321eed1cdaeb6115181d29060200160405180910390a15b50565b608051611ae96100f95f395f8181610ad301528181610afc0152610c3b0152611ae95ff3fe608060405260043610610131575f3560e01c806370a08231116100a8578063a22cb4651161006d578063a22cb4651461033e578063ad3cb1cc1461035d578063b88d4fde1461038d578063c87b56dd146103ac578063e985e9c5146103cb578063f2fde38b146103ea575f80fd5b806370a08231146102a7578063715018a6146102c65780638129fc1c146102da5780638da5cb5b146102ee57806395d89b411461032a575f80fd5b806323b872dd116100f957806323b872dd1461020457806342842e0e146102235780634f1ef2861461024257806352d1902d146102555780636352211e146102695780636a62784214610288575f80fd5b806301ffc9a71461013557806306fdde0314610169578063081812fc1461018a578063095ea7b3146101c157806317d70f7c146101e2575b5f80fd5b348015610140575f80fd5b5061015461014f3660046115a4565b610409565b60405190151581526020015b60405180910390f35b348015610174575f80fd5b5061017d61045a565b604051610160919061160c565b348015610195575f80fd5b506101a96101a436600461161e565b6104fb565b6040516001600160a01b039091168152602001610160565b3480156101cc575f80fd5b506101e06101db36600461164b565b61050f565b005b3480156101ed575f80fd5b506101f65f5481565b604051908152602001610160565b34801561020f575f80fd5b506101e061021e366004611673565b61051e565b34801561022e575f80fd5b506101e061023d366004611673565b6105ac565b6101e0610250366004611749565b6105cb565b348015610260575f80fd5b506101f66105e6565b348015610274575f80fd5b506101a961028336600461161e565b610601565b348015610293575f80fd5b506101f66102a2366004611794565b61060b565b3480156102b2575f80fd5b506101f66102c1366004611794565b61063b565b3480156102d1575f80fd5b506101e0610693565b3480156102e5575f80fd5b506101e06106a6565b3480156102f9575f80fd5b507f9016d09d72d40fdae2fd8ceac6b6234c7706214fd39c1cd1e609a0528c199300546001600160a01b03166101a9565b348015610335575f80fd5b5061017d6107ee565b348015610349575f80fd5b506101e06103583660046117ad565b61082c565b348015610368575f80fd5b5061017d604051806040016040528060058152602001640352e302e360dc1b81525081565b348015610398575f80fd5b506101e06103a73660046117e6565b610837565b3480156103b7575f80fd5b5061017d6103c636600461161e565b61084f565b3480156103d6575f80fd5b506101546103e536600461184a565b6108c0565b3480156103f5575f80fd5b506101e0610404366004611794565b61090c565b5f6001600160e01b031982166380ac58cd60e01b148061043957506001600160e01b03198216635b5e139f60e01b145b8061045457506301ffc9a760e01b6001600160e01b03198316145b92915050565b5f80516020611a7483398151915280546060919081906104799061187b565b80601f01602080910402602001604051908101604052809291908181526020018280546104a59061187b565b80156104f05780601f106104c7576101008083540402835291602001916104f0565b820191905f5260205f20905b8154815290600101906020018083116104d357829003601f168201915b505050505091505090565b5f61050582610949565b5061045482610980565b61051a8282336109b9565b5050565b6001600160a01b03821661054c57604051633250574960e11b81525f60048201526024015b60405180910390fd5b5f6105588383336109c6565b9050836001600160a01b0316816001600160a01b0316146105a6576040516364283d7b60e01b81526001600160a01b0380861660048301526024820184905282166044820152606401610543565b50505050565b6105c683838360405180602001604052805f815250610837565b505050565b6105d3610ac8565b6105dc82610b6c565b61051a8282610b74565b5f6105ef610c30565b505f80516020611a9483398151915290565b5f61045482610949565b5f610614610c79565b5f80549080610622836118b3565b9190505550610632825f54610cd4565b505f545b919050565b5f5f80516020611a748339815191526001600160a01b038316610673576040516322718ad960e21b81525f6004820152602401610543565b6001600160a01b039092165f908152600390920160205250604090205490565b61069b610c79565b6106a45f610d35565b565b5f6106af610da5565b805490915060ff600160401b820416159067ffffffffffffffff165f811580156106d65750825b90505f8267ffffffffffffffff1660011480156106f25750303b155b905081158015610700575080155b1561071e5760405163f92ee8a960e01b815260040160405180910390fd5b845467ffffffffffffffff19166001178555831561074857845460ff60401b1916600160401b1785555b6107956040518060400160405280600f81526020016e155c19dc98591958589b1948139195608a1b815250604051806040016040528060048152602001631553919560e21b815250610dcd565b61079e33610ddf565b5f805583156107e757845460ff60401b19168555604051600181527fc7f505b2f371ae2175ee4913f4499e1f2633a7b5936321eed1cdaeb6115181d29060200160405180910390a15b5050505050565b7f80bb2b638cc20bc4d0a60d66940f3ab4a00c1d7b313497ca82fb0b4ab007930180546060915f80516020611a74833981519152916104799061187b565b61051a338383610df0565b61084284848461051e565b6105a63385858585610ec8565b606061085a82610949565b505f61087060408051602081019091525f815290565b90505f81511161088e5760405180602001604052805f8152506108b9565b8061089884610fef565b6040516020016108a99291906118d7565b6040516020818303038152906040525b9392505050565b6001600160a01b039182165f9081527f80bb2b638cc20bc4d0a60d66940f3ab4a00c1d7b313497ca82fb0b4ab00793056020908152604080832093909416825291909152205460ff1690565b610914610c79565b6001600160a01b03811661093d57604051631e4fbdf760e01b81525f6004820152602401610543565b61094681610d35565b50565b5f806109548361107f565b90506001600160a01b03811661045457604051637e27328960e01b815260048101849052602401610543565b5f9081527f80bb2b638cc20bc4d0a60d66940f3ab4a00c1d7b313497ca82fb0b4ab007930460205260409020546001600160a01b031690565b6105c683838360016110b8565b5f5f80516020611a74833981519152816109df8561107f565b90506001600160a01b038416156109fb576109fb8185876111cb565b6001600160a01b03811615610a3757610a165f865f806110b8565b6001600160a01b0381165f908152600383016020526040902080545f190190555b6001600160a01b03861615610a67576001600160a01b0386165f9081526003830160205260409020805460010190555b5f85815260028301602052604080822080546001600160a01b0319166001600160a01b038a811691821790925591518893918516917fddf252ad1be2c89b69c2b068fc378daa952ba7f163c4a11628f55a4df523b3ef91a495945050505050565b306001600160a01b037f0000000000000000000000000000000000000000000000000000000000000000161480610b4e57507f00000000000000000000000000000000000000000000000000000000000000006001600160a01b0316610b425f80516020611a94833981519152546001600160a01b031690565b6001600160a01b031614155b156106a45760405163703e46dd60e11b815260040160405180910390fd5b610946610c79565b816001600160a01b03166352d1902d6040518163ffffffff1660e01b8152600401602060405180830381865afa925050508015610bce575060408051601f3d908101601f19168201909252610bcb91810190611905565b60015b610bf657604051634c9c8ce360e01b81526001600160a01b0383166004820152602401610543565b5f80516020611a948339815191528114610c2657604051632a87526960e21b815260048101829052602401610543565b6105c6838361122f565b306001600160a01b037f000000000000000000000000000000000000000000000000000000000000000016146106a45760405163703e46dd60e11b815260040160405180910390fd5b33610cab7f9016d09d72d40fdae2fd8ceac6b6234c7706214fd39c1cd1e609a0528c199300546001600160a01b031690565b6001600160a01b0316146106a45760405163118cdaa760e01b8152336004820152602401610543565b6001600160a01b038216610cfd57604051633250574960e11b81525f6004820152602401610543565b5f610d0983835f6109c6565b90506001600160a01b038116156105c6576040516339e3563760e11b81525f6004820152602401610543565b7f9016d09d72d40fdae2fd8ceac6b6234c7706214fd39c1cd1e609a0528c19930080546001600160a01b031981166001600160a01b03848116918217845560405192169182907f8be0079c531659141344cd1fd0a4f28419497f9722a3daafe3b4186f6b6457e0905f90a3505050565b5f807ff0c57e16840df040f15088dc2f81fe391c3923bec73e23a9662efc9c229c6a00610454565b610dd5611284565b61051a82826112a9565b610de7611284565b610946816112d9565b5f80516020611a748339815191526001600160a01b038416610e275760405163a9fbf51f60e01b81525f6004820152602401610543565b6001600160a01b038316610e5957604051630b61174360e31b81526001600160a01b0384166004820152602401610543565b6001600160a01b038481165f818152600584016020908152604080832094881680845294825291829020805460ff191687151590811790915591519182527f17307eab39ab6107e8899845ad3d59bd9653f200f220920489ca2b5937696c31910160405180910390a350505050565b6001600160a01b0383163b156107e757604051630a85bd0160e11b81526001600160a01b0384169063150b7a0290610f0a90889088908790879060040161191c565b6020604051808303815f875af1925050508015610f44575060408051601f3d908101601f19168201909252610f4191810190611958565b60015b610fab573d808015610f71576040519150601f19603f3d011682016040523d82523d5f602084013e610f76565b606091505b5080515f03610fa357604051633250574960e11b81526001600160a01b0385166004820152602401610543565b805160208201fd5b6001600160e01b03198116630a85bd0160e11b14610fe757604051633250574960e11b81526001600160a01b0385166004820152602401610543565b505050505050565b60605f610ffb836112e1565b60010190505f8167ffffffffffffffff81111561101a5761101a6116ac565b6040519080825280601f01601f191660200182016040528015611044576020820181803683370190505b5090508181016020015b5f19016f181899199a1a9b1b9c1cb0b131b232b360811b600a86061a8153600a850494508461104e57509392505050565b5f9081527f80bb2b638cc20bc4d0a60d66940f3ab4a00c1d7b313497ca82fb0b4ab007930260205260409020546001600160a01b031690565b5f80516020611a7483398151915281806110da57506001600160a01b03831615155b1561119b575f6110e985610949565b90506001600160a01b038416158015906111155750836001600160a01b0316816001600160a01b031614155b8015611128575061112681856108c0565b155b156111515760405163a9fbf51f60e01b81526001600160a01b0385166004820152602401610543565b82156111995784866001600160a01b0316826001600160a01b03167f8c5be1e5ebec7d5bd14f71427d1e84f3dd0314c0f7b2291e5b200ac8c7c3b92560405160405180910390a45b505b5f93845260040160205250506040902080546001600160a01b0319166001600160a01b0392909216919091179055565b6111d68383836113b8565b6105c6576001600160a01b03831661120457604051637e27328960e01b815260048101829052602401610543565b60405163177e802f60e01b81526001600160a01b038316600482015260248101829052604401610543565b6112388261141d565b6040516001600160a01b038316907fbc7cd75a20ee27fd9adebab32041f755214dbc6bffa90cc0225b39da2e5c2d3b905f90a280511561127c576105c68282611480565b61051a611520565b61128c61153f565b6106a457604051631afcd79f60e31b815260040160405180910390fd5b6112b1611284565b5f80516020611a74833981519152806112ca84826119b7565b50600181016105a683826119b7565b610914611284565b5f8072184f03e93ff9f4daa797ed6e38ed64bf6a1f0160401b831061131f5772184f03e93ff9f4daa797ed6e38ed64bf6a1f0160401b830492506040015b6d04ee2d6d415b85acef8100000000831061134b576d04ee2d6d415b85acef8100000000830492506020015b662386f26fc10000831061136957662386f26fc10000830492506010015b6305f5e1008310611381576305f5e100830492506008015b612710831061139557612710830492506004015b606483106113a7576064830492506002015b600a83106104545760010192915050565b5f6001600160a01b038316158015906114155750826001600160a01b0316846001600160a01b031614806113f157506113f184846108c0565b806114155750826001600160a01b031661140a83610980565b6001600160a01b0316145b949350505050565b806001600160a01b03163b5f0361145257604051634c9c8ce360e01b81526001600160a01b0382166004820152602401610543565b5f80516020611a9483398151915280546001600160a01b0319166001600160a01b0392909216919091179055565b60605f61148d8484611558565b90508080156114ae57505f3d11806114ae57505f846001600160a01b03163b115b156114c3576114bb61156b565b915050610454565b80156114ed57604051639996b31560e01b81526001600160a01b0385166004820152602401610543565b3d15611500576114fb611584565b611519565b60405163d6bda27560e01b815260040160405180910390fd5b5092915050565b34156106a45760405163b398979f60e01b815260040160405180910390fd5b5f611548610da5565b54600160401b900460ff16919050565b5f805f835160208501865af49392505050565b6040513d81523d5f602083013e3d602001810160405290565b6040513d5f823e3d81fd5b6001600160e01b031981168114610946575f80fd5b5f602082840312156115b4575f80fd5b81356108b98161158f565b5f5b838110156115d95781810151838201526020016115c1565b50505f910152565b5f81518084526115f88160208601602086016115bf565b601f01601f19169290920160200192915050565b602081525f6108b960208301846115e1565b5f6020828403121561162e575f80fd5b5035919050565b80356001600160a01b0381168114610636575f80fd5b5f806040838503121561165c575f80fd5b61166583611635565b946020939093013593505050565b5f805f60608486031215611685575f80fd5b61168e84611635565b925061169c60208501611635565b9150604084013590509250925092565b634e487b7160e01b5f52604160045260245ffd5b5f82601f8301126116cf575f80fd5b813567ffffffffffffffff808211156116ea576116ea6116ac565b604051601f8301601f19908116603f01168101908282118183101715611712576117126116ac565b8160405283815286602085880101111561172a575f80fd5b836020870160208301375f602085830101528094505050505092915050565b5f806040838503121561175a575f80fd5b61176383611635565b9150602083013567ffffffffffffffff81111561177e575f80fd5b61178a858286016116c0565b9150509250929050565b5f602082840312156117a4575f80fd5b6108b982611635565b5f80604083850312156117be575f80fd5b6117c783611635565b9150602083013580151581146117db575f80fd5b809150509250929050565b5f805f80608085870312156117f9575f80fd5b61180285611635565b935061181060208601611635565b925060408501359150606085013567ffffffffffffffff811115611832575f80fd5b61183e878288016116c0565b91505092959194509250565b5f806040838503121561185b575f80fd5b61186483611635565b915061187260208401611635565b90509250929050565b600181811c9082168061188f57607f821691505b6020821081036118ad57634e487b7160e01b5f52602260045260245ffd5b50919050565b5f600182016118d057634e487b7160e01b5f52601160045260245ffd5b5060010190565b5f83516118e88184602088016115bf565b8351908301906118fc8183602088016115bf565b01949350505050565b5f60208284031215611915575f80fd5b5051919050565b6001600160a01b03858116825284166020820152604081018390526080606082018190525f9061194e908301846115e1565b9695505050505050565b5f60208284031215611968575f80fd5b81516108b98161158f565b601f8211156105c657805f5260205f20601f840160051c810160208510156119985750805b601f840160051c820191505b818110156107e7575f81556001016119a4565b815167ffffffffffffffff8111156119d1576119d16116ac565b6119e5816119df845461187b565b84611973565b602080601f831160018114611a18575f8415611a015750858301515b5f19600386901b1c1916600185901b178555610fe7565b5f85815260208120601f198616915b82811015611a4657888601518255948401946001909101908401611a27565b5085821015611a6357878501515f19600388901b60f8161c191681555b5050505050600190811b0190555056fe80bb2b638cc20bc4d0a60d66940f3ab4a00c1d7b313497ca82fb0b4ab0079300360894a13ba1a3210667c828492db98dca3e2076cc3735a920a3ca505d382bbca264697066735822122086cdb627ba5f5bd1c65f602c0132e17d70bd1eb352f81d1be3960df6c36d03c064736f6c63430008180033","linkReferences":{}},"methodIdentifiers":{"UPGRADE_INTERFACE_VERSION()":"ad3cb1cc","approve(address,uint256)":"095ea7b3","balanceOf(address)":"70a08231","getApproved(uint256)":"081812fc","initialize()":"8129fc1c","isApprovedForAll(address,address)":"e985e9c5","mint(address)":"6a627842","name()":"06fdde03","owner()":"8da5cb5b","ownerOf(uint256)":"6352211e","proxiableUUID()":"52d1902d","renounceOwnership()":"715018a6","safeTransferFrom(address,address,uint256)":"42842e0e","safeTransferFrom(address,address,uint256,bytes)":"b88d4fde","setApprovalForAll(address,bool)":"a22cb465","supportsInterface(bytes4)":"01ffc9a7","symbol()":"95d89b41","tokenId()":"17d70f7c","tokenURI(uint256)":"c87b56dd","transferFrom(address,address,uint256)":"23b872dd","transferOwnership(address)":"f2fde38b","upgradeToAndCall(address,bytes)":"4f1ef286"},"id":61}