{"abi":[{"type":"constructor","inputs":[{"name":"name_","type":"string","internalType":"string"},{"name":"symbol_","type":"string","internalType":"string"},{"name":"decimals_","type":"uint8","internalType":"uint8"},{"name":"initialSupply","type":"uint256","internalType":"uint256"}],"stateMutability":"nonpayable"},{"type":"function","name":"allowance","inputs":[{"name":"","type":"address","internalType":"address"},{"name":"","type":"address","internalType":"address"}],"outputs":[{"name":"","type":"uint256","internalType":"uint256"}],"stateMutability":"view"},{"type":"function","name":"approve","inputs":[{"name":"spender","type":"address","internalType":"address"},{"name":"amount","type":"uint256","internalType":"uint256"}],"outputs":[{"name":"","type":"bool","internalType":"bool"}],"stateMutability":"nonpayable"},{"type":"function","name":"balanceOf","inputs":[{"name":"","type":"address","internalType":"address"}],"outputs":[{"name":"","type":"uint256","internalType":"uint256"}],"stateMutability":"view"},{"type":"function","name":"burn","inputs":[{"name":"amount","type":"uint256","internalType":"uint256"}],"outputs":[],"stateMutability":"nonpayable"},{"type":"function","name":"burnFrom","inputs":[{"name":"account","type":"address","internalType":"address"},{"name":"amount","type":"uint256","internalType":"uint256"}],"outputs":[],"stateMutability":"nonpayable"},{"type":"function","name":"decimals","inputs":[],"outputs":[{"name":"","type":"uint8","internalType":"uint8"}],"stateMutability":"view"},{"type":"function","name":"mint","inputs":[{"name":"to","type":"address","internalType":"address"},{"name":"amount","type":"uint256","internalType":"uint256"}],"outputs":[],"stateMutability":"nonpayable"},{"type":"function","name":"name","inputs":[],"outputs":[{"name":"","type":"string","internalType":"string"}],"stateMutability":"view"},{"type":"function","name":"supportsInterface","inputs":[{"name":"interfaceId","type":"bytes4","internalType":"bytes4"}],"outputs":[{"name":"","type":"bool","internalType":"bool"}],"stateMutability":"view"},{"type":"function","name":"symbol","inputs":[],"outputs":[{"name":"","type":"string","internalType":"string"}],"stateMutability":"view"},{"type":"function","name":"totalSupply","inputs":[],"outputs":[{"name":"","type":"uint256","internalType":"uint256"}],"stateMutability":"view"},{"type":"function","name":"transfer","inputs":[{"name":"to","type":"address","internalType":"address"},{"name":"amount","type":"uint256","internalType":"uint256"}],"outputs":[{"name":"","type":"bool","internalType":"bool"}],"stateMutability":"nonpayable"},{"type":"function","name":"transferFrom","inputs":[{"name":"from","type":"address","internalType":"address"},{"name":"to","type":"address","internalType":"address"},{"name":"amount","type":"uint256","internalType":"uint256"}],"outputs":[{"name":"","type":"bool","internalType":"bool"}],"stateMutability":"nonpayable"},{"type":"event","name":"Approval","inputs":[{"name":"owner","type":"address","indexed":true,"internalType":"address"},{"name":"spender","type":"address","indexed":true,"internalType":"address"},{"name":"value","type":"uint256","indexed":false,"internalType":"uint256"}],"anonymous":false},{"type":"event","name":"TokensBurned","inputs":[{"name":"from","type":"address","indexed":true,"internalType":"address"},{"name":"amount","type":"uint256","indexed":false,"internalType":"uint256"}],"anonymous":false},{"type":"event","name":"TokensMinted","inputs":[{"name":"to","type":"address","indexed":true,"internalType":"address"},{"name":"amount","type":"uint256","indexed":false,"internalType":"uint256"}],"anonymous":false},{"type":"event","name":"Transfer","inputs":[{"name":"from","type":"address","indexed":true,"internalType":"address"},{"name":"to","type":"address","indexed":true,"internalType":"address"},{"name":"value","type":"uint256","indexed":false,"internalType":"uint256"}],"anonymous":false}],"bytecode":{"object":"0x608060405234801562000010575f80fd5b5060405162000faf38038062000faf833981016040819052620000339162000221565b5f62000040858262000330565b5060016200004f848262000330565b506002805460ff191660ff8416908117909155620000889033906200007690600a6200050b565b6200008290846200051f565b62000092565b505050506200054f565b8060035f828254620000a5919062000539565b90915550506001600160a01b0382165f9081526004602052604081208054839290620000d390849062000539565b90915550506040518181526001600160a01b038316905f907fddf252ad1be2c89b69c2b068fc378daa952ba7f163c4a11628f55a4df523b3ef9060200160405180910390a3816001600160a01b03167f3f2c9d57c068687834f0de942a9babb9e5acab57d516d3480a3c16ee165a4273826040516200015491815260200190565b60405180910390a25050565b634e487b7160e01b5f52604160045260245ffd5b5f82601f83011262000184575f80fd5b81516001600160401b0380821115620001a157620001a162000160565b604051601f8301601f19908116603f01168101908282118183101715620001cc57620001cc62000160565b8160405283815260209250866020858801011115620001e9575f80fd5b5f91505b838210156200020c5785820183015181830184015290820190620001ed565b5f602085830101528094505050505092915050565b5f805f806080858703121562000235575f80fd5b84516001600160401b03808211156200024c575f80fd5b6200025a8883890162000174565b9550602087015191508082111562000270575f80fd5b506200027f8782880162000174565b935050604085015160ff8116811462000296575f80fd5b6060959095015193969295505050565b600181811c90821680620002bb57607f821691505b602082108103620002da57634e487b7160e01b5f52602260045260245ffd5b50919050565b601f8211156200032b57805f5260205f20601f840160051c81016020851015620003075750805b601f840160051c820191505b8181101562000328575f815560010162000313565b50505b505050565b81516001600160401b038111156200034c576200034c62000160565b62000364816200035d8454620002a6565b84620002e0565b602080601f8311600181146200039a575f8415620003825750858301515b5f19600386901b1c1916600185901b178555620003f4565b5f85815260208120601f198616915b82811015620003ca57888601518255948401946001909101908401620003a9565b5085821015620003e857878501515f19600388901b60f8161c191681555b505060018460011b0185555b505050505050565b634e487b7160e01b5f52601160045260245ffd5b600181815b808511156200045057815f1904821115620004345762000434620003fc565b808516156200044257918102915b93841c939080029062000415565b509250929050565b5f82620004685750600162000505565b816200047657505f62000505565b81600181146200048f57600281146200049a57620004ba565b600191505062000505565b60ff841115620004ae57620004ae620003fc565b50506001821b62000505565b5060208310610133831016604e8410600b8410161715620004df575081810a62000505565b620004eb838362000410565b805f1904821115620005015762000501620003fc565b0290505b92915050565b5f62000518838362000458565b9392505050565b8082028115828204841417620005055762000505620003fc565b80820180821115620005055762000505620003fc565b610a52806200055d5f395ff3fe608060405234801561000f575f80fd5b50600436106100cb575f3560e01c806340c10f191161008857806379cc67901161006357806379cc6790146101c057806395d89b41146101d3578063a9059cbb146101db578063dd62ed3e146101ee575f80fd5b806340c10f191461017957806342966c681461018e57806370a08231146101a1575f80fd5b806301ffc9a7146100cf57806306fdde0314610108578063095ea7b31461011d57806318160ddd1461013057806323b872dd14610147578063313ce5671461015a575b5f80fd5b6100f36100dd366004610853565b6001600160e01b0319166336372b0760e01b1490565b60405190151581526020015b60405180910390f35b610110610218565b6040516100ff9190610881565b6100f361012b3660046108e8565b6102a3565b61013960035481565b6040519081526020016100ff565b6100f3610155366004610910565b6102b9565b6002546101679060ff1681565b60405160ff90911681526020016100ff565b61018c6101873660046108e8565b6102da565b005b61018c61019c366004610949565b6102e8565b6101396101af366004610960565b60046020525f908152604090205481565b61018c6101ce3660046108e8565b6102f5565b61011061030a565b6100f36101e93660046108e8565b610317565b6101396101fc366004610979565b600560209081525f928352604080842090915290825290205481565b5f8054610224906109aa565b80601f0160208091040260200160405190810160405280929190818152602001828054610250906109aa565b801561029b5780601f106102725761010080835404028352916020019161029b565b820191905f5260205f20905b81548152906001019060200180831161027e57829003601f168201915b505050505081565b5f6102af338484610323565b5060015b92915050565b5f6102c584338461044c565b6102d08484846104ff565b5060019392505050565b6102e482826106cb565b5050565b6102f23382610794565b50565b61030082338361044c565b6102e48282610794565b60018054610224906109aa565b5f6102af3384846104ff565b6001600160a01b03831661038a5760405162461bcd60e51b8152602060048201526024808201527f45524332303a20617070726f76652066726f6d20746865207a65726f206164646044820152637265737360e01b60648201526084015b60405180910390fd5b6001600160a01b0382166103eb5760405162461bcd60e51b815260206004820152602260248201527f45524332303a20617070726f766520746f20746865207a65726f206164647265604482015261737360f01b6064820152608401610381565b6001600160a01b038381165f8181526005602090815260408083209487168084529482529182902085905590518481527f8c5be1e5ebec7d5bd14f71427d1e84f3dd0314c0f7b2291e5b200ac8c7c3b92591015b60405180910390a3505050565b6001600160a01b038084165f908152600560209081526040808320938616835292905220545f1981146104f957818110156104c95760405162461bcd60e51b815260206004820152601d60248201527f45524332303a20696e73756666696369656e7420616c6c6f77616e63650000006044820152606401610381565b6104d382826109f6565b6001600160a01b038086165f908152600560209081526040808320938816835292905220555b50505050565b6001600160a01b0383166105635760405162461bcd60e51b815260206004820152602560248201527f45524332303a207472616e736665722066726f6d20746865207a65726f206164604482015264647265737360d81b6064820152608401610381565b6001600160a01b0382166105c55760405162461bcd60e51b815260206004820152602360248201527f45524332303a207472616e7366657220746f20746865207a65726f206164647260448201526265737360e81b6064820152608401610381565b6001600160a01b0383165f9081526004602052604090205481111561062c5760405162461bcd60e51b815260206004820152601b60248201527f45524332303a20696e73756666696369656e742062616c616e636500000000006044820152606401610381565b6001600160a01b0383165f90815260046020526040812080548392906106539084906109f6565b90915550506001600160a01b0382165f908152600460205260408120805483929061067f908490610a09565b92505081905550816001600160a01b0316836001600160a01b03167fddf252ad1be2c89b69c2b068fc378daa952ba7f163c4a11628f55a4df523b3ef8360405161043f91815260200190565b8060035f8282546106dc9190610a09565b90915550506001600160a01b0382165f9081526004602052604081208054839290610708908490610a09565b90915550506040518181526001600160a01b038316905f907fddf252ad1be2c89b69c2b068fc378daa952ba7f163c4a11628f55a4df523b3ef9060200160405180910390a3816001600160a01b03167f3f2c9d57c068687834f0de942a9babb9e5acab57d516d3480a3c16ee165a42738260405161078891815260200190565b60405180910390a25050565b6001600160a01b0382165f90815260046020526040812080548392906107bb9084906109f6565b925050819055508060035f8282546107d391906109f6565b90915550506040518181525f906001600160a01b038416907fddf252ad1be2c89b69c2b068fc378daa952ba7f163c4a11628f55a4df523b3ef9060200160405180910390a3816001600160a01b03167ffd38818f5291bf0bb3a2a48aadc06ba8757865d1dabd804585338aab3009dcb68260405161078891815260200190565b5f60208284031215610863575f80fd5b81356001600160e01b03198116811461087a575f80fd5b9392505050565b5f602080835283518060208501525f5b818110156108ad57858101830151858201604001528201610891565b505f604082860101526040601f19601f8301168501019250505092915050565b80356001600160a01b03811681146108e3575f80fd5b919050565b5f80604083850312156108f9575f80fd5b610902836108cd565b946020939093013593505050565b5f805f60608486031215610922575f80fd5b61092b846108cd565b9250610939602085016108cd565b9150604084013590509250925092565b5f60208284031215610959575f80fd5b5035919050565b5f60208284031215610970575f80fd5b61087a826108cd565b5f806040838503121561098a575f80fd5b610993836108cd565b91506109a1602084016108cd565b90509250929050565b600181811c908216806109be57607f821691505b6020821081036109dc57634e487b7160e01b5f52602260045260245ffd5b50919050565b634e487b7160e01b5f52601160045260245ffd5b818103818111156102b3576102b36109e2565b808201808211156102b3576102b36109e256fea2646970667358221220bdaf9c40824177c8ce46fd0641c1b171782b1bdb070d97bcdf33aa26cf909ad264736f6c63430008180033","linkReferences":{}},"methodIdentifiers":{"allowance(address,address)":"dd62ed3e","approve(address,uint256)":"095ea7b3","balanceOf(address)":"70a08231","burn(uint256)":"42966c68","burnFrom(address,uint256)":"79cc6790","decimals()":"313ce567","mint(address,uint256)":"40c10f19","name()":"06fdde03","supportsInterface(bytes4)":"01ffc9a7","symbol()":"95d89b41","totalSupply()":"18160ddd","transfer(address,uint256)":"a9059cbb","transferFrom(address,address,uint256)":"23b872dd"},"id":58}