{"abi":[{"type":"constructor","inputs":[{"name":"initialAdmin","type":"address","internalType":"address"}],"stateMutability":"nonpayable"},{"type":"fallback","stateMutability":"payable"},{"type":"receive","stateMutability":"payable"},{"type":"function","name":"admin","inputs":[],"outputs":[{"name":"","type":"address","internalType":"address"}],"stateMutability":"view"},{"type":"function","name":"balances","inputs":[{"name":"","type":"address","internalType":"address"}],"outputs":[{"name":"","type":"uint256","internalType":"uint256"}],"stateMutability":"view"},{"type":"function","name":"deposit","inputs":[],"outputs":[],"stateMutability":"payable"},{"type":"function","name":"getBalance","inputs":[{"name":"user","type":"address","internalType":"address"}],"outputs":[{"name":"","type":"uint256","internalType":"uint256"}],"stateMutability":"view"},{"type":"function","name":"getContractBalance","inputs":[],"outputs":[{"name":"","type":"uint256","internalType":"uint256"}],"stateMutability":"view"},{"type":"function","name":"setAdmin","inputs":[{"name":"newAdmin","type":"address","internalType":"address"}],"outputs":[],"stateMutability":"nonpayable"},{"type":"function","name":"withdraw","inputs":[{"name":"to","type":"address","internalType":"address"},{"name":"amount","type":"uint256","internalType":"uint256"}],"outputs":[],"stateMutability":"nonpayable"},{"type":"event","name":"AdminChanged","inputs":[{"name":"oldAdmin","type":"address","indexed":true,"internalType":"address"},{"name":"newAdmin","type":"address","indexed":true,"internalType":"address"}],"anonymous":false},{"type":"event","name":"Deposited","inputs":[{"name":"depositor","type":"address","indexed":true,"internalType":"address"},{"name":"amount","type":"uint256","indexed":false,"internalType":"uint256"}],"anonymous":false}],"bytecode":{"object":"0x608060405234801561000f575f80fd5b5060405161050938038061050983398101604081905261002e91610052565b5f80546001600160a01b0319166001600160a01b039290921691909117905561007f565b5f60208284031215610062575f80fd5b81516001600160a01b0381168114610078575f80fd5b9392505050565b61047d8061008c5f395ff3fe608060405260043610610073575f3560e01c8063d0e30db01161004d578063d0e30db014610161578063f3fef3a314610169578063f851a44014610188578063f8b2cb4f146101be576100d2565b806327e235e3146100f05780636f9fb98a1461012e578063704b6c0214610140576100d2565b366100d257335f908152600160205260408120805434929061009690849061037e565b909155505060405134815233907f2da466a7b24304f47e87fa2e1e5a81b9831ce54fec19055ce277ca2f39ba42c49060200160405180910390a2005b335f908152600160205260408120805434929061009690849061037e565b3480156100fb575f80fd5b5061011b61010a3660046103be565b60016020525f908152604090205481565b6040519081526020015b60405180910390f35b348015610139575f80fd5b504761011b565b34801561014b575f80fd5b5061015f61015a3660046103be565b6101f2565b005b61015f610273565b348015610174575f80fd5b5061015f6101833660046103de565b6102cd565b348015610193575f80fd5b505f546101a6906001600160a01b031681565b6040516001600160a01b039091168152602001610125565b3480156101c9575f80fd5b5061011b6101d83660046103be565b6001600160a01b03165f9081526001602052604090205490565b5f546001600160a01b031633146102245760405162461bcd60e51b815260040161021b90610406565b60405180910390fd5b5f80546001600160a01b038381166001600160a01b0319831681178455604051919092169283917f7e644d79422f17c01e4894b5f4f588d331ebfa28653d42ae832dc59e38c9798f9190a35050565b335f908152600160205260408120805434929061029190849061037e565b909155505060405134815233907f2da466a7b24304f47e87fa2e1e5a81b9831ce54fec19055ce277ca2f39ba42c49060200160405180910390a2565b5f546001600160a01b031633146102f65760405162461bcd60e51b815260040161021b90610406565b478111156103465760405162461bcd60e51b815260206004820152601d60248201527f496e73756666696369656e7420636f6e74726163742062616c616e6365000000604482015260640161021b565b6040516001600160a01b0383169082156108fc029083905f818181858888f19350505050158015610379573d5f803e3d5ffd5b505050565b8082018082111561039d57634e487b7160e01b5f52601160045260245ffd5b92915050565b80356001600160a01b03811681146103b9575f80fd5b919050565b5f602082840312156103ce575f80fd5b6103d7826103a3565b9392505050565b5f80604083850312156103ef575f80fd5b6103f8836103a3565b946020939093013593505050565b60208082526021908201527f4f6e6c792061646d696e2063616e2063616c6c20746869732066756e6374696f6040820152603760f91b60608201526080019056fea2646970667358221220c636e5a23a1d34be91e85ab5e9308a7b1e2b2701402778bd1616070f4bc1b63a64736f6c63430008180033","linkReferences":{}},"methodIdentifiers":{"admin()":"f851a440","balances(address)":"27e235e3","deposit()":"d0e30db0","getBalance(address)":"f8b2cb4f","getContractBalance()":"6f9fb98a","setAdmin(address)":"704b6c02","withdraw(address,uint256)":"f3fef3a3"},"id":55}