{"abi":[{"type":"constructor","inputs":[{"name":"_token","type":"address","internalType":"contract VotingToken"},{"name":"_bank","type":"address","internalType":"contract BankV2"}],"stateMutability":"nonpayable"},{"type":"receive","stateMutability":"payable"},{"type":"function","name":"BALLOT_TYPEHASH","inputs":[],"outputs":[{"name":"","type":"bytes32","internalType":"bytes32"}],"stateMutability":"view"},{"type":"function","name":"CLOCK_MODE","inputs":[],"outputs":[{"name":"","type":"string","internalType":"string"}],"stateMutability":"view"},{"type":"function","name":"COUNTING_MODE","inputs":[],"outputs":[{"name":"","type":"string","internalType":"string"}],"stateMutability":"pure"},{"type":"function","name":"EXTENDED_BALLOT_TYPEHASH","inputs":[],"outputs":[{"name":"","type":"bytes32","internalType":"bytes32"}],"stateMutability":"view"},{"type":"function","name":"bank","inputs":[],"outputs":[{"name":"","type":"address","internalType":"contract BankV2"}],"stateMutability":"view"},{"type":"function","name":"cancel","inputs":[{"name":"targets","type":"address[]","internalType":"address[]"},{"name":"values","type":"uint256[]","internalType":"uint256[]"},{"name":"calldatas","type":"bytes[]","internalType":"bytes[]"},{"name":"descriptionHash","type":"bytes32","internalType":"bytes32"}],"outputs":[{"name":"","type":"uint256","internalType":"uint256"}],"stateMutability":"nonpayable"},{"type":"function","name":"castVote","inputs":[{"name":"proposalId","type":"uint256","internalType":"uint256"},{"name":"support","type":"uint8","internalType":"uint8"}],"outputs":[{"name":"","type":"uint256","internalType":"uint256"}],"stateMutability":"nonpayable"},{"type":"function","name":"castVoteBySig","inputs":[{"name":"proposalId","type":"uint256","internalType":"uint256"},{"name":"support","type":"uint8","internalType":"uint8"},{"name":"voter","type":"address","internalType":"address"},{"name":"signature","type":"bytes","internalType":"bytes"}],"outputs":[{"name":"","type":"uint256","internalType":"uint256"}],"stateMutability":"nonpayable"},{"type":"function","name":"castVoteWithReason","inputs":[{"name":"proposalId","type":"uint256","internalType":"uint256"},{"name":"support","type":"uint8","internalType":"uint8"},{"name":"reason","type":"string","internalType":"string"}],"outputs":[{"name":"","type":"uint256","internalType":"uint256"}],"stateMutability":"nonpayable"},{"type":"function","name":"castVoteWithReasonAndParams","inputs":[{"name":"proposalId","type":"uint256","internalType":"uint256"},{"name":"support","type":"uint8","internalType":"uint8"},{"name":"reason","type":"string","internalType":"string"},{"name":"params","type":"bytes","internalType":"bytes"}],"outputs":[{"name":"","type":"uint256","internalType":"uint256"}],"stateMutability":"nonpayable"},{"type":"function","name":"castVoteWithReasonAndParamsBySig","inputs":[{"name":"proposalId","type":"uint256","internalType":"uint256"},{"name":"support","type":"uint8","internalType":"uint8"},{"name":"voter","type":"address","internalType":"address"},{"name":"reason","type":"string","internalType":"string"},{"name":"params","type":"bytes","internalType":"bytes"},{"name":"signature","type":"bytes","internalType":"bytes"}],"outputs":[{"name":"","type":"uint256","internalType":"uint256"}],"stateMutability":"nonpayable"},{"type":"function","name":"clock","inputs":[],"outputs":[{"name":"","type":"uint48","internalType":"uint48"}],"stateMutability":"view"},{"type":"function","name":"eip712Domain","inputs":[],"outputs":[{"name":"fields","type":"bytes1","internalType":"bytes1"},{"name":"name","type":"string","internalType":"string"},{"name":"version","type":"string","internalType":"string"},{"name":"chainId","type":"uint256","internalType":"uint256"},{"name":"verifyingContract","type":"address","internalType":"address"},{"name":"salt","type":"bytes32","internalType":"bytes32"},{"name":"extensions","type":"uint256[]","internalType":"uint256[]"}],"stateMutability":"view"},{"type":"function","name":"execute","inputs":[{"name":"targets","type":"address[]","internalType":"address[]"},{"name":"values","type":"uint256[]","internalType":"uint256[]"},{"name":"calldatas","type":"bytes[]","internalType":"bytes[]"},{"name":"descriptionHash","type":"bytes32","internalType":"bytes32"}],"outputs":[{"name":"","type":"uint256","internalType":"uint256"}],"stateMutability":"payable"},{"type":"function","name":"getProposalId","inputs":[{"name":"targets","type":"address[]","internalType":"address[]"},{"name":"values","type":"uint256[]","internalType":"uint256[]"},{"name":"calldatas","type":"bytes[]","internalType":"bytes[]"},{"name":"descriptionHash","type":"bytes32","internalType":"bytes32"}],"outputs":[{"name":"","type":"uint256","internalType":"uint256"}],"stateMutability":"view"},{"type":"function","name":"getVotes","inputs":[{"name":"account","type":"address","internalType":"address"},{"name":"timepoint","type":"uint256","internalType":"uint256"}],"outputs":[{"name":"","type":"uint256","internalType":"uint256"}],"stateMutability":"view"},{"type":"function","name":"getVotesWithParams","inputs":[{"name":"account","type":"address","internalType":"address"},{"name":"timepoint","type":"uint256","internalType":"uint256"},{"name":"params","type":"bytes","internalType":"bytes"}],"outputs":[{"name":"","type":"uint256","internalType":"uint256"}],"stateMutability":"view"},{"type":"function","name":"hasVoted","inputs":[{"name":"proposalId","type":"uint256","internalType":"uint256"},{"name":"account","type":"address","internalType":"address"}],"outputs":[{"name":"","type":"bool","internalType":"bool"}],"stateMutability":"view"},{"type":"function","name":"hashProposal","inputs":[{"name":"targets","type":"address[]","internalType":"address[]"},{"name":"values","type":"uint256[]","internalType":"uint256[]"},{"name":"calldatas","type":"bytes[]","internalType":"bytes[]"},{"name":"descriptionHash","type":"bytes32","internalType":"bytes32"}],"outputs":[{"name":"","type":"uint256","internalType":"uint256"}],"stateMutability":"pure"},{"type":"function","name":"name","inputs":[],"outputs":[{"name":"","type":"string","internalType":"string"}],"stateMutability":"view"},{"type":"function","name":"nonces","inputs":[{"name":"owner","type":"address","internalType":"address"}],"outputs":[{"name":"","type":"uint256","internalType":"uint256"}],"stateMutability":"view"},{"type":"function","name":"onERC1155BatchReceived","inputs":[{"name":"","type":"address","internalType":"address"},{"name":"","type":"address","internalType":"address"},{"name":"","type":"uint256[]","internalType":"uint256[]"},{"name":"","type":"uint256[]","internalType":"uint256[]"},{"name":"","type":"bytes","internalType":"bytes"}],"outputs":[{"name":"","type":"bytes4","internalType":"bytes4"}],"stateMutability":"nonpayable"},{"type":"function","name":"onERC1155Received","inputs":[{"name":"","type":"address","internalType":"address"},{"name":"","type":"address","internalType":"address"},{"name":"","type":"uint256","internalType":"uint256"},{"name":"","type":"uint256","internalType":"uint256"},{"name":"","type":"bytes","internalType":"bytes"}],"outputs":[{"name":"","type":"bytes4","internalType":"bytes4"}],"stateMutability":"nonpayable"},{"type":"function","name":"onERC721Received","inputs":[{"name":"","type":"address","internalType":"address"},{"name":"","type":"address","internalType":"address"},{"name":"","type":"uint256","internalType":"uint256"},{"name":"","type":"bytes","internalType":"bytes"}],"outputs":[{"name":"","type":"bytes4","internalType":"bytes4"}],"stateMutability":"nonpayable"},{"type":"function","name":"proposalDeadline","inputs":[{"name":"proposalId","type":"uint256","internalType":"uint256"}],"outputs":[{"name":"","type":"uint256","internalType":"uint256"}],"stateMutability":"view"},{"type":"function","name":"proposalEta","inputs":[{"name":"proposalId","type":"uint256","internalType":"uint256"}],"outputs":[{"name":"","type":"uint256","internalType":"uint256"}],"stateMutability":"view"},{"type":"function","name":"proposalNeedsQueuing","inputs":[{"name":"","type":"uint256","internalType":"uint256"}],"outputs":[{"name":"","type":"bool","internalType":"bool"}],"stateMutability":"view"},{"type":"function","name":"proposalProposer","inputs":[{"name":"proposalId","type":"uint256","internalType":"uint256"}],"outputs":[{"name":"","type":"address","internalType":"address"}],"stateMutability":"view"},{"type":"function","name":"proposalSnapshot","inputs":[{"name":"proposalId","type":"uint256","internalType":"uint256"}],"outputs":[{"name":"","type":"uint256","internalType":"uint256"}],"stateMutability":"view"},{"type":"function","name":"proposalThreshold","inputs":[],"outputs":[{"name":"","type":"uint256","internalType":"uint256"}],"stateMutability":"view"},{"type":"function","name":"proposalVotes","inputs":[{"name":"proposalId","type":"uint256","internalType":"uint256"}],"outputs":[{"name":"againstVotes","type":"uint256","internalType":"uint256"},{"name":"forVotes","type":"uint256","internalType":"uint256"},{"name":"abstainVotes","type":"uint256","internalType":"uint256"}],"stateMutability":"view"},{"type":"function","name":"propose","inputs":[{"name":"targets","type":"address[]","internalType":"address[]"},{"name":"values","type":"uint256[]","internalType":"uint256[]"},{"name":"calldatas","type":"bytes[]","internalType":"bytes[]"},{"name":"description","type":"string","internalType":"string"}],"outputs":[{"name":"","type":"uint256","internalType":"uint256"}],"stateMutability":"nonpayable"},{"type":"function","name":"proposeWithdraw","inputs":[{"name":"to","type":"address","internalType":"address"},{"name":"amount","type":"uint256","internalType":"uint256"},{"name":"description","type":"string","internalType":"string"}],"outputs":[{"name":"","type":"uint256","internalType":"uint256"}],"stateMutability":"nonpayable"},{"type":"function","name":"queue","inputs":[{"name":"targets","type":"address[]","internalType":"address[]"},{"name":"values","type":"uint256[]","internalType":"uint256[]"},{"name":"calldatas","type":"bytes[]","internalType":"bytes[]"},{"name":"descriptionHash","type":"bytes32","internalType":"bytes32"}],"outputs":[{"name":"","type":"uint256","internalType":"uint256"}],"stateMutability":"nonpayable"},{"type":"function","name":"quorum","inputs":[{"name":"blockNumber","type":"uint256","internalType":"uint256"}],"outputs":[{"name":"","type":"uint256","internalType":"uint256"}],"stateMutability":"view"},{"type":"function","name":"quorumDenominator","inputs":[],"outputs":[{"name":"","type":"uint256","internalType":"uint256"}],"stateMutability":"view"},{"type":"function","name":"quorumNumerator","inputs":[{"name":"timepoint","type":"uint256","internalType":"uint256"}],"outputs":[{"name":"","type":"uint256","internalType":"uint256"}],"stateMutability":"view"},{"type":"function","name":"quorumNumerator","inputs":[],"outputs":[{"name":"","type":"uint256","internalType":"uint256"}],"stateMutability":"view"},{"type":"function","name":"relay","inputs":[{"name":"target","type":"address","internalType":"address"},{"name":"value","type":"uint256","internalType":"uint256"},{"name":"data","type":"bytes","internalType":"bytes"}],"outputs":[],"stateMutability":"payable"},{"type":"function","name":"setProposalThreshold","inputs":[{"name":"newProposalThreshold","type":"uint256","internalType":"uint256"}],"outputs":[],"stateMutability":"nonpayable"},{"type":"function","name":"setVotingDelay","inputs":[{"name":"newVotingDelay","type":"uint48","internalType":"uint48"}],"outputs":[],"stateMutability":"nonpayable"},{"type":"function","name":"setVotingPeriod","inputs":[{"name":"newVotingPeriod","type":"uint32","internalType":"uint32"}],"outputs":[],"stateMutability":"nonpayable"},{"type":"function","name":"state","inputs":[{"name":"proposalId","type":"uint256","internalType":"uint256"}],"outputs":[{"name":"","type":"uint8","internalType":"enum IGovernor.ProposalState"}],"stateMutability":"view"},{"type":"function","name":"supportsInterface","inputs":[{"name":"interfaceId","type":"bytes4","internalType":"bytes4"}],"outputs":[{"name":"","type":"bool","internalType":"bool"}],"stateMutability":"view"},{"type":"function","name":"token","inputs":[],"outputs":[{"name":"","type":"address","internalType":"contract IERC5805"}],"stateMutability":"view"},{"type":"function","name":"updateQuorumNumerator","inputs":[{"name":"newQuorumNumerator","type":"uint256","internalType":"uint256"}],"outputs":[],"stateMutability":"nonpayable"},{"type":"function","name":"version","inputs":[],"outputs":[{"name":"","type":"string","internalType":"string"}],"stateMutability":"view"},{"type":"function","name":"votingDelay","inputs":[],"outputs":[{"name":"","type":"uint256","internalType":"uint256"}],"stateMutability":"view"},{"type":"function","name":"votingPeriod","inputs":[],"outputs":[{"name":"","type":"uint256","internalType":"uint256"}],"stateMutability":"view"},{"type":"event","name":"EIP712DomainChanged","inputs":[],"anonymous":false},{"type":"event","name":"ProposalCanceled","inputs":[{"name":"proposalId","type":"uint256","indexed":false,"internalType":"uint256"}],"anonymous":false},{"type":"event","name":"ProposalCreated","inputs":[{"name":"proposalId","type":"uint256","indexed":false,"internalType":"uint256"},{"name":"proposer","type":"address","indexed":false,"internalType":"address"},{"name":"targets","type":"address[]","indexed":false,"internalType":"address[]"},{"name":"values","type":"uint256[]","indexed":false,"internalType":"uint256[]"},{"name":"signatures","type":"string[]","indexed":false,"internalType":"string[]"},{"name":"calldatas","type":"bytes[]","indexed":false,"internalType":"bytes[]"},{"name":"voteStart","type":"uint256","indexed":false,"internalType":"uint256"},{"name":"voteEnd","type":"uint256","indexed":false,"internalType":"uint256"},{"name":"description","type":"string","indexed":false,"internalType":"string"}],"anonymous":false},{"type":"event","name":"ProposalExecuted","inputs":[{"name":"proposalId","type":"uint256","indexed":false,"internalType":"uint256"}],"anonymous":false},{"type":"event","name":"ProposalQueued","inputs":[{"name":"proposalId","type":"uint256","indexed":false,"internalType":"uint256"},{"name":"etaSeconds","type":"uint256","indexed":false,"internalType":"uint256"}],"anonymous":false},{"type":"event","name":"ProposalThresholdSet","inputs":[{"name":"oldProposalThreshold","type":"uint256","indexed":false,"internalType":"uint256"},{"name":"newProposalThreshold","type":"uint256","indexed":false,"internalType":"uint256"}],"anonymous":false},{"type":"event","name":"QuorumNumeratorUpdated","inputs":[{"name":"oldQuorumNumerator","type":"uint256","indexed":false,"internalType":"uint256"},{"name":"newQuorumNumerator","type":"uint256","indexed":false,"internalType":"uint256"}],"anonymous":false},{"type":"event","name":"VoteCast","inputs":[{"name":"voter","type":"address","indexed":true,"internalType":"address"},{"name":"proposalId","type":"uint256","indexed":false,"internalType":"uint256"},{"name":"support","type":"uint8","indexed":false,"internalType":"uint8"},{"name":"weight","type":"uint256","indexed":false,"internalType":"uint256"},{"name":"reason","type":"string","indexed":false,"internalType":"string"}],"anonymous":false},{"type":"event","name":"VoteCastWithParams","inputs":[{"name":"voter","type":"address","indexed":true,"internalType":"address"},{"name":"proposalId","type":"uint256","indexed":false,"internalType":"uint256"},{"name":"support","type":"uint8","indexed":false,"internalType":"uint8"},{"name":"weight","type":"uint256","indexed":false,"internalType":"uint256"},{"name":"reason","type":"string","indexed":false,"internalType":"string"},{"name":"params","type":"bytes","indexed":false,"internalType":"bytes"}],"anonymous":false},{"type":"event","name":"VotingDelaySet","inputs":[{"name":"oldVotingDelay","type":"uint256","indexed":false,"internalType":"uint256"},{"name":"newVotingDelay","type":"uint256","indexed":false,"internalType":"uint256"}],"anonymous":false},{"type":"event","name":"VotingPeriodSet","inputs":[{"name":"oldVotingPeriod","type":"uint256","indexed":false,"internalType":"uint256"},{"name":"newVotingPeriod","type":"uint256","indexed":false,"internalType":"uint256"}],"anonymous":false},{"type":"error","name":"CheckpointUnorderedInsertion","inputs":[]},{"type":"error","name":"FailedCall","inputs":[]},{"type":"error","name":"GovernorAlreadyCastVote","inputs":[{"name":"voter","type":"address","internalType":"address"}]},{"type":"error","name":"GovernorAlreadyQueuedProposal","inputs":[{"name":"proposalId","type":"uint256","internalType":"uint256"}]},{"type":"error","name":"GovernorDisabledDeposit","inputs":[]},{"type":"error","name":"GovernorInsufficientProposerVotes","inputs":[{"name":"proposer","type":"address","internalType":"address"},{"name":"votes","type":"uint256","internalType":"uint256"},{"name":"threshold","type":"uint256","internalType":"uint256"}]},{"type":"error","name":"GovernorInvalidProposalLength","inputs":[{"name":"targets","type":"uint256","internalType":"uint256"},{"name":"calldatas","type":"uint256","internalType":"uint256"},{"name":"values","type":"uint256","internalType":"uint256"}]},{"type":"error","name":"GovernorInvalidQuorumFraction","inputs":[{"name":"quorumNumerator","type":"uint256","internalType":"uint256"},{"name":"quorumDenominator","type":"uint256","internalType":"uint256"}]},{"type":"error","name":"GovernorInvalidSignature","inputs":[{"name":"voter","type":"address","internalType":"address"}]},{"type":"error","name":"GovernorInvalidVoteParams","inputs":[]},{"type":"error","name":"GovernorInvalidVoteType","inputs":[]},{"type":"error","name":"GovernorInvalidVotingPeriod","inputs":[{"name":"votingPeriod","type":"uint256","internalType":"uint256"}]},{"type":"error","name":"GovernorNonexistentProposal","inputs":[{"name":"proposalId","type":"uint256","internalType":"uint256"}]},{"type":"error","name":"GovernorOnlyExecutor","inputs":[{"name":"account","type":"address","internalType":"address"}]},{"type":"error","name":"GovernorQueueNotImplemented","inputs":[]},{"type":"error","name":"GovernorRestrictedProposer","inputs":[{"name":"proposer","type":"address","internalType":"address"}]},{"type":"error","name":"GovernorUnableToCancel","inputs":[{"name":"proposalId","type":"uint256","internalType":"uint256"},{"name":"account","type":"address","internalType":"address"}]},{"type":"error","name":"GovernorUnexpectedProposalState","inputs":[{"name":"proposalId","type":"uint256","internalType":"uint256"},{"name":"current","type":"uint8","internalType":"enum IGovernor.ProposalState"},{"name":"expectedStates","type":"bytes32","internalType":"bytes32"}]},{"type":"error","name":"InvalidAccountNonce","inputs":[{"name":"account","type":"address","internalType":"address"},{"name":"currentNonce","type":"uint256","internalType":"uint256"}]},{"type":"error","name":"InvalidShortString","inputs":[]},{"type":"error","name":"SafeCastOverflowedUintDowncast","inputs":[{"name":"bits","type":"uint8","internalType":"uint8"},{"name":"value","type":"uint256","internalType":"uint256"}]},{"type":"error","name":"StringTooLong","inputs":[{"name":"str","type":"string","internalType":"string"}]}],"bytecode":{"object":"0x61018060405234801562000011575f80fd5b50604051620047bb380380620047bb833981016040819052620000349162000714565b600482600161b2fa5f6040518060400160405280600a815260200169476f7665726e616e636560b01b81525080620000716200019960201b60201c565b6200007d825f620001b4565b610120526200008e816001620001b4565b61014052815160208084019190912060e052815190820120610100524660a0526200011b60e05161010051604080517f8b73c3c69bb8fe3d512ecc4cf759cc79239f7b179b0ffacaa9a75d522b39400f60208201529081019290925260608201524660808201523060a08201525f9060c00160405160208183030381529060405280519060200120905090565b60805250503060c0526003620001328282620007ef565b5062000140905083620001ec565b6200014b8262000252565b6200015681620002f7565b5050506001600160a01b031661016052620001718162000338565b50600b80546001600160a01b0319166001600160a01b03929092169190911790555062000974565b6040805180820190915260018152603160f81b602082015290565b5f602083511015620001d357620001cb83620003d7565b9050620001e6565b81620001e08482620007ef565b5060ff90505b92915050565b6008546040805165ffffffffffff928316815291831660208301527fc565b045403dc03c2eea82b81a0465edad9e2e7fc4d97e11421c209da93d7a93910160405180910390a16008805465ffffffffffff191665ffffffffffff92909216919091179055565b8063ffffffff165f03620002805760405163f1cfbf0560e01b81525f60048201526024015b60405180910390fd5b6008546040805163ffffffff66010000000000009093048316815291831660208301527f7e3f7f0708a84de9203036abaa450dccc85ad5ff52f78c170f3edb55cf5e8828910160405180910390a16008805463ffffffff90921666010000000000000263ffffffff60301b19909216919091179055565b60075460408051918252602082018390527fccb45da8d5717e6c4544694297c4ba5cf151d455c9bb0ed4fc7a38411bc05461910160405180910390a1600755565b606480821115620003675760405163243e544560e01b8152600481018390526024810182905260440162000277565b5f6200037262000419565b9050620003976200038262000434565b6200038d85620004b5565b600a9190620004ee565b505060408051828152602081018590527f0553476bf02ef2726e8ce5ced78d63e26e602e4a2257b1f559418e24b4633997910160405180910390a1505050565b5f80829050601f8151111562000404578260405163305a27a960e01b8152600401620002779190620008bb565b8051620004118262000909565b179392505050565b5f62000426600a6200050a565b6001600160d01b0316905090565b5f620004406101605190565b6001600160a01b03166391ddadf46040518163ffffffff1660e01b8152600401602060405180830381865afa9250505080156200049c575060408051601f3d908101601f1916820190925262000499918101906200092d565b60015b620004b057620004ab62000557565b905090565b919050565b5f6001600160d01b03821115620004ea576040516306dfcc6560e41b815260d060048201526024810183905260440162000277565b5090565b5f80620004fd85858562000563565b915091505b935093915050565b80545f9080156200054e5762000534836200052760018462000954565b5f91825260209091200190565b54660100000000000090046001600160d01b031662000550565b5f5b9392505050565b5f620004ab43620006c8565b82545f90819080156200066a575f62000583876200052760018562000954565b805490915065ffffffffffff80821691660100000000000090046001600160d01b0316908816821115620005ca57604051632520601d60e01b815260040160405180910390fd5b8765ffffffffffff168265ffffffffffff16036200060857825465ffffffffffff1666010000000000006001600160d01b038916021783556200065b565b6040805180820190915265ffffffffffff808a1682526001600160d01b03808a1660208085019182528d54600181018f555f8f815291909120945191519092166601000000000000029216919091179101555b94508593506200050292505050565b50506040805180820190915265ffffffffffff80851682526001600160d01b0380851660208085019182528854600181018a555f8a815291822095519251909316660100000000000002919093161792019190915590508162000502565b5f65ffffffffffff821115620004ea576040516306dfcc6560e41b8152603060048201526024810183905260440162000277565b6001600160a01b038116811462000711575f80fd5b50565b5f806040838503121562000726575f80fd5b82516200073381620006fc565b60208401519092506200074681620006fc565b809150509250929050565b634e487b7160e01b5f52604160045260245ffd5b600181811c908216806200077a57607f821691505b6020821081036200079957634e487b7160e01b5f52602260045260245ffd5b50919050565b601f821115620007ea57805f5260205f20601f840160051c81016020851015620007c65750805b601f840160051c820191505b81811015620007e7575f8155600101620007d2565b50505b505050565b81516001600160401b038111156200080b576200080b62000751565b62000823816200081c845462000765565b846200079f565b602080601f83116001811462000859575f8415620008415750858301515b5f19600386901b1c1916600185901b178555620008b3565b5f85815260208120601f198616915b82811015620008895788860151825594840194600190910190840162000868565b5085821015620008a757878501515f19600388901b60f8161c191681555b505060018460011b0185555b505050505050565b5f602080835283518060208501525f5b81811015620008e957858101830151858201604001528201620008cb565b505f604082860101526040601f19601f8301168501019250505092915050565b8051602080830151919081101562000799575f1960209190910360031b1b16919050565b5f602082840312156200093e575f80fd5b815165ffffffffffff8116811462000550575f80fd5b81810381811115620001e657634e487b7160e01b5f52601160045260245ffd5b60805160a05160c05160e05161010051610120516101405161016051613dcf620009ec5f395f81816109b801528181610c9201528181610fb601528181611b340152611d4601525f611a7801525f611a4c01525f6128fc01525f6128d401525f61282f01525f61285901525f6128830152613dcf5ff3fe6080604052600436106102a8575f3560e01c80637d5e81e21161016f578063bc197c81116100d8578063deaaa7cc11610092578063ece40cc11161006d578063ece40cc114610941578063f23a6e6114610960578063f8ce560a1461098b578063fc0c546a146109aa575f80fd5b8063deaaa7cc146108d0578063e540d01d14610903578063eb9019d414610922575f80fd5b8063bc197c81146107f0578063c01f9e371461081b578063c28bc2fa1461083a578063c59057e41461084d578063cd74e2221461086c578063dd4e2ba51461088b575f80fd5b80639a802a6d116101295780639a802a6d14610735578063a7713a7014610754578063a8f8a66814610768578063a9a9529414610787578063ab58fb8e146107a6578063b58131b0146107dc575f80fd5b80637d5e81e21461065e5780637ecebe001461067d57806384b0196e146106b15780638ff262e3146106d857806391ddadf4146106f757806397c3d33414610722575f80fd5b806343859632116102115780635b8d0e0d116101cb5780635b8d0e0d146105a45780635f398a14146105c357806360c4247f146105e257806376cdb03b1461060157806379051887146106205780637b3c71d31461063f575f80fd5b806343859632146104a7578063452115d6146104ef5780634bf5d7e91461050e578063544ffc9c1461052257806354fd4d501461055c5780635678138814610585575f80fd5b8063160cbed711610262578063160cbed7146103e35780632656227d146104025780632d63f693146104155780632fe3e261146104345780633932abb1146104675780633e4f49e61461047b575f80fd5b806301ffc9a7146102b557806302a251a3146102e957806306f3f9e61461031457806306fdde0314610333578063143489d014610354578063150b7a02146103a0575f80fd5b366102b157005b005b5f80fd5b3480156102c0575f80fd5b506102d46102cf366004612eee565b6109e1565b60405190151581526020015b60405180910390f35b3480156102f4575f80fd5b50600854600160301b900463ffffffff165b6040519081526020016102e0565b34801561031f575f80fd5b506102af61032e366004612f15565b6109f1565b34801561033e575f80fd5b50610347610a05565b6040516102e09190612f79565b34801561035f575f80fd5b5061038861036e366004612f15565b5f908152600460205260409020546001600160a01b031690565b6040516001600160a01b0390911681526020016102e0565b3480156103ab575f80fd5b506103ca6103ba36600461305d565b630a85bd0160e11b949350505050565b6040516001600160e01b031990911681526020016102e0565b3480156103ee575f80fd5b506103066103fd366004613226565b610a95565b610306610410366004613226565b610ad3565b348015610420575f80fd5b5061030661042f366004612f15565b610bec565b34801561043f575f80fd5b506103067f3e83946653575f9a39005e1545185629e92736b7528ab20ca3816f315424a81181565b348015610472575f80fd5b50610306610c0c565b348015610486575f80fd5b5061049a610495366004612f15565b610c1e565b6040516102e091906132e3565b3480156104b2575f80fd5b506102d46104c13660046132f1565b5f8281526009602090815260408083206001600160a01b038516845260030190915290205460ff1692915050565b3480156104fa575f80fd5b50610306610509366004613226565b610c28565b348015610519575f80fd5b50610347610c8e565b34801561052d575f80fd5b5061054161053c366004612f15565b610d4e565b604080519384526020840192909252908201526060016102e0565b348015610567575f80fd5b506040805180820190915260018152603160f81b6020820152610347565b348015610590575f80fd5b5061030661059f36600461332b565b610d73565b3480156105af575f80fd5b506103066105be366004613390565b610d9a565b3480156105ce575f80fd5b506103066105dd366004613440565b610e57565b3480156105ed575f80fd5b506103066105fc366004612f15565b610e9f565b34801561060c575f80fd5b50600b54610388906001600160a01b031681565b34801561062b575f80fd5b506102af61063a3660046134d0565b610eab565b34801561064a575f80fd5b506103066106593660046134eb565b610ebc565b348015610669575f80fd5b50610306610678366004613540565b610f0c565b348015610688575f80fd5b506103066106973660046135d9565b6001600160a01b03165f9081526002602052604090205490565b3480156106bc575f80fd5b506106c5610f22565b6040516102e0979695949392919061362c565b3480156106e3575f80fd5b506103066106f236600461369b565b610f64565b348015610702575f80fd5b5061070b610fb3565b60405165ffffffffffff90911681526020016102e0565b34801561072d575f80fd5b506064610306565b348015610740575f80fd5b5061030661074f3660046136e6565b61103a565b34801561075f575f80fd5b50610306611050565b348015610773575f80fd5b50610306610782366004613226565b611069565b348015610792575f80fd5b506102d46107a1366004612f15565b505f90565b3480156107b1575f80fd5b506103066107c0366004612f15565b5f9081526004602052604090206001015465ffffffffffff1690565b3480156107e7575f80fd5b50610306611076565b3480156107fb575f80fd5b506103ca61080a366004613738565b63bc197c8160e01b95945050505050565b348015610826575f80fd5b50610306610835366004612f15565b611080565b6102af6108483660046137c0565b6110c2565b348015610858575f80fd5b50610306610867366004613226565b61113e565b348015610877575f80fd5b506103066108863660046136e6565b611177565b348015610896575f80fd5b506040805180820190915260208082527f737570706f72743d627261766f2671756f72756d3d666f722c6162737461696e90820152610347565b3480156108db575f80fd5b506103067ff2aad550cf55f045cb27e9c559f9889fdfb6e6cdaa032301d6ea397784ae51d781565b34801561090e575f80fd5b506102af61091d3660046137fd565b6112b7565b34801561092d575f80fd5b5061030661093c366004613820565b6112c8565b34801561094c575f80fd5b506102af61095b366004612f15565b6112e7565b34801561096b575f80fd5b506103ca61097a366004613848565b63f23a6e6160e01b95945050505050565b348015610996575f80fd5b506103066109a5366004612f15565b6112f8565b3480156109b5575f80fd5b507f0000000000000000000000000000000000000000000000000000000000000000610388565b905090565b5f6109eb82611302565b92915050565b6109f961136c565b610a02816113a3565b50565b606060038054610a14906138a7565b80601f0160208091040260200160405190810160405280929190818152602001828054610a40906138a7565b8015610a8b5780601f10610a6257610100808354040283529160200191610a8b565b820191905f5260205f20905b815481529060010190602001808311610a6e57829003601f168201915b5050505050905090565b5f80610aa386868686611069565b9050610ab881610ab36004611438565b61145a565b505f604051634844252360e11b815260040160405180910390fd5b5f80610ae186868686611069565b90505f610af282610ab36004611438565b505f828152600460205260409020805460ff60f01b1916600160f01b17905530610b193090565b6001600160a01b031614610ba2575f5b8751811015610ba057306001600160a01b0316888281518110610b4e57610b4e6138df565b60200260200101516001600160a01b031603610b9857610b98868281518110610b7957610b796138df565b602002602001015180519060200120600561149790919063ffffffff16565b600101610b29565b505b610baf82888888886114b8565b6040518281527f712ae1383f79ac853f8d882153778e0260ef8f03b504e2866e0593e04d2b291f9060200160405180910390a15095945050505050565b5f90815260046020526040902054600160a01b900465ffffffffffff1690565b5f6109dc60085465ffffffffffff1690565b5f6109eb8261158d565b5f80610c3686868686611069565b905033610c4382826116be565b610c7757604051638fe5d8a960e01b8152600481018390526001600160a01b03821660248201526044015b60405180910390fd5b610c8387878787611703565b979650505050505050565b60607f00000000000000000000000000000000000000000000000000000000000000006001600160a01b0316634bf5d7e96040518163ffffffff1660e01b81526004015f60405180830381865afa925050508015610d0d57506040513d5f823e601f3d908101601f19168201604052610d0a91908101906138f3565b60015b610d49575060408051808201909152601d81527f6d6f64653d626c6f636b6e756d6265722666726f6d3d64656661756c74000000602082015290565b919050565b5f818152600960205260409020805460018201546002909201549091905b9193909250565b5f80339050610d9284828560405180602001604052805f815250611710565b949350505050565b5f610de088888888888080601f0160208091040260200160405190810160405280939291908181526020018383808284375f920191909152508a92508991506117319050565b610e08576040516394ab6c0760e01b81526001600160a01b0387166004820152602401610c6e565b610e4b88878988888080601f0160208091040260200160405190810160405280939291908181526020018383808284375f920191909152508a92506117fe915050565b98975050505050505050565b5f80339050610c8387828888888080601f0160208091040260200160405190810160405280939291908181526020018383808284375f920191909152508a92506117fe915050565b5f6109eb600a836118dc565b610eb361136c565b610a0281611929565b5f80339050610f0286828787878080601f0160208091040260200160405190810160405280939291908181526020018383808284375f9201919091525061171092505050565b9695505050505050565b5f610f198585858561198f565b95945050505050565b5f6060805f805f6060610f33611a45565b610f3b611a71565b604080515f80825260208201909252600f60f81b9b939a50919850469750309650945092509050565b5f610f7185858585611a9e565b610f99576040516394ab6c0760e01b81526001600160a01b0384166004820152602401610c6e565b610f1985848660405180602001604052805f815250611710565b5f7f00000000000000000000000000000000000000000000000000000000000000006001600160a01b03166391ddadf46040518163ffffffff1660e01b8152600401602060405180830381865afa92505050801561102e575060408051601f3d908101601f1916820190925261102b9181019061395b565b60015b610d49576109dc611b27565b5f611046848484611b31565b90505b9392505050565b5f61105b600a611bc4565b6001600160d01b0316905090565b5f610f198585858561113e565b5f6109dc60075490565b5f818152600460205260408120546110b490600160d01b810463ffffffff1690600160a01b900465ffffffffffff1661398a565b65ffffffffffff1692915050565b6110ca61136c565b5f80856001600160a01b03168585856040516110e79291906139b0565b5f6040518083038185875af1925050503d805f8114611121576040519150601f19603f3d011682016040523d82523d5f602084013e611126565b606091505b50915091506111358282611c08565b50505050505050565b5f848484846040516020016111569493929190613a4f565b60408051601f19818403018152919052805160209091012095945050505050565b6040805160018082528183019092525f918291906020808301908036833750506040805160018082528183019092529293505f9291506020808301908036833750506040805160018082528183019092529293505f929150602082015b60608152602001906001900390816111d4575050600b5484519192506001600160a01b03169084905f9061120a5761120a6138df565b60200260200101906001600160a01b031690816001600160a01b0316815250505f825f8151811061123d5761123d6138df565b60209081029190910101526040516001600160a01b03881660248201526044810187905260640160408051601f198184030181529190526020810180516001600160e01b031663f3fef3a360e01b179052815182905f906112a0576112a06138df565b6020026020010181905250610c8383838388610f0c565b6112bf61136c565b610a0281611c45565b5f61104983836112e260408051602081019091525f815290565b611b31565b6112ef61136c565b610a0281611ce1565b5f6109eb82611d22565b5f6001600160e01b031982166366defe7760e11b148061133257506001600160e01b031982166332a2ad4360e11b145b8061134d57506001600160e01b03198216630271189760e51b145b806109eb57506301ffc9a760e01b6001600160e01b03198316146109eb565b30331461138e576040516347096e4760e01b8152336004820152602401610c6e565b565b8061139b6005611dbf565b036113905750565b6064808211156113d05760405163243e544560e01b81526004810183905260248101829052604401610c6e565b5f6113d9611050565b90506113f86113e6610fb3565b6113ef85611dde565b600a9190611e15565b505060408051828152602081018590527f0553476bf02ef2726e8ce5ced78d63e26e602e4a2257b1f559418e24b4633997910160405180910390a1505050565b5f81600781111561144b5761144b6132af565b600160ff919091161b92915050565b5f8061146584610c1e565b90505f8361147283611438565b1603611049578381846040516331b75e4d60e01b8152600401610c6e93929190613a99565b5f6114a28383611e2f565b9050806114b3576114b36041611e94565b505050565b5f5b8451811015611585575f808683815181106114d7576114d76138df565b60200260200101516001600160a01b03168684815181106114fa576114fa6138df565b6020026020010151868581518110611514576115146138df565b60200260200101516040516115299190613abb565b5f6040518083038185875af1925050503d805f8114611563576040519150601f19603f3d011682016040523d82523d5f602084013e611568565b606091505b50915091506115778282611c08565b5050508060010190506114ba565b505050505050565b5f818152600460205260408120805460ff600160f01b8204811691600160f81b90041681156115c157506007949350505050565b80156115d257506002949350505050565b5f6115dc86610bec565b9050805f0361160157604051636ad0607560e01b815260048101879052602401610c6e565b5f61160a610fb3565b65ffffffffffff16905080821061162757505f9695505050505050565b5f61163188611080565b905081811061164857506001979650505050505050565b61165188611ea5565b158061167057505f888152600960205260409020805460019091015411155b1561168357506003979650505050505050565b5f8881526004602052604090206001015465ffffffffffff165f036116b057506004979650505050505050565b506005979650505050505050565b5f806116c984610c1e565b60078111156116da576116da6132af565b1480156110495750505f91825260046020526040909120546001600160a01b0391821691161490565b5f610f1985858585611edb565b5f610f198585858561172c60408051602081019091525f815290565b6117fe565b5f610c83856117f87f3e83946653575f9a39005e1545185629e92736b7528ab20ca3816f315424a8118a8a8a6117838c6001600160a01b03165f90815260026020526040902080546001810190915590565b8b516020808e01919091208c518d8301206040516117dd98979695949301968752602087019590955260ff9390931660408601526001600160a01b03919091166060850152608084015260a083015260c082015260e00190565b60405160208183030381529060405280519060200120611f9b565b84611fc7565b5f61180d86610ab36001611438565b505f6118228661181c89610bec565b85611b31565b90505f6118328888888588612037565b905083515f0361188857866001600160a01b03167fb8e138887d0aa13bab447e82de9d5c1777041ecd21ca36ba824ff1e6c07ddda48988848960405161187b9493929190613ad6565b60405180910390a2610c83565b866001600160a01b03167fe2babfbac5889a709b63bb7f598b324e08bc5a4fb9ec647fb3cbc9ec07eb871289888489896040516118c9959493929190613afd565b60405180910390a2979650505050505050565b5f805f6118e885612133565b9250925050838265ffffffffffff161115611915576119106119098561218b565b86906121bd565b611917565b805b6001600160d01b031695945050505050565b6008546040805165ffffffffffff928316815291831660208301527fc565b045403dc03c2eea82b81a0465edad9e2e7fc4d97e11421c209da93d7a93910160405180910390a16008805465ffffffffffff191665ffffffffffff92909216919091179055565b5f3361199b818461225f565b6119c35760405163d9b3955760e01b81526001600160a01b0382166004820152602401610c6e565b5f6119cc611076565b90508015611a38575f6119fa8360016119e3610fb3565b6119ed9190613b36565b65ffffffffffff166112c8565b905081811015611a3657604051636121770b60e11b81526001600160a01b03841660048201526024810182905260448101839052606401610c6e565b505b610c8387878787866122e4565b60606109dc7f00000000000000000000000000000000000000000000000000000000000000005f6124fe565b60606109dc7f000000000000000000000000000000000000000000000000000000000000000060016124fe565b5f610f19836117f87ff2aad550cf55f045cb27e9c559f9889fdfb6e6cdaa032301d6ea397784ae51d7888888611af08a6001600160a01b03165f90815260026020526040902080546001810190915590565b60408051602081019690965285019390935260ff90911660608401526001600160a01b0316608083015260a082015260c0016117dd565b5f6109dc4361218b565b5f7f0000000000000000000000000000000000000000000000000000000000000000604051630748d63560e31b81526001600160a01b038681166004830152602482018690529190911690633a46b1a890604401602060405180830381865afa158015611ba0573d5f803e3d5ffd5b505050506040513d601f19601f820116820180604052508101906110469190613b55565b80545f908015611c0057611bea83611bdd600184613b6c565b5f91825260209091200190565b54600160301b90046001600160d01b0316611049565b5f9392505050565b60608215611c175750806109eb565b815115611c2c57611c27826125a7565b6109eb565b60405163d6bda27560e01b815260040160405180910390fd5b8063ffffffff165f03611c6d5760405163f1cfbf0560e01b81525f6004820152602401610c6e565b6008546040805163ffffffff600160301b9093048316815291831660208301527f7e3f7f0708a84de9203036abaa450dccc85ad5ff52f78c170f3edb55cf5e8828910160405180910390a16008805463ffffffff909216600160301b0269ffffffff00000000000019909216919091179055565b60075460408051918252602082018390527fccb45da8d5717e6c4544694297c4ba5cf151d455c9bb0ed4fc7a38411bc05461910160405180910390a1600755565b604051632394e7a360e21b8152600481018290525f906109eb906001600160a01b037f00000000000000000000000000000000000000000000000000000000000000001690638e539e8c90602401602060405180830381865afa158015611d8b573d5f803e3d5ffd5b505050506040513d601f19601f82011682018060405250810190611daf9190613b55565b611db884610e9f565b60646125af565b5f805f611dcb8461265f565b9150915081611049576110496031611e94565b5f6001600160d01b03821115611e11576040516306dfcc6560e41b815260d0600482015260248101839052604401610c6e565b5090565b5f80611e228585856126d3565b915091505b935093915050565b81545f906001600160801b03600160801b820481169181166001830190911603611e5c575f9150506109eb565b6001600160801b038181165f908152600186810160205260409091209490945584549184018116600160801b02911617909255919050565b634e487b715f52806020526024601cfd5b5f81815260096020526040812060028101546001820154611ec69190613b7f565b611ed26109a585610bec565b11159392505050565b5f80611ee986868686611069565b9050611f3781611ef96007611438565b611f036006611438565b611f0d6002611438565b6001611f1a600782613b92565b611f25906002613c8b565b611f2f9190613b6c565b18181861145a565b505f818152600460205260409081902080546001600160f81b0316600160f81b179055517f789cf55be980739dad1d0699b93b58e806b51c9d96619bfa8fe0a28abaa7b30c90611f8a9083815260200190565b60405180910390a195945050505050565b5f6109eb611fa7612823565b8360405161190160f01b8152600281019290925260228201526042902090565b5f836001600160a01b03163b5f03612025575f80611fe5858561294c565b5090925090505f816003811115611ffe57611ffe6132af565b14801561201c5750856001600160a01b0316826001600160a01b0316145b92505050611049565b612030848484612995565b9050611049565b5f8581526009602090815260408083206001600160a01b03881684526003810190925282205460ff1615612089576040516371c6af4960e01b81526001600160a01b0387166004820152602401610c6e565b6001600160a01b0386165f9081526003820160205260409020805460ff1916600117905560ff85166120d25783815f015f8282546120c79190613b7f565b909155506121289050565b5f1960ff8616016120f05783816001015f8282546120c79190613b7f565b60011960ff86160161210f5783816002015f8282546120c79190613b7f565b6040516303599be160e11b815260040160405180910390fd5b509195945050505050565b80545f9081908190808203612151575f805f93509350935050610d6c565b5f61216186611bdd600185613b6c565b546001955065ffffffffffff81169450600160301b90046001600160d01b03169250610d6c915050565b5f65ffffffffffff821115611e11576040516306dfcc6560e41b81526030600482015260248101839052604401610c6e565b81545f9081816005811115612219575f6121d6846129e6565b6121e09085613b6c565b5f8881526020902090915081015465ffffffffffff908116908716101561220957809150612217565b612214816001613b7f565b92505b505b5f61222687878585612b3e565b905080156122535761223d87611bdd600184613b6c565b54600160301b90046001600160d01b0316610c83565b5f979650505050505050565b80515f9060348110156122765760019150506109eb565b60131981840101516001600160b01b03198116692370726f706f7365723d60b01b146122a7576001925050506109eb565b5f806122b786602a860386612b94565b91509150811580610c835750866001600160a01b0316816001600160a01b03161494505050505092915050565b5f6122f88686868680519060200120611069565b90508451865114158061230d57508351865114155b8061231757508551155b1561234c57855184518651604051630447b05d60e41b8152600481019390935260248301919091526044820152606401610c6e565b5f81815260046020526040902054600160a01b900465ffffffffffff1615612395578061237882610c1e565b6040516331b75e4d60e01b8152610c6e9291905f90600401613a99565b5f61239e610c0c565b6123a6610fb3565b65ffffffffffff166123b89190613b7f565b90505f6123d260085463ffffffff600160301b9091041690565b5f84815260046020526040902080546001600160a01b0319166001600160a01b0387161781559091506124048361218b565b815465ffffffffffff91909116600160a01b0265ffffffffffff60a01b1990911617815561243182612c3d565b815463ffffffff91909116600160d01b0263ffffffff60d01b1990911617815588517f7d84a6263ae0d98d3329bd7b46bb4e8d6f98cd35a7adb45c274c8b7fd5ebd5e090859087908c908c906001600160401b0381111561249457612494612fa1565b6040519080825280602002602001820160405280156124c757816020015b60608152602001906001900390816124b25790505b508c896124d48a82613b7f565b8e6040516124ea99989796959493929190613c99565b60405180910390a150505095945050505050565b606060ff83146125185761251183612c6d565b90506109eb565b818054612524906138a7565b80601f0160208091040260200160405190810160405280929190818152602001828054612550906138a7565b801561259b5780601f106125725761010080835404028352916020019161259b565b820191905f5260205f20905b81548152906001019060200180831161257e57829003601f168201915b505050505090506109eb565b805160208201fd5b5f805f6125bc8686612caa565b91509150815f036125e0578381816125d6576125d6613d6e565b0492505050611049565b8184116125f7576125f76003851502601118611e94565b5f848688095f868103871696879004966002600389028118808a02820302808a02820302808a02820302808a02820302808a02820302808a02909103029181900381900460010185841190960395909502919093039390930492909217029150509392505050565b80545f9081906001600160801b0380821691600160801b900416810361268a57505f93849350915050565b6001600160801b038181165f908152600186810160205260408220805492905586546fffffffffffffffffffffffffffffffff1916938101909216929092179094559293915050565b82545f90819080156127c9575f6126ef87611bdd600185613b6c565b805490915065ffffffffffff80821691600160301b90046001600160d01b031690881682111561273257604051632520601d60e01b815260040160405180910390fd5b8765ffffffffffff168265ffffffffffff160361276b57825465ffffffffffff16600160301b6001600160d01b038916021783556127bb565b6040805180820190915265ffffffffffff808a1682526001600160d01b03808a1660208085019182528d54600181018f555f8f81529190912094519151909216600160301b029216919091179101555b9450859350611e2792505050565b50506040805180820190915265ffffffffffff80851682526001600160d01b0380851660208085019182528854600181018a555f8a815291822095519251909316600160301b029190931617920191909155905081611e27565b5f306001600160a01b037f00000000000000000000000000000000000000000000000000000000000000001614801561287b57507f000000000000000000000000000000000000000000000000000000000000000046145b156128a557507f000000000000000000000000000000000000000000000000000000000000000090565b6109dc604080517f8b73c3c69bb8fe3d512ecc4cf759cc79239f7b179b0ffacaa9a75d522b39400f60208201527f0000000000000000000000000000000000000000000000000000000000000000918101919091527f000000000000000000000000000000000000000000000000000000000000000060608201524660808201523060a08201525f9060c00160405160208183030381529060405280519060200120905090565b5f805f8351604103612983576020840151604085015160608601515f1a61297588828585612cc6565b95509550955050505061298e565b505081515f91506002905b9250925092565b805160408051630b135d3f60e11b8082526004820186905260248201929092525f92906020820185604483015e60205f60648401838a5afa9050825f5114601f3d1116811693505050509392505050565b5f600182116129f3575090565b816001600160801b8210612a0c5760809190911c9060401b5b680100000000000000008210612a275760409190911c9060201b5b6401000000008210612a3e5760209190911c9060101b5b620100008210612a535760109190911c9060081b5b6101008210612a675760089190911c9060041b5b60108210612a7a5760049190911c9060021b5b60048210612a865760011b5b600302600190811c90818581612a9e57612a9e613d6e565b048201901c90506001818581612ab657612ab6613d6e565b048201901c90506001818581612ace57612ace613d6e565b048201901c90506001818581612ae657612ae6613d6e565b048201901c90506001818581612afe57612afe613d6e565b048201901c90506001818581612b1657612b16613d6e565b048201901c9050612b35818581612b2f57612b2f613d6e565b04821190565b90039392505050565b5f5b81831015612b8c575f85815260209020838316600285851804019081015465ffffffffffff86811691161115612b7857809250612b86565b612b83816001613b7f565b93505b50612b40565b509392505050565b5f808451831180612ba457508284115b15612bb357505f905080611e27565b5f612bbf856001613b7f565b84118015612be7575061060f60f31b612bdb8787016020015190565b6001600160f01b031916145b90505f612bf78215156002613d82565b612c02906028613b7f565b905080612c0f8787613b6c565b03612c30575f80612c21898989612d8e565b9096509450611e279350505050565b5f80935093505050611e27565b5f63ffffffff821115611e11576040516306dfcc6560e41b81526020600482015260248101839052604401610c6e565b60605f612c7983612e4f565b6040805160208082528183019092529192505f91906020820181803683375050509182525060208101929092525090565b5f805f1983850993909202808410938190039390930393915050565b5f80807f7fffffffffffffffffffffffffffffff5d576e7357a4501ddfe92f46681b20a0841115612cff57505f91506003905082612d84565b604080515f808252602082018084528a905260ff891692820192909252606081018790526080810186905260019060a0016020604051602081039080840390855afa158015612d50573d5f803e3d5ffd5b5050604051601f1901519150506001600160a01b038116612d7b57505f925060019150829050612d84565b92505f91508190505b9450945094915050565b5f808481612d9d866001613b7f565b85118015612dc5575061060f60f31b612db98388016020015190565b6001600160f01b031916145b90505f612dd58215156002613d82565b90505f80612de3838a613b7f565b90505b87811015612e3e575f612e04612dff8784016020015190565b612e76565b9050600f8160ff161115612e23575f8097509750505050505050611e27565b612e2e601084613d82565b60ff909116019150600101612de6565b506001999098509650505050505050565b5f60ff8216601f8111156109eb57604051632cd44ac360e21b815260040160405180910390fd5b5f60f882901c602f81118015612e8f5750603a8160ff16105b15612e9d57602f19016109eb565b60608160ff16118015612eb3575060678160ff16105b15612ec157605619016109eb565b60408160ff16118015612ed7575060478160ff16105b15612ee557603619016109eb565b5060ff92915050565b5f60208284031215612efe575f80fd5b81356001600160e01b031981168114611049575f80fd5b5f60208284031215612f25575f80fd5b5035919050565b5f5b83811015612f46578181015183820152602001612f2e565b50505f910152565b5f8151808452612f65816020860160208601612f2c565b601f01601f19169290920160200192915050565b602081525f6110496020830184612f4e565b80356001600160a01b0381168114610d49575f80fd5b634e487b7160e01b5f52604160045260245ffd5b604051601f8201601f191681016001600160401b0381118282101715612fdd57612fdd612fa1565b604052919050565b5f6001600160401b03821115612ffd57612ffd612fa1565b50601f01601f191660200190565b5f82601f83011261301a575f80fd5b813561302d61302882612fe5565b612fb5565b818152846020838601011115613041575f80fd5b816020850160208301375f918101602001919091529392505050565b5f805f8060808587031215613070575f80fd5b61307985612f8b565b935061308760208601612f8b565b92506040850135915060608501356001600160401b038111156130a8575f80fd5b6130b48782880161300b565b91505092959194509250565b5f6001600160401b038211156130d8576130d8612fa1565b5060051b60200190565b5f82601f8301126130f1575f80fd5b81356020613101613028836130c0565b8083825260208201915060208460051b870101935086841115613122575f80fd5b602086015b848110156131455761313881612f8b565b8352918301918301613127565b509695505050505050565b5f82601f83011261315f575f80fd5b8135602061316f613028836130c0565b8083825260208201915060208460051b870101935086841115613190575f80fd5b602086015b848110156131455780358352918301918301613195565b5f82601f8301126131bb575f80fd5b813560206131cb613028836130c0565b82815260059290921b840181019181810190868411156131e9575f80fd5b8286015b848110156131455780356001600160401b0381111561320a575f80fd5b6132188986838b010161300b565b8452509183019183016131ed565b5f805f8060808587031215613239575f80fd5b84356001600160401b038082111561324f575f80fd5b61325b888389016130e2565b95506020870135915080821115613270575f80fd5b61327c88838901613150565b94506040870135915080821115613291575f80fd5b5061329e878288016131ac565b949793965093946060013593505050565b634e487b7160e01b5f52602160045260245ffd5b600881106132df57634e487b7160e01b5f52602160045260245ffd5b9052565b602081016109eb82846132c3565b5f8060408385031215613302575f80fd5b8235915061331260208401612f8b565b90509250929050565b803560ff81168114610d49575f80fd5b5f806040838503121561333c575f80fd5b823591506133126020840161331b565b5f8083601f84011261335c575f80fd5b5081356001600160401b03811115613372575f80fd5b602083019150836020828501011115613389575f80fd5b9250929050565b5f805f805f805f60c0888a0312156133a6575f80fd5b873596506133b66020890161331b565b95506133c460408901612f8b565b945060608801356001600160401b03808211156133df575f80fd5b6133eb8b838c0161334c565b909650945060808a0135915080821115613403575f80fd5b61340f8b838c0161300b565b935060a08a0135915080821115613424575f80fd5b506134318a828b0161300b565b91505092959891949750929550565b5f805f805f60808688031215613454575f80fd5b853594506134646020870161331b565b935060408601356001600160401b038082111561347f575f80fd5b61348b89838a0161334c565b909550935060608801359150808211156134a3575f80fd5b506134b08882890161300b565b9150509295509295909350565b65ffffffffffff81168114610a02575f80fd5b5f602082840312156134e0575f80fd5b8135611049816134bd565b5f805f80606085870312156134fe575f80fd5b8435935061350e6020860161331b565b925060408501356001600160401b03811115613528575f80fd5b6135348782880161334c565b95989497509550505050565b5f805f8060808587031215613553575f80fd5b84356001600160401b0380821115613569575f80fd5b613575888389016130e2565b9550602087013591508082111561358a575f80fd5b61359688838901613150565b945060408701359150808211156135ab575f80fd5b6135b7888389016131ac565b935060608701359150808211156135cc575f80fd5b506130b48782880161300b565b5f602082840312156135e9575f80fd5b61104982612f8b565b5f815180845260208085019450602084015f5b8381101561362157815187529582019590820190600101613605565b509495945050505050565b60ff60f81b8816815260e060208201525f61364a60e0830189612f4e565b828103604084015261365c8189612f4e565b606084018890526001600160a01b038716608085015260a0840186905283810360c0850152905061368d81856135f2565b9a9950505050505050505050565b5f805f80608085870312156136ae575f80fd5b843593506136be6020860161331b565b92506136cc60408601612f8b565b915060608501356001600160401b038111156130a8575f80fd5b5f805f606084860312156136f8575f80fd5b61370184612f8b565b92506020840135915060408401356001600160401b03811115613722575f80fd5b61372e8682870161300b565b9150509250925092565b5f805f805f60a0868803121561374c575f80fd5b61375586612f8b565b945061376360208701612f8b565b935060408601356001600160401b038082111561377e575f80fd5b61378a89838a01613150565b9450606088013591508082111561379f575f80fd5b6137ab89838a01613150565b935060808801359150808211156134a3575f80fd5b5f805f80606085870312156137d3575f80fd5b6137dc85612f8b565b93506020850135925060408501356001600160401b03811115613528575f80fd5b5f6020828403121561380d575f80fd5b813563ffffffff81168114611049575f80fd5b5f8060408385031215613831575f80fd5b61383a83612f8b565b946020939093013593505050565b5f805f805f60a0868803121561385c575f80fd5b61386586612f8b565b945061387360208701612f8b565b9350604086013592506060860135915060808601356001600160401b0381111561389b575f80fd5b6134b08882890161300b565b600181811c908216806138bb57607f821691505b6020821081036138d957634e487b7160e01b5f52602260045260245ffd5b50919050565b634e487b7160e01b5f52603260045260245ffd5b5f60208284031215613903575f80fd5b81516001600160401b03811115613918575f80fd5b8201601f81018413613928575f80fd5b805161393661302882612fe5565b81815285602083850101111561394a575f80fd5b610f19826020830160208601612f2c565b5f6020828403121561396b575f80fd5b8151611049816134bd565b634e487b7160e01b5f52601160045260245ffd5b65ffffffffffff8181168382160190808211156139a9576139a9613976565b5092915050565b818382375f9101908152919050565b5f815180845260208085019450602084015f5b838110156136215781516001600160a01b0316875295820195908201906001016139d2565b5f8282518085526020808601955060208260051b840101602086015f5b84811015613a4257601f19868403018952613a30838351612f4e565b98840198925090830190600101613a14565b5090979650505050505050565b608081525f613a6160808301876139bf565b8281036020840152613a7381876135f2565b90508281036040840152613a8781866139f7565b91505082606083015295945050505050565b83815260608101613aad60208301856132c3565b826040830152949350505050565b5f8251613acc818460208701612f2c565b9190910192915050565b84815260ff84166020820152826040820152608060608201525f610f026080830184612f4e565b85815260ff8516602082015283604082015260a060608201525f613b2460a0830185612f4e565b8281036080840152610e4b8185612f4e565b65ffffffffffff8281168282160390808211156139a9576139a9613976565b5f60208284031215613b65575f80fd5b5051919050565b818103818111156109eb576109eb613976565b808201808211156109eb576109eb613976565b60ff81811683821601908111156109eb576109eb613976565b600181815b80851115613be557815f1904821115613bcb57613bcb613976565b80851615613bd857918102915b93841c9390800290613bb0565b509250929050565b5f82613bfb575060016109eb565b81613c0757505f6109eb565b8160018114613c1d5760028114613c2757613c43565b60019150506109eb565b60ff841115613c3857613c38613976565b50506001821b6109eb565b5060208310610133831016604e8410600b8410161715613c66575081810a6109eb565b613c708383613bab565b805f1904821115613c8357613c83613976565b029392505050565b5f61104960ff841683613bed565b5f6101208b8352602060018060a01b038c1681850152816040850152613cc18285018c6139bf565b91508382036060850152613cd5828b6135f2565b915083820360808501528189518084528284019150828160051b850101838c015f5b83811015613d2557601f19878403018552613d13838351612f4e565b94860194925090850190600101613cf7565b505086810360a0880152613d39818c6139f7565b9450505050508560c08401528460e0840152828103610100840152613d5e8185612f4e565b9c9b505050505050505050505050565b634e487b7160e01b5f52601260045260245ffd5b80820281158282048414176109eb576109eb61397656fea2646970667358221220394fb68b4e5c1747781bea62651fedb55aaaf02ccade34bfc87766c5fb19152b64736f6c63430008180033","linkReferences":{}},"methodIdentifiers":{"BALLOT_TYPEHASH()":"deaaa7cc","CLOCK_MODE()":"4bf5d7e9","COUNTING_MODE()":"dd4e2ba5","EXTENDED_BALLOT_TYPEHASH()":"2fe3e261","bank()":"76cdb03b","cancel(address[],uint256[],bytes[],bytes32)":"452115d6","castVote(uint256,uint8)":"56781388","castVoteBySig(uint256,uint8,address,bytes)":"8ff262e3","castVoteWithReason(uint256,uint8,string)":"7b3c71d3","castVoteWithReasonAndParams(uint256,uint8,string,bytes)":"5f398a14","castVoteWithReasonAndParamsBySig(uint256,uint8,address,string,bytes,bytes)":"5b8d0e0d","clock()":"91ddadf4","eip712Domain()":"84b0196e","execute(address[],uint256[],bytes[],bytes32)":"2656227d","getProposalId(address[],uint256[],bytes[],bytes32)":"a8f8a668","getVotes(address,uint256)":"eb9019d4","getVotesWithParams(address,uint256,bytes)":"9a802a6d","hasVoted(uint256,address)":"43859632","hashProposal(address[],uint256[],bytes[],bytes32)":"c59057e4","name()":"06fdde03","nonces(address)":"7ecebe00","onERC1155BatchReceived(address,address,uint256[],uint256[],bytes)":"bc197c81","onERC1155Received(address,address,uint256,uint256,bytes)":"f23a6e61","onERC721Received(address,address,uint256,bytes)":"150b7a02","proposalDeadline(uint256)":"c01f9e37","proposalEta(uint256)":"ab58fb8e","proposalNeedsQueuing(uint256)":"a9a95294","proposalProposer(uint256)":"143489d0","proposalSnapshot(uint256)":"2d63f693","proposalThreshold()":"b58131b0","proposalVotes(uint256)":"544ffc9c","propose(address[],uint256[],bytes[],string)":"7d5e81e2","proposeWithdraw(address,uint256,string)":"cd74e222","queue(address[],uint256[],bytes[],bytes32)":"160cbed7","quorum(uint256)":"f8ce560a","quorumDenominator()":"97c3d334","quorumNumerator()":"a7713a70","quorumNumerator(uint256)":"60c4247f","relay(address,uint256,bytes)":"c28bc2fa","setProposalThreshold(uint256)":"ece40cc1","setVotingDelay(uint48)":"79051887","setVotingPeriod(uint32)":"e540d01d","state(uint256)":"3e4f49e6","supportsInterface(bytes4)":"01ffc9a7","token()":"fc0c546a","updateQuorumNumerator(uint256)":"06f3f9e6","version()":"54fd4d50","votingDelay()":"3932abb1","votingPeriod()":"02a251a3"},"id":64}